:020000040800F2
:10000000F84F00205D020008DB2C0008511E00089C
:10001000D92C0008F30500089D30000800000000FE
:100020000000000000000000000000009D0100082A
:10003000BD06000800000000F9010008892D000835
:1000400077020008770200087702000877020008AC
:10005000770200087702000877020008770200089C
:10006000770200087702000877020008770200088C
:10007000770200087702000877020008770200087C
:10008000770200087702000877020008770200086C
:10009000770200087702000877020008770200085C
:1000A000770200087702000877020008770200084C
:1000B000770200087702000877020008770200083C
:1000C000770200087702000877020008770200082C
:1000D000770200087702000877020008770200081C
:1000E000770200087702000877020008770200080C
:1000F00077020008770200087702000877020008FC
:1001000077020008770200087702000877020008EB
:1001100077020008770200087702000877020008DB
:1001200077020008770200087702000877020008CB
:1001300077020008000000000000000077020008BD
:1001400077020008770200087702000877020008AB
:10015000770200087702000877020008770200089B
:10016000770200087702000877020008770200088B
:10017000770200087702000800000000000000007D
:100180007702000877020008DFF80CD000F0ECF8E6
:1001900000480047755C0008F84F00202C4B196898
:1001A0000868B0E8F04F80F30988BFF36F8F4FF015
:1001B000000080F3118870470000000008480068C4
:1001C000006880F308884FF0000080F3148862B65E
:1001D00061B6BFF34F8FBFF36F8F00DF00BF00BF6B
:1001E00008ED00E0DFF80C00016841F470010160E7
:1001F000704700BF88ED00E0EFF30980BFF36F8F19
:10020000134B1A681EF0100F08BF20ED108A20E96A
:10021000F04F106009B44FF0500080F31188BFF325
:100220004F8FBFF36F8F07F021FB4FF0000080F37B
:10023000118809BC19680868B0E8F04F1EF0100F6B
:1002400008BFB0EC108A80F30988BFF36F8F704746
:1002500044000020EFF30580704700000648804707
:1002600006480047FEE7FEE7FEE7FEE7FEE7FEE79B
:10027000FEE7FEE7FEE7FEE7292E000889010008F9
:100280002DE9F05F0546002092469B4688460646CB
:10029000814640241BE0284641464746224600F05E
:1002A00053F853465A46C01A914110D31146184686
:1002B000224600F03AF82D1A67EB01084F46224615
:1002C0000120002100F031F817EB00094E41201EFB
:1002D000A4F10104DFDC484631462A464346BDE826
:1002E000F09F40EA01039B0703D009E008C9121FF1
:1002F00008C0042AFAD203E011F8013B00F8013BE0
:10030000521EF9D27047D2B201E000F8012B491E0B
:10031000FBD270470022F6E710B513460A460446A2
:100320001946FFF7F0FF204610BD202A04DB203AD3
:1003300000FA02F1002070479140C2F1200320FA38
:1003400003F3194390407047202A04DB203A21FA36
:1003500002F00021704721FA02F3D040C2F12002DE
:100360009140084319467047064C074D06E0E06887
:1003700040F0010394E8070098471034AC42F6D3EC
:10038000FFF706FF84540608A4540608002A08BF95
:1003900070472DE9F04114460E4605462F46681C6D
:1003A00085B201F035FEA02001F0F4FD01F094FECD
:1003B000380A01F0EFFD01F08FFEF8B201F0EAFD1E
:1003C00001F08AFE01F024FEA12001F0E3FD01F01E
:1003D00083FE002001F066FD074601F04DFE601E21
:1003E000040406F8017B240CD8D1BDE8F0812DE986
:1003F000F84380464FF000000E0007460446009088
:1004000018BFE94626D008EB040085B201F000FED3
:10041000A02001F0BFFD01F05FFE280A01F0BAFD47
:1004200001F05AFEE8B201F0B5FD01F055FE01F011
:10043000EFFDA12001F0AEFD01F04EFE002001F025
:1004400031FD054601F018FE09F80450601CC4B2E5
:10045000A642D8D8022E02D0042E07D014E09DF870
:1004600001009DF8001001EB00270DE09DF803004E
:100470009DF8021001EB00209DF8011001EB002017
:100480009DF8001001EB00273846BDE8F88310B551
:10049000044601F0BDFDA02001F07CFD01F01CFE32
:1004A000200A01F077FD01F017FEE0B201F072FDC5
:1004B00001F012FE01F0ACFDA12001F06BFD01F096
:1004C0000BFE002001F0EEFC044601F0D5FD2046B5
:1004D00010BD2DE9F0410646501E0F4685B238BFCB
:1004E000BDE8F08197F80080002401F091FDA02084
:1004F00001F050FD01F0F0FD300A01F04BFD01F07C
:10050000EBFDF0B201F046FD01F0E6FD404601F0E2
:1005100041FD01F0E1FD01F0AFFD03F0EDFA621CD9
:10052000D4B20A2CF9D3701C691E86B28DB207F1C1
:100530000107D7D2BDE8F0812DE9F04716000F463C
:1005400080464FF0000508BFBDE8F08708EB0500C6
:100550001FFA80F9E80027FA00F000F0FF0A0024F3
:1005600001F056FDA02001F015FD01F0B5FD4FEAA8
:10057000192001F00FFD01F0AFFD09F0FF0001F0BF
:1005800009FD01F0A9FD504601F004FD01F0A4FDB4
:1005900001F072FD03F0B0FA601CC4B20A2CF9D36A
:1005A000681CC5B2B542D1D3BDE8F08770B50E4620
:1005B0000546002401F02CFDA02001F0EBFC01F029
:1005C0008BFD280A01F0E6FC01F086FDE8B201F09F
:1005D000E1FC01F081FD304601F0DCFC01F07CFD26
:1005E00001F04AFD03F088FA601CC4B20A2CF9D36A
:1005F00070BDFEE70100064806D0012918BF70470C
:100600000122042100F0E1BE0022042100F0DDBE41
:100610000010024010B5084C01220421204600F0D1
:10062000D4FEC82005F07AFC20460022BDE8104028
:10063000042100F0CABE0000001002401949886879
:1006400000281CBF401E8860486800281CBF401E50
:100650004860C86800281CBF401EC86008690028A0
:100660001CBF401E08611048007818B90F48028866
:10067000521C02800E4A108800281CBF401E1080A9
:100680000C4A108800281CBF401E10800A4A1068BF
:1006900000281CBF401E1060088800281CBF401E98
:1006A00008807047BC0000201000002018000020C7
:1006B0001A0000201C0000202400002070470000C9
:1006C00030B583B041F2A20001F0D2FE48F65144A9
:1006D00052234F224FF4A0710020009404F0F0FD4B
:1006E000A323A022D9210020009404F0E9FDF023E7
:1006F0004F226D216A20009404F0E2FDF0230022D5
:10070000D921D620009404F0DBFD6A4D002048F288
:10071000C0440095CDE9014020231A4617212A2024
:1007200000F0ECF801200095CDE9014020231A46A5
:1007300017214A2000F0E2F802200095CDE901409F
:1007400020231A4617216A2000F0D8F803200095CC
:10075000CDE9014020231A4617218A2000F0CEF867
:100760005549009172201F236E22102105F02EFDA5
:1007700052480090822020236E22102105F026FD91
:100780004F48009092201F236E22102105F01EFD7D
:100790004C48009025236E222E21A22005F016FD44
:1007A000494900917C202023BE22102105F00EFD36
:1007B000464800908C202023BE22102105F006FD23
:1007C000434824230090BE221946A52005F0FEFCD4
:1007D000404D41F2A204E87A10F0010F17D03E48D4
:1007E00000903223642217210A2005F0EFFC5A22E0
:1007F0009A2311463720009404F062FD3748009098
:100800002D235A222321372005F0E0FC16E0962301
:10081000642221210A20009404F052FD3048009007
:100820001E23642217210A2005F0D0FC2D480090D9
:1008300040235A222321372005F0C8FCE87A10F023
:10084000020F17D0284800903823AA2225213720EC
:1008500005F0BCFCE223AA2226210520009404F026
:100860002FFD224800902523AA222121052005F0F2
:10087000ADFC16E0E223AA225C213720009404F0AC
:100880001FFD1B4825230090AA221946372005F09A
:100890009DFC184800903823AA222121052005F04C
:1008A00095FC1548807B03F091FC03B0BDE8304017
:1008B00003F0F8BBDC170108A88C0008A8AB0008FF
:1008C00048980008C2600208289C0008E8840008D4
:1008D0000E6E0208640100203813020898210208F5
:1008E000341C0208EE83020898380208C84802083F
:1008F000E62D020852520208000000202DE9FF4FA9
:1009000087B0D90801911698002102910999002910
:100910009CBF0BB0BDE8F08F01994843099948434B
:10092000009001980027002851D9DDE90001029AC2
:1009300002FB01000899059001EB020808F1010093
:10094000000A04904FEA182003901499059839443E
:10095000002410F801B0079800EBC70A8020E0409F
:1009600010EA0B0F2AD00AEB04056E1C08F10109EE
:100970002A2002F08DFC280A02F0C2FCE8B202F044
:10098000BFFC300A02F0BCFCF0B202F0B9FC2B2034
:1009900002F07EFC039802F0B3FC08F0FF0002F0C6
:1009A000AFFC049802F0ACFC09F0FF0002F0A8FCD8
:1009B0002C2002F06DFC159802F040F8601CC4B2C7
:1009C000082CCBD3781CC7B201988742BDD30298BC
:1009D0000999401CC0B202908842A2D30BB0BDE876
:1009E000F08F000070B50E2880F0E980DFE800F09D
:1009F00007254F376874808C98A4B0BCC8D481B1E7
:100A0000032912D0012918BF70BD042001F060FC39
:100A100078B10B2001F05CFC58B16C493720C873E9
:100A200070BD6A490820C87370BD68492320C87327
:100A300070BD66493120C87370BD41B103290AD029
:100A4000012918BF70BD32206049C87370BD5F496D
:100A50000920C87370BD5D492420C87370BD49B1B9
:100A600003290BD0012918BF70BD5948017821F026
:100A7000020116E055490D20C87370BD5448017835
:100A800041F00201017051490020887070BD51B1E0
:100A900003290CD0012918BF70BD4D48017821F001
:100AA0000101017070BD49490A20C87370BD4848F2
:100AB000017841F00101017044490020887070BD47
:100AC00031B1032918BF70BD28204049C87370BDDB
:100AD0003E491020C87370BD31B1032918BF70BDE5
:100AE00029203A49C87370BD38491120C87370BDB8
:100AF00031B1032918BF70BD2A203449C87370BDB5
:100B000032491220C87370BD31B1032918BF70BDBE
:100B10002B202E49C87370BD2C491320C87370BD9B
:100B200031B1032918BF70BD2C202849C87370BD8E
:100B300026491720C87370BD31B1032918BF70BD95
:100B40002D202249C87370BD20491820C87370BD7C
:100B500031B1032918BF70BD2E201C49C87370BD68
:100B60001A491920C87370BD31B1032918BF70BD6F
:100B70002F201649C87370BD14491A20C87370BD60
:100B800031B1012918BF70BD25201049C87370BD4F
:100B90000E491D20C87370BD31B1012918BF70BD49
:100BA00027200A49C87370BD084C0025257406F03B
:100BB000DBFC258306F0F8FC1B20E07370BD0449C4
:100BC000087820F00300087070BD000000000020CD
:100BD000150000202DE9F0474FF0000584B00E000D
:100BE00007462C461FD0A8464FF001094FF0070AD0
:100BF000CDE90079CDE902A869460E4800F01CF85D
:100C00000C4800F033FA02210A4800F0CFF90948F5
:100C100000F0C6F881B20D44012005F07FF9601C98
:100C2000C4B2B442E4D3B5FBF6F004B080B2BDE880
:100C3000F0870000A001002038B44FF0000CCDF880
:100C400000C090F83C20012A02BF022038BC704747
:100C5000012280F83C200A6807240368092A13D976
:100C6000DD680A3A02EB420204FA02F225EA0202C5
:100C7000DA600A788B680A3A02EB42029340026813
:100C8000D4682343D36010E01D6902EB420204FAEA
:100C900002F225EA02021A610A788B6802EB42022C
:100CA000934002681469234313614A681F24072A8A
:100CB00015D203685D6B521E02EB820204FA02F247
:100CC00025EA02025A630A8893B20A79521E02EB9D
:100CD000820293400268546B234353632BE0036802
:100CE0000D2A14D21D6BD21F02EB820204FA02F20B
:100CF00025EA02021A630A8893B20A79D21F02EB2C
:100D0000820293400268146B2343136313E0DD6A8D
:100D10000D3A02EB820204FA02F225EA0202DA62DA
:100D20000A8893B20A790D3A02EB82029340026874
:100D3000D46A2343D362174B0468154A9C4204BF0C
:100D40000C68122C03D1546844F480045460046885
:100D50009C4218D10B68102B18BF112B13D153686C
:100D600043F400035360096810290CD10A490B4A67
:100D70000968B1FBF2F101EB81014900009102D059
:100D8000491E0091FCD180F83CC038BC002070475F
:100D900000230140002001404000002040420F009D
:100DA0000068C06C704700002DE9F04104004FF06E
:100DB000000504BF0120BDE8F081564F206C0026DD
:100DC00028B9204600F0AEF8666484F83C60206CD8
:100DD00010F0100F18BF012504D084F83C6028469D
:100DE000BDE8F081206C20F4885040F002002064BF
:100DF0004948416821F440314160416862681143CB
:100E000041602068416821F4807141602068416838
:100E1000226941EA022141602068416821F0407165
:100E2000416020684168A268114341602068816880
:100E300021F40061816020688168E268114381606B
:100E4000A06AB8422068816821F0706181602068E2
:100E5000816808BF21F040510BD0A26A1143816024
:100E60002068816821F04051816020688168E26AD1
:100E7000114381602068816821F00201816020684F
:100E80008168227E41EA4201816094F820000028B6
:100E90002068416808BF21F400610ED041F4006170
:100EA00041602068416821F46041416020684168E8
:100EB0001A4B626A03EB4232114341602068C16AF7
:100EC00021F47001C1622068C16AA28B144B03EB4C
:100ED00002521143C1622068816821F4007181606F
:100EE0002068816894F8302041EA422181602068BE
:100EF000816821F48061816020688168626941EACB
:100F0000822181606664206C20F0020040F00100C4
:100F1000206462E70100000F0023014000E0FFFFB2
:100F20000000F0FF30B587B00024009401940294D3
:100F3000039404940068A0F18041B1F590311CBF86
:100F400007B030BD1548016841F480710160006848
:100F500000F4807005901248016841F004010160BE
:100F6000016801F004010591016841F0010101608F
:100F70000068032500F0010005900620CDE900057A
:100F80006946084800F0F2F8C020CDE9000569463E
:100F90000294054800F0EAF807B030BD443802403A
:100FA0003038024000080240000002402DE9F041C4
:100FB000044600680D4681684FF0000711F4806F09
:100FC0001CBF806810F4807F08D0206C40F02000A7
:100FD000206484F83C700120BDE8F08100F0FAF94B
:100FE00006462068006810F0020F16D1B5F1FF3FE9
:100FF0000ED025B100F0EEF9801BA84208D9206C74
:1010000040F00400206484F83C700320BDE8F081C7
:101010002068006810F0020FE8D021686FF012001D
:101020000860206C40F4007020642068816811F032
:10103000405F04BF217E002913D1C16A11F4700FF3
:101040001CBF806810F4806F0BD1206C20F480707E
:101050002064206C10F4805F03D1206C40F001000C
:1010600020644FF00000BDE8F081000081B0002254
:10107000009290F83C10012902BF022001B0704795
:10108000012180F83C1001688B6813F0010F0FD12B
:101090008B6843F001038B602F49304B0968B1FB2B
:1010A000F3F111EB4101009102D0491E0091FCD1F6
:1010B00001688B6813F0010F4BD0036C23F0010320
:1010C00023F4C06343F4807303644B6813F4806FAC
:1010D00005D0036C23F4005343F480530364036C82
:1010E00013F4805F08BF426403D0436C23F006030F
:1010F000436480F83C201A4A6FF022030B60516869
:10110000006811F01F0F174906D0884204BF81689C
:1011100011F0405F19D01CE0884212D0124A904270
:1011200004BFD1F8042312F01F0F0AD0A0F18042AF
:10113000B2F591320DD1D1F8041301F01F0110293D
:1011400007D2816811F0405F03D1816841F080418E
:101150008160002001B070474000002040420F0035
:101160000023014000200140002101402DE9F84FFB
:10117000002203248D4E8E4F0F25012303FA02F81F
:101180000B6803EA0803434540F00981D1F804C025
:10119000BCF1010F18BFBCF1020F05D0BCF1110F5B
:1011A00018BFBCF1120F1DD1D0F808904FEA420CC5
:1011B00004FA0CFA29EA0A09D1F80CA00AFA0CFC84
:1011C0004CEA090CC0F808C0D0F804C02CEA080C9E
:1011D00091F80480C8F3001808FA02F848EA0C0CE9
:1011E000C0F804C0D0F80C804FEA420CD1F808A037
:1011F00004FA0CF928EA09080AFA0CFA4AEA08087B
:10120000C0F80C80D1F80480B8F1020F18BFB8F113
:10121000120F15D14FEAD20800EB880ADAF820B095
:101220004FEA42784FEAD86805FA08FE2BEA0E0B1F
:10123000D1F810E00EFA08F848EA0B08CAF8208046
:10124000D0F8008028EA090891F8049009F0030911
:1012500009FA0CFC4CEA080CC0F800C0D1F804C034
:101260001CF0805F7ED0D6F800C04CF4804CC6F8ED
:1012700000C0D6F800C00CF4804CCDF800C022F0BD
:10128000030C0CF1804909F59839D9F808C84FEAE0
:1012900082784FEA187805FA08FA2CEA0A0AA0F1CF
:1012A000804CBCF5003C38D0A0F1804CBCF5013C32
:1012B00008BF4FF0010C30D0A0F1804CBCF5023CCF
:1012C00008BF4FF0020C28D0A0F1804CBCF5033CC5
:1012D00008BF4FF0030C20D0A0F1804CBCF5043CBB
:1012E00008BF4FF0040C18D0A0F1804CBCF5053CB1
:1012F00008BF4FF0050C10D0A0F1804CBCF5063CA7
:1013000008BF4FF0060C08D0A0F1804CBCF5073C9C
:101310000CBF4FF0070C4FF0080C0CFA08FC4CEA1D
:101320000A0CC9F808C8D7F800C0D1F804802CEA24
:10133000030C18F4803F18BF4CEA030CC7F800C038
:10134000DFF87080D8F800C0D1F804902CEA030CC4
:1013500019F4003F18BF4CEA030CC8F800C0DFF8CE
:10136000588000E01BE0D8F800C0D1F804902CEAC7
:10137000030C19F4801F18BF4CEA030CC8F800C016
:10138000DFF83880D8F800C0D1F804902CEA030CBC
:1013900019F4001F18BF4CEA030CC8F800C0521C17
:1013A000102AFFF4EAAEBDE8F88F0000443802408E
:1013B000003C0140043C0140083C01400C3C014021
:1013C0000069084018BF01207047002A08BF0904BF
:1013D0008161704701488068704700003400002038
:1013E000002804BF0120704770B504464CF6CC407D
:1013F00021680860216845F255500860D4E9000171
:1014000041602168A0688860FFF7E4FF0546206816
:10141000C06850B1FFF7DEFF401B302801D9032020
:1014200070BD2068C0680028F4D121684AF6AA205F
:101430000860002070BD00000248816802781144F5
:1014400081607047340000200B4810B5016841F4FA
:1014500000710160016841F480610160016841F43C
:1014600080710160032000F079F80F2000F006F889
:1014700000F024F8002010BD003C024070B50D4D76
:1014800004464FF47A712878B1FBF0F00A490968F4
:10149000B1FBF0F000F060FB48B9102C07D200223D
:1014A0002146501E00F028F800206C6070BD01201D
:1014B00070BD000034000020400000200C4882B0C5
:1014C000016841F480410160006800F480400090B0
:1014D0000848016841F0805101600068002200F076
:1014E000805000900F21901E02B000F005B800005F
:1014F0004438024040380240174B10B41B68C3F315
:101500000223C3F1070CBCF1040F88BF4FF0040C99
:101510001C1D072C34BF0023DB1E012404FA0CFC25
:10152000ACF1010C0CEA0101994004FA03F35B1ED3
:101530001A40114300284FEA0111A1BF00F1E02039
:1015400080F8001410BC704700F00F0000F1E0209C
:1015500080F8141D10BC70470CED00E0074A00F045
:10156000070011684FF6FF03194041EA002040F0E0
:10157000FD7040F080601060704700000CED00E0EE
:10158000002804BF012070472DE9F047DFF83C91A7
:1015900004460D46D9F80000CFB200F00F00A84273
:1015A00007D289F80070D9F8000000F00F00A842B7
:1015B00063D12068464E10F0020F14D010F0040FD3
:1015C00003D0306840F4E0503060207810F0080F0D
:1015D00003D0306840F4604030603068A16820F08B
:1015E000F00008433060207810F0010F37D06068B9
:1015F0003849012823D0022818BF0328096823D0BE
:1016000011F0020F39D0316821F0030141EA0000E6
:101610003060FFF7DFFE80463068616800F00C0044
:10162000B0EB810F18BF41F2883A18D0FFF7D2FE15
:10163000A0EB080050450BD90320BDE8F0870968EE
:1016400011F4003FDFD118E011F0007FDBD114E08E
:101650003068616800F00C00B0EB810FE6D1D9F87A
:10166000000000F00F00A8420AD989F80070D9F8EC
:10167000000000F00F00A84202D00120BDE8F08772
:10168000207810F0040F05D03068E16820F4E050B5
:1016900008433060207810F0080F06D030682169C8
:1016A00020F4604040EAC100306000F01BF831686F
:1016B000094AC1F30311515CC84008490860084851
:1016C0000068FFF7DBFE0020BDE8F087003C024029
:1016D000083802400038024040540608400000200C
:1016E000380000201848006810F00C01174808BFA7
:1016F0007047174B042904BF18467047082918BFC4
:10170000704710B5134C216801F03F02216811F4B5
:10171000800F08D02068C0F38810A0FB03010023CD
:10172000FEF7AEFD07E021680023C1F38811A1FB9D
:101730000001FEF7A5FD2168C1F30141491C4900E4
:10174000B0FBF1F010BD0000083802400024F400A6
:1017500000127A0004380240002804BF01207047BC
:101760002DE9F84F04460078DFF8C88310F0010F28
:10177000A8F1040558D008F10400016801F00C013B
:10178000042909D0006800F00C0008280DD1D8F811
:10179000000010F4800F08D0286810F4003F43D0F8
:1017A0006068002800F0C0813EE06068B0F5803FCE
:1017B00019D0B0F5A02F28680CBF40F4802020F489
:1017C0008030286028680CBF40F4803020F48020EE
:1017D00028606068B8B1FFF7FDFD0646286810F480
:1017E000003F05D020E0286840F480302860F0E712
:1017F000FFF7F0FD801B642800F23781286810F4A1
:10180000003FF5D010E0FFF7E5FD0646286810F42C
:10181000003F09D0FFF7DEFD801B642800F2258120
:10182000286810F4003FF5D12078C34F10F0020F64
:101830004FF0000947D0C148016811F00C0F16D0D5
:10184000006800F00C00082804BFD8F8000010F46D
:10185000800F0CD0E06820B34FF001003860FFF734
:10186000B9FD0646286810F0020F09D011E028687B
:1018700010F0020F1CBFE06801280AD000F054B934
:10188000FFF7A8FD801B02287ED8286810F0020F01
:10189000F6D02868216920F0F80040EAC1002860ED
:1018A00011E0C7F80090FFF795FD0646286810F094
:1018B000020F08D0FFF78EFD801B022864D828682D
:1018C00010F0020FF6D1207810F0080F2AD09C48B3
:1018D0009C4E616999B101210160FFF77BFD824651
:1018E000306810F0020F1DD1FFF774FDA0EB0A0065
:1018F000022849D8306810F0020FF5D012E0C0F885
:101900000090FFF767FD8246306810F0020F09D0A3
:10191000FFF760FDA0EB0A00022835D8306810F010
:10192000020FF5D1207810F0040F7CD086480026F5
:10193000006810F0805F09D18348016841F0805150
:1019400001600068012600F080500090DFF8FCB1D3
:10195000DBF8000010F4807F1AD1DBF8000040F4BF
:101960008070CBF80000FFF735FD8246DBF8000001
:1019700010F4807F0CD1FFF72DFDA0EB0A000228A8
:1019800073D8DBF8000000E06FE010F4807FF2D045
:10199000A068DFF8BCB101281DD00528DBF80000E5
:1019A0000CBF40F0040020F00100CBF80000DBF891
:1019B00000000CBF40F0010020F00400CBF8000054
:1019C000A068E8B1FFF706FD8246DBF8000010F0E2
:1019D000020F07D02BE0DBF8000040F00100CBF84D
:1019E0000000EDE7FFF7F6FCA0EB0A0141F28830BA
:1019F00081423AD8DBF8000010F0020FF2D016E076
:101A0000FFF7E8FC8246DBF8000010F0020F0ED072
:101A1000FFF7E0FCA0EB0A0141F28830814224D8B4
:101A2000DBF8000000E008E010F0020FF0D126B172
:101A30004548016821F080510160A069E8B33F4941
:101A4000096801F00C0108294ED00228C7F86090FF
:101A50000ED0FFF7BFFC0446286810F0007F66D068
:101A6000FFF7B8FC001B022839D90320BDE8F88F26
:101A7000FFF7B0FC0646286810F0007F08D0FFF79B
:101A8000A9FC801B0228F0D8286810F0007FF6D14E
:101A9000D4E907010843A16A2E4A490802EB014133
:101AA000626A41EA8211084394F82C1040EA01600E
:101AB000C8F800000120386600E038E0FFF78AFC33
:101AC0000446286810F0007F31D1FFF783FC001B2B
:101AD0000228CAD8286810F0007FF6D027E02868CE
:101AE00010F0007FBCD122E0012808BFBDE8F88FCC
:101AF000D8F80000E26900F48001914214D1226A12
:101B000000F03F0191420FD147F6C071626A014077
:101B1000914209D1A26A00F44031914204D1E16AB4
:101B200000F07060884202D00120BDE8F88F0020EC
:101B3000BDE8F88F043802400000474208380240F0
:101B4000800E474274380240403802400070004026
:101B5000703802400000FFFF401EB0F1807F24BFBC
:101B6000012070474FF0E0214861054AF02082F8DB
:101B7000140D0020886107200861002070470000D4
:101B80000FE000E02DE9F041044690F83C000D46DE
:101B9000012804BF0220BDE8F081012684F83C60E2
:101BA000022084F83D004AB1042A19D0554FDFF8CD
:101BB00058C1082A28D00C2A69D09BE0206801F07F
:101BC000B7F92068816941F0080181612068816965
:101BD00021F004018161206881692A69114311E0C3
:101BE000206801F0DDF92068816941F400618161BC
:101BF0002068816921F480618161206881692A6996
:101C000041EA0221816175E02068016A21F4807156
:101C10000162016A4268C369D5F8008023F073034A
:101C200048EA0303D5F8088021F4007141EA08214D
:101C3000B84218BF604507D1D5F80C8021F4006187
:101C400041EA082121F48061B84218BF604509D1FA
:101C5000D5F814C022F4405242EA0C12D5F818C04C
:101C600042EA0C124260C3616A68C2630162206882
:101C7000C16941F00801C1612068C16921F0040116
:101C8000C1612068C1692A6941EA020131E0206826
:101C9000016A21F480510162036A4168C269D5F882
:101CA000008022F4E64242EA0822D5F8088023F4B4
:101CB000005343EA0833B84218BF604505D1D5F850
:101CC00014C021F4804141EA8C114160C26169680D
:101CD000016403622068C16941F40061C161206848
:101CE000C16921F48061C1612068C1692A6941EA42
:101CF0000221C16184F83D604FF0000084F83C008F
:101D0000BDE8F0810000014000040140002804BF4C
:101D10000120704710B5044690F83D0028B9002016
:101D200084F83C00204600F00CF8022084F83D00C6
:101D3000211D206801F086F8012084F83D00002074
:101D400010BD704710B504460068012201F0E0F8AC
:101D50002168A1F18040B0F580301CBFA1F1804026
:101D6000B0F5823003D1486C40F4004048642068EC
:101D7000816801F00701062903D0016841F00101E3
:101D80000160002010BD2DE9F843044690F83900A9
:101D90001E4690460D46202857D1002D12BFB8F19F
:101DA000000F0120BDE8F88394F8380001284CD0DA
:101DB000012084F838004FF00009C4F83C9021203D
:101DC00084F83900FFF706FBA4F824800746A4F83E
:101DD000268084F83890E08C30B3E08C401EE0849C
:101DE000A0683B46B0F5805F4FF000024FF08001E5
:101DF0002046009603D001F017F970B11CE001F005
:101E000013F9C8B928882168C0F308004860206920
:101E1000002814BF6D1CAD1C03E0216815F8010BF0
:101E20004860E08C0028D8D13B4600224021204663
:101E3000009601F0F9F810B10320BDE8F8832020E6
:101E400084F839000020BDE8F8830220BDE8F8835B
:101E5000FEE70000114810B5016886B041F00201AC
:101E6000016000680E4C00F002000590C020009058
:101E70000120019002900220039069462046FFF75E
:101E800075F9012280212046FFF79FFA01224021A7
:101E90002046FFF79AFA06B010BD00003038024025
:101EA000000402402DE9F04385B000248027CDE9ED
:101EB0000074374E8046694630460294FFF756F963
:101EC0000025002240213046FFF77FFA01F024FE72
:101ED000012240213046FFF778FA6006040E802187
:101EE0003046FFF76DFA00281CBF601CC4B201F039
:101EF0000EFE681CC5B2082DE3D301254FF0020980
:101F0000B8F1000F4FF000024FF04001304620D0F2
:101F1000FFF75BFACDE90075CDE902596946304615
:101F2000FFF724F9002280213046FFF74EFA01F036
:101F3000F3FD012240213046FFF747FA01F0ECFDA6
:101F4000002240213046FFF740FA05B02046BDE8A8
:101F5000F083FFF73AFACDE90075CDE902596946F9
:101F60003046FFF703F9012280213046FFF72DFAB2
:101F700001F0D2FD012240213046FFF726FA01F0A0
:101F8000CBFD002240213046FFF71FFADDE70000BD
:101F90000004024070B586B0054680200090012004
:101FA0000221CDE90201194E019069463046FFF742
:101FB000DDF8002240213046FFF707FA002415F033
:101FC000800F05D0012280213046FFF7FEF904E0A2
:101FD000002280213046FFF7F8F96806050E01F06F
:101FE0009BFD012240213046FFF7EFF901F094FDFF
:101FF000002240213046FFF7E8F901F08DFD601C1A
:10200000C4B2082CDBD306B070BD0000000402404F
:1020100010B586B08020009001200221CDE9020198
:10202000144C019069462046FFF7A0F80122802158
:102030002046FFF7CAF9012240212046FFF7C5F9E3
:1020400001F06AFD01F068FD002280212046FFF7C3
:10205000BCF901F061FD01F05FFD00224021204646
:10206000FFF7B3F901F058FD06B0BDE8104001F0EC
:1020700053BD00000004024010B586B080200090DF
:1020800001200221CDE90201124C0190694620464F
:10209000FFF76CF8002240212046FFF796F9002256
:1020A00080212046FFF791F901F036FD01F034FD63
:1020B000012240212046FFF788F901228021204695
:1020C000FFF783F901F028FD06B0BDE8104001F0EC
:1020D00023BD00000004024070B586B000248025B6
:1020E000CDE900542A4E694630460294FFF73EF887
:1020F000012280213046FFF768F901F008FD012236
:1021000040213046FFF761F901F001FD80213046A2
:10211000FFF756F9002832D0601CC4B2FA2C28D937
:1021200001200221CDE90050CDE902016946304687
:10213000FFF71CF8002240213046FFF746F9002245
:1021400080213046FFF741F901F0E6FC01F0E4FCA4
:10215000012240213046FFF738F901228021304624
:10216000FFF733F901F0D8FC01F0D6FC06B00120EE
:1021700070BD80213046FFF723F90028CCD1002222
:1021800040213046FFF721F906B0002070BD000065
:10219000000402402DE9F041354F364E364D002403
:1021A0004FF4007800224FF470713846FFF70DF9B4
:1021B00028FA04F101223846FFF707F94FF480614D
:1021C0003046FFF7FDF8002815F8240014BF40F052
:1021D000010020F0010005F824004FF400713046A2
:1021E000FFF7EEF805EB84010028087C14BF40F0EF
:1021F000010020F0010008744FF480713046FFF7B1
:10220000DFF800281FBF05EB840191F8200040F0A3
:10221000010081F8200001BF05EB840090F8201038
:1022200021F0010180F82010601CC4B2042CB9D345
:1022300008213046FFF7C4F8002895F8300014BF95
:1022400020F0010040F0010085F830004FF40061FB
:102250003046FFF7B5F8002895F8340014BF20F099
:10226000010040F0010085F83400BDE8F081000075
:102270000008024000000240C84A00200020064A30
:10228000014612F8213013F0020F18BF0120491C3B
:10229000C9B20D29F5D97047C84A002010B500F021
:1022A00053F80020DFF824C003460CEB80014B708C
:1022B0008B701CF8202022F03E020CF82020401CDD
:1022C000C0B2CB700D28F0D910BD0000C84A002064
:1022D000044A0146002012F8211011F0100F18BF17
:1022E00001207047C84A0020064B002213F8201036
:1022F00011F0040F04D021F0060103F82010012290
:1023000010467047C84A0020064B002213F82010E0
:1023100011F0200F04D021F0220103F82010012237
:1023200010467047C84A0020064B002213F82010C0
:1023300011F0080F04D021F00A0103F82010012247
:1023400010467047C84A002070B586B04FF47070D0
:10235000009001200024124D0190029003940494F7
:1023600069462846FEF702FF00224FF470712846A6
:10237000FFF72BF84FF4E060CDE90004094E022589
:10238000694602953046FEF7F1FE40F60801CDE9B8
:102390000014029569463046FEF7E8FE06B070BDAF
:1023A000000802400000024010B5FFF7F3FE0024D1
:1023B000204600F005F8601CC4B20D2CF8D910BD01
:1023C00030B42A4C4FF0000C04EB8001CA78012A8B
:1023D0000ED00125022A1EBFCD7030BC70478A780E
:1023E000C82A28D2521CD2B28A70C82A23D11CE033
:1023F00014F8202012F0010F13D04B785B1CDBB2D5
:102400004B70022B9CBF30BC704742F0160204F8A0
:10241000202081F802C081F801C00220C87030BCC1
:10242000704781F801C030BC704714F8202042F09A
:10243000220204F8202014F8202012F0010FF0D11D
:102440004B785B1CDBB24B70022B9CBF30BC7047DF
:1024500022F0100242F00A0204F8202081F802C0A3
:1024600081F801C0CD7030BC70470000C84A002020
:1024700070B506460021EF2340F23F12084600F0F7
:10248000ABF92C2000F004FF00250024304600F0BA
:10249000D5FA304600F0D2FA304600F0CFFA304696
:1024A00000F0CCFA304600F0C9FA304600F0C6FA27
:1024B000304600F0C3FA304600F0C0FA304600F073
:1024C000BDFA304600F0BAFA641C202CDED36D1C35
:1024D000F02DDAD370BD00002DE9F04186B0012661
:1024E0001020CDE900060225B84FCDE90265002491
:1024F00069463846FEF73AFE2021009100210395F7
:10250000CDE9011669463846FEF730FE68020090B4
:10251000CDE90165AE4F694638460395FEF726FEC4
:102520000096CDE90165694638460395FEF71EFE23
:1025300080200090CDE90165DFF898826946404629
:102540000395FEF713FE04200090CDE9016569466E
:1025500038460395FEF70AFECDE900560295694616
:1025600038460395FEF702FE4FF47F40CDE90006A2
:10257000CDE9026569464046FEF7F8FD01221146A5
:102580003846FEF722FF01F0B7FA00220121384653
:10259000FEF71BFF01F0B0FA012211463846FEF7A4
:1025A00014FF01F0A9FACF2000F072FE002000F025
:1025B000A7FEC12000F0A4FE302000F0A1FEED2017
:1025C00000F066FE642000F09BFE032000F098FE01
:1025D000122000F095FE812000F092FECB2000F04A
:1025E00057FE392000F08CFE2C2000F089FE0020E0
:1025F00000F086FE342000F083FE022000F080FE12
:10260000F72000F045FE202000F07AFEEA2000F0DE
:102610003FFE002000F074FE002000F071FE362026
:1026200000F036FEB82000F06BFEB62000F030FE61
:102630000A2000F065FEA22000F062FEC02000F03B
:1026400027FE212000F05CFEC12000F021FE1120B9
:1026500000F056FEC52000F01BFE352000F050FEB5
:10266000322000F04DFEC72000F012FEB22000F034
:1026700047FEF22000F00CFE002000F041FEF620A4
:1026800000F006FE012000F03BFE312000F038FE95
:10269000002000F035FE3A2000F0FAFD652000F041
:1026A0002FFEB12000F0F4FD002000F029FE1920DB
:1026B00000F026FEE82000F0EBFD852000F020FE73
:1026C000102000F01DFE7A2000F01AFEB42000F069
:1026D000DFFD002000F014FE352000F0D9FD0020C1
:1026E00000F00EFEE02000F0D3FD002000F008FE18
:1026F000212000F005FE1E2000F002FE0B2000F05D
:10270000FFFD0E2000F0FCFD092000F0F9FD4A203D
:1027100000F0F6FDC52000F0F3FD3A2000F0F0FDDA
:10272000092000F0EDFD0B2000F0EAFD042000F090
:10273000E7FD162000F0E4FD172000F0E1FD002089
:1027400000F0DEFDE12000F0A3FD0F2000F0D8FD39
:102750001E2000F0D5FD212000F0D2FD042000F065
:10276000CFFD112000F0CCFD072000F0C9FD352081
:1027700000F0C6FD762000F0C3FD452000F0C0FD4E
:10278000062000F0BDFD142000F0BAFD0B2000F083
:10279000B7FD272000F0B4FD382000F0B1FD0F2078
:1027A00000F0AEFD112000F073FD01F0A5F9601CF2
:1027B000C4B2192CF9D3292000F06AFD01F09CF96C
:1027C0002C2000F065FD06B0BDE8F0810008024055
:1027D00000040240001002402DE9F04107461C466B
:1027E00015460E462A2000F053FD380A00F088FDF9
:1027F000F8B200F085FD280A00F082FDE8B200F092
:102800007FFD2B2000F044FD300A00F079FDF0B28E
:1028100000F076FD200A00F073FDE0B2BDE8F04163
:1028200000F06EBD02462848284B092A28BF704791
:10283000DFE802F04905101B2631373D430001292E
:1028400003D001221102FEF7C0BD00224FF48071B7
:10285000FEF7BBBD012903D001225102FEF7B5BD31
:1028600000224FF40071FEF7B0BD012903D0012210
:102870009102FEF7AABD00224FF48061FEF7A5BDCC
:10288000012903D00122D102FEF79FBD00224FF49F
:102890000061FEF79ABD00224FF400411846FEF792
:1028A00094BD00224FF480411846FEF78EBD0022F1
:1028B0004FF400511846FEF788BD00224FF48051B6
:1028C0001846FEF782BD7047000C0240000402402B
:1028D00010B5294C002838D001281FD0022818BF75
:1028E00010BD012251032046FEF76FFD01221103A6
:1028F0002046FEF76AFD012291032046FEF765FDA2
:1029000000224FF480412046FEF75FFD2046BDE8DF
:10291000104000224FF40051FEF757BD0122110371
:102920002046FEF752FD012291032046FEF74DFDA1
:10293000012251032046FEF748FD2046BDE8104025
:1029400000224FF40051FEF740BD012291032046C2
:10295000FEF73BFD012251032046FEF736FD012222
:1029600011032046FEF731FD2046BDE8104000224D
:102970004FF48051FEF729BD000C024070B52D4D7B
:102980002D4C60B30022A1152846FEF71EFD002243
:1029900061152846FEF719FD002221152846FEF78D
:1029A00014FD0022E1142846FEF70FFD00224FF42B
:1029B00000412046FEF709FD00224FF480412046E9
:1029C000FEF703FD00224FF400512046FEF7FDFC08
:1029D0000022A1142046BDE87040FEF7F6BC01229B
:1029E00011022846FEF7F1FC012251022846FEF7AB
:1029F000ECFC012291022846FEF7E7FC0122D102FD
:102A00002846FEF7E2FC0122D1032046FEF7DDFC5A
:102A1000012291032046FEF7D8FC012251032046F3
:102A2000FEF7D3FC2046BDE8704001221103FEF7FB
:102A3000CCBC0000000C0240000402402DE9F04133
:102A40000446C0F3072004F087F90546E0B204F01D
:102A500083F91E4F064600224FF480613846FEF788
:102A6000B4FC1B4C012280212046FEF7AEFC012263
:102A700002213846FEF7A9FC6069C0B26061606956
:102A800040EA05206061002204213846FEF79DFCE3
:102A9000012204213846FEF798FC6069C0B26061EB
:102AA000606940EA06206061002204213846FEF792
:102AB0008CFC012204213846FEF787FC3846BDE82D
:102AC000F04101229102FEF780BC000000040240A8
:102AD000001002404AF6AA24044D00F0E1FA2868EA
:102AE00004600A2003F01AFAF7E70000E80100206A
:102AF00038B541F2A200FFF7BBFC48F65144A323CE
:102B0000A022D9216A20009402F0DAFBF0234F22A0
:102B10006D216A20009402F0D3FBF0234F22D921CB
:102B2000D620009402F0CCFB5949009172201F235B
:102B30006E22102103F04AFB564800908220202389
:102B40006E22102103F042FB5348009092201F2375
:102B50006E22102103F03AFB5048009025236E228C
:102B60002E21A22003F032FB4D4900917C2020232E
:102B7000BE22102103F02AFB4A4800908C2020231B
:102B8000BE22102103F022FB474824230090BE22DE
:102B90001946A52003F01AFB444D41F2A204E87A3D
:102BA00010F0010F17D04248009032236422172101
:102BB0000A2003F00BFB5A229A2311463720009477
:102BC00002F07EFB3B4800902D235A222321372020
:102BD00003F0FCFA16E09623642221210A200094D7
:102BE00002F06EFB344800901E23642217210A2055
:102BF00003F0ECFA3148009040235A222321372079
:102C000003F0E4FAE87A10F0020F17D02C48009095
:102C10003823AA222521372003F0D8FAE223AA225A
:102C200026210520009402F04BFB26480090252326
:102C3000AA222121052003F0C9FA16E0E223AA22E4
:102C40005C213720009402F03BFB1F4825230090B5
:102C5000AA221946372003F0B9FA1C4800903823FD
:102C6000AA222121052003F0B1FA1948807B01F046
:102C7000ADFA01F083F90020FFF780FE15480078D7
:102C8000BDE83840401CC0B20121FFF7CBBD0000B9
:102C9000A88C0008A8AB000848980008C260020889
:102CA000289C0008E88400080E6E020870010020CD
:102CB0003813020898210208341C0208EE83020827
:102CC00098380208C8480208E62D02085252020845
:102CD0000000002028000020FEE77047F0B587B014
:102CE0000620009002200121CDE90101CDE9030178
:102CF000002669462048FEF739FA2048016841F06D
:102D00000101016000684FF0804100F00100059072
:102D10001B48016041F2A5514660C0E90316866078
:102D2000FEF7F4FF174D04200024686008206E634E
:102D30002E616027A86204EBC40025F8206005EB33
:102D4000800000F108014680C0E902768661426891
:102D50000B48FEF717FF641C022CECDB002404EB8D
:102D6000C40005EB800041680548FEF7EBFF641CDA
:102D7000022CF4DB07B0F0BD0000024040380240F6
:102D8000484B0020004B002010B5FEF755FB05F026
:102D900071F9012808BF10BDBDE8104004F032BE33
:102DA00030B593B0002402941D48019407940C940C
:102DB0000D940E940F941094016841F080510160BD
:102DC000006800F0805011901648016841F480417D
:102DD00001600068102100F4804011900A200090EA
:102DE0000120CDE903010225CDE905050820089061
:102DF000A820CDE9090504200B906846FEF7ACFC3D
:102E00000F20CDE90C054FF4A050CDE90E40E802AB
:102E1000109005210CA8FEF7B3FB13B030BD0000E5
:102E200040380240007000400448016841F47001DD
:102E3000016003494FF000600860704788ED00E0D2
:102E400008ED00E0F0B402682C4B2D4C2D4D2E4EB9
:102E5000DFF8B8C0984218BFB0F1804F07D0A04249
:102E600018BFA84203D0B04218BF604504D14F68D4
:102E700022F0700247EA0202984218BFB0F1804F78
:102E800025D0A04218BFA84221D0B04218BF60454B
:102E90001DD0A0F18044B4F5A0341CBFA0F1804443
:102EA000B4F5A23413D0A0F18044B4F5A4341CBF0F
:102EB000A0F18044B4F5C05409D0A0F18044B4F529
:102EC000E0541CBFA0F18044B4F5005403D1CC6899
:102ED00022F4407222434C6922F0800222430260B5
:102EE0008A68C2620A688262984212BF60450969B4
:102EF00001634FF001014161F0BC704700000140E7
:102F00000004004000080040000C004000040140A4
:102F100001F01F010123D0F820C08B402CEA0303ED
:102F20000362036A02FA01F119430162704700006B
:102F300070B4026A22F001020262036A4268D0F8A9
:102F400018C00C682CF0730C44EA0C0C8C6823F04D
:102F500002032343104C114DA04218BFA84206D1D2
:102F6000CE6823F0080346EA030323F00403A042DB
:102F700018BFA84207D14C6922F4407244EA020209
:102F80008C6944EA02024260C0F818C04968416393
:102F9000036270BC70470000000001400004014063
:102FA00070B4026A22F010020262036A4268D0F82A
:102FB00018C00C682CF4E64C4CEA042C8C6823F006
:102FC000200343EA0413104C104DA04218BFA8423E
:102FD00006D1CE6823F0800343EA061323F04003B2
:102FE000A04218BFA84207D14C6922F4406242EACD
:102FF00084028C6942EA84024260C0F818C04968C1
:103000008163036270BC704700000140000401400E
:1030100010B503F03BFE002808BF10BDD0E9001238
:10302000BDE81040104608472DE9F041044600680D
:10303000069D1E4600681746884631EA00000CBF10
:1030400001200020B84226D1B5F1FF3F1AD025B1AA
:10305000FEF7C0F9801BA84214D92068C16821F48A
:10306000D071C1602068416921F0010141612020D7
:1030700084F8390084F83A00002084F838000320EE
:10308000BDE8F0812068006838EA00000CBF01202C
:103090000020B842D8D00020BDE8F081FEE7000053
:1030A0002DE9F041FFF7EAF8754F764D002640B361
:1030B00004F05AFA7448417A4FF47A7011FB00F028
:1030C000386004F071FA00242046FFF70DF918B1BA
:1030D00000212046FDF786FC2046FFF725F918B1B0
:1030E00001212046FDF77EFC2046FFF70DF918B1BF
:1030F00003212046FDF776FC601CC4B20D2CE3D9F9
:1031000033E004F031FA6C8B04F04EFA002C02BF6D
:10311000E87D0628342027D03868002802BFE87DE3
:103120000028302020D004F01FFAAC8B04F03CFAC9
:10313000002C02BFE87D0728352015D004F050F997
:10314000E87403210620FDF745FD0446032107200E
:10315000FDF740FD6A7A012182B34FF0020C012A8B
:1031600030D0022A36D03BE0E87348484FF01402D2
:10317000007810F0010F08D0A978002903BF0A21B8
:10318000E973AA70491E18BFA97010F0020F08D089
:10319000A878002803BF0D20E873AA70401E18BF4E
:1031A000A870E87D0B2828BFBDE8F081DFE800F0BB
:1031B000242830343844484C502C5400B4F5506F17
:1031C0000ED20CE040F64963984206D2B4F5506F37
:1031D00006D204E0B4F5506F01D3614600E03146F9
:1031E0002975AB7BE87C834208BF9142BDD0A873B0
:1031F00069724FF03300B7E7BDE8F04102F078BAEA
:10320000BDE8F04102F0B2B8BDE8F04100F08ABC80
:10321000BDE8F04103F05EB8BDE8F04103F0B2BE96
:10322000E87B312828D10020E875AE75FFF760FCF7
:103230000120FFF74DFB1FE0BDE8F04100F014BD99
:10324000BDE8F04103F072BFBDE8F04100F09CB86A
:10325000BDE8F04100F0E2B8E87B082802D0312850
:1032600003D009E0FDF72CFA06E00520E8750320FD
:10327000A8750120FFF72CFBEE73BDE8F08100007C
:10328000C000002000000020700100201500002078
:1032900070B5C0B203F060FD174E054600224FF432
:1032A00080613046FEF791F8144C002280212046C0
:1032B000FEF78BF8012202213046FEF786F860699E
:1032C000C0B26061606940EA0520606100220421AB
:1032D0003046FEF77AF8012204213046FEF775F8F1
:1032E000012280212046FEF770F83046BDE870408C
:1032F00001229102FEF769B800040240001002406A
:1033000070B5C0B203F028FD154E054600224FF4FB
:1033100080613046FEF759F8124C01228021204688
:10332000FEF753F8012202213046FEF74EF860699D
:10333000C0B26061606940EA05206061002204213A
:103340003046FEF742F8012204213046FEF73DF8F0
:103350003046BDE8704001229102FEF736B8000009
:10336000000402400010024002E008C8121F08C119
:10337000002AFAD170477047002001E001C1121FF6
:10338000002AFBD17047000038B5204C0025607A38
:1033900028B1FFF7ADFB0020E075A57533E0E07BB9
:1033A0001B2804BF0220E0752DD035282BD14FF605
:1033B000FF70FFF75DF8164800901D235222BB21D5
:1033C000432002F003FF40F6B83002F0A7FD02F000
:1033D000C9FE04F0C9F8062001F094FF04F0E4F8F7
:1033E00004F0C2F8022001F08DFF04F0DDF80022A5
:1033F00010210848FDF7E9FF002220210648FDF7CB
:10340000E4FF0120A074E57338BD00000000002037
:1034100062A9010800080240000002402DE9F04FB7
:10342000FE4E85B03046F37B427C312B19D0FD4DEA
:10343000418CFB4FC08B4FF47A7C4FF060084FF00B
:1034400070094FF0800A4FF0D00B05F51B540A2B82
:1034500017D00D2B00F07381232B00F0D98200F0E0
:10346000E3BAB07D002804BF0020F07500F0DC82D4
:10347000002A0CBF01200020707401F0BDF900F09B
:10348000D3BA002A7DD0401D80B2F0835021B0FB1A
:10349000FCF201914AF2D73101FB0011890DA7FB23
:1034A00001C3DB085B4203EB830301EB430189B2F9
:1034B00004914CF6CD414143C90CA7FB01C3DB0885
:1034C0005B4203EB830301EB430189B20391A7FB4A
:1034D0000031C908494201EB810100EB410080B293
:1034E0000290C2EB421005EB401000901F23822295
:1034F0001021019802F06AFE04991F23C1EB4110CC
:1035000005EB4010009040468222102102F05EFE42
:1035100003991F23C1EB411005EB40100090484672
:103520008222102102F052FE02981F23C0EB4010AD
:1035300005EB4010009050468222102102F046FE1A
:10354000F18B4FF47A70414341F2A550B1FBF0F09A
:1035500080B24AF2D73101FB00118A0D4CF6CD4101
:103560004143C90CA7FB01C3DB085B4203EB8303A8
:1035700001EB43011FFA81F8A7FB0031C90849425A
:1035800000E02FE001EB810100EB410087B2C2EBCC
:10359000421005EB4010009058461F238222102154
:1035A00002F014FEC8EB481005EB40100090E0203C
:1035B0001F238222102102F009FEF0201F23822205
:1035C0001021009402F002FEC7EB471005EB4010FB
:1035D00000904FF480701F238222102102F0F6FD2C
:1035E00000F022BA481D80B270845021B0FBFCF27A
:1035F00001914AF2D73101FB0011890DA7FB01C3EC
:10360000DB085B4203EB830301EB430189B20491C6
:103610004CF6CD414143C90CA7FB01C3DB085B421B
:1036200003EB830301EB430189B20391A7FB003154
:10363000C908494201EB810100EB410080B20290D0
:10364000C2EB421005EB401000901F233C221021DA
:10365000019802F0BBFD04991F23C1EB411005EB5B
:103660004010009040463C22102102F0AFFD03992B
:103670001F23C1EB411005EB4010009048463C224F
:10368000102102F0A3FD02981F23C0EB401005EBB0
:103690004010009050463C22102102F097FD718CA2
:1036A0004FF47A70414341F2A550B1FBF0F080B283
:1036B0004AF2D73101FB00118A0D4CF6CD4141434E
:1036C000C90CA7FB01C3DB085B4203EB830301EBDF
:1036D00043011FFA81F8A7FB0031C908494201EBF9
:1036E000810100EB410087B2C2EB421005EB4010B4
:1036F000009058461F233C22102102F067FDC8EBC2
:10370000481005EB40100090E0201F233C221021C0
:1037100002F05CFDF0201F233C221021009402F0F7
:1037200055FDC7EB471005EB401000904FF480703B
:103730001F233C22102102F049FD00F075B9002A38
:103740006BD00528C0F07081401F80B2F0835021FB
:10375000B0FBFCF201914AF2D73101FB0011890D57
:10376000A7FB01C3DB085B4203EB830301EB4301CF
:1037700089B204914CF6CD414143C90CA7FB01C36A
:10378000DB085B4203EB830301EB430189B2039146
:10379000A7FB0031C908494201EB810100EB410060
:1037A00080B20290C2EB421005EB401000901F2344
:1037B00082221021019802F009FD04991F23C1EB18
:1037C000411005EB4010009040468222102102F08B
:1037D000FDFC03991F23C1EB411005EB4010009045
:1037E00048468222102102F0F1FC02981F23C0EB10
:1037F000401005EB4010009050468222102102F04C
:10380000E5FCF08B4FF47A71414341F2A550B1FBD6
:10381000F0F080B24AF2D73106E049E00000002023
:10382000CDCCCCCCE884000801FB00118A0D4CF60D
:10383000CD414143C90CA7FB01C3DB085B4203EB4D
:10384000830301EB43011FFA81F8A7FB0031C9088C
:10385000494201EB810100EB410087B2C2EB42100B
:1038600005EB4010009058461F238222102102F0E1
:10387000ADFCC8EB481005EB40100090E0201F2382
:103880008222102102F0A2FCF0201F2382221021AC
:10389000009402F09BFCC7EB471005EB4010009032
:1038A0004FF480701F238222102102F08FFCBBE0B6
:1038B00005297DD3481F80B270845021B0FBFCF2F3
:1038C00001914AF2D73101FB0011890DA7FB01C319
:1038D000DB085B4203EB830301EB430189B20491F4
:1038E0004CF6CD414143C90CA7FB01C3DB085B4249
:1038F00003EB830301EB430189B20391A7FB003182
:10390000C908494201EB810100EB410080B20290FD
:10391000C2EB421005EB401000901F233C22102107
:10392000019802F053FC04991F23C1EB411005EBF1
:103930004010009040463C22102102F047FC0399C1
:103940001F23C1EB411005EB4010009048463C227C
:10395000102102F03BFC02981F23C0EB401005EB46
:103960004010009050463C22102102F02FFC708C39
:103970004FF47A71414341F2A550B1FBF0F080B2AF
:103980004AF2D73101FB00118A0D4CF6CD4141437B
:10399000C90CA7FB01C3DB085B4203EB830301EB0C
:1039A00043011FFA81F8A7FB0031C908494200E032
:1039B0003AE001EB810100EB410087B2C2EB42101B
:1039C00005EB4010009058461F233C22102102F0C6
:1039D000FDFBC8EB481005EB40100090E0201F23D2
:1039E0003C22102102F0F2FBF0201F233C22102188
:1039F000009402F0EBFBC7EB471005EB4010009082
:103A00004FF480701F233C22102102F0DFFB0BE0FB
:103A1000FFF76EF80020B07503F0A6FD718CF08BF7
:103A200003F0A0FA03F0C0FD0020F07305B0BDE87C
:103A3000F08F000038B50020042100908802FCF7C8
:103A4000D6FC044603F0EEFA00216846C1F10302F9
:103A5000491C8454240AC9B20429F7D39DF80000F4
:103A6000552804BF9DF80100AA2807D19DF802003F
:103A7000AA2804BF9DF80300552825D04FF0550112
:103A80004FF48050FCF792FDAA2141F20100FCF7AF
:103A90008DFDAA2141F20200FCF788FD552141F27B
:103AA0000300FCF783FD01F0A5FD4FF47A710C468D
:103AB00002224FF44060FCF73FFD0222214640F60F
:103AC0000240FCF739FD38BD0A48017A32396429D1
:103AD0009FBFC17A0729817A052905D8407A1E2817
:103AE00002D3B42898BF38BD01F084FD03F09AFAE0
:103AF00038BD000070010020002140F2DE320020BD
:103B0000401C2828FCD3491C9142F8D37047002060
:103B1000401C2828FCD370470020401C5028FCD3B0
:103B2000704700002DE9F84F454CDFF8188120461A
:103B30006178DFF81491DFF814A1C07B002569B12A
:103B4000434FDFF810B14BF66366012920D0DFF850
:103B50000881022952D003295FD06DE025286BD15E
:103B60000520E07598F80B0001F09AFD9AF8001016
:103B700009EBC000405C394931F81000C0EB00107F
:103B8000800060620020FEF7A3FE0120207353E056
:103B9000252803D032480068E8B14DE00022012119
:103BA0003048FDF712FC0020FCF724FD9723582233
:103BB0004FF496711420009601F082FB17236C22BB
:103BC000F0212820009702F001FB0A20E075002078
:103BD000FEF77EFE30E00220607003F0C5FC98F82E
:103BE0000B0001F05DFD9AF8001009EBC000405C8D
:103BF0001A4931F81000CBF800000BE02528CDD091
:103C0000DBF8000040B90320607003F0ADFCCA206F
:103C1000C8F8000003F0C8FC0EE02528BED0D8F894
:103C2000000048B90020FCF7E5FC00206070024667
:103C300001210C48FDF7C9FBE573BDE8F88F0000D2
:103C40000000002070010020040100202800002056
:103C50004A240608C8000020CC0000209253060821
:103C6000C400002000000240F0B5B54E83B000252E
:103C7000307B28B1706A18B90120FEF729FE357330
:103C8000F07B24283FD0AF4941F2A204082841D05C
:103C9000322876D01D2800F0BD80AB4C102800F0F3
:103CA000D880112800F0DE80122800F0E780132869
:103CB00000F0F080172800F0F980182800F0028149
:103CC000192800F00B811A2800F01181282818BF4C
:103CD000292800F016812A2818BF2B2800F011810E
:103CE0002C2818BF2D2800F00C812E2818BF2F2853
:103CF00000F00781954F0A2800F008810D2800F098
:103D0000128100F000B9FCF785FCFEF7F1FEB575F5
:103D100000F0F9B8C87A10F0010F18D020F00100B7
:103D2000C8729623642221210A20009401F0C8FA67
:103D3000874800901E23642217210A2002F046FAC9
:103D4000844840235A2223210090372037E040F056
:103D50000100C872804800903223642217210A2093
:103D600002F034FA5A229A2311463720009401F0C7
:103D7000A7FA7A482D235A222321009037201EE0EB
:103D8000FFE7B07DF0B1C87A10F0020F29D020F023
:103D90000200C872E223AA225C213720009401F0BD
:103DA0008FFA6F4825230090AA221946372002F087
:103DB0000DFA6C4800903823AA222121052002F038
:103DC00005FA88E00020F075307B002818BF3573B5
:103DD000706A20B103F0C8FB756203F0E5FB0120B7
:103DE00034E040F00200C8725F4800903823AA22F5
:103DF0002521372002F0EAF9E223AA222621052014
:103E0000009401F05DFA59482523AA22212100904F
:103E10000520D4E7706A48B155A0D0E90010CDE97B
:103E200000100621684602F089FE6CE00920F0755A
:103E30000120707003F098FB4F494FF449700860FF
:103E400003F0B2FB0120FCF7D5FB0220FEF740FD9A
:103E500059E00020FEF792FD01210846FEF7E2FC42
:103E6000257038E00020FEF789FD01210220FEF7D1
:103E7000D9FC0120207000F015F944E00020FEF785
:103E80007DFD01210320FEF7CDFC0220207000F013
:103E900009F938E00020FEF771FD01210420FEF74A
:103EA000C1FC0320207000F0FDF82CE00020FEF79C
:103EB00065FD01210520FEF7B5FC0420207000F00F
:103EC000F1F820E00020FEF759FD01210620FEF761
:103ED000A9FC0520207000F0E5F814E00020FEF7B2
:103EE0004DFD01210720FEF79DFC062007E0002084
:103EF000FEF744FD01210820FEF794FC0720207006
:103F0000E9E7FCF787FBF57303B0F0BDC87A01F071
:103F1000C7FB217807EBC000425C0D2A38BF521C5A
:103F2000D9D24254D7E7C87A01F0BAFB217807EB1F
:103F3000C000425C002A18BF521EF2D1CBE700003D
:103F4000000000207C010020290000203401002016
:103F5000341C0208EE830208381302089821020874
:103F6000E62D02085252020898380208C848020892
:103F7000776169740D0A0000C40000202DE9F84F34
:103F80003F48DC269625C07A01F08AFB3D4901EBCB
:103F9000C0003D490978405C3C4931F810104FF4AD
:103FA0007A70B1FBF0F2D4B2B1FBF0F200FB121365
:103FB00003EBC30000EB4310C0F307373448C823BA
:103FC000A0FB012040096FF018025043314A01EB79
:103FD000800082FB00208210A2EBE07000F0FF085E
:103FE0002D48A0FB0120C008404200EB800001EBFF
:103FF000400000F0FF0A41F2A200009091224FF42D
:10400000A071D92001F05CF9DFF89090202309EB32
:10401000842000902A461021304602F0D7F809F596
:10402000205000901F232A461021EC2002F0CEF8E9
:1040300009EB8720009020232A461021FC2002F063
:10404000C5F809EB8820009020232A4610214FF460
:10405000867002F0BBF809EB8A20009020232A46E4
:1040600010214FF48E7002F0B1F80D4800901F231C
:104070002A461021680002F0A9F8BDE8F88F000078
:10408000700100200401002028000020925306083F
:104090001F85EB5167666666CDCCCCCCFCBF0008B3
:1040A0002E7802082DE9F84F3F48DC269625C07A85
:1040B00001F0F6FA3D4901EBC0003D490978405C4A
:1040C0003C4931F810104FF47A70B1FBF0F2D4B2E1
:1040D000B1FBF0F200FB121303EBC30000EB431043
:1040E000C0F307373448C823A0FB012040096FF014
:1040F00018025043314A01EB800082FB00208210FD
:10410000A2EBE07000F0FF082D48A0FB0120C008E2
:10411000404200EB800001EB400000F0FF0A41F25A
:10412000A200009091224FF4A071D92001F0C8F8AC
:10413000DFF89090202309EB842000902A4610217C
:10414000304602F043F809F5205000901F232A461C
:104150001021EC2002F03AF809EB87200090202390
:104160002A461021FC2002F031F809EB882000904B
:1041700020232A4610214FF4867002F027F809EB1D
:104180008A20009020232A4610214FF48E7002F0DE
:104190001DF80D4800901F232A461021680002F0E8
:1041A00015F8BDE8F88F00007C01002034010020E4
:1041B00029000020925306081F85EB51676666664A
:1041C000CDCCCCCCFCBF00082E78020808B5052861
:1041D00030D2DFE800F0030C151E270022480090C3
:1041E0001D230F223821F42001F0F0FF22E01F48A8
:1041F00000901D230F223821F42001F0E7FF19E081
:104200001B4800901D230F223821F42001F0DEFF0F
:1042100010E0184800901D230F223821F42001F0EF
:10422000D5FF07E0144800901D230F223821F42009
:1042300001F0CCFF1148407A01280BD041F2A200D6
:1042400000902C230F2240F23F1140F2311001F078
:1042500037F808BD0A4800901D230F220E2140F2B6
:10426000311001F0B3FF08BD80060208D0F9010843
:1042700020ED010870E00108C0D301080000002013
:104280004CBC05082DE9F04F89B00020E74A0190A9
:104290000290039004900590117801AB142928BF77
:1042A000517844D200290AD9A1EB000C94449CF81F
:1042B00001C003F800C0401CC0B28142F4D841F2F2
:1042C000A200FEF7D5F8DA48009020230A227921CF
:1042D000642001F07BFF45F6AA20009030232E22B7
:1042E0004FF4A071002000F0EBFFD34DD14805F54D
:1042F0003A6105F5F866C079079105F57861069190
:1043000042F2E0216F1805F59B5B05F5BA5A05F5F9
:10431000D95905F5F85805F57874052824BF09B072
:10432000BDE8F08FDFE800F0134C87D3FE00814238
:10433000A1EB000C94448CBF9CF801C09CF815C004
:1043400003F800C0401CC0B21428F0D3B7E71F2305
:104350003A2210211E20009401F038FF9DF804201D
:104360003A21482000F06AF91F236A2210211E20FA
:10437000009601F02BFF9DF805206A21482000F0EF
:104380005DF9079800901F239A2210211E2001F04A
:104390001DFF9DF806209A21482000F04FF906984D
:1043A00000901F23CA2210211E2001F00FFF9DF84C
:1043B0000720CA21482000F041F909B0BDE8F08F7C
:1043C0001F233A2210211E20CDF800B001F0FEFE7E
:1043D0009DF808203A21482000F030F91F236A2276
:1043E00010211E20CDF800A001F0F0FE9DF809205C
:1043F0006A21482000F022F91F239A2210211E2052
:10440000CDF8009001F0E2FE9DF80A209A214820A4
:1044100000F014F91F23CA2210211E20CDF80080BD
:1044200001F0D4FE9DF80B20CA21482000F006F9C7
:1044300009B0BDE8F08F1F233A2210211E200097FB
:1044400001F0C4FE9DF80C203A21482000F0F6F857
:104450001F236A2210211E20009401F0B7FE1F23A3
:104460006A2210212E20009501F0B0FE9DF80D204B
:104470006A21482000F0E2F81F239A2210211E2012
:10448000009401F0A3FE1F239A2210212E200094F5
:1044900001F09CFE9DF80E209A21482000F0CEF8F5
:1044A0001F23CA2210211E20009401F08FFE1F231B
:1044B000CA2210212E20009601F088FE9DF80F20C0
:1044C000CA21482000F0BAF809B0BDE8F08F1F23D8
:1044D0003A2210211E20009401F078FE07980090E7
:1044E0001F233A2210212E2001F070FE9DF810208B
:1044F0003A21482000F0A2F81F236A2210211E2032
:10450000009401F063FE069800901F236A22102198
:104510002E2001F05BFE9DF811206A21482000F05A
:104520008DF800E02CE01F239A2210211E20009419
:1045300001F04CFE1F239A2210212E20CDF800B04E
:1045400001F044FE9DF812209A21482000F076F8F0
:104550001F23CA2210211E20009401F037FE1F23C2
:10456000CA2210212E20CDF800A001F02FFE9DF8C8
:104570001320CA21482000F061F809B0BDE8F08F8F
:104580001F233A2210211E20009401F01FFE1F233A
:104590003A2210212E20CDF8009001F017FE9DF850
:1045A00014203A21482000F049F81F236A221021E4
:1045B0001E20009401F00AFE1F236A2210212E20E3
:1045C000CDF8008001F002FE9DF815206A214820F8
:1045D00000F034F81F239A2210211E20009401F0CD
:1045E000F5FD1F239A2210212E20009701F0EEFDE9
:1045F0009DF816209A21482000F020F81F23CA2297
:1046000010211E20009601F0E1FD1F23CA22102177
:104610002E20009501F0DAFD9DF81720CA214820D0
:1046200000F00CF809B0BDE8F08F00008801002010
:104630001848030800000020E88400082DE9F74F1F
:10464000044600F11F05624882B004F1100904F12C
:10465000200804F1300704F14F06A0F6047AA0F216
:10466000827B072A24BF05B0BDE8F08FDFE802F0A7
:104670001404172A3171840056481F2300901946EC
:104680002046039A01F0A2FD534800901F23A8B2D0
:104690001946039A01F09AFD05B0BDE8F08F4F4826
:1046A0001F23009019462046039A01F08FFD4A48C7
:1046B00000901F23A8B21946039A01F087FD05B0A8
:1046C000BDE8F08F4648202300903D212046039A04
:1046D0004DE000901F2310212046039A01F076FD43
:1046E000404800901FFA89F01F231021039A01F01F
:1046F0006DFD3D4800901FFA88F01F231021039A9A
:1047000001F064FD394800901F23B8B21946039A9E
:1047100001F05CFD364800901F23B0B21946039AA1
:1047200001F054FD04F16E001F2380B2CDF800A00B
:104730001946039A01F04AFD04F18D001F2380B24F
:10474000CDF800B01946039A01F040FD05B0BDE870
:10475000F08F1F23CDF800A019462046039A01F0E0
:1047600035FD1F23A8B2CDF800B01946039A01F019
:104770002DFD05B0BDE8F08F00901F2310212046CD
:10478000039A01F023FD1B4800901FFA89F01F23B4
:104790001021039A01F01AFD134800901FFA88F0C7
:1047A0001F231021039A01F011FD1F23B8B2CDF889
:1047B00000A01946039A01F009FD1F23B0B2CDF8FD
:1047C00000B01946039A01F001FD05B0BDE8F08F75
:1047D0006A4E0108DC190108E02801085E21010881
:1047E0004A520108A88C0008E884000862300108D9
:1047F000E4370108C88800082DE9F04F83B041F282
:10480000A200FDF735FEC34F50200190788C4FF485
:104810007A71B0FBF1F24AF2D73900FB0991BE4C34
:10482000890DA4FB01C3DB085B4203EB830301EBAF
:1048300043018EB24CF6CD414143C90CA4FB01C3E8
:10484000DB085B4203EB830301EB43018DB2A4FB66
:104850000031C908494201EB810100EB41001FFA18
:1048600080FAC2EB4210DFF8B4821F2308EB40103D
:1048700000903C221021019801F0A8FCC6EB4610E4
:1048800008EB401000901F233C221021602001F013
:104890009DFCC5EB451008EB401000901F233C2207
:1048A0001021702001F092FCCAEB4A1008EB401076
:1048B00000901F233C221021802001F087FC9848A3
:1048C000009025233C222E21902001F07FFC798C42
:1048D0004FF47A70414341F2A550B1FBF0F080B241
:1048E000494601FB00118A0D4CF6CD414143C90CEC
:1048F000A4FB01C3DB085B4203EB830301EB430131
:104900008DB2A4FB0031C908494201EB810100EBE3
:10491000410086B2C2EB421008EB401000901F230A
:104920003C221021D02001F051FCC5EB451008EBD2
:10493000401000901F233C221021E02001F046FC93
:1049400008F51B551F233C221021F020009501F093
:104950003DFCC6EB461008EB4010102100901F23D1
:104960003C22080101F032FC797C6E4800294FF0AE
:104970001603009000F0BE8084220D21282001F053
:1049800025FC41F2A200009054233E22352128202C
:1049900000F096FC5F4F4FF47A71F88BB0FBF1F2A8
:1049A0004AF2D73101FB0091890DA4FB01C3DB085A
:1049B0005B4203EB830301EB43011FFA81FA4CF6E0
:1049C000CD414143C90CA4FB01C3DB085B4203EBAF
:1049D000830301EB43018EB2A4FB0031C9084942B5
:1049E00001EB810100EB41001FFA80FBC2EB42109A
:1049F00008EB401000901F2382221021019801F043
:104A0000E5FBCAEB4A1008EB4010009060201F2322
:104A10008222102101F0DAFBC6EB461008EB4010B1
:104A2000009070201F238222102101F0CFFBCBEBDE
:104A30004B1008EB4010009080201F238222102191
:104A400001F0C4FB384800902423902082221946AC
:104A500001F0BCFBF98B4FF47A70414341F2A55051
:104A6000B1FBF0F080B24AF2D73101FB00918A0D20
:104A70004CF6CD414143C90CA4FB01C3DB085B42AA
:104A800003EB830301EB43018EB2A4FB0031C908A1
:104A9000494201EB810100EB410084B2C2EB4210BC
:104AA00008EB40100090D0201F238222102101F03B
:104AB0008DFBC6EB461008EB40100090E0201F2352
:104AC0008222102101F082FBF0201F23822210217C
:104AD000009501F07BFBC4EB441008EB4010009004
:104AE0004FF480701F238222102101F06FFB03B06E
:104AF000BDE8F08F3E220D21282001F067FB41F236
:104B0000A20000909A2384223521282000F0D8FBAF
:104B100040E7000000000020CDCCCCCCE8840008A9
:104B2000C2600208E6A103080E6E02082DE9F843F0
:104B300041F2A200FDF79CFC414800901F230F2288
:104B40007921642001F042FB45F6AA200090392328
:104B500037224FF4A071002000F0B2FB39480090DA
:104B60001F2385227921192001F030FB364842F2BB
:104B70001071DFF8D8C00068B0FBF1F1CBB24FF490
:104B80007A71B0FBF1F1ACFB0142D208524202EB68
:104B9000820201EB42042E49A1FB00214909ACFB32
:104BA0000152D208524202EB820201EB4206ACFBF8
:104BB0000021C908ACFB01C2D208524202EB8202BA
:104BC00001EB4207494201EB810100EB4108214D15
:104BD000852205EB8320009020231021B42001F0D2
:104BE000F5FA05EB84200090202385221021C420B3
:104BF00001F0ECFA05EB862000902023852210219D
:104C0000D42001F0E3FA05EB8720009020238522D1
:104C10001021E42001F0DAFA05EB8820009020232F
:104C200085221021F42001F0D1FA0B4800902023B6
:104C300085221F214FF48A7001F0C8FABDE8F8837D
:104C40006E95020862C2030870010020CDCCCCCC66
:104C50001F85EB51FCBF0008B0DF03082DE9F843C6
:104C6000064641F2A200FDF703FC974900911F237D
:104C70000A227921642001F0A9FA45F6AA273023F7
:104C80002E224FF4A0710020009700F019FB8F4DE9
:104C90008F4C4BF66360002E7DD0012E18BFBDE80F
:104CA000F883F023009090224FF4A071002000F0D0
:104CB00007FB88480090202352227921262001F00A
:104CC00085FA687A00EBC00101EB40110A0BCD2197
:104CD00010FB01F1C90AA4FB01C3DB085B4203EB33
:104CE000830301EB4301CEB2A4FB0031C908494262
:104CF00001EB810100EB4100C4B2C2EB4210DFF8CE
:104D0000D8811F2308EB4010009052221021BF20B1
:104D100001F05CFAC6EB461008EB401000901F2330
:104D200052221021CF2001F051FAC4EB441008EBBD
:104D3000401000901F2352221021DF2001F046FA7C
:104D4000664800901F2352221021EF2001F03EFA06
:104D500090238E224FF4A0710020009700F0B0FA4B
:104D60005F4800901F23B122B521262001F02EFAC2
:104D7000E87A10F0040F7DD05A4800901F239E223D
:104D80005B21DF2001F022FA57481F23CE225B214E
:104D90000090DF2000E003E001F018FABDE8F8839E
:104DA0000090902330224FF4A071002000F088FA88
:104DB0004E480090202352227921262001F006FA45
:104DC000687A00EBC00101EB40110B0BCD2110FB09
:104DD00001F1C90AA4FB01C2D208524202EB8202CD
:104DE00001EB4201CEB2A4FB0021C908494201EB0C
:104DF000810100EB41003E4FC4B207EB83200090DD
:104E0000202352221021BF2001F0E0F907EB862079
:104E10000090202352221021CF2001F0D7F907EB78
:104E200084200090202352221021DF2001F0CEF9AF
:104E300030480090202352221021EF2001F0C6F9C3
:104E40002D4800901F23B122B521262001F0BEF984
:104E5000E87A10F0040F13D0284800901F239E22F8
:104E60005B21DF2001F0B2F925481F23CE225B2110
:104E7000009000E016E0DF2001F0A8F9BDE8F8831B
:104E8000204800901F239E225B21DF2001F09EF925
:104E90001D4800901F23CE225B21DF2001F096F9F0
:104EA000BDE8F883194800901F239E225B21DF2074
:104EB00001F08CF9164800901F23CE225B21DF20E1
:104EC00001F084F9BDE8F88334240408700100205F
:104ED000CDCCCCCC82410408E88400080E800208C6
:104EE00004DE0408AE4C0508828F0508C25F040882
:104EF000DCEB00080E7C02082EB20408E41F050853
:104F000078790508DA0905086E630508A4360508EE
:104F100042A60508F8B5044641F2A200FDF7A8FA3A
:104F20003848009020230F227921642001F04EF9A7
:104F3000354F45F6AA254BF66366002C32D0012C7E
:104F400018BFF8BD392337224FF4A0710020009517
:104F500000F0B6F9ED23952240F27B110020009677
:104F600000F0AEF91623B5220D217220009701F052
:104F70002DF926481F23009059221946902001F050
:104F800025F9932391224FF4A0710020009500F0A1
:104F900097F91F4800902023B3221F21902001F091
:104FA00015F9F8BD392337224FF4A0710020009580
:104FB00000F086F993233B224FF4A0710020009665
:104FC00000F07EF916235B220D217220009701F07C
:104FD000FDF810480090202359221F21902001F055
:104FE000F5F8932391224FF4A0710020009500F072
:104FF00067F909481F230090B3221946902001F059
:10500000E5F8F8BD70E70308E6A10308700D040891
:10501000741C0408B0050408F21404082DE9F84FC4
:10502000044641F2A200FDF723FA9D4FDFF8749287
:10503000DFF874A2DFF874824BF6636645F6AA25A2
:10504000002C52D0AAF57250012C7DD0022C00F019
:10505000DE80032C18BFBDE8F88F202300900F22BC
:105060007921642001F0B2F8392337224FF4A0717E
:105070000020009500F024F9EC23AF224FF4A0713A
:105080000020009600F01CF91623C7220D214620AF
:10509000009701F09BF81E234B2279216420CDF864
:1050A000009001F093F8752373224FF4A071002053
:1050B000009500F005F91F23872279216420CDF89F
:1050C00000A001F083F8B123AF224FF4A0710020BB
:1050D000009500F0F5F8764800902023C32279214E
:1050E000642001F073F8BDE8F88F052238239101A0
:1050F0000020009600F0E4F8162313220D2146202C
:10510000009701F063F86B48009020230F2279216B
:10511000642001F05BF8392337224FF4A07100209E
:10512000009500F0CDF81F234B2279216420CDF8A3
:10513000009001F04BF8752373224FF4A07100200A
:10514000009500F0BDF800E019E01F2387227921C7
:105150006420CDF800A001F039F8B123AF224FF45C
:10516000A0710020009500F0ABF81F23C322792125
:105170006420CDF8008001F029F8BDE8F88F009098
:1051800020230F227921642001F020F839233722CF
:105190004FF4A0710020009500F092F8742337229C
:1051A0004FF4A0710020009600F08AF816234F22D9
:1051B0000D214620009701F009F83F480090202378
:1051C0004B227921642001F001F8752373224FF4FA
:1051D000A0710020009500F073F81F238722792129
:1051E0006420CDF800A000F0F1FFB123AF224FF40E
:1051F000A0710020009500F063F81F23C3227921DD
:105200006420CDF8008000F0E1FFBDE8F88F009049
:1052100020230F227921642000F0D8FF3923372280
:105220004FF4A0710020009500F04AF8B0237322DB
:105230004FF4A0710020009600F042F816238B2254
:105240000D214620009700F0C1FF1E234B2279213B
:105250006420CDF8009000F0B9FF752373224FF45D
:10526000A0710020009500F02BF814480090202336
:1052700087227921642000F0A9FFB123AF224FF4E7
:10528000A0710020009500F01BF81F23C322792194
:105290006420CDF8008000F099FFBDE8F88F000091
:1052A000E6A103088A0C03083CEF020858660308CD
:1052B00022A40308FCD00208D8290308A683030807
:1052C0002DE9F04790461D460F464A1E81465B1E5B
:1052D0004146089EFDF780FA2C20FDF7D9FFA7EB89
:1052E0000900A5EB0801002400FB01F5002D98BF83
:1052F000BDE8F0873046FDF7A1FB641CA542F9D854
:10530000BDE8F0872DE9F041174E164C074631688D
:1053100060784AF6AA250D60394600F60200FBF7D0
:1053200045F96078A11C47546078401CC0B2607099
:10533000142824BF002060702078401CC0B2207068
:10534000142824BF14202070C1B24FF40060FBF772
:105350002DF9617840F60100FBF728F93068056007
:10536000BDE8F08188010020E80100202DE9F04F20
:10537000924CDFF84C9220462DED028B81B02178C3
:10538000DFF840A2DFF840B2C07B002589B19FED75
:105390008F8A8F4F4BF663664FF00408012940D087
:1053A000DFF8309202297DD0032900F0E58000F07B
:1053B000FEB8252840F0FB800020E075D9F80000F9
:1053C000401CC9F8000099F80B0000F069F99BF83F
:1053D00000100AEBC000804E405C99F8081036F8C7
:1053E000100041437D48A0FB01107D494009A1FB0D
:1053F0000010D9F8041001EBD000C9F8040099F8A6
:105400000B0000F04DF99BF800100AEBC000405C67
:1054100036F81000C0EB0010800060620120E072DE
:10542000C5E0252803D06F48006848B3BFE00022DC
:1054300001216D48FBF7C9FFB0EE480A002001F0DA
:1054400037FCB0EE480A012001F032FC0020FBF7E7
:10545000D1F8972358224FF4967114200096FFF745
:105460002FFF17236C22F0212820009700F0AEFEBA
:105470000420E0750020FDF72BFA84F8168096E0F2
:105480000220207002F070F803210720FBF7A2FB36
:1054900040F67561884228BF40F675605349B1FBFC
:1054A000F0F000E022E0E18B80B241434B4880FB0A
:1054B00001104111A1EBE070208499F80B0000F07D
:1054C000EFF89BF800100AEBC000405C424931F84D
:1054D00010004749086002F067F8208C00EE100ABF
:1054E0000020B8EE400A01F0E3FB60E0252803D07D
:1054F0003F48006880B35AE0002201213A48FBF798
:1055000064FFB0EE480A002001F0D2FBB0EE480A7A
:10551000012001F0CDFB0020FBF76CF89723582207
:105520004FF4967114200096FFF7CAFE17236C22E1
:10553000F0212820009700F049FE02F015F8042021
:10554000FFF7E0FE02F030F80420E07584F81680E2
:105550000020FDF7BDF92AE0FFE70320207002F0EC
:1055600003F8CA20C9F8000002F01EF8B0EE480A9D
:10557000002001F09DFB1AE02528BDD0D9F80000DD
:10558000A8B90020FBF736F800202070B0EE480ADA
:1055900001F08EFBB0EE480A012001F089FB0020EB
:1055A000FDF796F9002201210F48FBF70EFFE57386
:1055B00001B0BDEC028BBDE8F08F000000000020C0
:1055C00070010020040100202800002000000000DD
:1055D0004A240608CC000020925306081F85EB5190
:1055E000CDCCCCCCC400002000000240B4A5050006
:1055F000C80000202DE9F041DFF898804AF6AA277C
:10560000D8F800000760302223490020FAF761FF34
:10561000D8F8000007604FF4806004220021FAF7F8
:105620008BFF40F2044004220021FAF785FF4FF47B
:1056300081606421FAF7BAFF40F209407821FAF755
:10564000B5FF40F20A400021FAF7B0FF40F20B40EC
:105650000121FAF7ABFF00214FF40060FAF7A6FF33
:105660000E4E00252946357040F60100FAF79EFFE0
:1056700075700024002104F60200FAF797FF301934
:105680008570D8F800000760601CC4B2142CF1D3F8
:10569000BDE8F081E8010020B05306088801002031
:1056A00000F00700082828BF7047DFE800F0040674
:1056B000080A04060C0E00207047032070470120E2
:1056C000704704207047022070470520704770B56E
:1056D0000D46044602214FF44060FAF788FE208010
:1056E000022140F60240FAF782FE288070BD0000D9
:1056F0002DE9F843F94F0026F87A28B1786A18B9ED
:105700000120FDF7E5F8FE72F87B032524285BD025
:10571000F34941F2A20431285DD04FF00509232856
:105720007ED032287DD0DFF8BC831D2800F0F980C0
:10573000ED4C102800F01981112800F01F8112286B
:1057400000F02981132800F02F81172800F03581FF
:10575000182800F03B81192800F042811A2800F037
:105760004881E24D282800F04E81292800F05C8114
:105770002A2800F06B812B2800F07A812C2800F079
:1057800089812D2800F098812E2800F0CB812F28C8
:1057900000F0DA81DFF85893262800F0E7811B2813
:1057A00008BF022071D00A2800F0F2810D2800F015
:1057B000FB81302800F00482332800F01282372861
:1057C00000F03A8200F03FBAFAF724FFFAF778FFC8
:1057D000BD7500F038BAB87D052823D0C87A10F01E
:1057E000010F2AD020F00100C872962364222121E3
:1057F0000A200094FFF764FDBE4800901E23642237
:1058000017210A2000F0E2FCBB48009040235A22F6
:105810002321372000F0DAFCFEF7B0FB00F013BACA
:1058200029E033E00620F87501F09EFE47F2305083
:10583000788301F0B9FE00F006BA40F00100C872AA
:10584000AE4800903223642217210A2000F0BEFCEB
:105850005A229A23114637200094FFF731FDA848B9
:1058600000902D235A222321372000F0AFFCFEF7B1
:1058700085FB00F0E8B987F81690FE70FAF7CAFECB
:10588000F878FFF7CBFB00F0DEB92CE0B87D0328F9
:105890001ED0C87A10F0020F28D020F00200C87283
:1058A000E223AA225C2137200094FFF709FD9548E6
:1058B00025230090AA221946372000F087FC924841
:1058C00000903823AA222121052000F07FFC5EE011
:1058D0008F498E48D1E9002389680260C0E901310F
:1058E0008C4806700520F87500F0ADB940F0020054
:1058F000C872894800903823AA222521372000F059
:1059000065FCE223AA22262105200094FFF7D8FC9B
:10591000824800902523AA222121052000F056FC70
:1059200035E0786A002840F08E810120F8753870E3
:1059300001F01AFE7A494FF44970086001F034FE14
:10594000012211464046FBF740FD788C00EE100A1C
:105950000120B8EE400A01F0ABF90120FAF74AFE47
:105960000220FCF7B5FF00F06EB90020FDF706F845
:1059700001210846FCF756FF267008E00020FCF7DE
:10598000FDFF01210220FCF74DFF01202070FEF7F2
:10599000F5FA00F058B90020FCF7F0FF01210320D0
:1059A000FCF740FF02202CE00020FCF7E7FF01217C
:1059B0000420FCF737FF2570E9E70020FCF7DEFF45
:1059C00001210520FCF72EFF04201AE00020FCF73F
:1059D000D5FF01210620FCF725FF84F80090D6E7CB
:1059E0000020FCF7CBFF01210720FCF71BFF06205E
:1059F00007E00020FCF7C2FF01210820FCF712FF9E
:105A000007202070C3E7C87AFFF74AFE044601F07A
:105A1000ABFD15F834200021204601F0BBF901F060
:105A2000C3FDFAF7F7FD0EE1C87AFFF739FE044629
:105A300001F09AFD05EBC40120464A78012101F0EE
:105A4000A9F901F0B1FDFAF7E5FDFCE0C87AFFF72E
:105A500027FE044601F088FD05EBC40120468A7844
:105A6000022101F097F901F09FFDFAF7D3FDEAE07A
:105A7000C87AFFF715FE044601F076FD05EBC40178
:105A80002046CA78032101F085F901F08DFDFAF76F
:105A9000C1FDD8E0C87AFFF703FE044601F064FDBB
:105AA00005EBC40120460A79042101F073F901F0E5
:105AB0007BFDFAF7AFFDC6E0C87AFFF7F1FD0446BB
:105AC00001F052FD05EBC40120464A79052101F0A1
:105AD00061F901F069FDFAF79DFDB4E000000020D6
