:020000040800F2
:10000000F84F00205D0200083B2D0008891E000803
:10001000392D0008F3050008FD300008000000003D
:100020000000000000000000000000009D0100082A
:10003000D106000800000000F9010008E92D0008C1
:1000400077020008770200087702000877020008AC
:10005000770200087702000877020008770200089C
:10006000770200087702000877020008770200088C
:10007000770200087702000877020008770200087C
:10008000770200087702000877020008770200086C
:10009000770200087702000877020008770200085C
:1000A000770200087702000877020008770200084C
:1000B000770200087702000877020008770200083C
:1000C000770200087702000877020008770200082C
:1000D000770200087702000877020008770200081C
:1000E000770200087702000877020008770200080C
:1000F00077020008770200087702000877020008FC
:1001000077020008770200087702000877020008EB
:1001100077020008770200087702000877020008DB
:1001200077020008770200087702000877020008CB
:1001300077020008000000000000000077020008BD
:1001400077020008770200087702000877020008AB
:10015000770200087702000877020008770200089B
:10016000770200087702000877020008770200088B
:10017000770200087702000800000000000000007D
:100180007702000877020008DFF80CD000F0ECF8E6
:1001900000480047195F0008F84F00202C4B1968F1
:1001A0000868B0E8F04F80F30988BFF36F8F4FF015
:1001B000000080F3118870470000000008480068C4
:1001C000006880F308884FF0000080F3148862B65E
:1001D00061B6BFF34F8FBFF36F8F00DF00BF00BF6B
:1001E00008ED00E0DFF80C00016841F470010160E7
:1001F000704700BF88ED00E0EFF30980BFF36F8F19
:10020000134B1A681EF0100F08BF20ED108A20E96A
:10021000F04F106009B44FF0500080F31188BFF325
:100220004F8FBFF36F8F07F0B7FC4FF0000080F3E4
:10023000118809BC19680868B0E8F04F1EF0100F6B
:1002400008BFB0EC108A80F30988BFF36F8F704746
:1002500044000020EFF30580704700000648804707
:1002600006480047FEE7FEE7FEE7FEE7FEE7FEE79B
:10027000FEE7FEE7FEE7FEE7892E00088901000899
:100280002DE9F05F0546002092469B4688460646CB
:10029000814640241BE0284641464746224600F05E
:1002A00053F853465A46C01A914110D31146184686
:1002B000224600F03AF82D1A67EB01084F46224615
:1002C0000120002100F031F817EB00094E41201EFB
:1002D000A4F10104DFDC484631462A464346BDE826
:1002E000F09F40EA01039B0703D009E008C9121FF1
:1002F00008C0042AFAD203E011F8013B00F8013BE0
:10030000521EF9D27047D2B201E000F8012B491E0B
:10031000FBD270470022F6E710B513460A460446A2
:100320001946FFF7F0FF204610BD202A04DB203AD3
:1003300000FA02F1002070479140C2F1200320FA38
:1003400003F3194390407047202A04DB203A21FA36
:1003500002F00021704721FA02F3D040C2F12002DE
:100360009140084319467047064C074D06E0E06887
:1003700040F0010394E8070098471034AC42F6D3EC
:10038000FFF706FFB0570608D0570608002A08BF37
:1003900070472DE9F04114460E4605462F46681C6D
:1003A00085B201F051FEA02001F010FE01F0B0FE78
:1003B000380A01F00BFE01F0ABFEF8B201F006FEC8
:1003C00001F0A6FE01F040FEA12001F0FFFD01F0CA
:1003D0009FFE002001F082FD074601F069FE601ECD
:1003E000040406F8017B240CD8D1BDE8F0812DE986
:1003F000F84380464FF000000E0007460446009088
:1004000018BFE94626D008EB040085B201F01CFEB7
:10041000A02001F0DBFD01F07BFE280A01F0D6FDF3
:1004200001F076FEE8B201F0D1FD01F071FE01F0BD
:100430000BFEA12001F0CAFD01F06AFE002001F0D0
:100440004DFD054601F034FE09F80450601CC4B2AD
:10045000A642D8D8022E02D0042E07D014E09DF870
:1004600001009DF8001001EB00270DE09DF803004E
:100470009DF8021001EB00209DF8011001EB002017
:100480009DF8001001EB00273846BDE8F88310B551
:10049000044601F0D9FDA02001F098FD01F038FEDE
:1004A000200A01F093FD01F033FEE0B201F08EFD71
:1004B00001F02EFE01F0C8FDA12001F087FD01F042
:1004C00027FE002001F00AFD044601F0F1FD204660
:1004D00010BD2DE9F0410646501E0F4685B238BFCB
:1004E000BDE8F08197F80080002401F0ADFDA02068
:1004F00001F06CFD01F00CFE300A01F067FD01F027
:1005000007FEF0B201F062FD01F002FE404601F08C
:100510005DFD01F0FDFD01F0CBFD03F089FB621CE8
:10052000D4B20A2CF9D3701C691E86B28DB207F1C1
:100530000107D7D2BDE8F0812DE9F04716000F463C
:1005400080464FF0000508BFBDE8F08708EB0500C6
:100550001FFA80F9E80027FA00F000F0FF0A0024F3
:1005600001F072FDA02001F031FD01F0D1FD4FEA54
:10057000192001F02BFD01F0CBFD09F0FF0001F087
:1005800025FD01F0C5FD504601F020FD01F0C0FD44
:1005900001F08EFD03F04CFB601CC4B20A2CF9D3B1
:1005A000681CC5B2B542D1D3BDE8F08770B50E4620
:1005B0000546002401F048FDA02001F007FD01F0F0
:1005C000A7FD280A01F002FD01F0A2FDE8B201F04A
:1005D000FDFC01F09DFD304601F0F8FC01F098FDB6
:1005E00001F066FD03F024FB601CC4B20A2CF9D3B1
:1005F00070BDFEE70100064806D0012918BF70470C
:100600000122042100F0FDBE0022042100F0F9BE09
:100610000010024010B5084C01220421204600F0D1
:10062000F0FEC82005F0DCFD20460022BDE81040A9
:10063000042100F0E6BE0000001002401D49886859
:1006400000281CBF401E8860486828B11A4A1278EA
:10065000002A04BF401E4860C86800281CBF401E16
:10066000C860086900281CBF401E08611348007854
:1006700018B913480288521C0280124A10880028B8
:100680001CBF401E1080104A108800281CBF401E4E
:1006900010800E4A106800281CBF401E1060088899
:1006A00000281CBF401E0880486900281CBF401E4F
:1006B00048617047BC0000200B00002010000020A3
:1006C000180000201A0000201C0000202400002038
:1006D0007047000030B583B041F2A20001F0E4FEA3
:1006E00045F6AA2452234F224FF4A0710020009413
:1006F00004F0F0FEA323A022D9210020009404F0EE
:10070000E9FEF0234F226D216A20009404F0E2FEFE
:10071000F0230022D921D620009404F0DBFE6A4D9C
:10072000002048F2C0440095CDE9014020231A463C
:1007300017212A2000F0ECF801200095CDE90140B6
:1007400020231A4617214A2000F0E2F802200095E3
:10075000CDE9014020231A4617216A2000F0D8F87D
:1007600003200095CDE9014020231A4617218A2055
:1007700000F0CEF85549009172201F236E221021FF
:1007800005F088FE52480090822020236E2210211E
:1007900005F080FE4F48009089201F236E22102113
:1007A00005F078FE4C48009025236E222E21A220D1
:1007B00005F070FE494900917C202023BE221021C3
:1007C00005F068FE464800908C202023BE221021B0
:1007D00005F060FE434824230090BE221946A52060
:1007E00005F058FE404D41F2A204E87A10F0010FE6
:1007F00017D03E4800903223642217210A2005F0CA
:1008000049FE5A229A2311463720009404F062FED2
:10081000374800902D235A222321372005F03AFE35
:1008200016E09623642221210A20009404F052FE4F
:10083000304800901E23642217210A2005F02AFE6A
:100840002D48009040235A222321372005F022FE14
:10085000E87A10F0020F17D0284800903823AA2217
:100860002521372005F016FEE223AA2226210520A5
:10087000009404F02FFE224800902523AA22212173
:10088000052005F007FE16E0E223AA225C213720AE
:10089000009404F01FFE1B4825230090AA2219464D
:1008A000372005F0F7FD184800903823AA222121AF
:1008B000052005F0EFFD1548807B03F093FD03B0A4
:1008C000BDE8304003F09ABC081B0108D48F000833
:1008D000D4AE0008749B0008EE630208549F000821
:1008E000148800083A71020880010020641602088A
:1008F000C4240208601F02081A870208C43B0208C9
:10090000F44B0208123102087E5502080000002054
:100910002DE9FF4F87B0D908019116980021029167
:10092000099900299CBF0BB0BDE8F08F019948439D
:1009300009994843009001980027002851D9DDE922
:100940000001029A02FB01000899059001EB0208E0
:1009500008F10100000A04904FEA1820039014994E
:1009600005983944002410F801B0079800EBC70A35
:100970008020E04010EA0B0F2AD00AEB04056E1C21
:1009800008F101092A2002F0B9FC280A02F0EEFC65
:10099000E8B202F0EBFC300A02F0E8FCF0B202F040
:1009A000E5FC2B2002F0AAFC039802F0DFFC08F023
:1009B000FF0002F0DBFC049802F0D8FC09F0FF0015
:1009C00002F0D4FC2C2002F099FC159802F066F895
:1009D000601CC4B2082CCBD3781CC7B201988742E4
:1009E000BDD302980999401CC0B202908842A2D39C
:1009F0000BB0BDE8F08F000070B50E2880F0FB80D2
:100A0000DFE800F007255B4374808C98A4B0BCC875
:100A1000D4E081B1032912D0012918BF70BD042090
:100A200001F072FC78B10B2001F06EFC58B17549F1
:100A30003720C87370BD73490820C87370BD7149F1
:100A40002320C87370BD6F493120C87370BD81B158
:100A5000032912D0012918BF70BD042001F054FCF5
:100A600078B10B2001F050FC58B166493820C873AA
:100A700070BD64490920C87370BD62492420C873E1
:100A800070BD60493220C87370BD49B103290BD0D5
:100A9000012918BF70BD5C48017821F0020116E001
:100AA00058490D20C87370BD5748017841F00201C4
:100AB000017054490020887070BD51B103290CD0D9
:100AC000012918BF70BD5048017821F00101017063
:100AD00070BD4C490A20C87370BD4B48017841F085
:100AE0000101017047490020887070BD31B10329B0
:100AF00018BF70BD28204349C87370BD41491020FC
:100B0000C87370BD31B1032918BF70BD29203D499C
:100B1000C87370BD3B491120C87370BD31B1032942
:100B200018BF70BD2A203749C87370BD35491220DF
:100B3000C87370BD31B1032918BF70BD2B20314976
:100B4000C87370BD2F491320C87370BD31B103291C
:100B500018BF70BD2C202B49C87370BD29491720C0
:100B6000C87370BD31B1032918BF70BD2D20254950
:100B7000C87370BD23491820C87370BD31B10329F3
:100B800018BF70BD2E201F49C87370BD1D491920A4
:100B9000C87370BD31B1032918BF70BD2F2019492A
:100BA000C87370BD17491A20C87370BD31B10129CF
:100BB00018BF70BD25201349C87370BD11491D2091
:100BC000C87370BD41B1012911D0032918BF70BD90
:100BD00039200C49C87370BD0A4C0025257406F0F5
:100BE00059FE258306F076FE1B20E07370BD054993
:100BF0002720C87370BD0449087820F003000870EE
:100C000070BD000000000020150000202DE9F04715
:100C10004FF0000584B00E0007462C461FD0A846B2
:100C20004FF001094FF0070ACDE90079CDE902A89C
:100C300069460E4800F01CF80C4800F033FA022117
:100C40000A4800F0CFF9094800F0C6F881B20D4417
:100C5000012005F0C5FA601CC4B2B442E4D3B5FB70
:100C6000F6F004B080B2BDE8F0870000A4010020D7
:100C700038B44FF0000CCDF800C090F83C20012AA9
:100C800002BF022038BC7047012280F83C200A686D
:100C900007240368092A13D9DD680A3A02EB4202E5
:100CA00004FA02F225EA0202DA600A788B680A3A4C
:100CB00002EB420293400268D4682343D36010E001
:100CC0001D6902EB420204FA02F225EA02021A61ED
:100CD0000A788B6802EB420293400268146923434E
:100CE00013614A681F24072A15D203685D6B521EE0
:100CF00002EB820204FA02F225EA02025A630A882F
:100D000093B20A79521E02EB820293400268546B3E
:100D1000234353632BE003680D2A14D21D6BD21FAB
:100D200002EB820204FA02F225EA02021A630A883E
:100D300093B20A79D21F02EB820293400268146BCD
:100D40002343136313E0DD6A0D3A02EB820204FAD7
:100D500002F225EA0202DA620A8893B20A790D3AAF
:100D600002EB820293400268D46A2343D362174B9A
:100D70000468154A9C4204BF0C68122C03D15468C5
:100D800044F48004546004689C4218D10B68102B12
:100D900018BF112B13D1536843F400035360096843
:100DA00010290CD10A490B4A0968B1FBF2F101EB99
:100DB00081014900009102D0491E0091FCD180F8C8
:100DC0003CC038BC00207047002301400020014097
:100DD0004000002040420F000068C06C70470000D7
:100DE0002DE9F04104004FF0000504BF0120BDE8EB
:100DF000F081564F206C002628B9204600F0AEF84E
:100E0000666484F83C60206C10F0100F18BF012558
:100E100004D084F83C602846BDE8F081206C20F4C2
:100E2000885040F0020020644948416821F4403174
:100E3000416041686268114341602068416821F463
:100E40008071416020684168226941EA0221416065
:100E50002068416821F04071416020684168A268C3
:100E6000114341602068816821F40061816020683D
:100E70008168E26811438160A06AB8422068816895
:100E800021F0706181602068816808BF21F04051C5
:100E90000BD0A26A114381602068816821F0405123
:100EA000816020688168E26A1143816020688168FE
:100EB00021F00201816020688168227E41EA4201BE
:100EC000816094F8200000282068416808BF21F460
:100ED00000610ED041F4006141602068416821F456
:100EE00060414160206841681A4B626A03EB4232FC
:100EF000114341602068C16A21F47001C162206819
:100F0000C16AA28B144B03EB02521143C1622068E9
:100F1000816821F4007181602068816894F8302034
:100F200041EA422181602068816821F4806181600A
:100F300020688168626941EA822181606664206C70
:100F400020F0020040F00100206462E70100000F81
:100F50000023014000E0FFFF0000F0FF30B587B044
:100F60000024009401940294039404940068A0F176
:100F70008041B1F590311CBF07B030BD1548016804
:100F800041F480710160006800F48070059012489F
:100F9000016841F004010160016801F0040105915C
:100FA000016841F0010101600068032500F00100C3
:100FB00005900620CDE900056946084800F0F2F8E2
:100FC000C020CDE9000569460294054800F0EAF822
:100FD00007B030BD443802403038024000080240BB
:100FE000000002402DE9F041044600680D4681688A
:100FF0004FF0000711F4806F1CBF806810F4807FF1
:1010000008D0206C40F02000206484F83C7001205F
:10101000BDE8F08100F0FAF906462068006810F09B
:10102000020F16D1B5F1FF3F0ED025B100F0EEF959
:10103000801BA84208D9206C40F00400206484F88A
:101040003C700320BDE8F0812068006810F0020FBA
:10105000E8D021686FF012000860206C40F4007046
:1010600020642068816811F0405F04BF217E002960
:1010700013D1C16A11F4700F1CBF806810F4806F27
:101080000BD1206C20F480702064206C10F4805F01
:1010900003D1206C40F0010020644FF00000BDE857
:1010A000F081000081B00022009290F83C100129EC
:1010B00002BF022001B07047012180F83C10016896
:1010C0008B6813F0010F0FD18B6843F001038B6025
:1010D0002F49304B0968B1FBF3F111EB410100914D
:1010E00002D0491E0091FCD101688B6813F0010FFA
:1010F0004BD0036C23F0010323F4C06343F48073EB
:1011000003644B6813F4806F05D0036C23F4005321
:1011100043F480530364036C13F4805F08BF42649C
:1011200003D0436C23F00603436480F83C201A4A42
:101130006FF022030B605168006811F01F0F174910
:1011400006D0884204BF816811F0405F19D01CE0CE
:10115000884212D0124A904204BFD1F8042312F000
:101160001F0F0AD0A0F18042B2F591320DD1D1F813
:10117000041301F01F01102907D2816811F0405FAC
:1011800003D1816841F080418160002001B0704747
:101190004000002040420F00002301400020014099
:1011A000002101402DE9F84F002203248D4E8E4F7F
:1011B0000F25012303FA02F80B6803EA08034345ED
:1011C00040F00981D1F804C0BCF1010F18BFBCF197
:1011D000020F05D0BCF1110F18BFBCF1120F1DD1C9
:1011E000D0F808904FEA420C04FA0CFA29EA0A09EE
:1011F000D1F80CA00AFA0CFC4CEA090CC0F808C0A3
:10120000D0F804C02CEA080C91F80480C8F3001848
:1012100008FA02F848EA0C0CC0F804C0D0F80C80B8
:101220004FEA420CD1F808A004FA0CF928EA0908A0
:101230000AFA0CFA4AEA0808C0F80C80D1F80480CF
:10124000B8F1020F18BFB8F1120F15D14FEAD2084A
:1012500000EB880ADAF820B04FEA42784FEAD86803
:1012600005FA08FE2BEA0E0BD1F810E00EFA08F88A
:1012700048EA0B08CAF82080D0F8008028EA09085C
:1012800091F8049009F0030909FA0CFC4CEA080CE7
:10129000C0F800C0D1F804C01CF0805F7ED0D6F842
:1012A00000C04CF4804CC6F800C0D6F800C00CF466
:1012B000804CCDF800C022F0030C0CF1804909F5F8
:1012C0009839D9F808C84FEA82784FEA187805FAB1
:1012D00008FA2CEA0A0AA0F1804CBCF5003C38D090
:1012E000A0F1804CBCF5013C08BF4FF0010C30D0A0
:1012F000A0F1804CBCF5023C08BF4FF0020C28D096
:10130000A0F1804CBCF5033C08BF4FF0030C20D08B
:10131000A0F1804CBCF5043C08BF4FF0040C18D081
:10132000A0F1804CBCF5053C08BF4FF0050C10D077
:10133000A0F1804CBCF5063C08BF4FF0060C08D06D
:10134000A0F1804CBCF5073C0CBF4FF0070C4FF0F0
:10135000080C0CFA08FC4CEA0A0CC9F808C8D7F8C3
:1013600000C0D1F804802CEA030C18F4803F18BFA9
:101370004CEA030CC7F800C0DFF87080D8F800C052
:10138000D1F804902CEA030C19F4003F18BF4CEA82
:10139000030CC8F800C0DFF8588000E01BE0D8F864
:1013A00000C0D1F804902CEA030C19F4801F18BF78
:1013B0004CEA030CC8F800C0DFF83880D8F800C049
:1013C000D1F804902CEA030C19F4001F18BF4CEA62
:1013D000030CC8F800C0521C102AFFF4EAAEBDE8A6
:1013E000F88F000044380240003C0140043C0140BA
:1013F000083C01400C3C01400069084018BF012036
:101400007047002A08BF090481617047014880685D
:101410007047000034000020002804BF01207047FE
:1014200070B504464CF6CC4021680860216845F24E
:1014300055500860D4E9000141602168A0688860C7
:10144000FFF7E4FF05462068C06850B1FFF7DEFFF4
:10145000401B302801D9032070BD2068C0680028D7
:10146000F4D121684AF6AA200860002070BD00006F
:10147000024881680278114481607047340000207E
:101480000B4810B5016841F400710160016841F436
:1014900080610160016841F480710160032000F007
:1014A00079F80F2000F006F800F024F8002010BDB5
:1014B000003C024070B50D4D04464FF47A71287817
:1014C000B1FBF0F00A490968B1FBF0F000F060FBF5
:1014D00048B9102C07D200222146501E00F028F8EF
:1014E00000206C6070BD012070BD00003400002041
:1014F000400000200C4882B0016841F48041016046
:10150000006800F4804000900848016841F0805174
:1015100001600068002200F0805000900F21901EB2
:1015200002B000F005B800004438024040380240E4
:10153000174B10B41B68C3F30223C3F1070CBCF1B3
:10154000040F88BF4FF0040C1C1D072C34BF002370
:10155000DB1E012404FA0CFCACF1010C0CEA0101C5
:10156000994004FA03F35B1E1A40114300284FEA26
:101570000111A1BF00F1E02080F8001410BC7047F9
:1015800000F00F0000F1E02080F8141D10BC70473F
:101590000CED00E0074A00F0070011684FF6FF036A
:1015A000194041EA002040F0FD7040F0806010607A
:1015B000704700000CED00E0002804BF01207047D8
:1015C0002DE9F047DFF83C9104460D46D9F80000BC
:1015D000CFB200F00F00A84207D289F80070D9F806
:1015E000000000F00F00A84263D12068464E10F0C2
:1015F000020F14D010F0040F03D0306840F4E05014
:101600003060207810F0080F03D0306840F460405C
:1016100030603068A16820F0F00008433060207826
:1016200010F0010F37D060683849012823D0022814
:1016300018BF0328096823D011F0020F39D0316890
:1016400021F0030141EA00003060FFF7DFFE804631
:101650003068616800F00C00B0EB810F18BF41F2F8
:10166000883A18D0FFF7D2FEA0EB080050450BD9FE
:101670000320BDE8F087096811F4003FDFD118E0CE
:1016800011F0007FDBD114E03068616800F00C00DD
:10169000B0EB810FE6D1D9F8000000F00F00A842AE
:1016A0000AD989F80070D9F8000000F00F00A842AC
:1016B00002D00120BDE8F087207810F0040F05D09B
:1016C0003068E16820F4E05008433060207810F082
:1016D000080F06D03068216920F4604040EAC1005C
:1016E000306000F01BF83168094AC1F30311515C06
:1016F000C8400849086008480068FFF7DBFE002082
:10170000BDE8F087003C0240083802400038024043
:101710006C57060840000020380000201848006878
:1017200010F00C01174808BF7047174B042904BF7D
:1017300018467047082918BF704710B5134C216828
:1017400001F03F02216811F4800F08D02068C0F337
:101750008810A0FB03010023FEF792FD07E021683B
:101760000023C1F38811A1FB0001FEF789FD216868
:10177000C1F30141491C4900B0FBF1F010BD00006C
:10178000083802400024F40000127A0004380240B5
:10179000002804BF012070472DE9F84F0446007867
:1017A000DFF8C88310F0010FA8F1040558D008F144
:1017B0000400016801F00C01042909D0006800F060
:1017C0000C0008280DD1D8F8000010F4800F08D0C4
:1017D000286810F4003F43D06068002800F0C08102
:1017E0003EE06068B0F5803F19D0B0F5A02F2868C2
:1017F0000CBF40F4802020F48030286028680CBFA3
:1018000040F4803020F4802028606068B8B1FFF791
:10181000FDFD0646286810F4003F05D020E028684A
:1018200040F480302860F0E7FFF7F0FD801B64286B
:1018300000F23781286810F4003FF5D010E0FFF780
:10184000E5FD0646286810F4003F09D0FFF7DEFDED
:10185000801B642800F22581286810F4003FF5D130
:101860002078C34F10F0020F4FF0000947D0C14855
:10187000016811F00C0F16D0006800F00C00082869
:1018800004BFD8F8000010F4800F0CD0E06820B33B
:101890004FF001003860FFF7B9FD0646286810F0E8
:1018A000020F09D011E0286810F0020F1CBFE06899
:1018B00001280AD000F054B9FFF7A8FD801B0228C8
:1018C0007ED8286810F0020FF6D02868216920F031
:1018D000F80040EAC100286011E0C7F80090FFF767
:1018E00095FD0646286810F0020F08D0FFF78EFD20
:1018F000801B022864D8286810F0020FF6D12078E7
:1019000010F0080F2AD09C489C4E616999B10121C2
:101910000160FFF77BFD8246306810F0020F1DD199
:10192000FFF774FDA0EB0A00022849D8306810F0D8
:10193000020FF5D012E0C0F80090FFF767FD824675
:10194000306810F0020F09D0FFF760FDA0EB0A002D
:10195000022835D8306810F0020FF5D1207810F049
:10196000040F7CD086480026006810F0805F09D103
:101970008348016841F0805101600068012600F051
:1019800080500090DFF8FCB1DBF8000010F4807F9D
:101990001AD1DBF8000040F48070CBF80000FFF7AC
:1019A00035FD8246DBF8000010F4807F0CD1FFF794
:1019B0002DFDA0EB0A00022873D8DBF8000000E040
:1019C0006FE010F4807FF2D0A068DFF8BCB101288E
:1019D0001DD00528DBF800000CBF40F0040020F00B
:1019E0000100CBF80000DBF800000CBF40F0010064
:1019F00020F00400CBF80000A068E8B1FFF706FD76
:101A00008246DBF8000010F0020F07D02BE0DBF875
:101A1000000040F00100CBF80000EDE7FFF7F6FC16
:101A2000A0EB0A0141F2883081423AD8DBF800008D
:101A300010F0020FF2D016E0FFF7E8FC8246DBF868
:101A4000000010F0020F0ED0FFF7E0FCA0EB0A013F
:101A500041F28830814224D8DBF8000000E008E041
:101A600010F0020FF0D126B14548016821F08051F5
:101A70000160A069E8B33F49096801F00C01082939
:101A80004ED00228C7F860900ED0FFF7BFFC044686
:101A9000286810F0007F66D0FFF7B8FC001B022812
:101AA00039D90320BDE8F88FFFF7B0FC0646286857
:101AB00010F0007F08D0FFF7A9FC801B0228F0D8A7
:101AC000286810F0007FF6D1D4E907010843A16A25
:101AD0002E4A490802EB0141626A41EA8211084339
:101AE00094F82C1040EA0160C8F800000120386624
:101AF00000E038E0FFF78AFC0446286810F0007F19
:101B000031D1FFF783FC001B0228CAD8286810F0E7
:101B1000007FF6D027E0286810F0007FBCD122E0DB
:101B2000012808BFBDE8F88FD8F80000E26900F48A
:101B30008001914214D1226A00F03F0191420FD1FD
:101B400047F6C071626A0140914209D1A26A00F46D
:101B50004031914204D1E16A00F07060884202D0C5
:101B60000120BDE8F88F0020BDE8F88F043802405E
:101B70000000474208380240800E47427438024055
:101B80004038024000700040703802400000FFFF03
:101B9000401EB0F1807F24BF012070474FF0E0214C
:101BA0004861054AF02082F8140D00208861072062
:101BB00008610020704700000FE000E02DE9F041CF
:101BC000044690F83C000D46012804BF0220BDE801
:101BD000F081012684F83C60022084F83D004AB17F
:101BE000042A19D0554FDFF858C1082A28D00C2AEA
:101BF00069D09BE0206801F0CBF92068816941F051
:101C0000080181612068816921F0040181612068F7
:101C100081692A69114311E0206801F0F1F9206817
:101C2000816941F4006181612068816921F48061EA
:101C30008161206881692A6941EA0221816175E038
:101C40002068016A21F480710162016A4268C369F7
:101C5000D5F8008023F0730348EA0303D5F8088021
:101C600021F4007141EA0821B84218BF604507D14C
:101C7000D5F80C8021F4006141EA082121F480614B
:101C8000B84218BF604509D1D5F814C022F44052BB
:101C900042EA0C12D5F818C042EA0C124260C36145
:101CA0006A68C26301622068C16941F00801C161CC
:101CB0002068C16921F00401C1612068C1692A69F5
:101CC00041EA020131E02068016A21F48051016299
:101CD000036A4168C269D5F8008022F4E64242EA0C
:101CE0000822D5F8088023F4005343EA0833B842A9
:101CF00018BF604505D1D5F814C021F4804141EAF0
:101D00008C114160C2616968016403622068C16925
:101D100041F40061C1612068C16921F48061C16141
:101D20002068C1692A6941EA0221C16184F83D60E5
:101D30004FF0000084F83C00BDE8F0810000014055
:101D400000040140002804BF0120704710B504467C
:101D500090F83D0028B9002084F83C00204600F0AF
:101D60000CF8022084F83D00211D206801F09AF84B
:101D7000012084F83D00002010BD704710B50446D6
:101D80000068012201F0F4F82168A1F18040B0F56B
:101D900080301CBFA1F18040B0F5823003D1486C87
:101DA00040F4004048642068816801F0070106297A
:101DB00003D0016841F001010160002010BD2DE950
:101DC000F843044690F839001E4690460D462028F8
:101DD00057D1002D12BFB8F1000F0120BDE8F883E4
:101DE00094F8380001284CD0012084F838004FF0D6
:101DF0000009C4F83C90212084F83900FFF706FB65
:101E0000A4F824800746A4F8268084F83890E08C53
:101E100030B3E08C401EE084A0683B46B0F5805FA4
:101E20004FF000024FF080012046009603D001F0F1
:101E30002BF970B11CE001F027F9C8B92888216896
:101E4000C0F3080048602069002814BF6D1CAD1C59
:101E500003E0216815F8010B4860E08C0028D8D118
:101E60003B46002240212046009601F00DF910B1BA
:101E70000320BDE8F883202084F839000020BDE865
:101E8000F8830220BDE8F883FEE70000114810B592
:101E9000016886B041F00201016000680E4C00F05C
:101EA00002000590C02000900120019002900220C5
:101EB000039069462046FFF775F9012280212046EC
:101EC000FFF79FFA012240212046FFF79AFA06B059
:101ED00010BD000030380240000402402DE9F043FC
:101EE00085B000248027CDE90074374E80466946CE
:101EF00030460294FFF756F9002500224021304673
:101F0000FFF77FFA01F0A4FE012240213046FFF7DF
:101F100078FA6006040E80213046FFF76DFA00283B
:101F20001CBF601CC4B201F08EFE681CC5B2082D37
:101F3000E3D301254FF00209B8F1000F4FF0000282
:101F40004FF04001304620D0FFF75BFACDE9007535
:101F5000CDE9025969463046FFF724F90022802175
:101F60003046FFF74EFA01F073FE01224021304661
:101F7000FFF747FA01F06CFE002240213046FFF7E0
:101F800040FA05B02046BDE8F083FFF73AFACDE904
:101F90000075CDE9025969463046FFF703F9012281
:101FA00080213046FFF72DFA01F052FE0122402138
:101FB0003046FFF726FA01F04BFE00224021304662
:101FC000FFF71FFADDE700000004024070B586B09D
:101FD00005468020009001200221CDE90201194E22
:101FE000019069463046FFF7DDF800224021304677
:101FF000FFF707FA002415F0800F05D00122802199
:102000003046FFF7FEF904E0002280213046FFF75A
:10201000F8F96806050E01F01BFE0122402130464A
:10202000FFF7EFF901F014FE002240213046FFF7E0
:10203000E8F901F00DFE601CC4B2082CDBD306B039
:1020400070BD00000004024010B586B080200090F2
:1020500001200221CDE90201144C0190694620467D
:10206000FFF7A0F8012280212046FFF7CAF90122DC
:1020700040212046FFF7C5F901F0EAFD01F0E8FD37
:10208000002280212046FFF7BCF901F0E1FD01F0BC
:10209000DFFD002240212046FFF7B3F901F0D8FD13
:1020A00006B0BDE8104001F0D3BD000000040240BE
:1020B00010B586B08020009001200221CDE90201F8
:1020C000124C019069462046FFF76CF8002240212F
:1020D0002046FFF796F9002280212046FFF791F96C
:1020E00001F0B6FD01F0B4FD012240212046FFF7CA
:1020F00088F9012280212046FFF783F901F0A8FD2D
:1021000006B0BDE8104001F0A3BD0000000402408D
:1021100070B586B000248025CDE900542A4E69466A
:1021200030460294FFF73EF8012280213046FFF747
:1021300068F901F088FD012240213046FFF761F97E
:1021400001F081FD80213046FFF756F9002832D09A
:10215000601CC4B2FA2C28D901200221CDE900501C
:10216000CDE9020169463046FFF71CF80022402104
:102170003046FFF746F9002280213046FFF741F94B
:1021800001F066FD01F064FD012240213046FFF7B9
:1021900038F9012280213046FFF733F901F058FD6C
:1021A00001F056FD06B0012070BD80213046FFF7DA
:1021B00023F90028CCD1002240213046FFF721F935
:1021C00006B0002070BD0000000402402DE9F0417F
:1021D000354F364E364D00244FF4007800224FF430
:1021E00070713846FFF70DF928FA04F101223846DC
:1021F000FFF707F94FF480613046FFF7FDF800283C
:1022000015F8240014BF40F0010020F0010005F88B
:1022100024004FF400713046FFF7EEF805EB84011F
:102220000028087C14BF40F0010020F00100087471
:102230004FF480713046FFF7DFF800281FBF05EB31
:10224000840191F8200040F0010081F8200001BFD6
:1022500005EB840090F8201021F0010180F8201097
:10226000601CC4B2042CB9D308213046FFF7C4F86F
:10227000002895F8300014BF20F0010040F0010064
:1022800085F830004FF400613046FFF7B5F80028BC
:1022900095F8340014BF20F0010040F0010085F8EB
:1022A0003400BDE8F0810000000802400000024058
:1022B000CC4A00200020064A014612F8213013F0D3
:1022C000020F18BF0120491CC9B20D29F5D970476A
:1022D000CC4A002010B500F053F80020DFF824C0ED
:1022E00003460CEB80014B708B701CF8202022F011
:1022F0003E020CF82020401CC0B2CB700D28F0D953
:1023000010BD0000CC4A0020044A0146002012F80B
:10231000211011F0100F18BF01207047CC4A002087
:10232000064B002213F8201011F0040F04D021F006
:10233000060103F82010012210467047CC4A002005
:10234000064B002213F8201011F0200F04D021F0CA
:10235000220103F82010012210467047CC4A0020C9
:10236000064B002213F8201011F0080F04D021F0C2
:102370000A0103F82010012210467047CC4A0020C1
:1023800070B586B04FF47070009001200024124D9B
:10239000019002900394049469462846FEF702FFD8
:1023A00000224FF470712846FFF72BF84FF4E060DD
:1023B000CDE90004094E0225694602953046FEF734
:1023C000F1FE40F60801CDE9001402956946304659
:1023D000FEF7E8FE06B070BD0008024000000240B3
:1023E00010B5FFF7F3FE0024204600F005F8601C4E
:1023F000C4B20D2CF8D910BD30B42A4C4FF0000CEB
:1024000004EB8001CA78012A0ED00125022A1EBFE2
:10241000CD7030BC70478A78C82A28D2521CD2B2FC
:102420008A70C82A23D11CE014F8202012F0010F72
:1024300013D04B785B1CDBB24B70022B9CBF30BCC3
:10244000704742F0160204F8202081F802C081F89B
:1024500001C00220C87030BC704781F801C030BC98
:10246000704714F8202042F0220204F8202014F8CB
:10247000202012F0010FF0D14B785B1CDBB24B70C7
:10248000022B9CBF30BC704722F0100242F00A02BF
:1024900004F8202081F802C081F801C0CD7030BC62
:1024A00070470000CC4A002070B506460021EF239B
:1024B00040F23F12084600F0ABF92C2000F01EFF5E
:1024C00000250024304600F0E9FA304600F0E6FA34
:1024D000304600F0E3FA304600F0E0FA304600F013
:1024E000DDFA304600F0DAFA304600F0D7FA30462E
:1024F00000F0D4FA304600F0D1FA304600F0CEFABF
:10250000641C202CDED36D1CF02DDAD370BD0000CE
:102510002DE9F04186B001261020CDE90006022504
:10252000B84FCDE90265002469463846FEF73AFE09
:102530002021009100210395CDE901166946384616
:10254000FEF730FE68020090CDE90165AE4F6946A6
:1025500038460395FEF726FE0096CDE901656946EB
:1025600038460395FEF71EFE80200090CDE90165F8
:10257000DFF89882694640460395FEF713FE042073
:102580000090CDE90165694638460395FEF70AFEDD
:10259000CDE900560295694638460395FEF702FEDE
:1025A0004FF47F40CDE90006CDE90265694640461B
:1025B000FEF7F8FD012211463846FEF722FF01F032
:1025C00037FB002201213846FEF71BFF01F030FBEC
:1025D000012211463846FEF714FF01F029FBCF20F7
:1025E00000F08CFE002000F0C1FEC12000F0BEFE15
:1025F000302000F0BBFEED2000F080FE642000F0F3
:10260000B5FE032000F0B2FE122000F0AFFE8120E4
:1026100000F0ACFECB2000F071FE392000F0A6FEE9
:102620002C2000F0A3FE002000F0A0FE342000F0DB
:102630009DFE022000F09AFEF72000F05FFE2020B1
:1026400000F094FEEA2000F059FE002000F08EFE1B
:10265000002000F08BFE362000F050FEB82000F085
:1026600085FEB62000F04AFE0A2000F07FFEA22080
:1026700000F07CFEC02000F041FE212000F076FE3C
:10268000C12000F03BFE112000F070FEC52000F0DC
:1026900035FE352000F06AFE322000F067FEC720CC
:1026A00000F02CFEB22000F061FEF22000F026FEC9
:1026B000002000F05BFEF62000F020FE012000F07C
:1026C00055FE312000F052FE002000F04FFE3A206F
:1026D00000F014FE652000F049FEB12000F00EFE6F
:1026E000002000F043FE192000F040FEE82000F03A
:1026F00005FE852000F03AFE102000F037FE7A201B
:1027000000F034FEB42000F0F9FD002000F02EFEB1
:10271000352000F0F3FD002000F028FEE02000F05E
:10272000EDFD002000F022FE212000F01FFE1E2003
:1027300000F01CFE0B2000F019FE0E2000F016FE2B
:10274000092000F013FE4A2000F010FEC52000F022
:102750000DFE3A2000F00AFE092000F007FE0B20D3
:1027600000F004FE042000F001FE162000F0FEFD43
:10277000172000F0FBFD002000F0F8FDE12000F044
:10278000BDFD0F2000F0F2FD1E2000F0EFFD212026
:1027900000F0ECFD042000F0E9FD112000F0E6FD62
:1027A000072000F0E3FD352000F0E0FD762000F08A
:1027B000DDFD452000F0DAFD062000F0D7FD1420F5
:1027C00000F0D4FD0B2000F0D1FD272000F0CEFD5D
:1027D000382000F0CBFD0F2000F0C8FD112000F0E4
:1027E0008DFD01F025FA601CC4B2192CF9D3292003
:1027F00000F084FD01F01CFA2C2000F07FFD06B0F3
:10280000BDE8F081000802400004024000100240D0
:102810002DE9F04107461C4615460E462A2000F0D9
:102820006DFD380A00F0A2FDF8B200F09FFD280A05
:1028300000F09CFDE8B200F099FD2B2000F05EFD59
:10284000300A00F093FDF0B200F090FD200A00F095
:102850008DFDE0B2BDE8F04100F088BD024632488F
:10286000324B092A28BF7047DFE802F05D050F19D7
:10287000232D3945510019B101221102FEF7C1BDC6
:1028800000224FF48071FEF7BCBD19B10122510244
:10289000FEF7B7BD00224FF40071FEF7B2BD19B1CB
:1028A00001229102FEF7ADBD00224FF48061FEF7D8
:1028B000A8BD19B10122D102FEF7A3BD00224FF439
:1028C0000061FEF79EBD21B10122D1031846FEF73B
:1028D00098BD00224FF400411846FEF792BD21B189
:1028E000012291031846FEF78CBD00224FF480416F
:1028F0001846FEF786BD21B1012251031846FEF7A6
:1029000080BD00224FF400511846FEF77ABD21B178
:10291000012211031846FEF774BD00224FF48051C6
:102920001846FEF76EBD7047000C024000040240DE
:1029300010B5294C002836D001281BD0022818BF1A
:1029400010BD00224FF400512046FEF75AFD002230
:102950004FF480512046FEF754FD00224FF4804191
:102960002046FEF74EFD20460122BDE810409103AF
:10297000FEF747BD00224FF480512046FEF741FD8F
:1029800000224FF480412046FEF73BFD00224FF429
:1029900000512046FEF735FD20460122BDE81040DB
:1029A0005103FEF72EBD00224FF480412046FEF772
:1029B00028FD00224FF400512046FEF722FD0022A0
:1029C0004FF480512046FEF71CFD20460122BDE851
:1029D00010401103FEF715BD000C024070B52D4DDF
:1029E0002D4C01282CD00022A1152846FEF709FD08
:1029F000002261152846FEF704FD00222115284615
:102A0000FEF7FFFC0022E1142846FEF7FAFC002244
:102A10004FF400412046FEF7F4FC00224FF48041C1
:102A20002046FEF7EEFC00224FF400512046FEF750
:102A3000E8FC0022A1142046BDE87040FEF7E1BC8E
:102A4000012211022846FEF7DCFC01225102284631
:102A5000FEF7D7FC012291022846FEF7D2FC0122A4
:102A6000D1022846FEF7CDFC0122D1032046FEF715
:102A7000C8FC012291032046FEF7C3FC012251034A
:102A80002046FEF7BEFC2046BDE87040012211033F
:102A9000FEF7B7BC000C0240000402402DE9F041F3
:102AA0000446C0F3072004F0B9FA0546E0B204F08A
:102AB000B5FA1E4F064600224FF480613846FEF7F5
:102AC000A0FC1B4C012280212046FEF79AFC01222B
:102AD00002213846FEF795FC6069C0B2606160690A
:102AE00040EA05206061002204213846FEF789FC97
:102AF000012204213846FEF784FC6069C0B260619F
:102B0000606940EA06206061002204213846FEF731
:102B100078FC012204213846FEF773FC3846BDE8F4
:102B2000F04101229102FEF76CBC0000000402405B
:102B3000001002404AF6AA24044D00F0E1FA286889
:102B400004600A2003F04CFBF7E70000EC010020D2
:102B500038B541F2A200FFF7A7FC45F6AA24A3234B
:102B6000A022D9216A20009402F0B4FCF0234F2265
:102B70006D216A20009402F0ADFCF0234F22D92190
:102B8000D620009402F0A6FC5949009172201F2320
:102B90006E22102103F07EFC5648009082202023F4
:102BA0006E22102103F076FC5348009089201F23E9
:102BB0006E22102103F06EFC5048009025236E22F7
:102BC0002E21A22003F066FC4D4900917C20202399
:102BD000BE22102103F05EFC4A4800908C20202386
:102BE000BE22102103F056FC474824230090BE2249
:102BF0001946A52003F04EFC444D41F2A204E87AA8
:102C000010F0010F17D042480090322364221721A0
:102C10000A2003F03FFC5A229A23114637200094E1
:102C200002F058FC3B4800902D235A2223213720E4
:102C300003F030FC16E09623642221210A20009440
:102C400002F048FC344800901E23642217210A2019
:102C500003F020FC3148009040235A2223213720E2
:102C600003F018FCE87A10F0020F17D02C480090FF
:102C70003823AA222521372003F00CFCE223AA22C4
:102C800026210520009402F025FC264800902523EB
:102C9000AA222121052003F0FDFB16E0E223AA224F
:102CA0005C213720009402F015FC1F48252300907A
:102CB000AA221946372003F0EDFB1C480090382368
:102CC000AA222121052003F0E5FB1948807B01F0B1
:102CD00089FB01F0FFF90020FFF780FE154800781E
:102CE000BDE83840401CC0B20121FFF7B7BD00006D
:102CF000D48F0008D4AE0008749B0008EE6302086D
:102D0000549F0008148800083A71020874010020DA
:102D100064160208C4240208601F02081A87020809
:102D2000C43B0208F44B0208123102087E55020827
:102D30000000002028000020FEE77047F0B587B0B3
:102D40000620009002200121CDE90101CDE9030117
:102D5000002669462048FEF725FA2048016841F020
:102D60000101016000684FF0804100F00100059012
:102D70001B48016041F2A5514660C0E90316866018
:102D8000FEF7E0FF174D04200024686008206E6302
:102D90002E616027A86204EBC40025F8206005EBD3
:102DA000800000F108014680C0E902768661426831
:102DB0000B48FEF703FF641C022CECDB002404EB41
:102DC000C40005EB800041680548FEF7D7FF641C8E
:102DD000022CF4DB07B0F0BD000002404038024096
:102DE0004C4B0020044B002010B5FEF741FB05F0D2
:102DF000D7FA012808BF10BDBDE8104004F098BF05
:102E000030B593B0002402941D48019407940C94AB
:102E10000D940E940F941094016841F0805101605C
:102E2000006800F0805011901648016841F480411C
:102E300001600068102100F4804011900A20009089
:102E40000120CDE903010225CDE905050820089000
:102E5000A820CDE9090504200B906846FEF798FCF0
:102E60000F20CDE90C054FF4A050CDE90E40E8024B
:102E7000109005210CA8FEF79FFB13B030BD000099
:102E800040380240007000400448016841F470017D
:102E9000016003494FF000600860704788ED00E072
:102EA00008ED00E0F0B402682C4B2D4C2D4D2E4E59
:102EB000DFF8B8C0984218BFB0F1804F07D0A042E9
:102EC00018BFA84203D0B04218BF604504D14F6874
:102ED00022F0700247EA0202984218BFB0F1804F18
:102EE00025D0A04218BFA84221D0B04218BF6045EB
:102EF0001DD0A0F18044B4F5A0341CBFA0F18044E3
:102F0000B4F5A23413D0A0F18044B4F5A4341CBFAE
:102F1000A0F18044B4F5C05409D0A0F18044B4F5C8
:102F2000E0541CBFA0F18044B4F5005403D1CC6838
:102F300022F4407222434C6922F080022243026054
:102F40008A68C2620A688262984212BF6045096953
:102F500001634FF001014161F0BC70470000014086
:102F60000004004000080040000C00400004014044
:102F700001F01F010123D0F820C08B402CEA03038D
:102F80000362036A02FA01F119430162704700000B
:102F900070B4026A22F001020262036A4268D0F849
:102FA00018C00C682CF0730C44EA0C0C8C6823F0ED
:102FB00002032343104C114DA04218BFA84206D172
:102FC000CE6823F0080346EA030323F00403A0427B
:102FD00018BFA84207D14C6922F4407244EA0202A9
:102FE0008C6944EA02024260C0F818C04968416333
:102FF000036270BC70470000000001400004014003
:1030000070B4026A22F010020262036A4268D0F8C9
:1030100018C00C682CF4E64C4CEA042C8C6823F0A5
:10302000200343EA0413104C104DA04218BFA842DD
:1030300006D1CE6823F0800343EA061323F0400351
:10304000A04218BFA84207D14C6922F4406242EA6C
:1030500084028C6942EA84024260C0F818C0496860
:103060008163036270BC70470000014000040140AE
:1030700010B503F06DFF002808BF10BDD0E90012A5
:10308000BDE81040104608472DE9F04104460068AD
:10309000069D1E4600681746884631EA00000CBFB0
:1030A00001200020B84226D1B5F1FF3F1AD025B14A
:1030B000FEF7ACF9801BA84214D92068C16821F43E
:1030C000D071C1602068416921F001014161202077
:1030D00084F8390084F83A00002084F8380003208E
:1030E000BDE8F0812068006838EA00000CBF0120CC
:1030F0000020B842D8D00020BDE8F081FEE70000F3
:103100002DE9F041FFF7D6F8784F794D002640B30E
:1031100004F0C0FB77484FF47A71407A10FB01F05D
:10312000386004F0D7FB00242046FFF7F9F818B107
:1031300000212046FDF760FC2046FFF711F918B189
:1031400001212046FDF758FC2046FFF7F9F818B199
:1031500003212046FDF750FC601CC4B20D2CE3D9BE
:1031600036E004F097FB6C8B04F0B4FB002C02BF3C
:10317000E87D062834202AD03868002802BFE87D80
:103180000028302023D004F085FBAC8B04F0A2FB98
:10319000002C02BFE87D0728352018D0E87D0128E3
:1031A00016D004F0B3FAE87403210620FDF72EFDD3
:1031B000044603210720FDF729FD6A7A012182B325
:1031C0004FF0020C012A30D0022A36D03BE0E873DF
:1031D00049484FF01402017811F0010F08D0A87887
:1031E000002803BF0A20E873AA70401E18BFA87009
:1031F00011F0020F08D0A878002803BF0D20E87353
:10320000AA70401E18BFA870E87D0C2828BFBDE832
:10321000F081DFE800F0242830343844484C502C4A
:103220005854B4F5506F0ED20CE040F63363984218
:1032300006D2B4F5506F06D204E0B4F5506F01D356
:10324000614600E031462975AB7BE87C834208BFCC
:103250009142BDD0A87369724FF03300B7E7BDE863
:10326000F04102F065BBBDE8F04102F089B9BDE86C
:10327000F04100F0F3BCBDE8F04103F0A1B9BDE8B6
:10328000F04103F0E1BFE87B31282CD10020E87544
:10329000AE75FFF75DFC0120FFF74AFB23E0BDE8B8
:1032A000F04100F07FBDBDE8F04104F0D1B8BDE8C9
:1032B000F04100F09FB8BDE8F04100F04FB9BDE823
:1032C000F04100F0C1B8E87B082802D0312803D0D3
:1032D00009E0FDF7FFF906E00520E8750320A87571
:1032E0000120FFF725FBEE73BDE8F081C000002050
:1032F00000000020740100201500002070B5C0B24D
:1033000003F08CFE174E054600224FF480613046D4
:10331000FEF777F8144C002280212046FEF771F862
:10332000012202213046FEF76CF86069C0B260618C
:10333000606940EA05206061002204213046FEF702
:1033400060F8012204213046FEF75BF8012280215B
:103350002046FEF756F83046BDE870400122910243
:10336000FEF74FB8000402400010024070B5C0B232
:1033700003F054FE154E054600224FF4806130469E
:10338000FEF73FF8124C012280212046FEF739F863
:10339000012202213046FEF734F86069C0B2606154
:1033A000606940EA05206061002204213046FEF792
:1033B00028F8012204213046FEF723F83046BDE804
:1033C000704001229102FEF71CB800000004024088
:1033D0000010024002E008C8121F08C1002AFAD1FA
:1033E00070477047002001E001C1121F002AFBD185
:1033F0007047000070B5134C0025607A28B1FFF7C4
:10340000A7FB0020E075A5751AE0E07B1B2804BF30
:103410000220E07514D0352812D103F05FF840F691
:10342000B83002F0DDFE02F0FFFF04F033FA0620B0
:1034300002F072F804F04EFA03F0F2FF0120A074DB
:10344000E57370BD000000202DE9F84F3F4E4FF0AE
:103450000008F37B312B0ED03F4D3E4F3C49287A7C
:103460004BF6636207F520540A2B0AD00D2B58D077
:10347000232B5BD066E0B07D002804BF0020F075F0
:1034800060E0962838BF401C00D22872C0B200EB22
:10349000C00303EB40131D0BCD2310FB03F3DB0A2A
:1034A000A1FB039C4FEADC0CCCF1000C0CEB8C0C68
:1034B00003EB4C0303F0FF09A1FB0031C9084942AB
:1034C00001EB810100EB410000F0FF0A00928A232A
:1034D0006A224FF48071C02001F0FCFF07EB8520C9
:1034E000009020236A221021C02002F0D3FF202365
:1034F0006A221021D020009402F0CCFF07EB892033
:10350000009020236A221021D72002F0C3FF07EB8E
:103510008A20009020236A221021E72002F0BAFFBF
:1035200010E0322888BF401EB0D9AEE7FFF710FB8D
:1035300086F8168004F0AEF9297A022003F095FD92
:1035400004F0C8F986F80F80BDE8F88F000000206D
:10355000CDCCCCCC08EF0008740100202DE9F04F51
:10356000FE4E85B03046F37B427C312B19D0FD4DA9
:10357000418CFB4FC08B4FF47A7C4FF060084FF0CA
:1035800070094FF0800A4FF0D00B05F51B540A2B41
:1035900017D00D2B00F07181232B00F0D58200F0A5
:1035A000DFBAB07D002804BF0020F07500F0D8829B
:1035B000002A0CBF01200020707401F029FA00F0ED
:1035C000CFBA002A7DD0401D80B2F0835021B0FBDD
:1035D000FCF201914AF2D73101FB0011890DA7FBE2
:1035E00001C3DB085B4203EB830301EB430189B2B8
:1035F00004914CF6CD414143C90CA7FB01C3DB0844
:103600005B4203EB830301EB430189B20391A7FB08
:103610000031C908494201EB810100EB410080B251
:103620000290C2EB421005EB401000901F23822253
:103630001021019802F02EFF04991F23C1EB4110C5
:1036400005EB4010009040468222102102F022FF3C
:1036500003991F23C1EB411005EB40100090484631
:103660008222102102F016FF02981F23C0EB4010A7
:1036700005EB4010009050468222102102F00AFF14
:10368000F18B4FF47A70414341F2A550B1FBF0F059
:1036900080B24AF2D73101FB00118A0D4CF6CD41C0
:1036A0004143C90CA7FB01C3DB085B4203EB830367
:1036B00001EB43011FFA81F8A7FB0031C908494219
:1036C00000E02EE001EB810100EB410087B2C2EB8C
:1036D000421005EB4010009058461F238222102113
:1036E00002F0D8FEC8EB481005EB40100090E02037
:1036F0001F238222102102F0CDFEF0201F23822200
:103700001021009402F0C6FEC7EB471005EB4010F5
:103710000090F7201F238222102102F0BBFE00F050
:103720001FBA481D80B270845021B0FBFCF2019199
:103730004AF2D73101FB0011890DA7FB01C3DB0859
:103740005B4203EB830301EB430189B204914CF626
:10375000CD414143C90CA7FB01C3DB085B4203EB2E
:10376000830301EB430189B20391A7FB0031C90830
:10377000494201EB810100EB410080B20290C2EBB3
:10378000421005EB401000901F233C2210210198AD
:1037900002F080FE04991F23C1EB411005EB40109D
:1037A000009040463C22102102F074FE03991F2332
:1037B000C1EB411005EB4010009048463C2210211F
:1037C00002F068FE02981F23C0EB401005EB40108A
:1037D000009050463C22102102F05CFE718C4FF4A8
:1037E0007A70414341F2A550B1FBF0F080B24AF249
:1037F000D73101FB00118A0D4CF6CD414143C90C74
:10380000A7FB01C3DB085B4203EB830301EB43012E
:103810001FFA81F8A7FB0031C908494201EB810179
:1038200000EB410087B2C2EB421005EB4010009064
:1038300058461F233C22102102F02CFEC8EB4810F2
:1038400005EB40100090E0201F233C22102102F0E5
:1038500021FEF0201F233C221021009402F01AFECA
:10386000C7EB471005EB40100090F7201F233C22C8
:10387000102102F00FFE00F073B9002A74D0052861
:10388000C0F06E81401F80B2F0835021B0FBFCF28B
:1038900001914AF2D73101FB0011890DA7FB01C349
:1038A000DB085B4203EB830301EB430189B2049124
:1038B0004CF6CD414143C90CA7FB01C3DB085B4279
:1038C00003EB830301EB430189B20391A7FB0031B2
:1038D000C908494201EB810100EB410080B202902E
:1038E000C2EB421005EB401000901F2382221021F2
:1038F000019802F0CFFD04991F23C1EB411005EBA5
:103900004010009040468222102102F0C3FD03992E
:103910001F23C1EB411005EB401000904846822266
:10392000102102F0B7FD02981F23C0EB401005EBF9
:103930004010009050468222102102F0ABFDF08B27
:103940004FF47A71414341F2A550B1FBF0F080B2DF
:103950004AF2D73101FB00118A0D06E00000002079
:10396000CDCCCCCC148800083FE04CF6CD4141438F
:10397000C90CA7FB01C3DB085B4203EB830301EB2C
:1039800043011FFA81F8A7FB0031C908494201EB46
:10399000810100EB410087B2C2EB421005EB401001
:1039A000009058461F238222102102F073FDC8EBBD
:1039B000481005EB40100090E0201F2382221021C8
:1039C00002F068FDF0201F2382221021009402F0F3
:1039D00061FDC7EB471005EB40100090F7201F2357
:1039E0008222102102F056FDBAE005297DD3481F3E
:1039F00080B270845021B0FBFCF201914AF2D731C1
:103A000001FB0011890DA7FB01C3DB085B4203EB3F
:103A1000830301EB430189B204914CF6CD4141434C
:103A2000C90CA7FB01C3DB085B4203EB830301EB7B
:103A3000430189B20391A7FB0031C908494201EB58
:103A4000810100EB410080B20290C2EB421005EB15
:103A5000401000901F233C221021019802F01AFD13
:103A600004991F23C1EB411005EB40100090404624
:103A70003C22102102F00EFD03991F23C1EB4110DF
:103A800005EB4010009048463C22102102F002FD58
:103A900002981F23C0EB401005EB401000905046E9
:103AA0003C22102102F0F6FC708C4FF47A714143F5
:103AB00041F2A550B1FBF0F080B24AF2D73101FBE0
:103AC00000118A0D4CF6CD414143C90CA7FB01C33F
:103AD000DB085B4203EB830301EB43011FFA81F830
:103AE000A7FB0031C908494200E039E001EB810140
:103AF00000EB410087B2C2EB421005EB4010009092
:103B000058461F233C22102102F0C4FCC8EB481089
:103B100005EB40100090E0201F233C22102102F012
:103B2000B9FCF0201F233C221021009402F0B2FCCB
:103B3000C7EB471005EB40100090F7201F233C22F5
:103B4000102102F0A7FC0BE0FFF702F80020B0758F
:103B500003F0A0FE718CF08B03F066FB03F0BAFE5D
:103B60000020F07305B0BDE8F08F000038B50020EC
:103B7000042100908802FCF73AFC044603F0CCFBD9
:103B800000216846C1F10302491C8454240AC9B2C9
:103B90000429F7D39DF80000552804BF9DF80100C3
:103BA000AA2807D19DF80200AA2804BF9DF80300A7
:103BB000552825D04FF055014FF48050FCF7F6FC06
:103BC000AA2141F20100FCF7F1FCAA2141F2020016
:103BD000FCF7ECFC552141F20300FCF7E7FC01F097
:103BE00023FE4FF47A710C4602224FF44060FCF73A
:103BF000A3FC0222214640F60240FCF79DFC38BDA2
:103C00000A48017A323964299FBFC17A0729817A2B
:103C1000052905D8407A1E2802D3B42898BF38BD9C
:103C200001F002FE03F078FB38BD000074010020B3
:103C3000002140F2DE320020401C2828FCD3491C21
:103C40009142F8D370470020401C2828FCD37047CD
:103C50000020401C5028FCD3704700002DE9F84F8D
:103C6000464CDFF81C8120466178DFF81891DFF8B8
:103C700018A1C07B002569B1444FDFF814B14BF6A1
:103C80006366012920D0DFF80C81022952D0032974
:103C90005FD06FE025286DD10520E07598F80B0006
:103CA00001F01EFE9AF8001009EBC000405C3A4992
:103CB00031F81000C0EB0010800060620020FEF7B9
:103CC00037FE0120207355E0252803D033480068D3
:103CD000E8B14FE0002201213148FDF792FB0020BE
:103CE000FCF788FC972358224FF496711420009615
:103CF00001F0F0FB17236C22F0212820009702F03E
:103D0000C9FB0A20E0750020FEF712FE32E0022017
:103D1000607003F0BFFD98F80B0001F0E1FD9AF828
:103D2000001009EBC000405C1B4931F81000CBF8D3
:103D300000000BE02528CDD0DBF8000040B90320BF
:103D4000607003F0A7FDCA20C8F8000003F0C2FDB0
:103D500010E02528BED0D8F8000058B90020FCF7A4
:103D600049FC00206070FEF7E3FD002201210C48B1
:103D7000FDF747FBE573BDE8F88F00000000002069
:103D80008001002038010020290000207627060845
:103D9000C8000020CC000020BE560608C400002049
:103DA00000000240F0B5BC4E83B00025307B28B146
:103DB000706A18B90120FEF7BBFD3573F07B24282B
:103DC00042D0B64941F2A204082844D0322879D022
:103DD0001D2800F0C080B24C102800F0DB801128B4
:103DE00000F0E180122800F0EA80132800F0F38050
:103DF000172800F0FC80182800F00581192800F031
:103E00000E811A2800F01481282818BF292800F0F4
:103E100019812A2818BF2B2800F014812C2818BFDC
:103E20002D2800F00F812E2818BF2F2800F00A81BE
:103E30009C4F0A2800F009810D2800F013813928D1
:103E400000F01C8100F024B9FCF7E4FBFEF780FED3
:103E5000B57500F01DB9C87A10F0010F18D020F028
:103E60000100C8729623642221210A20009401F0E7
:103E700031FB8D4800901E23642217210A2002F096
:103E800009FB8A4840235A2223210090372037E03B
:103E900040F00100C8728648009032236422172146
:103EA0000A2002F0F7FA5A229A231146372000948A
:103EB00001F010FB7F482D235A2223210090372048
:103EC0001EE0FFE7B07DF0B1C87A10F0020F29D0F4
:103ED00020F00200C872E223AA225C21372000945D
:103EE00001F0F8FA744825230090AA2219463720D9
:103EF00002F0D0FA714800903823AA22212105202F
:103F000002F0C8FA88E00020F075307B002818BF66
:103F10003573706A20B103F0BDFC756203F0DAFC02
:103F2000012034E040F00200C87265480090382358
:103F3000AA222521372002F0ADFAE223AA22262167
:103F40000520009401F0C6FA5E482523AA2221210B
:103F500000900520D4E7706A48B15BA0D0E900105A
:103F6000CDE900100621684602F04AFF90E00920E2
:103F7000F0750120707003F08DFC55494FF44970C5
:103F8000086003F0A7FC0120FCF734FB0220FEF7D9
:103F9000CFFC7DE00020FEF721FD01210846FEF761
:103FA0005DFC257038E00020FEF718FD012102209D
:103FB000FEF754FC0120207000F020F968E000209A
:103FC000FEF70CFD01210320FEF748FC02202070C3
:103FD00000F014F95CE00020FEF700FD0121042050
:103FE000FEF73CFC0320207000F008F950E00020B0
:103FF000FEF7F4FC01210520FEF730FC04202070C0
:1040000000F0FCF844E00020FEF7E8FC0121062067
:10401000FEF724FC0520207000F0F0F838E00020C6
:10402000FEF7DCFC01210720FEF718FC062007E064
:104030000020FEF7D3FC01210820FEF70FFC07202B
:104040002070E9E7FCF7E6FA22E0C87A01F048FCC4
:10405000217807EBC000425C0D2A38BF521CDBD22E
:104060004254D9E7C87A01F03BFC217807EBC00045
:10407000425C002A18BF521EF2D1CDE702F02EFAA0
:1040800040F6B83002F0ACF802F0CEF903F0C8F90F
:10409000F57303B0F0BD0000000000208001002097
:1040A0002900002038010020601F02081A8702083A
:1040B00064160208C4240208123102087E55020860
:1040C000C43B0208F44B0208776169740D0A0000D2
:1040D000C40000202DE9F84F3F48DC269625C07A21
:1040E00001F0FEFB3D4901EBC0003D490978405C11
:1040F0003C4931F810104FF47A70B1FBF0F2D4B2B1
:10410000B1FBF0F200FB121303EBC30000EB431012
:10411000C0F307373448C823A0FB012040096FF0E3
:1041200018025043314A01EB800082FB00208210CC
:10413000A2EBE07000F0FF082D48A0FB0120C008B2
:10414000404200EB800001EB400000F0FF0A41F22A
:10415000A200009091224FF4A071D92001F0BAF989
:10416000DFF89090202309EB842000902A4610214C
:10417000304602F08FF909F5205000901F232A469F
:104180001021EC2002F086F909EB87200090202313
:104190002A461021F32002F07DF909EB88200090D7
:1041A00020232A46102140F2031002F073F909EB94
:1041B0008A20009020232A46102140F2131002F09A
:1041C00069F90D4800901F232A46102140F2231060
:1041D00002F060F9BDE8F88F7401002008010020AA
:1041E00028000020BE5606081F85EB5167666666EC
:1041F000CDCCCCCC28C300085A7B02082DE9F84F5F
:104200003F48DC269625C07A01F06AFB3D4901EB68
:10421000C0003D490978405C3C4931F810104FF42A
:104220007A70B1FBF0F2D4B2B1FBF0F200FB1213E2
:1042300003EBC30000EB4310C0F307373448C82337
:10424000A0FB012040096FF018025043314A01EBF6
:10425000800082FB00208210A2EBE07000F0FF08DB
:104260002D48A0FB0120C008404200EB800001EB7C
:10427000400000F0FF0A41F2A200009091224FF4AA
:10428000A071D92001F026F9DFF89090202309EBE6
:10429000842000902A461021304602F0FBF809F5F0
:1042A000205000901F232A461021EC2002F0F2F843
:1042B00009EB8720009020232A461021F32002F0EA
:1042C000E9F809EB8820009020232A46102140F2CB
:1042D000031002F0DFF809EB8A20009020232A4621
:1042E000102140F2131002F0D5F80D4800901F2362
:1042F0002A46102140F2231002F0CCF8BDE8F88FD6
:10430000800100203801002029000020BE56060848
:104310001F85EB5167666666CDCCCCCC28C3000800
:104320005A7B0208F8B541F2A200FEF7BDF8294811
:10433000007A00EBC00101EB40110C0BCD2110FB0A
:1043400001F1254BC90AA3FB01C2D208524202EB7C
:10435000820201EB4201CDB2A3FB0021C908494210
:1043600001EB810100EB4100C6B21C486A220090BB
:104370001F231146262002F08DF8C4EB4410184C80
:104380001F2304EB401000906A221021C02002F08D
:1043900081F804F51B50009020236A221021D020C0
:1043A00002F078F8C5EB451004EB401000901F2395
:1043B0006A221021D72002F06DF8C6EB461004EBFC
:1043C000401000901F236A221021E72002F062F8BB
:1043D000F8BD000074010020CDCCCCCC2E810408A7
:1043E0001488000808B5052830D2DFE800F0030C77
:1043F000151E2700224800901D230F223821F4208B
:1044000002F048F822E01F4800901D230F223821B7
:10441000F42002F03FF819E01B4800901D230F2202
:104420003821F42002F036F810E0184800901D23DF
:104430000F223821F42002F02DF807E014480090F4
:104440001D230F223821F42002F024F81148407A6D
:1044500001280BD041F2A20000902C230F2240F241
:104460003F1140F2311001F035F808BD0A480090C4
:104470001D230F220E2140F2311002F00BF808BD6F
:10448000AC090208FCFC01084CF001089CE301089F
:10449000ECD601080000002078BF05082DE9F04F98
:1044A00089B00020E74A01900290039004900590A3
:1044B000117801AB142928BF517844D200290AD9B8
:1044C000A1EB000C94449CF801C003F800C0401C10
:1044D000C0B28142F4D841F2A200FDF7E5FFDA480C
:1044E000009020230A227921642001F0D3FF45F6B1
:1044F000AA20009030232E224FF4A071002000F05B
:10450000E9FFD34DD14805F53A6105F5F866C07964
:10451000079105F57861069142F2E0216F1805F5E3
:104520009B5B05F5BA5A05F5D95905F5F85805F517
:104530007874052824BF09B0BDE8F08FDFE800F0EB
:10454000134C87D3FE008142A1EB000C94448CBF36
:104550009CF801C09CF815C003F800C0401CC0B214
:104560001428F0D3B7E71F233A2210211E2000940D
:1045700001F090FF9DF804203A21482000F06AF9EC
:104580001F236A2210211E20009601F083FF9DF850
:1045900005206A21482000F05DF9079800901F234C
:1045A0009A2210211E2001F075FF9DF806209A2105
:1045B000482000F04FF9069800901F23CA221021CE
:1045C0001E2001F067FF9DF80720CA21482000F057
:1045D00041F909B0BDE8F08F1F233A2210211E20B7
:1045E000CDF800B001F056FF9DF808203A21482090
:1045F00000F030F91F236A2210211E20CDF800A000
:1046000001F048FF9DF809206A21482000F022F9B6
:104610001F239A2210211E20CDF8009001F03AFFAE
:104620009DF80A209A21482000F014F91F23CA227D
:1046300010211E20CDF8008001F02CFF9DF80B20EA
:10464000CA21482000F006F909B0BDE8F08F1F2309
:104650003A2210211E20009701F01CFF9DF80C202B
:104660003A21482000F0F6F81F236A2210211E206C
:10467000009401F00FFF1F236A2210212E200095C5
:1046800001F008FF9DF80D206A21482000F0E2F8B3
:104690001F239A2210211E20009401F0FBFE1F23ED
:1046A0009A2210212E20009401F0F4FE9DF80E2095
:1046B0009A21482000F0CEF81F23CA2210211E2084
:1046C000009401F0E7FE1F23CA2210212E2000963D
:1046D00001F0E0FE9DF80F20CA21482000F0BAF852
:1046E00009B0BDE8F08F1F233A2210211E2000944C
:1046F00001F0D0FE079800901F233A2210212E20AF
:1047000001F0C8FE9DF810203A21482000F0A2F8E0
:104710001F236A2210211E20009401F0BBFE069880
:1047200000901F236A2210212E2001F0B3FE9DF875
:1047300011206A21482000F08DF800E02CE01F23B2
:104740009A2210211E20009401F0A4FE1F239A2219
:1047500010212E20CDF800B001F09CFE9DF8122013
:104760009A21482000F076F81F23CA2210211E202B
:10477000009401F08FFE1F23CA2210212E20CDF8B5
:1047800000A001F087FE9DF81320CA21482000F008
:1047900061F809B0BDE8F08F1F233A2210211E20D6
:1047A000009401F077FE1F233A2210212E20CDF82D
:1047B000009001F06FFE9DF814203A21482000F08F
:1047C00049F81F236A2210211E20009401F062FE86
:1047D0001F236A2210212E20CDF8008001F05AFEFE
:1047E0009DF815206A21482000F034F81F239A22F2
:1047F00010211E20009401F04DFE1F239A2210214B
:104800002E20009701F046FE9DF816209A214820A0
:1048100000F020F81F23CA2210211E20009601F06C
:1048200039FE1F23CA2210212E20009501F032FEEE
:104830009DF81720CA21482000F00CF809B0BDE807
:10484000F08F00008C010020444B03080000002082
:10485000148800082DE9F74F044600F11F0562484F
:1048600082B004F1100904F1200804F1300704F1CA
:104870004F06A0F6047AA0F2827B072A24BF05B077
:10488000BDE8F08FDFE802F01404172A31718400CC
:1048900056481F23009019462046039A01F0FAFD5E
:1048A000534800901F23A8B21946039A01F0F2FD65
:1048B00005B0BDE8F08F4F481F23009019462046F1
:1048C000039A01F0E7FD4A4800901F23A8B2194659
:1048D000039A01F0DFFD05B0BDE8F08F46482023C4
:1048E00000903D212046039A4DE000901F231021A7
:1048F0002046039A01F0CEFD404800901FFA89F04F
:104900001F231021039A01F0C5FD3D4800901FFAB6
:1049100088F01F231021039A01F0BCFD3948009054
:104920001F23B8B21946039A01F0B4FD364800902F
:104930001F23B0B21946039A01F0ACFD04F16E00DA
:104940001F2380B2CDF800A01946039A01F0A2FD02
:1049500004F18D001F2380B2CDF800B01946039AF0
:1049600001F098FD05B0BDE8F08F1F23CDF800A041
:1049700019462046039A01F08DFD1F23A8B2CDF8F9
:1049800000B01946039A01F085FD05B0BDE8F08F2F
:1049900000901F2310212046039A01F07BFD1B4845
:1049A00000901FFA89F01F231021039A01F072FD75
:1049B000134800901FFA88F01F231021039A01F07A
:1049C00069FD1F23B8B2CDF800A01946039A01F083
:1049D00061FD1F23B0B2CDF800B01946039A01F073
:1049E00059FD05B0BDE8F08F96510108081D01087A
:1049F0000C2C01088A24010876550108D48F000880
:104A0000148800088E330108103B0108F48B00085D
:104A10002DE9F04F83B041F2A200FDF745FDC24FF2
:104A200050200190788C4FF47A71B0FBF1F24AF289
:104A3000D73900FB0991BD4C890DA4FB01C3DB08EC
:104A40005B4203EB830301EB43018EB24CF6CD4195
:104A50004143C90CA4FB01C3DB085B4203EB8303A6
:104A600001EB43018DB2A4FB0031C908494201EBBF
:104A7000810100EB41001FFA80FAC2EB4210DFF81F
:104A8000B0821F2308EB401000903C2210210198B7
:104A900001F000FDC6EB461008EB401000901F230C
:104AA0003C221021602001F0F5FCC5EB451008EB1D
:104AB000401000901F233C221021702001F0EAFCDE
:104AC000CAEB4A1008EB401000901F233C22102133
:104AD000802001F0DFFC9748009025233C222E2106
:104AE000902001F0D7FC798C4FF47A70414341F269
:104AF000A550B1FBF0F080B2494601FB00118A0DD0
:104B00004CF6CD414143C90CA4FB01C3DB085B4219
:104B100003EB830301EB43018DB2A4FB0031C90811
:104B2000494201EB810100EB410086B2C2EB421029
:104B300008EB401000901F233C221021D02001F0F0
:104B4000A9FCC5EB451008EB401000901F233C2248
:104B50001021E02001F09EFC08F51B551F233C228C
:104B60001021F020009501F095FCC6EB461008EBF3
:104B7000401000901F233C221021F72001F08AFCF6
:104B8000797C6D4800294FF01603009000F0BD803D
:104B900084220D21282001F07DFC41F2A20000902A
:104BA00054233E223521282000F094FC5E4F4FF420
:104BB0007A71F88BB0FBF1F24AF2D73101FB009128
:104BC000890DA4FB01C3DB085B4203EB830301EB0C
:104BD00043011FFA81FA4CF6CD414143C90CA4FBB5
:104BE00001C3DB085B4203EB830301EB43018EB29D
:104BF000A4FB0031C908494201EB810100EB4100EF
:104C00001FFA80FBC2EB421008EB401000901F23FC
:104C100082221021019801F03DFCCAEB4A1008EBFA
:104C20004010009060201F238222102101F032FCEE
:104C3000C6EB461008EB4010009070201F23822224
:104C4000102101F027FCCBEB4B1008EB401000903B
:104C500080201F238222102101F01CFC3748009085
:104C6000242390208222194601F014FCF98B4FF482
:104C70007A70414341F2A550B1FBF0F080B24AF2A4
:104C8000D73101FB00918A0D4CF6CD414143C90C4F
:104C9000A4FB01C3DB085B4203EB830301EB43018D
:104CA0008EB2A4FB0031C908494201EB810100EB3F
:104CB000410084B2C2EB421008EB40100090D020BB
:104CC0001F238222102101F0E5FBC6EB461008EB02
:104CD00040100090E0201F238222102101F0DAFB17
:104CE000F0201F2382221021009501F0D3FBC4EB9A
:104CF000441008EB40100090F7201F23822210215F
:104D000001F0C8FB03B0BDE8F08F3E220D21282042
:104D100001F0C0FB41F2A20000909A2384223521C9
:104D2000282000F0D7FB41E700000020CDCCCCCC00
:104D300014880008EE63020812A503083A710208FD
:104D40002DE9F84341F2A200FDF7AEFB4148009087
:104D50001F230F227921642001F09CFB45F6AA2035
:104D60000090392337224FF4A071002000F0B2FBED
:104D7000394800901F2385227921192001F08AFBF0
:104D8000364842F21071DFF8D8C00068B0FBF1F18C
:104D9000CBB24FF47A71B0FBF1F1ACFB0142D20817
:104DA000524202EB820201EB42042E49A1FB002198
:104DB0004909ACFB0152D208524202EB820201EBDC
:104DC0004206ACFB0021C908ACFB01C2D20852422A
:104DD00002EB820201EB4207494201EB810100EB49
:104DE0004108214D852205EB8320009020231021CE
:104DF000B42001F04FFB05EB842000902023852296
:104E00001021C42001F046FB05EB862000902023F2
:104E100085221021D42001F03DFB05EB8720009076
:104E2000202385221021E42001F034FB05EB8820AB
:104E30000090202385221021F42001F02BFB0B4849
:104E40000090202385221F214FF48A7001F022FB5D
:104E5000BDE8F8839A9802088EC503087401002003
:104E6000CDCCCCCC1F85EB5128C30008DCE2030875
:104E70002DE9F843064641F2A200FDF715FB9749DC
:104E800000911F230A227921642001F003FB45F6DB
:104E9000AA2730232E224FF4A0710020009700F0A3
:104EA00019FB8F4D8F4C4BF66360002E7DD0012E89
:104EB00018BFBDE8F883F023009090224FF4A07152
:104EC000002000F007FB884800902023522279211F
:104ED000262001F0DFFA687A00EBC00101EB4011F7
:104EE0000A0BCD2110FB01F1C90AA4FB01C3DB08A9
:104EF0005B4203EB830301EB4301CEB2A4FB003121
:104F0000C908494201EB810100EB4100C4B2C2EB88
:104F10004210DFF8D8811F2308EB40100090522286
:104F20001021BF2001F0B6FAC6EB461008EB401086
:104F300000901F2352221021CF2001F0ABFAC4EBC6
:104F4000441008EB401000901F2352221021DF2054
:104F500001F0A0FA664800901F2352221021EF2092
:104F600001F098FA90238E224FF4A0710020009750
:104F700000F0B0FA5F4800901F23B122B52126202F
:104F800001F088FAE87A10F0040F7DD05A480090BA
:104F90001F239E225B21DF2001F07CFA57481F234C
:104FA000CE225B210090DF2000E003E001F072FAE6
:104FB000BDE8F8830090902330224FF4A0710020C8
:104FC00000F088FA4E4800902023522279212620B2
:104FD00001F060FA687A00EBC00101EB40110B0BA5
:104FE000CD2110FB01F1C90AA4FB01C2D208524233
:104FF00002EB820201EB4201CEB2A4FB0021C90800
:10500000494201EB810100EB41003E4FC4B207EB86
:1050100083200090202352221021BF2001F03AFA71
:1050200007EB86200090202352221021CF2001F090
:1050300031FA07EB84200090202352221021DF2038
:1050400001F028FA30480090202352221021EF204E
:1050500001F020FA2D4800901F23B122B52126200F
:1050600001F018FAE87A10F0040F13D028480090E5
:105070001F239E225B21DF2001F00CFA25481F230D
:10508000CE225B21009000E016E0DF2001F002FA62
:10509000BDE8F883204800901F239E225B21DF207B
:1050A00001F0F8F91D4800901F23CE225B21DF207C
:1050B00001F0F0F9BDE8F883194800901F239E2203
:1050C0005B21DF2001F0E6F9164800901F23CE2275
:1050D0005B21DF2001F0DEF9BDE8F88360270408DA
:1050E00074010020CDCCCCCCAE4404081488000858
:1050F0003A83020830E10408DA4F0508AE92050849
:10510000EE62040808EF00083A7F02085AB5040866
:1051100010230508A47C0508060D05089A660508F5
:10512000D03905086EA90508F8B5044641F2A20079
:10513000FDF7BAF93848009020230F227921642026
:1051400001F0A8F9354F45F6AA254BF66366002C09
:1051500032D0012C18BFF8BD392337224FF4A0718B
:105160000020009500F0B6F9ED23952240F27B1166
:105170000020009600F0AEF91623B5220D21722012
:10518000009701F087F926481F23009059221946FD
:10519000902001F07FF9932391224FF4A071002019
:1051A000009500F097F91F4800902023B3221F219B
:1051B000902001F06FF9F8BD392337224FF4A07128
:1051C0000020009500F086F993233B224FF4A07154
:1051D0000020009600F07EF916235B220D2172203C
:1051E000009701F057F910480090202359221F2101
:1051F000902001F04FF9932391224FF4A0710020E9
:10520000009500F067F909481F230090B322194662
:10521000902001F03FF9F8BD9CEA030812A50308AD
:105220009C100408A01F0408DC0804081E180408C9
:105230002DE9F84F044641F2A200FDF735F99D4FE4
:10524000DFF87492DFF874A2DFF874824BF66366BD
:1052500045F6AA25002C52D0AAF57250012C7DD01B
:10526000022C00F0DE80032C18BFBDE8F88F20234D
:1052700000900F227921642001F00CF939233722A4
:105280004FF4A0710020009500F024F9EC23AF2228
:105290004FF4A0710020009600F01CF91623C722DD
:1052A0000D214620009701F0F5F81E234B227921AD
:1052B0006420CDF8009001F0EDF8752373224FF4CF
:1052C000A0710020009500F005F91F2387227921A5
:1052D0006420CDF800A001F0DDF8B123AF224FF437
:1052E000A0710020009500F0F5F87648009020238A
:1052F000C3227921642001F0CDF8BDE8F88F0522A2
:10530000382391010020009600F0E4F816231322C0
:105310000D214620009701F0BDF86B480090202336
:105320000F227921642001F0B5F8392337224FF498
:10533000A0710020009500F0CDF81F234B227921A9
:105340006420CDF8009001F0A5F8752373224FF486
:10535000A0710020009500F0BDF800E019E01F23C7
:10536000872279216420CDF800A001F093F8B123C1
:10537000AF224FF4A0710020009500F0ABF81F237E
:10538000C32279216420CDF8008001F083F8BDE8C4
:10539000F88F009020230F227921642001F07AF801
:1053A000392337224FF4A0710020009500F092F8C5
:1053B000742337224FF4A0710020009600F08AF881
:1053C00016234F220D214620009701F063F83F4835
:1053D000009020234B227921642001F05BF8752393
:1053E00073224FF4A0710020009500F073F81F2382
:1053F000872279216420CDF800A001F04BF8B12379
:10540000AF224FF4A0710020009500F063F81F2335
:10541000C32279216420CDF8008001F03BF8BDE87B
:10542000F88F009020230F227921642001F032F8B8
:10543000392337224FF4A0710020009500F04AF87C
:10544000B02373224FF4A0710020009600F042F8C0
:1054500016238B220D214620009701F01BF81E23F6
:105460004B2279216420CDF8009001F013F87523C8
:1054700073224FF4A0710020009500F02BF814481F
:105480000090202387227921642001F003F8B123C2
:10549000AF224FF4A0710020009500F01BF81F23ED
:1054A000C32279216420CDF8008000F0F3FFBDE82D
:1054B000F88F000012A50308B60F030868F202086F
:1054C000846903084EA7030828D40208042D0308A2
:1054D000D28603082DE9F04790461D460F464A1E26
:1054E00081465B1E4146089EFDF792F92C20FDF790
:1054F00005FFA7EB0900A5EB0801002400FB01F55F
:10550000002D98BFBDE8F0873046FDF7C7FA641C50
:10551000A542F9D8BDE8F0872DE9F041174E164CA9
:105520000746316860784AF6AA250D60394600F6CC
:105530000200FBF73BF86078A11C47546078401CE0
:10554000C0B26070142824BF002060702078401C16
:10555000C0B22070142824BF14202070C1B24FF4B0
:105560000060FBF723F8617840F60100FBF71EF8B6
:1055700030680560BDE8F0818C010020EC0100205E
:105580002DE9F04F994CDFF868A220462DED028BF3
:1055900081B02178C07BDFF85C92002599B19FED46
:1055A000968A964FDFF858B24BF663664FF00408C0
:1055B000012947D0DFF84C92022979D0032900F065
:1055C000F38000F00CB9252840F009818E49D9F804
:1055D000000088423CBF401CC9F8000099F80B004D
:1055E00000F07EF9894E0AEBC000894F3178405CAB
:1055F00099F8081037F8100041438648A0FB0110C5
:1056000085494009A1FB0010D9F8041001EBD00036
:10561000C9F8040099F80B0000F062F931780AEB40
:10562000C000405C37F81000C0EB001080006062E2
:105630000120E0724FF4FA6000F0D2FD0020E07526
:1056400000F0CDB8252803D07448006888B3C6E0C0
:10565000002201217248FBF7D4FEB0EE480A002078
:1056600001F088FCB0EE480A012001F083FC002024
:10567000FAF7C0FF972358224FF496711420009632
:10568000FFF728FF17236C22F0212820009700F055
:1056900001FF02F0FFF80420FFF73EFF02F01AF9C5
:1056A0000420E0750020FDF743F984F8168096E0A9
:1056B00034E0FFE70220207002F0ECF8032107201D
:1056C000FBF7A4FA40F67561884228BF40F6756082
:1056D0005449B1FBF0F0E18B80B241434D4880FB6F
:1056E00001104111A1EBE070208499F80B0000F04B
:1056F000F7F80AEBC00145480078085C444931F8E6
:105700001000CBF8000002F0E5F8208C00EE100A43
:105710000020B8EE400A01F02DFC60E0252803D0FF
:10572000DBF8000080B35AE0002201213C48FBF77F
:1057300068FEB0EE480A002001F01CFCB0EE480AFA
:10574000012001F017FC0020FAF754FF972358229C
:105750004FF4967114200096FFF7BCFE17236C22BD
:10576000F0212820009700F095FE02F093F8042025
:10577000FFF7D2FE02F0AEF80420E07584F8168040
:105780000020FDF7D5F82AE0FFE70320207002F0A3
:1057900081F8CA20C9F8000002F09CF8B0EE480A6F
:1057A000002001F0E7FB1AE02528BDD0D9F8000061
:1057B000A8B90020FAF71EFF00202070B0EE480ABA
:1057C00001F0D8FBB0EE480A012001F0D3FB002025
:1057D000FDF7AEF8002201211148FBF712FEE57338
:1057E00001B0BDEC028BBDE8F08F0000000000208E
:1057F0000801002074010020000000007627060840
:10580000C8000020CC0000209F8601002800002056
:10581000BE5606081F85EB51CDCCCCCCC400002071
:1058200000000240B4A505002DE9F041294E4AF6DA
:10583000AA25002430680560274FE00007EBC4016B
:105840000822FAF746FE30680560601CC4B2062CD8
:10585000F3D34FF4806004220021FAF76DFE40F28A
:10586000044004220021FAF767FE3068056040F228
:1058700009407821FAF79AFE40F20A400021FAF72F
:1058800095FE3068056040F20B400121FAF78EFE6C
:1058900000214FF40060FAF789FEDFF8408000270E
:1058A000394688F8007040F60100FAF77FFE88F864
:1058B00001700024002104F60200FAF777FE08EBDD
:1058C0000400877030680560601CC4B2142CF1D3EA
:1058D000BDE8F081EC010020DC5606088C010020B8
:1058E00000F00700082828BF7047DFE800F0040632
:1058F000080A04060C0E00207047032070470120A0
:10590000704704207047022070470520704770B52B
:105910000D46044602214FF44060FAF768FD2080EE
:10592000022140F60240FAF762FD288070BD0000B7
:105930002DE9F84FFE4DDFF8FCB30024E87A58B1AA
:10594000686A98B901215846FBF756FD70B90120E5
:10595000FCF7EEFFEC7209E001215846FBF74CFD25
:10596000012814BF01200020FCF7E2FFE87BF24F82
:10597000DFF8C8834FF0030924285BD0F04941F2D7
:10598000A206312865D04FF0050A23287ED03228A0
:105990007DD01D2800F00C81EA4E102800F03381E4
:1059A000112800F03981122800F04381132800F0FB
:1059B0004981172800F05081182800F056811928D5
:1059C00000F05D811A2800F06381DF4F282800F085
:1059D0006981292800F077812A2800F086812B2808
:1059E00000F095812C2800F0CA812D2800F0D98183
:1059F0002E2800F0E8812F2800F0F781262800F0FB
:105A000006821B2808BF022000F069820A2800F0E5
:105A100001820D2800F00A82302800F0138233281A
:105A200000F02782372800F04F82382800F0548297
:105A300000F056BAFAF7EEFDD8E90001D8F80820D0
:105A4000BA60C7E90001FAF745FE85F8169000F044
:105A500047BAA87D052824D0C87A10F0010F2ED0AF
:105A600020F00100C8729623642221210A200096AA
:105A7000FFF730FDB54800901E23642217210A204D
:105A800000F008FD4023B2485A2201E035E03EE034
:105A900000902321372000F0FDFCFEF71BFB00F0F7
:105AA0001FBA0620E8750020FCF742FF01F0F2FE65
:105AB00047F23050688301F00DFF00F011BA40F05A
:105AC0000100C872A34800903223642217210A20E3
:105AD00000F0E0FC5A229A23114637200096FFF787
