:020000040800F2
:10000000F84F00205D020008832E00085D1E0008E6
:10001000812E0008F30500084532000800000000AA
:100020000000000000000000000000009D0100082A
:10003000C906000800000000F9010008312F00087F
:1000400077020008770200087702000877020008AC
:10005000770200087702000877020008770200089C
:10006000770200087702000877020008770200088C
:10007000770200087702000877020008770200087C
:10008000770200087702000877020008770200086C
:10009000770200087702000877020008770200085C
:1000A000770200087702000877020008770200084C
:1000B000770200087702000877020008770200083C
:1000C000770200087702000877020008770200082C
:1000D000770200087702000877020008770200081C
:1000E000770200087702000877020008770200080C
:1000F00077020008770200087702000877020008FC
:1001000077020008770200087702000877020008EB
:1001100077020008770200087702000877020008DB
:1001200077020008770200087702000877020008CB
:1001300077020008000000000000000077020008BD
:1001400077020008770200087702000877020008AB
:10015000770200087702000877020008770200089B
:10016000770200087702000877020008770200088B
:10017000770200087702000800000000000000007D
:100180007702000877020008DFF80CD000F0ECF8E6
:10019000004800475D640008F84F00202C4B1968A8
:1001A0000868B0E8F04F80F30988BFF36F8F4FF015
:1001B000000080F3118870470000000008480068C4
:1001C000006880F308884FF0000080F3148862B65E
:1001D00061B6BFF34F8FBFF36F8F00DF00BF00BF6B
:1001E00008ED00E0DFF80C00016841F470010160E7
:1001F000704700BF88ED00E0EFF30980BFF36F8F19
:10020000134B1A681EF0100F08BF20ED108A20E96A
:10021000F04F106009B44FF0500080F31188BFF325
:100220004F8FBFF36F8F07F0D5FF4FF0000080F3C3
:10023000118809BC19680868B0E8F04F1EF0100F6B
:1002400008BFB0EC108A80F30988BFF36F8F704746
:1002500044000020EFF30580704700000648804707
:1002600006480047FEE7FEE7FEE7FEE7FEE7FEE79B
:10027000FEE7FEE7FEE7FEE7D12F00088901000850
:100280002DE9F05F0546002092469B4688460646CB
:10029000814640241BE0284641464746224600F05E
:1002A00053F853465A46C01A914110D31146184686
:1002B000224600F03AF82D1A67EB01084F46224615
:1002C0000120002100F031F817EB00094E41201EFB
:1002D000A4F10104DFDC484631462A464346BDE826
:1002E000F09F40EA01039B0703D009E008C9121FF1
:1002F00008C0042AFAD203E011F8013B00F8013BE0
:10030000521EF9D27047D2B201E000F8012B491E0B
:10031000FBD270470022F6E710B513460A460446A2
:100320001946FFF7F0FF204610BD202A04DB203AD3
:1003300000FA02F1002070479140C2F1200320FA38
:1003400003F3194390407047202A04DB203A21FA36
:1003500002F00021704721FA02F3D040C2F12002DE
:100360009140084319467047064C074D06E0E06887
:1003700040F0010394E8070098471034AC42F6D3EC
:10038000FFF706FF50DF060870DF0608002A08BFE7
:1003900070472DE9F04114460E4605462F46681C6D
:1003A00085B201F03BFEA02001F0FAFD01F09AFEBB
:1003B000380A01F0F5FD01F095FEF8B201F0F0FD0C
:1003C00001F090FE01F02AFEA12001F0E9FD01F00C
:1003D00089FE002001F06CFD074601F053FE601E0F
:1003E000040406F8017B240CD8D1BDE8F0812DE986
:1003F000F84380464FF000000E0007460446009088
:1004000018BFE94626D008EB040085B201F006FECD
:10041000A02001F0C5FD01F065FE280A01F0C0FD35
:1004200001F060FEE8B201F0BBFD01F05BFE01F0FF
:10043000F5FDA12001F0B4FD01F054FE002001F013
:1004400037FD054601F01EFE09F80450601CC4B2D9
:10045000A642D8D8022E02D0042E07D014E09DF870
:1004600001009DF8001001EB00270DE09DF803004E
:100470009DF8021001EB00209DF8011001EB002017
:100480009DF8001001EB00273846BDE8F88310B551
:10049000044601F0C3FDA02001F082FD01F022FE20
:1004A000200A01F07DFD01F01DFEE0B201F078FDB3
:1004B00001F018FE01F0B2FDA12001F071FD01F084
:1004C00011FE002001F0F4FC044601F0DBFD2046A3
:1004D00010BD2DE9F0410646501E0F4685B238BFCB
:1004E000BDE8F08197F80080002401F097FDA0207E
:1004F00001F056FD01F0F6FD300A01F051FD01F06A
:10050000F1FDF0B201F04CFD01F0ECFD404601F0D0
:1005100047FD01F0E7FD01F0B5FD03F0A9FB621C0A
:10052000D4B20A2CF9D3701C691E86B28DB207F1C1
:100530000107D7D2BDE8F0812DE9F04716000F463C
:1005400080464FF0000508BFBDE8F08708EB0500C6
:100550001FFA80F9E80027FA00F000F0FF0A0024F3
:1005600001F05CFDA02001F01BFD01F0BBFD4FEA96
:10057000192001F015FD01F0B5FD09F0FF0001F0B3
:100580000FFD01F0AFFD504601F00AFD01F0AAFD9C
:1005900001F078FD03F06CFB601CC4B20A2CF9D3A7
:1005A000681CC5B2B542D1D3BDE8F08770B50E4620
:1005B0000546002401F032FDA02001F0F1FC01F01D
:1005C00091FD280A01F0ECFC01F08CFDE8B201F08D
:1005D000E7FC01F087FD304601F0E2FC01F082FD0E
:1005E00001F050FD03F044FB601CC4B20A2CF9D3A7
:1005F00070BDFEE70100064806D0012918BF70470C
:100600000122042100F0E7BE0022042100F0E3BE35
:100610000010024010B5084C01220421204600F0D1
:10062000DAFEC82006F084F820460022BDE810401B
:10063000042100F0D0BE0000001002401C49886870
:1006400000281CBF401E8860486800281CBF401E50
:100650004860C86800281CBF401EC86008690028A0
:100660001CBF401E08611348007818B9124A108850
:10067000401C1080114A108800281CBF401E1080AA
:100680000F4A108800281CBF401E10800D4A1068B9
:1006900000281CBF401E1060088800281CBF401E98
:1006A0000880486900281CBF401E48617047000050
:1006B000BC00002010000020180000201A000020BC
:1006C0001C000020240000207047000030B583B0DB
:1006D00041F2A20001F0D2FE4DF6DB6452234F221C
:1006E0004FF4A0710020009405F090F9A323A022FC
:1006F000D9210020009405F089F9F0234F226D21C3
:100700006A20009405F082F9F0230022D921D62036
:10071000009405F07BF96A4D002048F2C044009532
:10072000CDE9014020231A4617212A2000F0ECF8D9
:1007300001200095CDE9014020231A4617214A20C7
:1007400000F0E2F802200095CDE9014020231A468E
:1007500017216A2000F0D8F803200095CDE9014068
:1007600020231A4617218A2000F0CEF8554900911F
:1007700072201F236E22102106F032F95248009099
:10078000822020236E22102106F02AF94F48009083
:1007900089201F236E22102106F022F94C48009078
:1007A00025236E222E21A22006F01AF94949009134
:1007B0007C202023BE22102106F012F9464800902A
:1007C0008C202023BE22102106F00AF9434824235E
:1007D0000090BE221946A52006F002F9404D41F2D4
:1007E000A204E87A10F0010F17D03E48009032239F
:1007F000642217210A2006F0F3F85A229A231146A0
:100800003720009405F002F9374800902D235A2232
:100810002321372006F0E4F816E0962364222121F4
:100820000A20009405F0F2F8304800901E2364225C
:1008300017210A2006F0D4F82D48009040235A22B0
:100840002321372006F0CCF8E87A10F0020F17D0F9
:10085000284800903823AA222521372006F0C0F826
:10086000E223AA2226210520009405F0CFF8224891
:1008700000902523AA222121052006F0B1F816E0D8
:10088000E223AA225C213720009405F0BFF81B4820
:1008900025230090AA221946372006F0A1F818480F
:1008A00000903823AA222121052006F099F8154846
:1008B000807B03F047FD03B0BDE8304003F0AEBCE1
:1008C000442101081096000810B50008B0A10008E6
:1008D000FCA5020890A50008508E000848B3020845
:1008E0006801002062380208C24602085E41020820
:1008F00028C90208C25D0208F26D020810530208FE
:100900007C770208000000202DE9FF4F87B0D9084E
:100910000191169800210291099900299CBF0BB002
:10092000BDE8F08F01994843099948430090019828
:100930000027002851D9DDE90001029A02FB0100DD
:100940000899059001EB020808F10100000A0490E3
:100950004FEA18200390149905983944002410F8A0
:1009600001B0079800EBC70A8020E04010EA0B0FA7
:100970002AD00AEB04056E1C08F101092A2002F0B6
:100980005BFD280A02F090FDE8B202F08DFD300A0E
:1009900002F08AFDF0B202F087FD2B2002F04CFD40
:1009A000039802F081FD08F0FF0002F07DFD04983D
:1009B00002F07AFD09F0FF0002F076FD2C2002F033
:1009C0003BFD159802F03AF8601CC4B2082CCBD35A
:1009D000781CC7B201988742BDD302980999401C80
:1009E000C0B202908842A2D30BB0BDE8F08F0000E5
:1009F00070B50E2880F0E980DFE800F007254F375A
:100A00006874808C98A4B0BCC8D481B1032912D07A
:100A1000012918BF70BD042001F060FC78B10B20E3
:100A200001F05CFC58B16C493720C87370BD6A494D
:100A30000820C87370BD68492320C87370BD66491B
:100A40003120C87370BD41B103290AD0012918BFF4
:100A500070BD32206049C87370BD5F490920C873FA
:100A600070BD5D492420C87370BD49B103290BD006
:100A7000012918BF70BD5948017821F0020116E024
:100A800055490D20C87370BD5448017841F00201EA
:100A9000017051490020887070BD51B103290CD0FC
:100AA000012918BF70BD4D48017821F00101017086
:100AB00070BD49490A20C87370BD4848017841F0AB
:100AC0000101017044490020887070BD31B10329D3
:100AD00018BF70BD28204049C87370BD3E49102022
:100AE000C87370BD31B1032918BF70BD29203A49C0
:100AF000C87370BD38491120C87370BD31B1032966
:100B000018BF70BD2A203449C87370BD3249122005
:100B1000C87370BD31B1032918BF70BD2B202E4999
:100B2000C87370BD2C491320C87370BD31B103293F
:100B300018BF70BD2C202849C87370BD26491720E6
:100B4000C87370BD31B1032918BF70BD2D20224973
:100B5000C87370BD20491820C87370BD31B1032916
:100B600018BF70BD2E201C49C87370BD1A491920CA
:100B7000C87370BD31B1032918BF70BD2F2016494D
:100B8000C87370BD14491A20C87370BD31B10129F2
:100B900018BF70BD25201049C87370BD0E491D20B7
:100BA000C87370BD31B1012918BF70BD27200A4933
:100BB000C87370BD084C0025257407F089F925839A
:100BC00007F0A6F91B20E07370BD0449087820F0F7
:100BD0000300087070BD0000000000201500002018
:100BE0002DE9F0474FF0000584B00E0007462C4673
:100BF0001FD0A8464FF001094FF0070ACDE9007950
:100C0000CDE902A869460E4800F01CF80C4800F037
:100C100033FA02210A4800F0CFF9094800F0C6F87B
:100C200081B20D44012005F083FD601CC4B2B442C2
:100C3000E4D3B5FBF6F004B080B2BDE8F087000065
:100C4000A401002038B44FF0000CCDF800C090F89B
:100C50003C20012A02BF022038BC7047012280F8E4
:100C60003C200A6807240368092A13D9DD680A3A78
:100C700002EB420204FA02F225EA0202DA600A7882
:100C80008B680A3A02EB420293400268D46823431D
:100C9000D36010E01D6902EB420204FA02F225EA79
:100CA00002021A610A788B6802EB420293400268E2
:100CB0001469234313614A681F24072A15D2036865
:100CC0005D6B521E02EB820204FA02F225EA020276
:100CD0005A630A8893B20A79521E02EB8202934049
:100CE0000268546B234353632BE003680D2A14D22C
:100CF0001D6BD21F02EB820204FA02F225EA020205
:100D00001A630A8893B20A79D21F02EB82029340D7
:100D10000268146B2343136313E0DD6A0D3A02EBA0
:100D2000820204FA02F225EA0202DA620A8893B227
:100D30000A790D3A02EB820293400268D46A234397
:100D4000D362174B0468154A9C4204BF0C68122CEE
:100D500003D1546844F48004546004689C4218D160
:100D60000B68102B18BF112B13D1536843F40003E9
:100D70005360096810290CD10A490B4A0968B1FB74
:100D8000F2F101EB81014900009102D0491E00916E
:100D9000FCD180F83CC038BC0020704700230140E3
:100DA000002001404000002040420F000068C06C5D
:100DB000704700002DE9F04104004FF0000504BF2A
:100DC0000120BDE8F081564F206C002628B920464E
:100DD00000F0AEF8666484F83C60206C10F0100FF0
:100DE00018BF012504D084F83C602846BDE8F08196
:100DF000206C20F4885040F002002064494841688B
:100E000021F44031416041686268114341602068CB
:100E1000416821F48071416020684168226941EA9B
:100E2000022141602068416821F0407141602068E2
:100E30004168A268114341602068816821F4006123
:100E4000816020688168E26811438160A06AB842CD
:100E50002068816821F0706181602068816808BF26
:100E600021F040510BD0A26A114381602068816853
:100E700021F04051816020688168E26A11438160FD
:100E80002068816821F00201816020688168227EEB
:100E900041EA4201816094F82000002820684168FE
:100EA00008BF21F400610ED041F400614160206868
:100EB000416821F460414160206841681A4B626AD0
:100EC00003EB4232114341602068C16A21F4700192
:100ED000C1622068C16AA28B144B03EB025211431A
:100EE000C1622068816821F4007181602068816896
:100EF00094F8302041EA422181602068816821F421
:100F00008061816020688168626941EA8221816034
:100F10006664206C20F0020040F00100206462E76B
:100F20000100000F0023014000E0FFFF0000F0FF80
:100F300030B587B000240094019402940394049483
:100F40000068A0F18041B1F590311CBF07B030BD01
:100F50001548016841F480710160006800F48070F8
:100F600005901248016841F004010160016801F038
:100F700004010591016841F0010101600068032549
:100F800000F0010005900620CDE9000569460848FB
:100F900000F0F2F8C020CDE900056946029405484A
:100FA00000F0EAF807B030BD443802403038024063
:100FB00000080240000002402DE9F04104460068AC
:100FC0000D4681684FF0000711F4806F1CBF8068E8
:100FD00010F4807F08D0206C40F02000206484F85A
:100FE0003C700120BDE8F08100F0FAF90646206867
:100FF000006810F0020F16D1B5F1FF3F0ED025B1F9
:1010000000F0EEF9801BA84208D9206C40F00400E3
:10101000206484F83C700320BDE8F08120680068FB
:1010200010F0020FE8D021686FF012000860206C09
:1010300040F4007020642068816811F0405F04BFB4
:10104000217E002913D1C16A11F4700F1CBF806882
:1010500010F4806F0BD1206C20F480702064206C21
:1010600010F4805F03D1206C40F0010020644FF049
:101070000000BDE8F081000081B00022009290F8ED
:101080003C10012902BF022001B07047012180F805
:101090003C1001688B6813F0010F0FD18B6843F08F
:1010A00001038B602F49304B0968B1FBF3F111EB61
:1010B0004101009102D0491E0091FCD101688B686A
:1010C00013F0010F4BD0036C23F0010323F4C06332
:1010D00043F4807303644B6813F4806F05D0036C92
:1010E00023F4005343F480530364036C13F4805FD0
:1010F00008BF426403D0436C23F00603436480F8C6
:101100003C201A4A6FF022030B605168006811F00E
:101110001F0F174906D0884204BF816811F0405F55
:1011200019D01CE0884212D0124A904204BFD1F874
:10113000042312F01F0F0AD0A0F18042B2F59132C1
:101140000DD1D1F8041301F01F01102907D28168D5
:1011500011F0405F03D1816841F08041816000203F
:1011600001B070474000002040420F0000230140C2
:1011700000200140002101402DE9F84F0022032406
:101180008D4E8E4F0F25012303FA02F80B6803EAF8
:101190000803434540F00981D1F804C0BCF1010FB8
:1011A00018BFBCF1020F05D0BCF1110F18BFBCF184
:1011B000120F1DD1D0F808904FEA420C04FA0CFA35
:1011C00029EA0A09D1F80CA00AFA0CFC4CEA090C2D
:1011D000C0F808C0D0F804C02CEA080C91F80480CC
:1011E000C8F3001808FA02F848EA0C0CC0F804C06A
:1011F000D0F80C804FEA420CD1F808A004FA0CF9A0
:1012000028EA09080AFA0CFA4AEA0808C0F80C8029
:10121000D1F80480B8F1020F18BFB8F1120F15D140
:101220004FEAD20800EB880ADAF820B04FEA427899
:101230004FEAD86805FA08FE2BEA0E0BD1F810E049
:101240000EFA08F848EA0B08CAF82080D0F80080A7
:1012500028EA090891F8049009F0030909FA0CFC3E
:101260004CEA080CC0F800C0D1F804C01CF0805F44
:101270007ED0D6F800C04CF4804CC6F800C0D6F83A
:1012800000C00CF4804CCDF800C022F0030C0CF12F
:10129000804909F59839D9F808C84FEA82784FEAA9
:1012A000187805FA08FA2CEA0A0AA0F1804CBCF575
:1012B000003C38D0A0F1804CBCF5013C08BF4FF099
:1012C000010C30D0A0F1804CBCF5023C08BF4FF0BF
:1012D000020C28D0A0F1804CBCF5033C08BF4FF0B5
:1012E000030C20D0A0F1804CBCF5043C08BF4FF0AB
:1012F000040C18D0A0F1804CBCF5053C08BF4FF0A1
:10130000050C10D0A0F1804CBCF5063C08BF4FF096
:10131000060C08D0A0F1804CBCF5073C0CBF4FF088
:10132000070C4FF0080C0CFA08FC4CEA0A0CC9F840
:1013300008C8D7F800C0D1F804802CEA030C18F4D0
:10134000803F18BF4CEA030CC7F800C0DFF870807C
:10135000D8F800C0D1F804902CEA030C19F4003F2F
:1013600018BF4CEA030CC8F800C0DFF8588000E052
:101370001BE0D8F800C0D1F804902CEA030C19F453
:10138000801F18BF4CEA030CC8F800C0DFF8388093
:10139000D8F800C0D1F804902CEA030C19F4001F0F
:1013A00018BF4CEA030CC8F800C0521C102AFFF406
:1013B000EAAEBDE8F88F000044380240003C01402E
:1013C000043C0140083C01400C3C014000690840DD
:1013D00018BF01207047002A08BF090481617047C7
:1013E000014880687047000034000020002804BFD6
:1013F0000120704770B504464CF6CC402168086067
:10140000216845F255500860D4E900014160216827
:10141000A0688860FFF7E4FF05462068C06850B107
:10142000FFF7DEFF401B302801D9032070BD206884
:10143000C0680028F4D121684AF6AA20086000207C
:1014400070BD0000024881680278114481607047D5
:10145000340000200B4810B5016841F400710160B0
:10146000016841F480610160016841F480710160AC
:10147000032000F079F80F2000F006F800F024F8BF
:10148000002010BD003C024070B50D4D04464FF4E5
:101490007A712878B1FBF0F00A490968B1FBF0F0E5
:1014A00000F060FB48B9102C07D200222146501EE4
:1014B00000F028F800206C6070BD012070BD0000B5
:1014C00034000020400000200C4882B0016841F444
:1014D00080410160006800F4804000900848016885
:1014E00041F0805101600068002200F080500090BF
:1014F0000F21901E02B000F005B8000044380240F1
:1015000040380240174B10B41B68C3F30223C3F1E9
:10151000070CBCF1040F88BF4FF0040C1C1D072CF6
:1015200034BF0023DB1E012404FA0CFCACF1010CD7
:101530000CEA0101994004FA03F35B1E1A401143BF
:1015400000284FEA0111A1BF00F1E02080F800144B
:1015500010BC704700F00F0000F1E02080F8141D6F
:1015600010BC70470CED00E0074A00F0070011685E
:101570004FF6FF03194041EA002040F0FD7040F0B3
:1015800080601060704700000CED00E0002804BF90
:10159000012070472DE9F047DFF83C9104460D46E5
:1015A000D9F80000CFB200F00F00A84207D289F8A6
:1015B0000070D9F8000000F00F00A84263D1206845
:1015C000464E10F0020F14D010F0040F03D0306814
:1015D00040F4E0503060207810F0080F03D03068FD
:1015E00040F4604030603068A16820F0F0000843AB
:1015F0003060207810F0010F37D06068384901283A
:1016000023D0022818BF0328096823D011F0020F45
:1016100039D0316821F0030141EA00003060FFF762
:10162000DFFE80463068616800F00C00B0EB810F8F
:1016300018BF41F2883A18D0FFF7D2FEA0EB08009D
:1016400050450BD90320BDE8F087096811F4003F2D
:10165000DFD118E011F0007FDBD114E03068616861
:1016600000F00C00B0EB810FE6D1D9F8000000F0DB
:101670000F00A8420AD989F80070D9F8000000F0DC
:101680000F00A84202D00120BDE8F087207810F0BA
:10169000040F05D03068E16820F4E0500843306062
:1016A000207810F0080F06D03068216920F46040DF
:1016B00040EAC100306000F01BF83168094AC1F30C
:1016C0000311515CC8400849086008480068FFF7EA
:1016D000DBFE0020BDE8F087003C024008380240F5
:1016E000003802400CDF06084000002038000020CF
:1016F0001848006810F00C01174808BF7047174BD6
:10170000042904BF18467047082918BF704710B550
:10171000134C216801F03F02216811F4800F08D0BA
:101720002068C0F38810A0FB03010023FEF7A8FD8A
:1017300007E021680023C1F38811A1FB0001FEF737
:101740009FFD2168C1F30141491C4900B0FBF1F044
:1017500010BD0000083802400024F40000127A0096
:1017600004380240002804BF012070472DE9F84FDB
:1017700004460078DFF8C88310F0010FA8F10405D3
:1017800058D008F10400016801F00C01042909D0C7
:10179000006800F00C0008280DD1D8F8000010F403
:1017A000800F08D0286810F4003F43D060680028FC
:1017B00000F0C0813EE06068B0F5803F19D0B0F520
:1017C000A02F28680CBF40F4802020F480302860CF
:1017D00028680CBF40F4803020F4802028606068C6
:1017E000B8B1FFF7FDFD0646286810F4003F05D0AC
:1017F00020E0286840F480302860F0E7FFF7F0FD33
:10180000801B642800F23781286810F4003FF5D06F
:1018100010E0FFF7E5FD0646286810F4003F09D008
:10182000FFF7DEFD801B642800F22581286810F494
:10183000003FF5D12078C34F10F0020F4FF00009A0
:1018400047D0C148016811F00C0F16D0006800F0B5
:101850000C00082804BFD8F8000010F4800F0CD04A
:10186000E06820B34FF001003860FFF7B9FD06468D
:10187000286810F0020F09D011E0286810F0020F5C
:101880001CBFE06801280AD000F054B9FFF7A8FD9A
:10189000801B02287ED8286810F0020FF6D0286836
:1018A000216920F0F80040EAC100286011E0C7F883
:1018B0000090FFF795FD0646286810F0020F08D04B
:1018C000FFF78EFD801B022864D8286810F0020FF5
:1018D000F6D1207810F0080F2AD09C489C4E616900
:1018E00099B101210160FFF77BFD8246306810F05D
:1018F000020F1DD1FFF774FDA0EB0A00022849D8A2
:10190000306810F0020FF5D012E0C0F80090FFF739
:1019100067FD8246306810F0020F09D0FFF760FDC6
:10192000A0EB0A00022835D8306810F0020FF5D17C
:10193000207810F0040F7CD086480026006810F054
:10194000805F09D18348016841F0805101600068DF
:10195000012600F080500090DFF8FCB1DBF80000B9
:1019600010F4807F1AD1DBF8000040F48070CBF8CF
:101970000000FFF735FD8246DBF8000010F4807FA1
:101980000CD1FFF72DFDA0EB0A00022873D8DBF87D
:10199000000000E06FE010F4807FF2D0A068DFF874
:1019A000BCB101281DD00528DBF800000CBF40F0B9
:1019B000040020F00100CBF80000DBF800000CBFB1
:1019C00040F0010020F00400CBF80000A068E8B16E
:1019D000FFF706FD8246DBF8000010F0020F07D08B
:1019E0002BE0DBF8000040F00100CBF80000EDE751
:1019F000FFF7F6FCA0EB0A0141F2883081423AD8A9
:101A0000DBF8000010F0020FF2D016E0FFF7E8FC60
:101A10008246DBF8000010F0020F0ED0FFF7E0FC6A
:101A2000A0EB0A0141F28830814224D8DBF80000A3
:101A300000E008E010F0020FF0D126B1454801683F
:101A400021F080510160A069E8B33F49096801F0C5
:101A50000C0108294ED00228C7F860900ED0FFF77D
:101A6000BFFC0446286810F0007F66D0FFF7B8FC82
:101A7000001B022839D90320BDE8F88FFFF7B0FC1E
:101A80000646286810F0007F08D0FFF7A9FC801BED
:101A90000228F0D8286810F0007FF6D1D4E90701B9
:101AA0000843A16A2E4A490802EB0141626A41EAF1
:101AB0008211084394F82C1040EA0160C8F8000035
:101AC0000120386600E038E0FFF78AFC0446286809
:101AD00010F0007F31D1FFF783FC001B0228CAD829
:101AE000286810F0007FF6D027E0286810F0007F0B
:101AF000BCD122E0012808BFBDE8F88FD8F800006B
:101B0000E26900F48001914214D1226A00F03F01A1
:101B100091420FD147F6C071626A0140914209D1EA
:101B2000A26A00F44031914204D1E16A00F0706091
:101B3000884202D00120BDE8F88F0020BDE8F88F70
:101B4000043802400000474208380240800E4742F5
:101B50007438024040380240007000407038024043
:101B60000000FFFF401EB0F1807F24BF01207047BE
:101B70004FF0E0214861054AF02082F8140D002062
:101B80008861072008610020704700000FE000E036
:101B90002DE9F041044690F83C000D46012804BFB1
:101BA0000220BDE8F081012684F83C60022084F820
:101BB0003D004AB1042A19D0554FDFF858C1082A10
:101BC00028D00C2A69D09BE0206801F085FA2068B3
:101BD000816941F0080181612068816921F0040177
:101BE0008161206881692A69114311E0206801F050
:101BF000ABFA2068816941F40061816120688169E4
:101C000021F480618161206881692A6941EA0221A9
:101C1000816175E02068016A21F480710162016AC6
:101C20004268C369D5F8008023F0730348EA0303D0
:101C3000D5F8088021F4007141EA0821B84218BFA4
:101C4000604507D1D5F80C8021F4006141EA0821F4
:101C500021F48061B84218BF604509D1D5F814C09D
:101C600022F4405242EA0C12D5F818C042EA0C1293
:101C70004260C3616A68C26301622068C16941F061
:101C80000801C1612068C16921F00401C1612068B7
:101C9000C1692A6941EA020131E02068016A21F440
:101CA00080510162036A4168C269D5F8008022F45C
:101CB000E64242EA0822D5F8088023F4005343EABA
:101CC0000833B84218BF604505D1D5F814C021F4D7
:101CD000804141EA8C114160C2616968016403621C
:101CE0002068C16941F40061C1612068C16921F4C3
:101CF0008061C1612068C1692A6941EA0221C1612C
:101D000084F83D604FF0000084F83C00BDE8F081AD
:101D10000000014000040140002804BF012070477A
:101D200010B5044690F83D0028B9002084F83C0026
:101D3000204600F00CF8022084F83D00211D2068A8
:101D400001F054F9012084F83D00002010BD7047D7
:101D500010B504460068012201F0AEF92168A1F136
:101D60008040B0F580301CBFA1F18040B0F58230DA
:101D700003D1486C40F4004048642068816801F059
:101D80000701062903D0016841F00101016000202C
:101D900010BD2DE9F843044690F839001E469046E0
:101DA0000D46202857D1002D12BFB8F1000F012099
:101DB000BDE8F88394F8380001284CD0012084F85D
:101DC00038004FF00009C4F83C90212084F8390015
:101DD000FFF706FBA4F824800746A4F8268084F8C1
:101DE0003890E08C30B3E08C401EE084A0683B4625
:101DF000B0F5805F4FF000024FF080012046009662
:101E000003D001F0E5F970B11CE001F0E1F9C8B9C7
:101E100028882168C0F3080048602069002814BFA2
:101E20006D1CAD1C03E0216815F8010B4860E08CC7
:101E30000028D8D13B46002240212046009601F0E0
:101E4000C7F910B10320BDE8F883202084F83900D9
:101E50000020BDE8F8830220BDE8F883FEE700001B
:101E6000114810B5016886B041F0020101600068B8
:101E70000E4C00F002000590C0200090012001905F
:101E800002900220039069462046FFF775F901226F
:101E900080212046FFF79FFA012240212046FFF7CC
:101EA0009AFA06B010BD000030380240000402402B
:101EB0002DE9F04385B000248027CDE90074374E2A
:101EC0008046694630460294FFF756F90025002205
:101ED00040213046FFF77FFA01F0DAFE012240216F
:101EE0003046FFF778FA6006040E80213046FFF78F
:101EF0006DFA00281CBF601CC4B201F0C4FE681C4F
:101F0000C5B2082DE3D301254FF00209B8F1000F47
:101F10004FF000024FF04001304620D0FFF75BFA4F
:101F2000CDE90075CDE9025969463046FFF724F93D
:101F3000002280213046FFF74EFA01F0A9FE01226F
:101F400040213046FFF747FA01F0A2FE002240216F
:101F50003046FFF740FA05B02046BDE8F083FFF7B2
:101F60003AFACDE90075CDE9025969463046FFF7E6
:101F700003F9012280213046FFF72DFA01F088FE97
:101F8000012240213046FFF726FA01F081FE0022AF
:101F900040213046FFF71FFADDE700000004024051
:101FA00070B586B005468020009001200221CDE961
:101FB0000201194E019069463046FFF7DDF8002214
:101FC00040213046FFF707FA002415F0800F05D0B6
:101FD000012280213046FFF7FEF904E00022802133
:101FE0003046FFF7F8F96806050E01F051FE0122B0
:101FF00040213046FFF7EFF901F04AFE0022402170
:102000003046FFF7E8F901F043FE601CC4B2082C2B
:10201000DBD306B070BD00000004024010B586B0EE
:102020008020009001200221CDE90201144C019092
:1020300069462046FFF7A0F8012280212046FFF7DD
:10204000CAF9012240212046FFF7C5F901F020FE20
:1020500001F01EFE002280212046FFF7BCF901F0AE
:1020600017FE01F015FE002240212046FFF7B3F9CC
:1020700001F00EFE06B0BDE8104001F009BE000000
:102080000004024010B586B080200090012002219B
:10209000CDE90201124C019069462046FFF76CF829
:1020A000002240212046FFF796F900228021204699
:1020B000FFF791F901F0ECFD01F0EAFD012240216A
:1020C0002046FFF788F9012280212046FFF783F997
:1020D00001F0DEFD06B0BDE8104001F0D9BD000002
:1020E0000004024070B586B000248025CDE900547C
:1020F0002A4E694630460294FFF73EF801228021BD
:102100003046FFF768F901F0BEFD0122402130465C
:10211000FFF761F901F0B7FD80213046FFF756F96E
:10212000002832D0601CC4B2FA2C28D90120022128
:10213000CDE90050CDE9020169463046FFF71CF8B1
:10214000002240213046FFF746F900228021304628
:10215000FFF741F901F09CFD01F09AFD01224021B9
:102160003046FFF738F9012280213046FFF733F976
:1021700001F08EFD01F08CFD06B0012070BD8021C4
:102180003046FFF723F90028CCD100224021304609
:10219000FFF721F906B0002070BD000000040240E6
:1021A0002DE9F041354F364E364D00244FF400787E
:1021B00000224FF470713846FFF70DF928FA04F148
:1021C00001223846FFF707F94FF480613046FFF7E8
:1021D000FDF8002815F8240014BF40F0010020F09D
:1021E000010005F824004FF400713046FFF7EEF8C7
:1021F00005EB84010028087C14BF40F0010020F0AA
:10220000010008744FF480713046FFF7DFF80028B2
:102210001FBF05EB840191F8200040F0010081F818
:10222000200001BF05EB840090F8201021F001018F
:1022300080F82010601CC4B2042CB9D308213046A9
:10224000FFF7C4F8002895F8300014BF20F0010013
:1022500040F0010085F830004FF400613046FFF790
:10226000B5F8002895F8340014BF20F0010040F0C4
:10227000010085F83400BDE8F0810000000802404C
:1022800000000240CC4A00200020064A014612F815
:10229000213013F0020F18BF0120491CC9B20D29CB
:1022A000F5D97047CC4A002010B500F053F8002053
:1022B000DFF824C003460CEB80014B708B701CF8D8
:1022C000202022F03E020CF82020401CC0B2CB702F
:1022D0000D28F0D910BD0000CC4A0020044A014668
:1022E000002012F8211011F0100F18BF01207047C4
:1022F000CC4A0020064B002213F8201011F0040FE6
:1023000004D021F0060103F8201001221046704786
:10231000CC4A0020064B002213F8201011F0200FA9
:1023200004D021F0220103F820100122104670474A
:10233000CC4A0020064B002213F8201011F0080FA1
:1023400004D021F00A0103F8201001221046704742
:10235000CC4A002070B586B04FF470700090012018
:102360000024124D0190029003940494694628467B
:10237000FEF702FF00224FF470712846FFF72BF89A
:102380004FF4E060CDE90004094E0225694602954C
:102390003046FEF7F1FE40F60801CDE90014029543
:1023A00069463046FEF7E8FE06B070BD0008024000
:1023B0000000024010B5FFF7F3FE0024204600F0B5
:1023C00005F8601CC4B20D2CF8D910BD30B42A4CED
:1023D0004FF0000C04EB8001CA78012A0ED00125D1
:1023E000022A1EBFCD7030BC70478A78C82A28D216
:1023F000521CD2B28A70C82A23D11CE014F82020C3
:1024000012F0010F13D04B785B1CDBB24B70022B28
:102410009CBF30BC704742F0160204F8202081F8BF
:1024200002C081F801C00220C87030BC704781F83A
:1024300001C030BC704714F8202042F0220204F89A
:10244000202014F8202012F0010FF0D14B785B1CF3
:10245000DBB24B70022B9CBF30BC704722F01002E5
:1024600042F00A0204F8202081F802C081F801C07D
:10247000CD7030BC70470000CC4A002070B50646D5
:102480000021EF2340F23F12084600F0ABF92C2068
:1024900000F0D2FF00250024304600F0CFFA30468D
:1024A00000F0CCFA304600F0C9FA304600F0C6FA27
:1024B000304600F0C3FA304600F0C0FA304600F073
:1024C000BDFA304600F0BAFA304600F0B7FA3046AE
:1024D00000F0B4FA641C202CDED36D1CF02DDAD38E
:1024E00070BD00002DE9F04186B001261020CDE935
:1024F00000060225B84FCDE902650024694638463A
:10250000FEF73AFE2021009100210395CDE9011646
:1025100069463846FEF730FE68020090CDE9016555
:10252000AE4F694638460395FEF726FE0096CDE984
:102530000165694638460395FEF71EFE802000902F
:10254000CDE90165DFF89882694640460395FEF7BC
:1025500013FE04200090CDE90165694638460395D5
:10256000FEF70AFECDE90056029569463846039506
:10257000FEF702FE4FF47F40CDE90006CDE902658B
:1025800069464046FEF7F8FD012211463846FEF73F
:1025900022FF01F06DFB002201213846FEF71BFFF0
:1025A00001F066FB012211463846FEF714FF01F0E8
:1025B0005FFBCF2000F040FF002000F075FFC1203E
:1025C00000F072FF302000F06FFFED2000F034FFCC
:1025D000642000F069FF032000F066FF122000F085
:1025E00063FF812000F060FFCB2000F025FF392041
:1025F00000F05AFF2C2000F057FF002000F054FF9D
:10260000342000F051FF022000F04EFFF72000F0D0
:1026100013FF202000F048FFEA2000F00DFF00200B
:1026200000F042FF002000F03FFF362000F004FFE2
:10263000B82000F039FFB62000F0FEFE0A2000F0BE
:1026400033FFA22000F030FFC02000F0F5FE212073
:1026500000F02AFFC12000F0EFFE112000F024FF5F
:10266000C52000F0E9FE352000F01EFF322000F00A
:102670001BFFC72000F0E0FEB22000F015FFF220A3
:1026800000F0DAFE002000F00FFFF62000F0D4FE8C
:10269000012000F009FF312000F006FF002000F0CB
:1026A00003FF3A2000F0C8FE652000F0FDFEB120D7
:1026B00000F0C2FE002000F0F7FE192000F0F4FE4A
:1026C000E82000F0B9FE852000F0EEFE102000F0BA
:1026D000EBFE7A2000F0E8FEB42000F0ADFE002012
:1026E00000F0E2FE352000F0A7FE002000F0DCFE46
:1026F000E02000F0A1FE002000F0D6FE212000F036
:10270000D3FE1E2000F0D0FE0B2000F0CDFE0E20E8
:1027100000F0CAFE092000F0C7FE4A2000F0C4FE07
:10272000C52000F0C1FE3A2000F0BEFE092000F0F6
:10273000BBFE0B2000F0B8FE042000F0B5FE162012
:1027400000F0B2FE172000F0AFFE002000F0ACFE5B
:10275000E12000F071FE0F2000F0A6FE1E2000F028
:10276000A3FE212000F0A0FE042000F09DFE112019
:1027700000F09AFE072000F097FE352000F094FE4E
:10278000762000F091FE452000F08EFE062000F03D
:102790008BFE142000F088FE0B2000F085FE272021
:1027A00000F082FE382000F07FFE0F2000F07CFE5B
:1027B000112000F041FE01F05BFA601CC4B2192C3C
:1027C000F9D3292000F038FE01F052FA2C2000F055
:1027D00033FE06B0BDE8F08100080240000402406C
:1027E000001002402DE9F04107461C4615460E46F2
:1027F0002A2000F021FE380A00F056FEF8B200F060
:1028000053FE280A00F050FEE8B200F04DFE2B20E7
:1028100000F012FE300A00F047FEF0B200F044FE75
:10282000200A00F041FEE0B2BDE8F04100F03CBEFD
:1028300002462848284B092A28BF7047DFE802F0E3
:102840004905101B2631373D4300012903D00122E1
:102850001102FEF7C0BD00224FF48071FEF7BBBD30
:10286000012903D001225102FEF7B5BD00224FF429
:102870000071FEF7B0BD012903D001229102FEF7DD
:10288000AABD00224FF48061FEF7A5BD012903D047
:102890000122D102FEF79FBD00224FF40061FEF736
:1028A0009ABD00224FF400411846FEF794BD002265
:1028B0004FF480411846FEF78EBD00224FF40051C0
:1028C0001846FEF788BD00224FF480511846FEF7E7
:1028D00082BD7047000C02400004024010B5264C37
:1028E000002832D0012819D0022818BF10BD0122BB
:1028F00051032046FEF76FFD012211032046FEF72B
:102900006AFD012291032046FEF765FD2046BDE8E1
:10291000104000224FF48041FEF75DBD01221103FB
:102920002046FEF758FD012291032046FEF753FD95
:10293000012251032046FEF74EFD2046BDE810401F
:1029400000224FF40051FEF746BD012291032046BC
:10295000FEF741FD012251032046FEF73CFD012216
:1029600011032046FEF737FD2046BDE81040002247
:102970004FF48051FEF72FBD000C024070B52D4D75
:102980002D4C60B30022A1152846FEF724FD00223D
:1029900061152846FEF71FFD002221152846FEF787
:1029A0001AFD0022E1142846FEF715FD00224FF41F
:1029B00000412046FEF70FFD00224FF480412046E3
:1029C000FEF709FD00224FF400512046FEF703FDFB
:1029D0000022A1142046BDE87040FEF7FCBC012295
:1029E00011022846FEF7F7FC012251022846FEF7A5
:1029F000F2FC012291022846FEF7EDFC0122D102F1
:102A00002846FEF7E8FC0122D1032046FEF7E3FC4E
:102A1000012291032046FEF7DEFC012251032046ED
:102A2000FEF7D9FC2046BDE8704001221103FEF7F5
:102A3000D2BC0000000C0240000402402DE9F0412D
:102A40000446C0F3072004F09DFD0546E0B204F003
:102A500099FD1E4F064600224FF480613846FEF76E
:102A6000BAFC1B4C012280212046FEF7B4FC012257
:102A700002213846FEF7AFFC6069C0B26061606950
:102A800040EA05206061002204213846FEF7A3FCDD
:102A9000012204213846FEF79EFC6069C0B26061E5
:102AA000606940EA06206061002204213846FEF792
:102AB00092FC012204213846FEF78DFC3846BDE821
:102AC000F04101229102FEF786BC000000040240A2
:102AD000001002404AF6AA24044D00F0B5FB286815
:102AE00004600A2003F024FEF7E70000EC01002058
:102AF0002DE9F04F83B0002541F2A200FFF7BEFCA4
:102B00004DF6DB64A323A022D9216A20009402F0B1
:102B10007DFFF0234F226D216A20009402F076FFA2
:102B2000F0234F22D921D620009402F06FFF0F200E
:102B3000019003F037F9DFF8F8B22E46DFF8F8C25B
:102B40009BF80810DFF8F4A24843BA494FF0200878
:102B5000A1FB0010C0F34F1042F21071B0FBF1F175
:102B600061F307064FF47A71B0FBF1F1ACFB01326F
:102B7000D208524202EB820201EB42014AF2D73202
:102B800002FB00224FEA9252ACFB02434FEAD3030E
:102B9000C3F1000303EB830302EB43024CF6CD4386
:102BA00000FB03F34FEAD343ACFB03744FEAD404B6
:102BB000C4F1000411F0FF0104EB840461F30F265B
:102BC000D2B203EB440362F3174663F31F66ACFB18
:102BD00000C34FEAD303C3F1000303EB830300EB0D
:102BE0004300974F60F307054FF010004FF0300996
:102BF00007F51B547ED0C1EB411107EB4111009149
:102C00001F231021019A03F0EBFEC6F30740C0EB2F
:102C1000401007EB401640461F2300961021019AF2
:102C200003F0DEFE48461F2300961021019A03F0B0
:102C3000D7FE4020202300941021019A03F0D0FEFB
:102C4000C5EB451007EB4010009047201F231021D3
:102C5000019A03F0C5FE24230F2272217120CDF8C2
:102C600000A003F0BDFE7749009172201F236E2261
:102C7000102103F0B5FE822020236E221021009443
:102C800003F0AEFE7048009089201F236E221021B1
:102C900003F0A6FE6D48009025236E222E21A2206F
:102CA00003F09EFE6A4900917C202023BE22102161
:102CB00003F096FE8C202023BE221021009703F003
:102CC0008FFE644824230090BE221946A52003F0FD
:102CD00087FE9BF80B0041F2A20410F0010F48D0D0
:102CE0005D4800903223642217210A2003F078FE09
:102CF0009A2300E00EE05A2211463720009402F099
:102D000085FE564800902D235A222321372003F0B8
:102D100067FE45E0C2EB421107EB411100911F2312
:102D20001021019A03F05CFE300EC0EB401007EB5F
:102D30004010009040461F231021019A03F050FEDE
:102D40004846202300941021019A03F049FEC5EB68
:102D5000451007EB4010009037201F231021019AE7
:102D600003F03EFE24230F2272216120CDF800A043
:102D700077E79623642221210A20009402F046FE80
:102D8000374800901E23642217210A2003F028FEF2
:102D90003448009040235A222321372003F020FE9C
:102DA0009BF80B0010F0020F17D02F48009038232B
:102DB000AA222521372003F013FEE223AA2226218E
:102DC0000520009402F022FE284800902523AA2224
:102DD0002121052003F004FE16E0E223AA225C2153
:102DE0003720009402F012FE214825230090AA22E9
:102DF0001946372003F0F4FD1E4800903823AA221C
:102E00002121052003F0ECFD1B48807B01F09AFA9C
:102E100001F070F90020FFF7B1FD1848007803B009
:102E2000401CBDE8F04FC0B20121FFF701BD00001A
:102E3000740100201F85EB51CDCCCCCCEC85020871
:102E4000508E000810960008B0A10008FCA50208EA
:102E500090A5000848B3020862380208C24602087A
:102E60005E41020828C90208C25D0208F26D02082C
:102E7000105302087C770208000000202800002080
:102E8000FEE77047F0B587B00620009002200121D0
:102E9000CDE90101CDE90301002669462048FEF78E
:102EA0006BF92048016841F00101016000684FF0B2
:102EB000804100F0010005901B48016041F2A551DE
:102EC0004660C0E903168660FEF726FF174D042012
:102ED0000024686008206E632E616027A86204EBFE
:102EE000C40025F8206005EB800000F10801468051
:102EF000C0E90276866142680B48FEF749FE641C11
:102F0000022CECDB002404EBC40005EB80004168DC
:102F10000548FEF71DFF641C022CF4DB07B0F0BD72
:102F200000000240403802404C4B0020044B00207F
:102F300010B5FEF787FA05F051FD012808BF10BD56
:102F4000BDE8104005F012BA30B593B000240294E9
:102F50001D48019407940C940D940E940F941094B2
:102F6000016841F080510160006800F080501190CC
:102F70001648016841F4804101600068102100F4A6
:102F8000804011900A2000900120CDE90301022524
:102F9000CDE9050508200890A820CDE90905042001
:102FA0000B906846FEF7DEFB0F20CDE90C054FF4D1
:102FB000A050CDE90E40E802109005210CA8FEF7C4
:102FC000E5FA13B030BD0000403802400070004008
:102FD0000448016841F47001016003494FF000604A
:102FE0000860704788ED00E008ED00E0F0B402688A
:102FF0002C4B2D4C2D4D2E4EDFF8B8C0984218BFEB
:10300000B0F1804F07D0A04218BFA84203D0B04211
:1030100018BF604504D14F6822F0700247EA0202EF
:10302000984218BFB0F1804F25D0A04218BFA842E7
:1030300021D0B04218BF60451DD0A0F18044B4F546
:10304000A0341CBFA0F18044B4F5A23413D0A0F189
:103050008044B4F5A4341CBFA0F18044B4F5C0543E
:1030600009D0A0F18044B4F5E0541CBFA0F1804425
:10307000B4F5005403D1CC6822F4407222434C6969
:1030800022F08002224302608A68C2620A68826279
:10309000984212BF6045096901634FF00101416127
:1030A000F0BC7047000001400004004000080040F0
:1030B000000C00400004014001F01F010123D0F882
:1030C00020C08B402CEA03030362036A02FA01F179
:1030D000194301627047000070B4026A22F00102D5
:1030E0000262036A4268D0F818C00C682CF0730CB6
:1030F00044EA0C0C8C6823F002032343104C114D5E
:10310000A04218BFA84206D1CE6823F0080346EAC1
:10311000030323F00403A04218BFA84207D14C695F
:1031200022F4407244EA02028C6944EA02024260DC
:10313000C0F818C049684163036270BC7047000062
:10314000000001400004014070B4026A22F0100245
:103150000262036A4268D0F818C00C682CF4E64C8E
:103160004CEA042C8C6823F0200343EA0413104C2F
:10317000104DA04218BFA84206D1CE6823F08003AC
:1031800043EA061323F04003A04218BFA84207D128
:103190004C6922F4406242EA84028C6942EA840269
:1031A0004260C0F818C049688163036270BC704710
:1031B000000001400004014010B504F07DF9002832
:1031C00008BF10BDD0E90012BDE810401046084706
:1031D0002DE9F04104460068069D1E46006817462A
:1031E000884631EA00000CBF01200020B84226D1F9
:1031F000B5F1FF3F1AD025B1FEF7F2F8801BA842C7
:1032000014D92068C16821F4D071C1602068416977
:1032100021F001014161202084F8390084F83A004E
:10322000002084F838000320BDE8F08120680068A1
:1032300038EA00000CBF01200020B842D8D000209E
:10324000BDE8F081FEE700002DE9F041FFF71CF832
:10325000754F764D002640B304F03AFE7448417A2B
:103260004FF47A7011FB00F0386004F051FE002436
:103270002046FFF73FF818B100212046FDF7B8FBC4
:103280002046FFF757F818B101212046FDF7B0FBA3
:103290002046FFF73FF818B103212046FDF7A8FBB1
:1032A000601CC4B20D2CE3D933E004F011FE6C8B2A
:1032B00004F02EFE002C02BFE87D0628342027D023
:1032C0003868002802BFE87D0028302020D004F0B4
:1032D000FFFDAC8B04F01CFE002C02BFE87D07282C
:1032E000352015D004F030FDE87403210620FDF7E9
:1032F00077FC044603210720FDF772FC6A7A01215E
:1033000082B34FF0020C012A30D0022A36D03BE0C3
:10331000E87348484FF01402007810F0010F08D00D
:10332000A978002903BF0A21E973AA70491E18BFB2
:10333000A97010F0020F08D0A878002803BF0D2054
:10334000E873AA70401E18BFA870E87D0B2828BF3C
:10335000BDE8F081DFE800F0242830343844484CE0
:10336000502C5400B4F5506F0ED20CE040F6496377
:10337000984206D2B4F5506F06D204E0B4F5506F0F
:1033800001D3614600E031462975AB7BE87C83427E
:1033900008BF9142BDD0A87369724FF03300B7E700
:1033A000BDE8F04102F03EBDBDE8F04102F084BB53
:1033B000BDE8F04100F072BCBDE8F04103F096BBFF
:1033C000BDE8F04104F052BAE87B312828D1002052
:1033D000E875AE75FFF78CFB0120FFF77FFA1FE061
:1033E000BDE8F04100F0FCBCBDE8F04104F046BB94
:1033F000BDE8F04100F09CB8BDE8F04100F0CEB867
:10340000E87B082802D0312803D009E0FDF75EF9F7
:1034100006E00520E8750320A8750120FFF75EFA95
:10342000EE73BDE8F0810000C00000200000002025
:10343000740100201500002070B5C0B204F0A2F89D
:10344000174E054600224FF480613046FDF7C3FF5A
:10345000144C002280212046FDF7BDFF01220221ED
:103460003046FDF7B8FF6069C0B26061606940EA4C
:1034700005206061002204213046FDF7ACFF0122E7
:1034800004213046FDF7A7FF012280212046FDF7E9
:10349000A2FF3046BDE8704001229102FDF79BBFBC
:1034A000000402400010024070B5C0B204F06AF897
:1034B000154E054600224FF480613046FDF78BFF24
:1034C000124C012280212046FDF785FF01220221B6
:1034D0003046FDF780FF6069C0B26061606940EA14
:1034E00005206061002204213046FDF774FF0122AF
:1034F00004213046FDF76FFF3046BDE870400122E1
:103500009102FDF768BF0000000402400010024075
:1035100002E008C8121F08C1002AFAD1704770479C
:10352000002001E001C1121F002AFBD170470000FA
:1035300038B5184C0025607A28B1FFF7D9FA002079
:10354000E075A57524E0E07B1B2804BF0220E07530
:103550001ED035281CD14FF6FF70FEF78FFF0E48A6
:1035600000901D235222BB21432003F039FA40F67C
:10357000B83003F0DDF803F0FFF904F0A9FC0620F1
:1035800002F066FA04F0C4FC04F060FA0120A074B2
:10359000E57338BD000000208CCE01082DE9F04F06
:1035A000FE4E85B03046F37B427C312B19D0FD4D69
:1035B000418CFB4FC08B4FF47A7C4FF060084FF08A
:1035C00070094FF0800A4FF0D00B05F51B540A2B01
:1035D00017D00D2B00F07181232B00F0D58200F065
:1035E000DFBAB07D002804BF0020F07500F0D8825B
:1035F000002A0CBF01200020707401F09BFA00F03B
:10360000CFBA002A7DD0401D80B2F0835021B0FB9C
:10361000FCF201914AF2D73101FB0011890DA7FBA1
:1036200001C3DB085B4203EB830301EB430189B277
:1036300004914CF6CD414143C90CA7FB01C3DB0803
:103640005B4203EB830301EB430189B20391A7FBC8
:103650000031C908494201EB810100EB410080B211
:103660000290C2EB421005EB401000901F23822213
:103670001021019803F0B4F904991F23C1EB411004
:1036800005EB4010009040468222102103F0A8F97B
:1036900003991F23C1EB411005EB401000904846F1
:1036A0008222102103F09CF902981F23C0EB4010E6
:1036B00005EB4010009050468222102103F090F953
:1036C000F18B4FF47A70414341F2A550B1FBF0F019
:1036D00080B24AF2D73101FB00118A0D4CF6CD4180
:1036E0004143C90CA7FB01C3DB085B4203EB830327
:1036F00001EB43011FFA81F8A7FB0031C9084942D9
:1037000000E02EE001EB810100EB410087B2C2EB4B
:10371000421005EB4010009058461F2382221021D2
:1037200003F05EF9C8EB481005EB40100090E02074
:103730001F238222102103F053F9F0201F2382223D
:103740001021009403F04CF9C7EB471005EB401033
:103750000090F7201F238222102103F041F900F08E
:103760001FBA481D80B270845021B0FBFCF2019159
:103770004AF2D73101FB0011890DA7FB01C3DB0819
:103780005B4203EB830301EB430189B204914CF6E6
:10379000CD414143C90CA7FB01C3DB085B4203EBEE
:1037A000830301EB430189B20391A7FB0031C908F0
:1037B000494201EB810100EB410080B20290C2EB73
:1037C000421005EB401000901F233C22102101986D
:1037D00003F006F904991F23C1EB411005EB4010DB
:1037E000009040463C22102103F0FAF803991F2371
:1037F000C1EB411005EB4010009048463C221021DF
:1038000003F0EEF802981F23C0EB401005EB4010C8
:10381000009050463C22102103F0E2F8718C4FF4E6
:103820007A70414341F2A550B1FBF0F080B24AF208
:10383000D73101FB00118A0D4CF6CD414143C90C33
:10384000A7FB01C3DB085B4203EB830301EB4301EE
:103850001FFA81F8A7FB0031C908494201EB810139
:1038600000EB410087B2C2EB421005EB4010009024
:1038700058461F233C22102103F0B2F8C8EB481031
:1038800005EB40100090E0201F233C22102103F0A4
:10389000A7F8F0201F233C221021009403F0A0F889
:1038A000C7EB471005EB40100090F7201F233C2288
:1038B000102103F095F800F073B9002A74D00528A0
:1038C000C0F06E81401F80B2F0835021B0FBFCF24B
:1038D00001914AF2D73101FB0011890DA7FB01C309
:1038E000DB085B4203EB830301EB430189B20491E4
:1038F0004CF6CD414143C90CA7FB01C3DB085B4239
:1039000003EB830301EB430189B20391A7FB003171
:10391000C908494201EB810100EB410080B20290ED
:10392000C2EB421005EB401000901F2382221021B1
:10393000019803F055F804991F23C1EB411005EBE2
:103940004010009040468222102103F049F803996C
:103950001F23C1EB411005EB401000904846822226
:10396000102103F03DF802981F23C0EB401005EB37
:103970004010009050468222102103F031F8F08B65
:103980004FF47A71414341F2A550B1FBF0F080B29F
:103990004AF2D73101FB00118A0D06E00000002039
:1039A000CDCCCCCC508E00083FE04CF6CD4141430D
:1039B000C90CA7FB01C3DB085B4203EB830301EBEC
:1039C00043011FFA81F8A7FB0031C908494201EB06
:1039D000810100EB410087B2C2EB421005EB4010C1
:1039E000009058461F238222102102F0F9FFC8EBF5
:1039F000481005EB40100090E0201F238222102188
:103A000002F0EEFFF0201F2382221021009402F02A
:103A1000E7FFC7EB471005EB40100090F7201F238E
:103A20008222102102F0DCFFBAE005297DD3481F75
:103A300080B270845021B0FBFCF201914AF2D73180
:103A400001FB0011890DA7FB01C3DB085B4203EBFF
:103A5000830301EB430189B204914CF6CD4141430C
:103A6000C90CA7FB01C3DB085B4203EB830301EB3B
:103A7000430189B20391A7FB0031C908494201EB18
:103A8000810100EB410080B20290C2EB421005EBD5
:103A9000401000901F233C221021019802F0A0FF4B
:103AA00004991F23C1EB411005EB401000904046E4
:103AB0003C22102102F094FF03991F23C1EB411017
:103AC00005EB4010009048463C22102102F088FF90
:103AD00002981F23C0EB401005EB401000905046A9
:103AE0003C22102102F07CFF708C4FF47A7141432C
:103AF00041F2A550B1FBF0F080B24AF2D73101FBA0
:103B000000118A0D4CF6CD414143C90CA7FB01C3FE
:103B1000DB085B4203EB830301EB43011FFA81F8EF
:103B2000A7FB0031C908494200E039E001EB8101FF
:103B300000EB410087B2C2EB421005EB4010009051
:103B400058461F233C22102102F04AFFC8EB4810C0
:103B500005EB40100090E0201F233C22102102F0D2
:103B60003FFFF0201F233C221021009402F038FF79
:103B7000C7EB471005EB40100090F7201F233C22B5
:103B8000102102F02DFF0BE0FEF7B2FF0020B07510
:103B900004F09EF9718CF08B03F058FE04F0B8F934
:103BA0000020F07305B0BDE8F08F000038B50020AC
:103BB000042100908802FCF71AFC044603F0C2FEC0
:103BC00000216846C1F10302491C8454240AC9B289
:103BD0000429F7D39DF80000552804BF9DF8010083
:103BE000AA2807D19DF80200AA2804BF9DF8030067
:103BF000552825D04FF055014FF48050FCF7D6FCE6
:103C0000AA2141F20100FCF7D1FCAA2141F20200F5
:103C1000FCF7CCFC552141F20300FCF7C7FC02F095
:103C20006BF84FF47A710C4602224FF44060FCF7B7
:103C300083FC0222214640F60240FCF77DFC38BDA1
:103C40000A48017A323964299FBFC17A0729817AEB
:103C5000052905D8407A1E2802D3B42898BF38BD5C
:103C600002F04AF803F06EFE38BD00007401002037
:103C7000002140F2DE320020401C2828FCD3491CE1
:103C80009142F8D370470020401C2828FCD370478D
:103C90000020401C5028FCD3704700002DE9F84F4D
:103CA000454CDFF8188120466178DFF81491DFF881
:103CB00014A1C07B002569B1434FDFF810B14BF66A
:103CC0006366012920D0DFF80881022952D0032938
:103CD0005FD06DE025286BD10520E07598F80B00CA
:103CE00002F078F89AF8001009EBC000405C3949FE
:103CF00031F81000C0EB0010800060620020FEF779
:103D0000EDFD0120207353E0252803D032480068E0
:103D1000E8B14DE0002201213048FDF75CFB0020B6
:103D2000FCF768FC972358224FF4967114200096F4
:103D300001F06CFE17236C22F0212820009702F07E
:103D40004FFE0A20E0750020FEF7C8FD30E002209B
:103D5000607004F0BDF898F80B0002F03BF89AF898
:103D6000001009EBC000405C1A4931F81000CBF894
:103D700000000BE02528CDD0DBF8000040B903207F
:103D8000607004F0A5F8CA20C8F8000004F0C0F87C
:103D90000EE02528BED0D8F8000048B90020FCF776
:103DA00029FC00206070024601210C48FDF713FB3E
:103DB000E573BDE8F88F00000000002074010020CA
:103DC0000801002028000020FEAE0608C8000020E0
:103DD000CC00002046DE0608C4000020000002409F
:103DE000F0B5B54E83B00025307B28B1706A18B9A4
:103DF0000120FEF773FD3573F07B24283FD0AF49D7
:103E000041F2A204082841D0322876D01D2800F0C3
:103E1000BD80AB4C102800F0D880112800F0DE8067
:103E2000122800F0E780132800F0F080172800F037
:103E3000F980182800F00281192800F00B811A2857
:103E400000F01181282818BF292800F016812A289F
:103E500018BF2B2800F011812C2818BF2D2800F046
:103E60000C812E2818BF2F2800F00781954F0A28B3
:103E700000F008810D2800F0128100F000B9FCF775
:103E8000C9FBFEF735FEB57500F0F9B8C87A10F039
:103E9000010F18D020F00100C8729623642221215E
:103EA0000A20009401F0B2FD874800901E2364228E
:103EB00017210A2002F094FD844840235A2223212E
:103EC0000090372037E040F00100C8728048009031
:103ED0003223642217210A2002F082FD5A229A23FB
:103EE00011463720009401F091FD7A482D235A2283
:103EF0002321009037201EE0FFE7B07DF0B1C87AA3
:103F000010F0020F29D020F00200C872E223AA228A
:103F10005C213720009401F079FD6F482523009043
:103F2000AA221946372002F05BFD6C480090382326
:103F3000AA222121052002F053FD88E00020F0751F
:103F4000307B002818BF3573706A20B103F0C0FFC2
:103F5000756203F0DDFF012034E040F00200C8721A
:103F60005F4800903823AA222521372002F038FD2F
:103F7000E223AA2226210520009401F047FD59489A
:103F80002523AA22212100900520D4E7706A48B198
:103F900055A0D0E90010CDE900100621684603F0D5
:103FA000E3F96CE00920F0750120707003F090FFD8
:103FB0004F494FF44970086003F0AAFF0120FCF755
:103FC00019FB0220FEF78AFC59E00020FEF7D6FC20
:103FD00001210846FEF72CFC257038E00020FEF792
:103FE000CDFC01210220FEF723FC0120207000F00F
:103FF00015F944E00020FEF7C1FC01210320FEF783
:1040000017FC0220207000F009F938E00020FEF7CC
:10401000B5FC01210420FEF70BFC0320207000F00A
:10402000FDF82CE00020FEF7A9FC01210520FEF799
:10403000FFFB0420207000F0F1F820E00020FEF7E4
:104040009DFC01210620FEF7F3FB0520207000F007
:10405000E5F814E00020FEF791FC01210720FEF7AF
:10406000E7FB062007E00020FEF788FC012108207E
:10407000FEF7DEFB07202070E9E7FCF7CBFAF573CB
:1040800003B0F0BDC87A01F0A5FE217807EBC000AF
:10409000425C1A2A38BF521CD9D24254D7E7C87A98
:1040A00001F098FE217807EBC000425C002A18BF9F
:1040B000521EF2D1CBE7000000000020800100205A
:1040C00029000020380100205E41020828C90208AA
:1040D00062380208C2460208105302087C770208C0
:1040E000C25D0208F26D0208776169740D0A000072
:1040F000C40000202DE9F84F3F48DC269625C07A01
:1041000001F068FE3D4901EBC0003D490978405C83
:104110003C4931F810104FF47A70B1FBF0F2D4B290
:10412000B1FBF0F200FB121303EBC30000EB4310F2
:10413000C0F307373448C823A0FB012040096FF0C3
:1041400018025043314A01EB800082FB00208210AC
:10415000A2EBE07000F0FF082D48A0FB0120C00892
:10416000404200EB800001EB400000F0FF0A41F20A
:10417000A200009091224FF4A071D92001F046FCDA
:10418000DFF89090202309EB842000902A4610212C
:10419000304602F025FC09F5205000901F232A46E6
:1041A0001021EC2002F01CFC09EB8720009020235A
:1041B0002A461021F32002F013FC09EB882000901E
:1041C00020232A46102140F2031002F009FC09EBDB
:1041D0008A20009020232A46102140F2131002F07A
:1041E000FFFB0D4800901F232A46102140F22310A8
:1041F00002F0F6FBBDE8F88F7401002008010020F2
:104200002800002046DE06081F85EB5167666666BB
:10421000CDCCCCCC64C9000868BD02082DE9F84FAC
:104220003F48DC269625C07A01F0D4FD3D4901EBDC
:10423000C0003D490978405C3C4931F810104FF40A
:104240007A70B1FBF0F2D4B2B1FBF0F200FB1213C2
:1042500003EBC30000EB4310C0F307373448C82317
:10426000A0FB012040096FF018025043314A01EBD6
:10427000800082FB00208210A2EBE07000F0FF08BB
:104280002D48A0FB0120C008404200EB800001EB5C
:10429000400000F0FF0A41F2A200009091224FF48A
:1042A000A071D92001F0B2FBDFF89090202309EB38
:1042B000842000902A461021304602F091FB09F537
:1042C000205000901F232A461021EC2002F088FB8A
:1042D00009EB8720009020232A461021F32002F0CA
:1042E0007FFB09EB8820009020232A46102140F212
:1042F000031002F075FB09EB8A20009020232A4668
:10430000102140F2131002F06BFB0D4800901F23A8
:104310002A46102140F2231002F062FBBDE8F88F1C
:1043200080010020380100202900002046DE060818
:104330001F85EB5167666666CDCCCCCC64C900089E
:1043400068BD020808B5052830D2DFE800F0030C8C
:10435000151E2700224800901D230F223821F4202B
:1043600002F03EFB22E01F4800901D230F2238215F
:10437000F42002F035FB19E01B4800901D230F22AA
:104380003821F42002F02CFB10E0184800901D2387
:104390000F223821F42002F023FB07E0144800909C
:1043A0001D230F223821F42002F01AFB1148407A15
:1043B00001280BD041F2A20000902C230F2240F2E2
:1043C0003F1140F2311001F021FB08BD0A48009076
:1043D0001D230F220E2140F2311002F001FB08BD17
:1043E000AA2B0208FA1E02084A1202089A050208BD
:1043F000EAF8010800000020004706082DE9F04F08
:1044000089B00020E74A0190029003900490059043
:10441000117801AB142928BF517844D200290AD958
:10442000A1EB000C94449CF801C003F800C0401CB0
:10443000C0B28142F4D841F2A200FEF71FF8DA4878
:10444000009020230A227921642002F0C9FA45F65F
:10445000AA20009030232E224FF4A071002001F0FA
:10446000D5FAD34DD14805F53A6105F5F866C0791E
:10447000079105F57861069142F2E0216F1805F584
:104480009B5B05F5BA5A05F5D95905F5F85805F5B8
:104490007874052824BF09B0BDE8F08FDFE800F08C
:1044A000134C87D3FE008142A1EB000C94448CBFD7
:1044B0009CF801C09CF815C003F800C0401CC0B2B5
:1044C0001428F0D3B7E71F233A2210211E200094AE
:1044D00002F086FA9DF804203A21482000F06AF99B
:1044E0001F236A2210211E20009602F079FA9DF8FF
:1044F00005206A21482000F05DF9079800901F23ED
:104500009A2210211E2002F06BFA9DF806209A21B3
:10451000482000F04FF9069800901F23CA2210216E
:104520001E2002F05DFA9DF80720CA21482000F005
:1045300041F909B0BDE8F08F1F233A2210211E2057
:10454000CDF800B002F04CFA9DF808203A2148203E
:1045500000F030F91F236A2210211E20CDF800A0A0
:1045600002F03EFA9DF809206A21482000F022F965
:104570001F239A2210211E20CDF8009002F030FA5D
:104580009DF80A209A21482000F014F91F23CA221E
:1045900010211E20CDF8008002F022FA9DF80B2099
:1045A000CA21482000F006F909B0BDE8F08F1F23AA
:1045B0003A2210211E20009702F012FA9DF80C20DA
:1045C0003A21482000F0F6F81F236A2210211E200D
:1045D000009402F005FA1F236A2210212E20009574
:1045E00002F0FEF99DF80D206A21482000F0E2F863
:1045F0001F239A2210211E20009402F0F1F91F239C
:104600009A2210212E20009402F0EAF99DF80E2043
:104610009A21482000F0CEF81F23CA2210211E2024
:10462000009402F0DDF91F23CA2210212E200096EB
:1046300002F0D6F99DF80F20CA21482000F0BAF800
:1046400009B0BDE8F08F1F233A2210211E200094EC
:1046500002F0C6F9079800901F233A2210212E205D
:1046600002F0BEF99DF810203A21482000F0A2F88F
:104670001F236A2210211E20009402F0B1F906982F
:1046800000901F236A2210212E2002F0A9F99DF824
:1046900011206A21482000F08DF800E02CE01F2353
:1046A0009A2210211E20009402F09AF91F239A22C8
:1046B00010212E20CDF800B002F092F99DF81220C2
:1046C0009A21482000F076F81F23CA2210211E20CC
:1046D000009402F085F91F23CA2210212E20CDF864
:1046E00000A002F07DF99DF81320CA21482000F0B7
:1046F00061F809B0BDE8F08F1F233A2210211E2077
:10470000009402F06DF91F233A2210212E20CDF8DB
:10471000009002F065F99DF814203A21482000F03D
:1047200049F81F236A2210211E20009402F058F934
:104730001F236A2210212E20CDF8008002F050F9AC
:104740009DF815206A21482000F034F81F239A2292
:1047500010211E20009402F043F91F239A221021F9
:104760002E20009702F03CF99DF816209A2148204F
:1047700000F020F81F23CA2210211E20009602F00C
:104780002FF91F23CA2210212E20009502F028F9AC
:104790009DF81720CA21482000F00CF809B0BDE8A8
:1047A000F08F00008C010020528D030800000020D3
:1047B000508E00082DE9F74F044600F11F056248AE
:1047C00082B004F1100904F1200804F1300704F16B
:1047D0004F06A0F6047AA0F2827B072A24BF05B018
:1047E000BDE8F08FDFE802F01404172A317184006D
:1047F00056481F23009019462046039A02F0F0F80D
:10480000534800901F23A8B21946039A02F0E8F813
:1048100005B0BDE8F08F4F481F2300901946204691
:10482000039A02F0DDF84A4800901F23A8B2194607
:10483000039A02F0D5F805B0BDE8F08F4648202372
:1048400000903D212046039A4DE000901F23102147
:104850002046039A02F0C4F8404800901FFA89F0FD
:104860001F231021039A02F0BBF83D4800901FFA65
:1048700088F01F231021039A02F0B2F83948009003
:104880001F23B8B21946039A02F0AAF836480090DE
:104890001F23B0B21946039A02F0A2F804F16E0089
:1048A0001F2380B2CDF800A01946039A02F098F8B1
:1048B00004F18D001F2380B2CDF800B01946039A91
:1048C00002F08EF805B0BDE8F08F1F23CDF800A0F0
:1048D00019462046039A02F083F81F23A8B2CDF8A8
:1048E00000B01946039A02F07BF805B0BDE8F08FDE
:1048F00000901F2310212046039A02F071F81B48F4
:1049000000901FFA89F01F231021039A02F068F823
:10491000134800901FFA88F01F231021039A02F019
:104920005FF81F23B8B2CDF800A01946039A02F031
:1049300057F81F23B0B2CDF800B01946039A02F021
:104940004FF805B0BDE8F08FD257010844230108A5
:1049500048320108C62A0108B25B01081096000817
:10496000508E0008CA3901084C41010830920008F5
:104970002DE9F04F83B000250F202C46019001F067
:1049800011FA6749684A097A48436649A1FB001051
:10499000C0F34F1042F21071B0FBF1F161F3070464
:1049A0004FF47A71B0FBF1F1A2FB01C3DB085B426B
:1049B00003EB830301EB430101F0FF084AF2D73117
:1049C00001FB0011890DA2FB01C3DB085B4203EB75
:1049D000830301EB4301CFB24CF6CD414143C90CF7
:1049E000A2FB01C3DB085B4203EB830368F30F24E4
:1049F00001EB430167F3174461F31F64A2FB00213D
:104A0000C908494201EB810100EB410060F3070551
:104A100041F2A200002200903523F521104600F05B
:104A2000F5FF424A1020DFF808B14FF0200902F5E7
:104A30001B564FF0300AB8F1000F40D0C8EB4811B8
:104A400002EB4111174600911F231021019A01F03A
:104A5000C7FFC4F30740C0EB401007EB40100090C5
:104A600048461F231021019A01F0BAFF200EC0EB27
:104A7000401007EB4010009050461F231021019A70
:104A800001F0AEFF4020202300961021019A01F092
:104A9000A7FFC5EB451007EB4010009047201F23F0
:104AA0001021019A01F09CFF24230F227221712012
:104AB000CDF800B001F094FF03B0BDE8F08FC7EB74
:104AC000471102EB4111174600911F231021019A53
:104AD00001F086FF200EC0EB401007EB4010009065
:104AE00048461F231021019A01F07AFF50462023E7
:104AF00000961021019A01F073FFC5EB451007EBFA
:104B00004010009037201F231021019A01F068FF08
:104B100024230F2272216120CDF800B0CAE70000E3
:104B2000740100201F85EB51CDCCCCCC508E0008F9
:104B3000EC8502082DE9F04F83B041F2A200FDF7A9
:104B40009DFCC24F50200190788C4FF47A71B0FBDD
:104B5000F1F24AF2D73900FB0991BD4C890DA4FB53
:104B600001C3DB085B4203EB830301EB43018EB21D
:104B70004CF6CD414143C90CA4FB01C3DB085B42A9
:104B800003EB830301EB43018DB2A4FB0031C908A1
:104B9000494201EB810100EB41001FFA80FAC2EBB0
:104BA0004210DFF8B0821F2308EB401000903C2237
:104BB0001021019801F014FFC6EB461008EB4010DD
:104BC00000901F233C221021602001F009FFC5EB5B
:104BD000451008EB401000901F233C22102170204C
:104BE00001F0FEFECAEB4A1008EB401000901F23B4
:104BF0003C221021802001F0F3FE974800902523ED
:104C00003C222E21902001F0EBFE798C4FF47A703B
:104C1000414341F2A550B1FBF0F080B2494601FB9F
:104C200000118A0D4CF6CD414143C90CA4FB01C3D0
:104C3000DB085B4203EB830301EB43018DB2A4FB72
:104C40000031C908494201EB810100EB410086B205
:104C5000C2EB421008EB401000901F233C221021B1
:104C6000D02001F0BDFEC5EB451008EB40100090D0
:104C70001F233C221021E02001F0B2FE08F51B5555
:104C80001F233C221021F020009501F0A9FEC6EB65
:104C9000461008EB401000901F233C221021F72003
:104CA00001F09EFE797C6D4800294FF016030090BC
:104CB00000F0BD8084220D21282001F091FE41F2F8
:104CC000A200009054233E223521282000F09EFEB1
:104CD0005E4F4FF47A71F88BB0FBF1F24AF2D731A4
:104CE00001FB0091890DA4FB01C3DB085B4203EBD0
:104CF000830301EB43011FFA81FA4CF6CD41414396
:104D0000C90CA4FB01C3DB085B4203EB830301EB8B
:104D100043018EB2A4FB0031C908494201EB810175
:104D200000EB41001FFA80FBC2EB421008EB401081
:104D300000901F2382221021019801F051FECAEB3E
:104D40004A1008EB4010009060201F23822210219F
:104D500001F046FEC6EB461008EB401000907020B4
:104D60001F238222102101F03BFECBEB4B1008EBFE
:104D70004010009080201F238222102101F030FE7D
:104D800037480090242390208222194601F028FE03
:104D9000F98B4FF47A70414341F2A550B1FBF0F02A
:104DA00080B24AF2D73101FB00918A0D4CF6CD4119
:104DB0004143C90CA4FB01C3DB085B4203EB830343
:104DC00001EB43018EB2A4FB0031C908494201EB5B
:104DD000810100EB410084B2C2EB421008EB4010AD
:104DE0000090D0201F238222102101F0F9FDC6EB94
:104DF000461008EB40100090E0201F238222102173
:104E000001F0EEFDF0201F2382221021009501F019
:104E1000E7FDC4EB441008EB40100090F7201F237F
:104E20008222102101F0DCFD03B0BDE8F08F3E22AC
:104E30000D21282001F0D4FD41F2A20000909A2318
:104E400084223521282000F0E1FD41E70000002008
:104E5000CDCCCCCC508E0008FCA5020820E703087E
:104E600048B302082DE9F84F41F2A200FDF706FB16
:104E70007D4800901F230F227921642001F0B0FDAE
:104E800045F6AA29392337224FF4A0710020CDF826
:104E9000009000F0BBFD754800901F23432279214C
:104EA000192001F09DFDDFF8C8A142F21071714D8B
:104EB000DAF80000714CB0FBF1F1CAB24FF47A712C
:104EC000B0FBF1F1A5FB01C3DB085B4203EB8303FD
:104ED00001EB43086849A1FB00314909A5FB01C367
:104EE000DB085B4203EB830301EB4307A5FB0031C7
:104EF000C908A5FB01C3DB085B4203EB830301EB9D
:104F00004306494201EB810100EB410B04EB822097
:104F10000090202370221021B42001F061FD04EBE9
:104F200088200090202370221021C42001F058FD19
:104F300004EB87200090202370221021D42001F060
:104F40004FFD04EB86200090202370221021E420E6
:104F500001F046FD04EB8B200090202370221021ED
:104F6000F42001F03DFD46480090202370221F21CF
:104F70004FF48A7001F034FD932391224FF4A07115
:104F80000020CDF8009000F041FD3E480090232322
:104F90009D227B21192001F023FDDAF8040042F262
:104FA0001071B0FBF1F1CBB24FF47A71B0FBF1F1BB
:104FB000A5FB01C2D208524202EB820201EB42067B
:104FC0002D49A1FB00214909A5FB01C2D20852428B
:104FD00002EB820201EB4207A5FB0021C908A5FBF9
:104FE00001C2D208524202EB820201EB4205494261
:104FF00001EB810100EB410804EB832000902023AA
:10500000CA2210214B2001F0EBFC04EB862000901B
:105010002023CA2210215B2001F0E2FC04EB872050
:1050200000902023CA2210216B2001F0D9FC04EB50
:10503000852000902023CA2210217B2001F0D0FC83
:1050400004EB882000902023CA2210218B2001F03D
:10505000C7FC0D4800902523CA227C21BB2001F00B
:10506000BFFCBDE8F88F0000A8DA02083E2904085A
:1050700074010020CDCCCCCC1F85EB5164C9000855
:10508000646A04089C0704088C4604082DE9F84F5C
:10509000044641F2A200FDF7F1F9FE4900911F23F9
:1050A0000A227921642001F09BFC45F6AA263023D0
:1050B0002E224FF4A0710020009600F0A7FCF94DBD
:1050C0002000DFF8D483F54FDFF8D4934BF663610B
:1050D00005F51B5400F0E280DFF8CCA3DFF8CCB379
:1050E000012800F0BD81022818BFBDE8F88FF02329
:1050F000009190224FF4A071002000F087FC202343
:105100003A2279212620CDF800A001F069FC98F818
:10511000090000EBC00101EB40110A0BCD2110FB8F
:1051200001F1C90AA7FB01C3DB085B4203EB830360
:1051300001EB430101F0FF09A7FB0031C908494217
:1051400001EB810100EB410000F0FF0AC2EB4210CD
:1051500005EB401000901F233A221021BF2001F0E0
:105160003FFCC9EB491005EB401000901F233A2289
:105170001021CF2001F034FCCAEB4A1005EB40109F
:1051800000901F233A221021DF2001F029FC1F2369
:105190003A221021EF20CDF800B001F021FC98F860
:1051A000080000EBC00101EB40114FEA113ACD219C
:1051B00010FB01F1C90AA7FB0132D208524202EBEF
:1051C000820201EB420101F0FF09A7FB0021C9089F
:1051D000494201EB810100EB4100C7B260235E222E
:1051E0004FF4A0710020009600F010FCB0486A2235
:1051F00000901F231146262001F0F2FBCAEB4A1053
:1052000005EB401000901F236A221021C02001F0FE
:10521000E7FB20236A221021D020009401F0E0FB5C
:10522000C9EB491005EB401000901F236A221021A2
:10523000D72001F0D5FBC7EB471005EB40100090DD
:105240001F236A221021E72001F0CAFB90238E223F
:105250004FF4A0710020009600F0D8FB9548009014
:105260001F23B122B521262001F0BAFB98F80B00CC
:1052700010F0040F00F0D8818F4800901F239E2269
:105280005B21DF2001F0ACFB8C4800901F23CE2275
:105290005B21DF2001F0A4FBBDE8F88F00916023C3
:1052A00030224FF4A071002000F0B0FB8448009041
:1052B00020233A227921262001F092FB98F8090058
:1052C00000EBC00101EB40110A0BCD2110FB01F1F5
:1052D000C90AA7FB01C3DB085B4203EB830301EBB5
:1052E000430101F0FF0AA7FB0031C908494201EB65
:1052F000810100EB410000F0FF0B09EB82200090E0
:1053000020233A221021BF2001F06AFB09EB8A20FA
:10531000009020233A221021CF2001F061FB09EBFD
:105320008B20009020233A221021DF2001F058FB2F
:105330006448009020233A221021EF2001F050FB16
:1053400060235E224FF4A0710020009600F05EFB07
:1053500098F8080000EBC00101EB40114FEA113A48
:10536000CD2110FB01F1C90AA7FB0132D20852423C
:1053700002EB820201EB420101F0FF09A7FB0021D1
:10538000C908494201EB810100EB4100C7B248481E
:105390006A2200901F231146262001F021FBCAEB50
:1053A0004A1005EB401000901F236A221021C020F4
:1053B00001F016FB20236A221021D020009401F076
:1053C0000FFBC9EB491005EB401000901F236A2228
:1053D0001021D72001F004FBC7EB471005EB40106C
:1053E00000901F236A221021E72001F0F9FA902390
:1053F0008E224FF4A0710020009600F007FB324887
:1054000000901F23B122B521262001F0E9FA98F877
:105410000B0010F0040F11D12C4800901F239E2286
:105420005B21DF2001F0DCFA294800901F23CE2207
:105430005B21DF2001F0D4FABDE8F88F2548009009
:105440001F239E225B21DF2001F0CAFA2248009030
:105450001F23CE225B21DF2001F0C2FABDE8F88FC6
:105460000091902360224FF4A071002000F0CEFA4A
:1054700020233A2279212620CDF800A001F0B0FAAD
:1054800098F8090000EBC00101EB40110A0BCD2197
:1054900024E00000E8AE040874010020CDCCCCCCA0
:1054A00044F50008508E000836CC040848C50208B0
:1054B000B6080508B868050862D70508361A060850
:1054C00076EA040848C10208E23C05088E94050803
:1054D00022EE050898AA05082C04060810FB01F125
:1054E000C90AA7FB01C3DB085B4203EB830301EBA3
:1054F0004301CCB2A7FB0031C908494201EB81014D
:1055000000EB410000F0FF0AC2EB421005EB401037
:1055100000901F233A221021BF2001F061FAC4EB52
:10552000441005EB401000901F233A221021CF2099
:1055300001F056FACAEB4A1005EB401000901F2309
:105540003A221021DF2001F04BFA1F233A221021CA
:10555000EF20CDF800B001F043FA98F8080000EB16
:10556000C00101EB40110C0BCD2110FB01F1C90A68
:10557000A7FB0132D208524202EB820201EB420148
:10558000CDB2A7FB0021C908494201EB810100EB24
:105590004100C7B260235E224FF4A0710020009644
:1055A00000F034FA29486A2200901F231146262071
:1055B00001F016FA09EB8420009020236A221021C2
:1055C000C02001F00DFA2248009020236A22102109
:1055D000D02001F005FA09EB8520009020236A22F3
:1055E0001021D72001F0FCF909EB8720009020233F
:1055F0006A221021E72001F0F3F990238E224FF464
:10560000A0710020009600F001FA124800901F23BC
:10561000B122B521262001F0E3F998F80B0010F033
:10562000040F7FF40BAFF7E60B4800901F239E2278
:105630005B21DF2001F0D4F9084800901F23CE221F
:105640005B21DF2001F0CCF9BDE8F88F622205086C
:10565000441D0108E23C050858C10508F63006085B
:10566000F8B5044641F2A200FCF708FF3848009064
:1056700020230F227921642001F0B2F9354F45F63D
:10568000AA254BF66366002C32D0012C18BFF8BD5A
:10569000392337224FF4A0710020009500F0B6F9AD
:1056A000ED23952240F27B110020009600F0AEF928
:1056B0001623B5220D217220009701F091F926489A
:1056C0001F23009059221946902001F089F9932355
:1056D00091224FF4A0710020009500F097F91F4827
:1056E00000902023B3221F21902001F079F9F8BD0A
:1056F000392337224FF4A0710020009500F086F97D
:1057000093233B224FF4A0710020009600F07EF915
:1057100016235B220D217220009701F061F91048D9
:105720000090202359221F21902001F059F9932342
:1057300091224FF4A0710020009500F067F909480C
:105740001F230090B3221946902001F049F9F8BDBB
:105750002472040820E703082498040828A70408F2
:1057600064900408A69F04082DE9F84F044641F20E
:10577000A200FCF783FE9D4FDFF87492DFF874A25D
:10578000DFF874824BF6636645F6AA25002C52D0EA
:10579000AAF57250012C7DD0022C00F0DE80032C83
:1057A00018BFBDE8F88F202300900F2279216420D4
:1057B00001F016F9392337224FF4A071002000952B
:1057C00000F024F9EC23AF224FF4A07100200096E2
:1057D00000F01CF91623C7220D214620009701F086
:1057E000FFF81E234B2279216420CDF8009001F0B0
:1057F000F7F8752373224FF4A0710020009500F094
:1058000005F91F23872279216420CDF800A001F03B
:10581000E7F8B123AF224FF4A0710020009500F00B
:10582000F5F8764800902023C3227921642001F006
:10583000D7F8BDE8F88F05223823910100200096A3
:1058400000F0E4F8162313220D214620009701F002
:10585000C7F86B48009020230F227921642001F0C3
:10586000BFF8392337224FF4A0710020009500F0D3
:10587000CDF81F234B2279216420CDF8009001F050
:10588000AFF8752373224FF4A0710020009500F04B
:10589000BDF800E019E01F23872279216420CDF8AC
:1058A00000A001F09DF8B123AF224FF4A0710020B9
:1058B000009500F0ABF81F23C32279216420CDF8B6
:1058C000008001F08DF8BDE8F88F009020230F22B2
:1058D0007921642001F084F8392337224FF4A07134
:1058E0000020009500F092F8742337224FF4A07145
:1058F0000020009600F08AF816234F220D21462042
:10590000009701F06DF83F48009020234B22792149
:10591000642001F065F8752373224FF4A071002014
:10592000009500F073F81F23872279216420CDF8B9
:1059300000A001F055F8B123AF224FF4A071002070
:10594000009500F063F81F23C32279216420CDF86D
:10595000008001F045F8BDE8F88F009020230F2269
:105960007921642001F03CF8392337224FF4A071EB
:105970000020009500F04AF8B02373224FF4A07184
:105980000020009600F042F816238B220D214620BD
:10599000009701F025F81E234B2279216420CDF8D1
:1059A000009001F01DF8752373224FF4A0710020C0
:1059B000009500F02BF814480090202387227921CD
:1059C000642001F00DF8B123AF224FF4A071002044
:1059D000009500F01BF81F23C32279216420CDF825
:1059E000008000F0FDFFBDE8F88F000020E703080D
:1059F000C45103087634030892AB03085CE903083A
:105A000036160308126F0308E0C803082DE9F047B3
:105A100090461D460F464A1E81465B1E4146089E23
:105A2000FCF7E0FE2C20FDF707FDA7EB0900A5EB36
:105A30000801002400FB01F5002D98BFBDE8F087A8
:105A40003046FCF7FBFF641CA542F9D8BDE8F0879F
:105A50002DE9F041174E164C0746316860784AF63A
:105A6000AA250D60394600F60200FAF79FFD60781E
:105A7000A11C47546078401CC0B26070142824BF39
:105A8000002060702078401CC0B22070142824BF11
:105A900014202070C1B24FF40060FAF787FD6178DE
:105AA00040F60100FAF782FD30680560BDE8F0813C
:105AB0008C010020EC0100202DE9F04F824CDFF832
:105AC0000C9220462DED028B81B02178C07B002501
:105AD000A9B1DFF8FCB19FED7F8A7F4FDFF8FCA111
