:020000040800F2
:10000000005000205D020008CF2E0008751E000879
:10001000CD2E0008F3050008913200080000000012
:100020000000000000000000000000009D0100082A
:10003000BD06000800000000F90100087D2F00083F
:1000400077020008770200087702000877020008AC
:10005000770200087702000877020008770200089C
:10006000770200087702000877020008770200088C
:10007000770200087702000877020008770200087C
:10008000770200087702000877020008770200086C
:10009000770200087702000877020008770200085C
:1000A000770200087702000877020008770200084C
:1000B000770200087702000877020008770200083C
:1000C000770200087702000877020008770200082C
:1000D000770200087702000877020008770200081C
:1000E000770200087702000877020008770200080C
:1000F00077020008770200087702000877020008FC
:1001000077020008770200087702000877020008EB
:1001100077020008770200087702000877020008DB
:1001200077020008770200087702000877020008CB
:1001300077020008000000000000000077020008BD
:1001400077020008770200087702000877020008AB
:10015000770200087702000877020008770200089B
:10016000770200087702000877020008770200088B
:10017000770200087702000800000000000000007D
:100180007702000877020008DFF80CD000F0ECF8E6
:1001900000480047FD660008005000202C4B1968FD
:1001A0000868B0E8F04F80F30988BFF36F8F4FF015
:1001B000000080F3118870470000000008480068C4
:1001C000006880F308884FF0000080F3148862B65E
:1001D00061B6BFF34F8FBFF36F8F00DF00BF00BF6B
:1001E00008ED00E0DFF80C00016841F470010160E7
:1001F000704700BF88ED00E0EFF30980BFF36F8F19
:10020000134B1A681EF0100F08BF20ED108A20E96A
:10021000F04F106009B44FF0500080F31188BFF325
:100220004F8FBFF36F8F08F053F94FF0000080F34A
:10023000118809BC19680868B0E8F04F1EF0100F6B
:1002400008BFB0EC108A80F30988BFF36F8F704746
:1002500048000020EFF30580704700000648804703
:1002600006480047FEE7FEE7FEE7FEE7FEE7FEE79B
:10027000FEE7FEE7FEE7FEE71D3000088901000803
:100280002DE9F05F0546002092469B4688460646CB
:10029000814640241BE0284641464746224600F05E
:1002A00053F853465A46C01A914110D31146184686
:1002B000224600F03AF82D1A67EB01084F46224615
:1002C0000120002100F031F817EB00094E41201EFB
:1002D000A4F10104DFDC484631462A464346BDE826
:1002E000F09F40EA01039B0703D009E008C9121FF1
:1002F00008C0042AFAD203E011F8013B00F8013BE0
:10030000521EF9D27047D2B201E000F8012B491E0B
:10031000FBD270470022F6E710B513460A460446A2
:100320001946FFF7F0FF204610BD202A04DB203AD3
:1003300000FA02F1002070479140C2F1200320FA38
:1003400003F3194390407047202A04DB203A21FA36
:1003500002F00021704721FA02F3D040C2F12002DE
:100360009140084319467047064C074D06E0E06887
:1003700040F0010394E8070098471034AC42F6D3EC
:10038000FFF706FF4CE206086CE20608002A08BFE9
:1003900070472DE9F04114460E4605462F46681C6D
:1003A00085B201F047FEA02001F006FE01F0A6FE96
:1003B000380A01F001FE01F0A1FEF8B201F0FCFDE7
:1003C00001F09CFE01F036FEA12001F0F5FD01F0E8
:1003D00095FE002001F078FD074601F05FFE601EEB
:1003E000040406F8017B240CD8D1BDE8F0812DE986
:1003F000F84380464FF000000E0007460446009088
:1004000018BFE94626D008EB040085B201F012FEC1
:10041000A02001F0D1FD01F071FE280A01F0CCFD11
:1004200001F06CFEE8B201F0C7FD01F067FE01F0DB
:1004300001FEA12001F0C0FD01F060FE002001F0EE
:1004400043FD054601F02AFE09F80450601CC4B2C1
:10045000A642D8D8022E02D0042E07D014E09DF870
:1004600001009DF8001001EB00270DE09DF803004E
:100470009DF8021001EB00209DF8011001EB002017
:100480009DF8001001EB00273846BDE8F88310B551
:10049000044601F0CFFDA02001F08EFD01F02EFEFC
:1004A000200A01F089FD01F029FEE0B201F084FD8F
:1004B00001F024FE01F0BEFDA12001F07DFD01F060
:1004C0001DFE002001F000FD044601F0E7FD20467E
:1004D00010BD2DE9F0410646501E0F4685B238BFCB
:1004E000BDE8F08197F80080002401F0A3FDA02072
:1004F00001F062FD01F002FE300A01F05DFD01F045
:10050000FDFDF0B201F058FD01F0F8FD404601F0AC
:1005100053FD01F0F3FD01F0C1FD03F053FC621C3B
:10052000D4B20A2CF9D3701C691E86B28DB207F1C1
:100530000107D7D2BDE8F0812DE9F04716000F463C
:1005400080464FF0000508BFBDE8F08708EB0500C6
:100550001FFA80F9E80027FA00F000F0FF0A0024F3
:1005600001F068FDA02001F027FD01F0C7FD4FEA72
:10057000192001F021FD01F0C1FD09F0FF0001F09B
:100580001BFD01F0BBFD504601F016FD01F0B6FD6C
:1005900001F084FD03F016FC601CC4B20A2CF9D3F0
:1005A000681CC5B2B542D1D3BDE8F08770B50E4620
:1005B0000546002401F03EFDA02001F0FDFC01F005
:1005C0009DFD280A01F0F8FC01F098FDE8B201F069
:1005D000F3FC01F093FD304601F0EEFC01F08EFDDE
:1005E00001F05CFD03F0EEFB601CC4B20A2CF9D3F1
:1005F00070BDFEE70100064806D0012918BF70470C
:100600000122042100F0F3BE0022042100F0EFBE1D
:100610000010024010B5084C01220421204600F0D1
:10062000E6FEC82006F0CEF920460022BDE81040C4
:10063000042100F0DCBE00000010024019494868A7
:1006400000281CBF401E4860886800281CBF401E50
:100650008860C86800281CBF401EC8601248007827
:1006600018B912480288521C0280114A10880028CA
:100670001CBF401E10800F4A108800281CBF401E5F
:1006800010800D4A106800281CBF401E10600888AA
:1006900000281CBF401E0880086900281CBF401E9F
:1006A00008617047C4000020100000201A000020DC
:1006B0001C0000201E0000202800002070470000C1
:1006C00030B583B041F2A20001F0E4FE45F6AA2461
:1006D00052234F224FF4A0710020009405F0B0FA8D
:1006E000A323A022D9210020009405F0A9FAF02329
:1006F0004F226D216A20009405F0A2FAF023002217
:10070000D921D620009405F09BFA6A4D002048F2CA
:10071000C0440095CDE9014020231A4617212A2024
:1007200000F0ECF801200095CDE9014020231A46A5
:1007300017214A2000F0E2F802200095CDE901409F
:1007400020231A4617216A2000F0D8F803200095CC
:10075000CDE9014020231A4617218A2000F0CEF867
:100760005549009172201F236E22102106F084FA51
:1007700052480090822020236E22102106F07CFA3D
:100780004F48009089201F236E22102106F074FA32
:100790004C48009025236E222E21A22006F06CFAF0
:1007A000494900917C202023BE22102106F064FAE2
:1007B000464800908C202023BE22102106F05CFACF
:1007C000434824230090BE221946A52006F054FA7F
:1007D000404D41F2A204E87A10F0010F17D03E48D4
:1007E00000903223642217210A2006F045FA5A228B
:1007F0009A2311463720009405F022FA37480090DA
:100800002D235A222321372006F036FA16E09623AC
:10081000642221210A20009405F012FA3048009049
:100820001E23642217210A2006F026FA2D48009084
:1008300040235A222321372006F01EFAE87A10F0CE
:10084000020F17D0284800903823AA2225213720EC
:1008500006F012FAE223AA2226210520009405F0D0
:10086000EFF9224800902523AA222121052006F035
:1008700003FA16E0E223AA225C213720009405F057
:10088000DFF91B4825230090AA221946372006F0DD
:10089000F3F9184800903823AA222121052006F0F8
:1008A000EBF91548807B03F067FE03B0BDE83040EC
:1008B00003F06EBD402401080C9900080CB8000834
:1008C000ACA40008F8A802088CA800084C91000805
:1008D00044B60208840100205E3B0208BE490208BB
:1008E0005A44020824CC0208BE600208EE700208D6
:1008F0000C560208787A0208000000202DE9FF4F0C
:1009000087B0D90801911698002102910999002910
:100910009CBF0BB0BDE8F08F01994843099948434B
:10092000009001980027002851D9DDE90001029AC2
:1009300002FB01000899059001EB020808F1010093
:10094000000A04904FEA182003901499059839443E
:10095000002410F801B0079800EBC70A8020E0409F
:1009600010EA0B0F2AD00AEB04056E1C08F10109EE
:100970002A2002F08DFD280A02F0C2FDE8B202F042
:10098000BFFD300A02F0BCFDF0B202F0B9FD2B2031
:1009900002F07EFD039802F0B3FD08F0FF0002F0C4
:1009A000AFFD049802F0ACFD09F0FF0002F0A8FDD5
:1009B0002C2002F06DFD159802F066F8601CC4B2A0
:1009C000082CCBD3781CC7B201988742BDD30298BC
:1009D0000999401CC0B202908842A2D30BB0BDE876
:1009E000F08F000070B50E2880F0FB80DFE800F08B
:1009F00007255B4374808C98A4B0BCC8D4E081B157
:100A0000032912D0012918BF70BD042001F072FC27
:100A100078B10B2001F06EFC58B175493720C873CE
:100A200070BD73490820C87370BD71492320C87315
:100A300070BD6F493120C87370BD81B1032912D0D8
:100A4000012918BF70BD042001F054FC78B10B20BF
:100A500001F050FC58B166493820C87370BD644934
:100A60000920C87370BD62492420C87370BD6049F5
:100A70003220C87370BD49B103290BD0012918BFBA
:100A800070BD5C48017821F0020116E058490D2044
:100A9000C87370BD5748017841F002010170544994
:100AA0000020887070BD51B103290CD0012918BFF6
:100AB00070BD5048017821F00101017070BD4C49B2
:100AC0000A20C87370BD4B48017841F001010170E4
:100AD00047490020887070BD31B1032918BF70BD2F
:100AE00028204349C87370BD41491020C87370BDA8
:100AF00031B1032918BF70BD29203D49C87370BDAD
:100B00003B491120C87370BD31B1032918BF70BDB6
:100B10002A203749C87370BD35491220C87370BD8B
:100B200031B1032918BF70BD2B203149C87370BD86
:100B30002F491320C87370BD31B1032918BF70BD90
:100B40002C202B49C87370BD29491720C87370BD6C
:100B500031B1032918BF70BD2D202549C87370BD60
:100B600023491820C87370BD31B1032918BF70BD67
:100B70002E201F49C87370BD1D491920C87370BD50
:100B800031B1032918BF70BD2F201949C87370BD3A
:100B900017491A20C87370BD31B1012918BF70BD43
:100BA00025201349C87370BD11491D20C87370BD3D
:100BB00041B1012911D0032918BF70BD39200C495A
:100BC000C87370BD0A4C0025257407F0FFFA6583D1
:100BD00007F01CFB1B20E07370BD05492720C8737C
:100BE00070BD0449087820F00300087070BD000053
:100BF00000000020160000202DE9F0474FF000050E
:100C000084B00E0007462C461FD0A8464FF00109BD
:100C10004FF0070ACDE90079CDE902A869460E48F0
:100C200000F01CF80C4800F033FA02210A4800F0EA
:100C3000CFF9094800F0C6F881B20D44012005F053
:100C4000C1FE601CC4B2B442E4D3B5FBF6F004B0FC
:100C500080B2BDE8F0870000A801002038B44FF052
:100C6000000CCDF800C090F83C20012A02BF022001
:100C700038BC7047012280F83C200A6807240368CA
:100C8000092A13D9DD680A3A02EB420204FA02F299
:100C900025EA0202DA600A788B680A3A02EB42021D
:100CA00093400268D4682343D36010E01D6902EBCF
:100CB000420204FA02F225EA02021A610A788B68FB
:100CC00002EB4202934002681469234313614A68AD
:100CD0001F24072A15D203685D6B521E02EB8202A5
:100CE00004FA02F225EA02025A630A8893B20A79E8
:100CF000521E02EB820293400268546B23435363FB
:100D00002BE003680D2A14D21D6BD21F02EB820266
:100D100004FA02F225EA02021A630A8893B20A79F7
:100D2000D21F02EB820293400268146B23431363C9
:100D300013E0DD6A0D3A02EB820204FA02F225EAC0
:100D40000202DA620A8893B20A790D3A02EB820251
:100D500093400268D46A2343D362174B0468154A50
:100D60009C4204BF0C68122C03D1546844F48004E4
:100D7000546004689C4218D10B68102B18BF112BCB
:100D800013D1536843F400035360096810290CD150
:100D90000A490B4A0968B1FBF2F101EB81014900F4
:100DA000009102D0491E0091FCD180F83CC038BCB3
:100DB0000020704700230140002001404400002033
:100DC00040420F000068C06C704700002DE9F04100
:100DD00004004FF0000504BF0120BDE8F081564F2C
:100DE000206C002628B9204600F0AEF8666484F82E
:100DF0003C60206C10F0100F18BF012504D084F85F
:100E00003C602846BDE8F081206C20F4885040F01A
:100E1000020020644948416821F440314160416842
:100E20006268114341602068416821F4807141602B
:100E300020684168226941EA0221416020684168D6
:100E400021F04071416020684168A268114341600F
:100E50002068816821F40061816020688168E2680F
:100E600011438160A06AB8422068816821F07061F6
:100E700081602068816808BF21F040510BD0A26AD0
:100E8000114381602068816821F0405181602068B1
:100E90008168E26A114381602068816821F0020163
:100EA000816020688168227E41EA4201816094F875
:100EB000200000282068416808BF21F400610ED09E
:100EC00041F4006141602068416821F46041416063
:100ED000206841681A4B626A03EB42321143416059
:100EE0002068C16A21F47001C1622068C16AA28BC6
:100EF000144B03EB02521143C1622068816821F454
:100F0000007181602068816894F8302041EA4221B4
:100F100081602068816821F4806181602068816837
:100F2000626941EA822181606664206C20F00200DF
:100F300040F00100206462E70100000F002301403F
:100F400000E0FFFF0000F0FF30B587B00024009400
:100F500001940294039404940068A0F18041B1F5D7
:100F600090311CBF07B030BD1548016841F4807155
:100F70000160006800F4807005901248016841F03B
:100F800004010160016801F004010591016841F06C
:100F9000010101600068032500F0010005900620B2
:100FA000CDE900056946084800F0F2F8C020CDE917
:100FB000000569460294054800F0EAF807B030BD24
:100FC000443802403038024000080240000002402D
:100FD0002DE9F041044600680D4681684FF0000796
:100FE00011F4806F1CBF806810F4807F08D0206CE3
:100FF00040F02000206484F83C700120BDE8F081BE
:1010000000F0FAF906462068006810F0020F16D1C9
:10101000B5F1FF3F0ED025B100F0EEF9801BA842DC
:1010200008D9206C40F00400206484F83C70032050
:10103000BDE8F0812068006810F0020FE8D0216858
:101040006FF012000860206C40F40070206420688B
:10105000816811F0405F04BF217E002913D1C16A6D
:1010600011F4700F1CBF806810F4806F0BD1206CDE
:1010700020F480702064206C10F4805F03D1206C19
:1010800040F0010020644FF00000BDE8F081000056
:1010900081B00022009290F83C10012902BF02208A
:1010A00001B07047012180F83C1001688B6813F093
:1010B000010F0FD18B6843F001038B602F49304B38
:1010C0000968B1FBF3F111EB4101009102D0491E17
:1010D0000091FCD101688B6813F0010F4BD0036CB9
:1010E00023F0010323F4C06343F4807303644B686B
:1010F00013F4806F05D0036C23F4005343F4805342
:101100000364036C13F4805F08BF426403D0436C34
:1011100023F00603436480F83C201A4A6FF0220350
:101120000B605168006811F01F0F174906D0884204
:1011300004BF816811F0405F19D01CE0884212D0D2
:10114000124A904204BFD1F8042312F01F0F0AD0B4
:10115000A0F18042B2F591320DD1D1F8041301F023
:101160001F01102907D2816811F0405F03D1816807
:1011700041F080418160002001B0704744000020B0
:1011800040420F00002301400020014000210140A7
:101190002DE9F84F002203248D4E8E4F0F25012399
:1011A00003FA02F80B6803EA0803434540F009819B
:1011B000D1F804C0BCF1010F18BFBCF1020F05D07B
:1011C000BCF1110F18BFBCF1120F1DD1D0F808905F
:1011D0004FEA420C04FA0CFA29EA0A09D1F80CA0E9
:1011E0000AFA0CFC4CEA090CC0F808C0D0F804C09C
:1011F0002CEA080C91F80480C8F3001808FA02F8E9
:1012000048EA0C0CC0F804C0D0F80C804FEA420C3D
:10121000D1F808A004FA0CF928EA09080AFA0CFA2D
:101220004AEA0808C0F80C80D1F80480B8F1020F2F
:1012300018BFB8F1120F15D14FEAD20800EB880A97
:10124000DAF820B04FEA42784FEAD86805FA08FE8B
:101250002BEA0E0BD1F810E00EFA08F848EA0B085A
:10126000CAF82080D0F8008028EA090891F8049094
:1012700009F0030909FA0CFC4CEA080CC0F800C09C
:10128000D1F804C01CF0805F7ED0D6F800C04CF4CA
:10129000804CC6F800C0D6F800C00CF4804CCDF8E5
:1012A00000C022F0030C0CF1804909F59839D9F8F7
:1012B00008C84FEA82784FEA187805FA08FA2CEA4B
:1012C0000A0AA0F1804CBCF5003C38D0A0F1804C5B
:1012D000BCF5013C08BF4FF0010C30D0A0F1804CB0
:1012E000BCF5023C08BF4FF0020C28D0A0F1804CA6
:1012F000BCF5033C08BF4FF0030C20D0A0F1804C9C
:10130000BCF5043C08BF4FF0040C18D0A0F1804C91
:10131000BCF5053C08BF4FF0050C10D0A0F1804C87
:10132000BCF5063C08BF4FF0060C08D0A0F1804C7D
:10133000BCF5073C0CBF4FF0070C4FF0080C0CFA43
:1013400008FC4CEA0A0CC9F808C8D7F800C0D1F864
:1013500004802CEA030C18F4803F18BF4CEA030CFD
:10136000C7F800C0DFF87080D8F800C0D1F804904A
:101370002CEA030C19F4003F18BF4CEA030CC8F820
:1013800000C0DFF8588000E01BE0D8F800C0D1F8BA
:1013900004902CEA030C19F4801F18BF4CEA030CCC
:1013A000C8F800C0DFF83880D8F800C0D1F8049041
:1013B0002CEA030C19F4001F18BF4CEA030CC8F800
:1013C00000C0521C102AFFF4EAAEBDE8F88F0000FE
:1013D00044380240003C0140043C0140083C0140CC
:1013E0000C3C01400069084018BF01207047002AEA
:1013F00008BF090481617047014880687047000098
:1014000038000020002804BF0120704770B5044652
:101410004CF6CC4021680860216845F255500860C0
:10142000D4E9000141602168A0688860FFF7E4FF0B
:1014300005462068C06850B1FFF7DEFF401B30282A
:1014400001D9032070BD2068C0680028F4D121684C
:101450004AF6AA200860002070BD0000024881689A
:101460000278114481607047380000200B4810B5A5
:10147000016841F400710160016841F4806101601C
:10148000016841F480710160032000F079F80F20B9
:1014900000F006F800F024F8002010BD003C0240E7
:1014A00070B50D4D04464FF47A712878B1FBF0F019
:1014B0000A490968B1FBF0F000F060FB48B9102C54
:1014C00007D200222146501E00F028F800206C6050
:1014D00070BD012070BD00003800002044000020D5
:1014E0000C4882B0016841F480410160006800F45A
:1014F000804000900848016841F080510160006818
:10150000002200F0805000900F21901E02B000F0E9
:1015100005B800004438024040380240174B10B470
:101520001B68C3F30223C3F1070CBCF1040F88BF8F
:101530004FF0040C1C1D072C34BF0023DB1E0124BC
:1015400004FA0CFCACF1010C0CEA0101994004FA1C
:1015500003F35B1E1A40114300284FEA0111A1BF9B
:1015600000F1E02080F8001410BC704700F00F007C
:1015700000F1E02080F8141D10BC70470CED00E075
:10158000074A00F0070011684FF6FF03194041EACF
:10159000002040F0FD7040F0806010607047000057
:1015A0000CED00E0002804BF012070472DE9F04752
:1015B000DFF83C9104460D46D9F80000CFB200F0A8
:1015C0000F00A84207D289F80070D9F8000000F097
:1015D0000F00A84263D12068464E10F0020F14D0CD
:1015E00010F0040F03D0306840F4E05030602078F1
:1015F00010F0080F03D0306840F46040306030686D
:10160000A16820F0F00008433060207810F0010F4E
:1016100037D060683849012823D0022818BF032832
:10162000096823D011F0020F39D0316821F003018D
:1016300041EA00003060FFF7DFFE804630686168F5
:1016400000F00C00B0EB810F18BF41F2883A18D0BF
:10165000FFF7D2FEA0EB080050450BD90320BDE8F0
:10166000F087096811F4003FDFD118E011F0007F26
:10167000DBD114E03068616800F00C00B0EB810F42
:10168000E6D1D9F8000000F00F00A8420AD989F885
:101690000070D9F8000000F00F00A84202D001202D
:1016A000BDE8F087207810F0040F05D03068E168BD
:1016B00020F4E05008433060207810F0080F06D086
:1016C0003068216920F4604040EAC100306000F0D9
:1016D0001BF83168094AC1F30311515CC84008493D
:1016E000086008480068FFF7DBFE0020BDE8F087CF
:1016F000003C0240083802400038024008E2060878
:10170000440000203C0000201848006810F00C0144
:10171000174808BF7047174B042904BF1846704785
:10172000082918BF704710B5134C216801F03F021B
:10173000216811F4800F08D02068C0F38810A0FB46
:1017400003010023FEF79CFD07E021680023C1F39D
:101750008811A1FB0001FEF793FD2168C1F301414F
:10176000491C4900B0FBF1F010BD000008380240F0
:101770000024F40000127A0004380240002804BF5C
:10178000012070472DE9F84F04460078DFF8C88340
:1017900010F0010FA8F1040558D008F10400016809
:1017A00001F00C01042909D0006800F00C000828A1
:1017B0000DD1D8F8000010F4800F08D0286810F47C
:1017C000003F43D06068002800F0C0813EE06068C0
:1017D000B0F5803F19D0B0F5A02F28680CBF40F4B9
:1017E000802020F48030286028680CBF40F48030CE
:1017F00020F4802028606068B8B1FFF7FDFD064640
:10180000286810F4003F05D020E0286840F48030BC
:101810002860F0E7FFF7F0FD801B642800F23781B5
:10182000286810F4003FF5D010E0FFF7E5FD06460C
:10183000286810F4003F09D0FFF7DEFD801B642804
:1018400000F22581286810F4003FF5D12078C34FBD
:1018500010F0020F4FF0000947D0C148016811F0A5
:101860000C0F16D0006800F00C00082804BFD8F850
:10187000000010F4800F0CD0E06820B34FF001009E
:101880003860FFF7B9FD0646286810F0020F09D04E
:1018900011E0286810F0020F1CBFE06801280AD090
:1018A00000F054B9FFF7A8FD801B02287ED82868F5
:1018B00010F0020FF6D02868216920F0F80040EA05
:1018C000C100286011E0C7F80090FFF795FD0646BB
:1018D000286810F0020F08D0FFF78EFD801B022849
:1018E00064D8286810F0020FF6D1207810F0080FA5
:1018F0002AD09C489C4E616999B101210160FFF793
:101900007BFD8246306810F0020F1DD1FFF774FD99
:10191000A0EB0A00022849D8306810F0020FF5D079
:1019200012E0C0F80090FFF767FD8246306810F0C3
:10193000020F09D0FFF760FDA0EB0A00022835D89E
:10194000306810F0020FF5D1207810F0040F7CD031
:1019500086480026006810F0805F09D1834801683E
:1019600041F0805101600068012600F08050009035
:10197000DFF8FCB1DBF8000010F4807F1AD1DBF84F
:10198000000040F48070CBF80000FFF735FD824680
:10199000DBF8000010F4807F0CD1FFF72DFDA0EBE9
:1019A0000A00022873D8DBF8000000E06FE010F4B2
:1019B000807FF2D0A068DFF8BCB101281DD00528D7
:1019C000DBF800000CBF40F0040020F00100CBF871
:1019D0000000DBF800000CBF40F0010020F0040024
:1019E000CBF80000A068E8B1FFF706FD8246DBF8FF
:1019F000000010F0020F07D02BE0DBF8000040F0F1
:101A00000100CBF80000EDE7FFF7F6FCA0EB0A01C0
:101A100041F2883081423AD8DBF8000010F0020F22
:101A2000F2D016E0FFF7E8FC8246DBF8000010F089
:101A3000020F0ED0FFF7E0FCA0EB0A0141F2883064
:101A4000814224D8DBF8000000E008E010F0020F2B
:101A5000F0D126B14548016821F080510160A069AC
:101A6000E8B33F49096801F00C0108294ED002286B
:101A7000C7F860900ED0FFF7BFFC0446286810F04E
:101A8000007F66D0FFF7B8FC001B022839D903207D
:101A9000BDE8F88FFFF7B0FC0646286810F0007F1D
:101AA00008D0FFF7A9FC801B0228F0D8286810F0A6
:101AB000007FF6D1D4E907010843A16A2E4A4908FC
:101AC00002EB0141626A41EA8211084394F82C104A
:101AD00040EA0160C8F800000120386600E038E004
:101AE000FFF78AFC0446286810F0007F31D1FFF729
:101AF00083FC001B0228CAD8286810F0007FF6D0AB
:101B000027E0286810F0007FBCD122E0012808BF40
:101B1000BDE8F88FD8F80000E26900F48001914236
:101B200014D1226A00F03F0191420FD147F6C071F3
:101B3000626A0140914209D1A26A00F440319142A7
:101B400004D1E16A00F07060884202D00120BDE853
:101B5000F88F0020BDE8F88F0438024000004742AB
:101B600008380240800E4742743802404038024034
:101B700000700040703802400000FFFF401EB0F1CE
:101B8000807F24BF012070474FF0E0214861054A63
:101B9000F02082F8140D00208861072008610020E1
:101BA000704700000FE000E02DE9F041044690F896
:101BB0003C000D46012804BF0220BDE8F08101264B
:101BC00084F83C60022084F83D004AB1042A19D010
:101BD000554FDFF858C1082A28D00C2A69D09BE05D
:101BE000206801F09FFA2068816941F00801816155
:101BF0002068816921F004018161206881692A6976
:101C0000114311E0206801F0C5FA2068816941F4B0
:101C1000006181612068816921F4806181612068AF
:101C200081692A6941EA0221816175E02068016ABF
:101C300021F480710162016A4268C369D5F80080AD
:101C400023F0730348EA0303D5F8088021F40071F8
:101C500041EA0821B84218BF604507D1D5F80C8089
:101C600021F4006141EA082121F48061B84218BFE3
:101C7000604509D1D5F814C022F4405242EA0C1252
:101C8000D5F818C042EA0C124260C3616A68C263A8
:101C900001622068C16941F00801C1612068C16921
:101CA00021F00401C1612068C1692A6941EA020189
:101CB00031E02068016A21F480510162036A4168C1
:101CC000C269D5F8008022F4E64242EA0822D5F83B
:101CD000088023F4005343EA0833B84218BF604534
:101CE00005D1D5F814C021F4804141EA8C1141603E
:101CF000C2616968016403622068C16941F40061DE
:101D0000C1612068C16921F48061C1612068C16935
:101D10002A6941EA0221C16184F83D604FF0000068
:101D200084F83C00BDE8F08100000140000401405F
:101D3000002804BF0120704710B5044690F83D000C
:101D400028B9002084F83C00204600F00CF802205E
:101D500084F83D00211D206801F06EF9012084F80F
:101D60003D00002010BD704710B5044600680122F8
:101D700001F0C8F92168A1F18040B0F580301CBFA6
:101D8000A1F18040B0F5823003D1486C40F40040AE
:101D900048642068816801F00701062903D00168C2
:101DA00041F001010160002010BD2DE9F843044617
:101DB00090F839001E4690460D46202857D1002D38
:101DC00012BFB8F1000F0120BDE8F88394F8380085
:101DD00001284CD0012084F838004FF00009C4F8E5
:101DE0003C90212084F83900FFF706FBA4F82480FA
:101DF0000746A4F8268084F83890E08C30B3E08C55
:101E0000401EE084A0683B46B0F5805F4FF00002C2
:101E10004FF080012046009603D001F0FFF970B129
:101E20001CE001F0FBF9C8B928882168C0F308005C
:101E300048602069002814BF6D1CAD1C03E02168B8
:101E400015F8010B4860E08C0028D8D13B460022F1
:101E500040212046009601F0E1F910B10320BDE8D1
:101E6000F883202084F839000020BDE8F8830220A0
:101E7000BDE8F883FEE70000114810B5016886B0A0
:101E800041F00201016000680E4C00F00200059074
:101E9000C02000900120019002900220039069462A
:101EA0002046FFF775F9012280212046FFF79FFAAF
:101EB000012240212046FFF79AFA06B010BD00002B
:101EC00030380240000402402DE9F04385B0002480
:101ED0008027CDE90074374E80466946304602942B
:101EE000FFF756F90025002240213046FFF77FFA20
:101EF00001F078FF012240213046FFF778FA6006B2
:101F0000040E80213046FFF76DFA00281CBF601CCC
:101F1000C4B201F062FF681CC5B2082DE3D30125ED
:101F20004FF00209B8F1000F4FF000024FF04001EE
:101F3000304620D0FFF75BFACDE90075CDE90259B4
:101F400069463046FFF724F9002280213046FFF72A
:101F50004EFA01F047FF012240213046FFF747FAD1
:101F600001F040FF002240213046FFF740FA05B063
:101F70002046BDE8F083FFF73AFACDE90075CDE9D8
:101F8000025969463046FFF703F9012280213046A5
:101F9000FFF72DFA01F026FF012240213046FFF71E
:101FA00026FA01F01FFF002240213046FFF71FFAFA
:101FB000DDE700000004024070B586B005468020D1
:101FC000009001200221CDE90201194E01906946DD
:101FD0003046FFF7DDF8002240213046FFF707FAD0
:101FE000002415F0800F05D0012280213046FFF734
:101FF000FEF904E0002280213046FFF7F8F9680678
:10200000050E01F0EFFE012240213046FFF7EFF907
:1020100001F0E8FE002240213046FFF7E8F901F028
:10202000E1FE601CC4B2082CDBD306B070BD00001A
:102030000004024010B586B08020009001200221EB
:10204000CDE90201144C019069462046FFF7A0F843
:10205000012280212046FFF7CAF9012240212046B3
:10206000FFF7C5F901F0BEFE01F0BCFE00228021A1
:102070002046FFF7BCF901F0B5FE01F0B3FE0022E7
:1020800040212046FFF7B3F901F0ACFE06B0BDE8F1
:10209000104001F0A7BE00000004024010B586B059
:1020A0008020009001200221CDE90201124C019014
:1020B00069462046FFF76CF8002240212046FFF7D2
:1020C00096F9002280212046FFF791F901F08AFE5F
:1020D00001F088FE012240212046FFF788F9012205
:1020E00080212046FFF783F901F07CFE06B0BDE8B1
:1020F000104001F077BE00000004024070B586B0C9
:1021000000248025CDE900542A4E694630460294C9
:10211000FFF73EF8012280213046FFF768F901F011
:102120005CFE012240213046FFF761F901F055FEC7
:1021300080213046FFF756F9002832D0601CC4B227
:10214000FA2C28D901200221CDE90050CDE9020165
:1021500069463046FFF71CF8002240213046FFF761
:1021600046F9002280213046FFF741F901F03AFE9E
:1021700001F038FE012240213046FFF738F90122F4
:1021800080213046FFF733F901F02CFE01F02AFEE2
:1021900006B0012070BD80213046FFF723F90028EA
:1021A000CCD1002240213046FFF721F906B00020B3
:1021B00070BD0000000402402DE9F041354F364E5D
:1021C000364D00244FF4007800224FF470713846E9
:1021D000FFF70DF928FA04F101223846FFF707F955
:1021E0004FF480613046FFF7FDF8002815F8240011
:1021F00014BF40F0010020F0010005F824004FF466
:1022000000713046FFF7EEF805EB84010028087CEA
:1022100014BF40F0010020F0010008744FF48071F9
:102220003046FFF7DFF800281FBF05EB840191F867
:10223000200040F0010081F8200001BF05EB840080
:1022400090F8201021F0010180F82010601CC4B229
:10225000042CB9D308213046FFF7C4F8002895F8BC
:10226000300014BF20F0010040F0010085F830007C
:102270004FF400613046FFF7B5F8002895F83400B8
:1022800014BF20F0010040F0010085F83400BDE8E3
:10229000F08100000008024000000240D04A002007
:1022A0000020064A014612F8213013F0020F18BF31
:1022B0000120491CC9B20D29F5D97047D04A002028
:1022C00010B500F053F80020DFF824C003460CEBF3
:1022D00080014B708B701CF8202022F03E020CF81D
:1022E0002020401CC0B2CB700D28F0D910BD0000DA
:1022F000D04A0020044A0146002012F8211011F0B3
:10230000100F18BF01207047D04A0020064B002252
:1023100013F8201011F0040F04D021F0060103F887
:102320002010012210467047D04A0020064B0022A0
:1023300013F8201011F0200F04D021F0220103F82F
:102340002010012210467047D04A0020064B002280
:1023500013F8201011F0080F04D021F00A0103F83F
:102360002010012210467047D04A002070B586B078
:102370004FF47070009001200024124D01900290E3
:102380000394049469462846FEF702FF00224FF4A6
:1023900070712846FFF72BF84FF4E060CDE9000498
:1023A000094E0225694602953046FEF7F1FE40F6D9
:1023B0000801CDE90014029569463046FEF7E8FEB3
:1023C00006B070BD000802400000024010B5FFF7E3
:1023D000F3FE0024204600F005F8601CC4B20D2C6A
:1023E000F8D910BD30B42A4C4FF0000C04EB80013A
:1023F000CA78012A0ED00125022A1EBFCD7030BC3A
:1024000070478A78C82A28D2521CD2B28A70C82A49
:1024100023D11CE014F8202012F0010F13D04B78C8
:102420005B1CDBB24B70022B9CBF30BC704742F090
:10243000160204F8202081F802C081F801C00220B1
:10244000C87030BC704781F801C030BC704714F8C8
:10245000202042F0220204F8202014F8202012F05C
:10246000010FF0D14B785B1CDBB24B70022B9CBF91
:1024700030BC704722F0100242F00A0204F820201B
:1024800081F802C081F801C0CD7030BC70470000F7
:10249000D04A002070B506460021EF2340F23F12DB
:1024A000084600F0ABF92C2000F0F2FF00250024D4
:1024B000304600F0E9FA304600F0E6FA304600F027
:1024C000E3FA304600F0E0FA304600F0DDFA30463C
:1024D00000F0DAFA304600F0D7FA304600F0D4FACD
:1024E000304600F0D1FA304600F0CEFA641C202CC1
:1024F000DED36D1CF02DDAD370BD00002DE9F04164
:1025000086B001261020CDE900060225B84FCDE99E
:102510000265002469463846FEF73AFE2021009104
:1025200000210395CDE9011669463846FEF730FED5
:1025300068020090CDE90165AE4F694638460395C3
:10254000FEF726FE0096CDE90165694638460395FB
:10255000FEF71EFE80200090CDE90165DFF898822D
:10256000694640460395FEF713FE04200090CDE92E
:102570000165694638460395FEF70AFECDE9005627
:102580000295694638460395FEF702FE4FF47F40F8
:10259000CDE90006CDE9026569464046FEF7F8FD43
:1025A000012211463846FEF722FF01F00BFC002203
:1025B00001213846FEF71BFF01F004FC0122114601
:1025C0003846FEF714FF01F0FDFBCF2000F060FF5E
:1025D000002000F095FFC12000F092FF302000F0B5
:1025E0008FFFED2000F054FF642000F089FF0320EE
:1025F00000F086FF122000F083FF812000F080FFB2
:10260000CB2000F045FF392000F07AFF2C2000F0AD
:1026100077FF002000F074FF342000F071FF0220EB
:1026200000F06EFFF72000F033FF202000F068FF7D
:10263000EA2000F02DFF002000F062FF002000F0F3
:102640005FFF362000F024FFB82000F059FFB620CD
:1026500000F01EFF0A2000F053FFA22000F050FF00
:10266000C02000F015FF212000F04AFFC12000F03B
:102670000FFF112000F044FFC52000F009FF3520B6
:1026800000F03EFF322000F03BFFC72000F000FFCB
:10269000B22000F035FFF22000F0FAFE002000F03A
:1026A0002FFFF62000F0F4FE012000F029FF31207A
:1026B00000F026FF002000F023FF3A2000F0E8FEA3
:1026C000652000F01DFFB12000F0E2FE002000F0C8
:1026D00017FF192000F014FFE82000F0D9FE852034
:1026E00000F00EFF102000F00BFF7A2000F008FF32
:1026F000B42000F0CDFE002000F002FF352000F0F5
:10270000C7FE002000F0FCFEE02000F0C1FE00202B
:1027100000F0F6FE212000F0F3FE1E2000F0F0FE97
:102720000B2000F0EDFE0E2000F0EAFE092000F084
:10273000E7FE4A2000F0E4FEC52000F0E1FE3A206A
:1027400000F0DEFE092000F0DBFE0B2000F0D8FEDA
:10275000042000F0D5FE162000F0D2FE172000F075
:10276000CFFE002000F0CCFEE12000F091FE0F2013
:1027700000F0C6FE1E2000F0C3FE212000F0C0FEC7
:10278000042000F0BDFE112000F0BAFE072000F08A
:10279000B7FE352000F0B4FE762000F0B1FE4520F3
:1027A00000F0AEFE062000F0ABFE142000F0A8FE04
:1027B0000B2000F0A5FE272000F0A2FE382000F03C
:1027C0009FFE0F2000F09CFE112000F061FE01F042
:1027D000F9FA601CC4B2192CF9D3292000F058FE74
:1027E00001F0F0FA2C2000F053FE06B0BDE8F081B5
:1027F0000008024000040240001002402DE9F041B0
:1028000007461C4615460E462A2000F041FE380AAF
:1028100000F076FEF8B200F073FE280A00F070FEB9
:10282000E8B200F06DFE2B2000F032FE300A00F01E
:1028300067FEF0B200F064FE200A00F061FEE0B234
:10284000BDE8F04100F05CBE02463248324B092A36
:1028500028BF7047DFE802F05D050F19232D3945C9
:10286000510019B101221102FEF7C1BD00224FF43F
:102870008071FEF7BCBD19B101225102FEF7B7BD50
:1028800000224FF40071FEF7B2BD19B1012291028E
:10289000FEF7ADBD00224FF48061FEF7A8BD19B16F
:1028A0000122D102FEF7A3BD00224FF40061FEF722
:1028B0009EBD21B10122D1031846FEF798BD00222A
:1028C0004FF400411846FEF792BD21B10122910359
:1028D0001846FEF78CBD00224FF480411846FEF7E3
:1028E00086BD21B1012251031846FEF780BD0022AA
:1028F0004FF400511846FEF77ABD21B101221103B1
:102900001846FEF774BD00224FF480511846FEF7BA
:102910006EBD7047000C02400004024010B5294C07
:10292000002836D001281BD0022818BF10BD002275
:102930004FF400512046FEF75AFD00224FF480511B
:102940002046FEF754FD00224FF480412046FEF75A
:102950004EFD20460122BDE810409103FEF747BD21
:1029600000224FF480512046FEF741FD00224FF433
:1029700080412046FEF73BFD00224FF400512046E7
:10298000FEF735FD20460122BDE810405103FEF759
:102990002EBD00224FF480412046FEF728FD002284
:1029A0004FF400512046FEF722FD00224FF48051E3
:1029B0002046FEF71CFD20460122BDE81040110311
:1029C000FEF715BD000C024070B52D4D2D4C0128B1
:1029D0002CD00022A1152846FEF709FD0022611522
:1029E0002846FEF704FD002221152846FEF7FFFCCD
:1029F0000022E1142846FEF7FAFC00224FF40041C1
:102A00002046FEF7F4FC00224FF480412046FEF7FA
:102A1000EEFC00224FF400512046FEF7E8FC0022B5
:102A2000A1142046BDE87040FEF7E1BC012211026E
:102A30002846FEF7DCFC012251022846FEF7D7FCAF
:102A4000012291022846FEF7D2FC0122D10228463B
:102A5000FEF7CDFC0122D1032046FEF7C8FC01227F
:102A600091032046FEF7C3FC012251032046FEF7E6
:102A7000BEFC2046BDE8704001221103FEF7B7BC42
:102A8000000C0240000402402DE9F0410446C0F36E
:102A9000072004F0CBFE0546E0B204F0C7FE1E4F4F
:102AA000064600224FF480613846FEF7A0FC1B4C1E
:102AB000012280212046FEF79AFC0122022138469D
:102AC000FEF795FC6069C0B26061606940EA05206C
:102AD0006061002204213846FEF789FC01220421AE
:102AE0003846FEF784FC6069C0B26061606940EA04
:102AF00006206061002204213846FEF778FC01229E
:102B000004213846FEF773FC3846BDE8F041012247
:102B10009102FEF76CBC000000040240001002406D
:102B20004AF6AA24044D00F0B5FB286804600A2088
:102B300003F048FFF7E70000F00100202DE9F04F17
:102B400083B0002541F2A200FFF7A4FC45F6AA24B9
:102B5000A323A022D9216A20009403F071F8F02366
:102B60004F226D216A20009403F06AF8F0234F226F
:102B7000D921D620009403F063F80F20019003F0D0
:102B80003DFADFF8F8B22E46DFF8F8C29BF80810DD
:102B9000DFF8F4A24843BA494FF02008A1FB001027
:102BA000C0F34F1042F21071B0FBF1F161F3070670
:102BB0004FF47A71B0FBF1F1ACFB0132D208524212
:102BC00002EB820201EB42014AF2D73202FB002201
:102BD0004FEA9252ACFB02434FEAD303C3F1000326
:102BE00003EB830302EB43024CF6CD4300FB03F3FC
:102BF0004FEAD343ACFB03744FEAD404C4F100049E
:102C000011F0FF0104EB840461F30F26D2B203EB51
:102C1000440362F3174663F31F66ACFB00C34FEA3D
:102C2000D303C3F1000303EB830300EB4300974F8F
:102C300060F307054FF010004FF0300907F51B5403
:102C40007ED0C1EB411107EB411100911F231021F0
:102C5000019A04F011F8C6F30740C0EB401007EBEF
:102C6000401640461F2300961021019A04F004F8F4
:102C700048461F2300961021019A03F0FDFF4020D3
:102C8000202300941021019A03F0F6FFC5EB4510B4
:102C900007EB4010009047201F231021019A03F0FA
:102CA000EBFF24230F2272217120CDF800A003F046
:102CB000E3FF7749009172201F236E22102103F059
:102CC000DBFF822020236E221021009403F0D4FF2A
:102CD0007048009089201F236E22102103F0CCFF42
:102CE0006D48009025236E222E21A22003F0C4FF00
:102CF0006A4900917C202023BE22102103F0BCFFF2
:102D00008C202023BE221021009703F0B5FF6448D9
:102D100024230090BE221946A52003F0ADFF9BF8A6
:102D20000B0041F2A20410F0010F48D05D48009062
:102D30003223642217210A2003F09EFF9A2300E029
:102D40000EE05A2211463720009402F079FF5648CF
:102D500000902D235A222321372003F08DFF45E0D8
:102D6000C2EB421107EB411100911F231021019A80
:102D700003F082FF300EC0EB401007EB40100090D4
:102D800040461F231021019A03F076FF4846202376
:102D900000941021019A03F06FFFC5EB451007EB7B
:102DA0004010009037201F231021019A03F064FF88
:102DB00024230F2272216120CDF800A077E796230B
:102DC000642221210A20009402F03AFF3748009043
:102DD0001E23642217210A2003F04EFF344800907E
:102DE00040235A222321372003F046FF9BF80B0093
:102DF00010F0020F17D02F4800903823AA22252167
:102E0000372003F039FFE223AA222621052000946F
:102E100002F016FF284800902523AA222121052030
:102E200003F02AFF16E0E223AA225C213720009457
:102E300002F006FF214825230090AA2219463720D8
:102E400003F01AFF1E4800903823AA2221210520F2
:102E500003F012FF1B48807B01F08EFB01F004FAA7
:102E60000020FFF7B1FD1848007803B0401CBDE812
:102E7000F04FC0B20121FFF7E7BC0000780100204D
:102E80001F85EB51CDCCCCCCE88802084C910008D2
:102E90000C990008ACA40008F8A802088CA8000847
:102EA00044B602085E3B0208BE4902085A440208C2
:102EB00024CC0208BE600208EE7002080C5602081C
:102EC000787A0208000000202C000020FEE77047FE
:102ED000F0B587B00620009002200121CDE9010164
:102EE000CDE90301002669462048FEF751F9204844
:102EF000016841F00101016000684FF0804100F07D
:102F0000010005901B48016041F2A5514660C0E9EF
:102F100003168660FEF70CFF174D0420002468603E
:102F200008206E632E616027A86204EBC40025F8B8
:102F3000206005EB800000F108014680C0E90276C0
:102F4000866142680B48FEF72FFE641C022CECDB06
:102F5000002404EBC40005EB800041680548FEF73F
:102F600003FF641C022CF4DB07B0F0BD000002403C
:102F700040380240504B0020084B002010B5FEF7AF
:102F80006DFA05F0A9FE012808BF10BDBDE810408C
:102F900005F06ABB30B593B0002402941D4801943B
:102FA00007940C940D940E940F941094016841F0C2
:102FB00080510160006800F080501190164801684F
:102FC00041F4804101600068102100F480401190BC
:102FD0000A2000900120CDE903010225CDE9050575
:102FE00008200890A820CDE9090504200B90684628
:102FF000FEF7C4FB0F20CDE90C054FF4A050CDE93E
:103000000E40E802109005210CA8FEF7CBFA13B091
:1030100030BD0000403802400070004004480168A4
:1030200041F47001016003494FF00060086070478F
:1030300088ED00E008ED00E0F0B402682C4B2D4C68
:103040002D4D2E4EDFF8B8C0984218BFB0F1804F1A
:1030500007D0A04218BFA84203D0B04218BF6045B5
:1030600004D14F6822F0700247EA0202984218BF6A
:10307000B0F1804F25D0A04218BFA84221D0B04265
:1030800018BF60451DD0A0F18044B4F5A0341CBF2A
:10309000A0F18044B4F5A23413D0A0F18044B4F57B
:1030A000A4341CBFA0F18044B4F5C05409D0A0F1F1
:1030B0008044B4F5E0541CBFA0F18044B4F5005442
:1030C00003D1CC6822F4407222434C6922F0800282
:1030D000224302608A68C2620A688262984212BF12
:1030E0006045096901634FF001014161F0BC70471F
:1030F000000001400004004000080040000C0040B7
:103100000004014001F01F010123D0F820C08B40D2
:103110002CEA03030362036A02FA01F11943016214
:103120007047000070B4026A22F001020262036A72
:103130004268D0F818C00C682CF0730C44EA0C0CF0
:103140008C6823F002032343104C114DA04218BF9A
:10315000A84206D1CE6823F0080346EA030323F011
:103160000403A04218BFA84207D14C6922F4407260
:1031700044EA02028C6944EA02024260C0F818C0C4
:1031800049684163036270BC704700000000014061
:103190000004014070B4026A22F010020262036A65
:1031A0004268D0F818C00C682CF4E64C4CEA042CA9
:1031B0008C6823F0200343EA0413104C104DA04206
:1031C00018BFA84206D1CE6823F0800343EA061355
:1031D00023F04003A04218BFA84207D14C6922F453
:1031E000406242EA84028C6942EA84024260C0F88A
:1031F00018C049688163036270BC704700000140D9
:103200000004014010B504F0ABFA002808BF10BD5F
:10321000D0E90012BDE81040104608472DE9F04102
:1032200004460068069D1E4600681746884631EA37
:1032300000000CBF01200020B84226D1B5F1FF3FAD
:103240001AD025B1FEF7D8F8801BA84214D92068FF
:10325000C16821F4D071C1602068416921F0010189
:103260004161202084F8390084F83A00002084F875
:1032700038000320BDE8F0812068006838EA0000CB
:103280000CBF01200020B842D8D00020BDE8F0815A
:10329000FEE700002DE9F041FFF702F8784F794D85
:1032A000002640B304F092FF77484FF47A71407AD9
:1032B00010FB01F0386004F0A9FF00242046FFF75E
:1032C00025F818B100212046FDF78CFB2046FFF7BA
:1032D0003DF818B101212046FDF784FB2046FFF799
:1032E00025F818B103212046FDF77CFB601CC4B211
:1032F0000D2CE3D936E004F069FFAC8B04F086FFB7
:10330000002C02BF287E062834202AD038680028E6
:1033100002BF287E0028302023D004F057FFEC8B1A
:1033200004F074FF002C02BF287E0728352018D037
:10333000287E012816D004F085FE2875032106207A
:10334000FDF75AFC044603210720FDF755FC6A7A75
:10335000012182B34FF0020C012A30D0022A36D06C
:103360003BE0E87349484FF01402017811F0010F77
:1033700008D0A878002803BF0A20E873AA70401E6E
:1033800018BFA87011F0020F08D0A878002803BF5A
:103390000D20E873AA70401E18BFA870287E0C2864
:1033A00028BFBDE8F081DFE800F02428303438443D
:1033B000484C502C5854B4F5506F0ED20CE040F6E7
:1033C0003363984206D2B4F5506F06D204E0B4F5E8
:1033D000506F01D3614600E031466975AB7B287DB3
:1033E000834208BF9142BDD0A87369724FF0330089
:1033F000B7E7BDE8F04102F041BEBDE8F04102F0A0
:1034000075BCBDE8F04100F0F3BCBDE8F04103F04D
:10341000C9BCBDE8F04104F07DBBE87B31282CD16C
:1034200000202876EE75FFF789FB0120FFF776FA7A
:1034300023E0BDE8F04100F07FBDBDE8F04104F0BD
:1034400063BCBDE8F04100F09FB8BDE8F04100F07A
:103450004FB9BDE8F04100F0C1B8E87B082802D0C0
:10346000312803D009E0FDF72BF906E00520287686
:103470000320E8750120FFF751FAEE73BDE8F081F3
:10348000C00000200000002078010020160000206D
:1034900070B5C0B204F0CAF9174E054600224FF4C9
:1034A00080613046FDF7A3FF144C002280212046A6
:1034B000FDF79DFF012202213046FDF798FF60696C
:1034C000C0B26061606940EA0520606100220421A9
:1034D0003046FDF78CFF012204213046FDF787FFBF
:1034E000012280212046FDF782FF3046BDE8704072
:1034F00001229102FDF77BBF000402400010024050
:1035000070B5C0B204F092F9154E054600224FF492
:1035100080613046FDF76BFF124C0122802120466E
:10352000FDF765FF012202213046FDF760FF60696B
:10353000C0B26061606940EA052060610022042138
:103540003046FDF754FF012204213046FDF74FFFBE
:103550003046BDE8704001229102FDF748BF0000EF
:10356000000402400010024002E008C8121F08C117
:10357000002AFAD170477047002001E001C1121FF4
:10358000002AFBD17047000070B5134C0025607A0B
:1035900028B1FFF7D3FA00202076E5751AE0E07B2A
:1035A0001B2804BF0220207614D0352812D103F046
:1035B00087FB40F6B83003F005FA03F027FB04F070
:1035C00005FE062002F05EFB04F020FE04F084FB02
:1035D0000120A074E57370BD000000202DE9F84FB4
:1035E0003F4E4FF00008F37B312B0ED03F4D3E4F46
:1035F0003C49287A4BF6636207F520540A2B0AD01F
:103600000D2B58D0232B5BD066E0F07D002804BF43
:103610000020307660E0962838BF401C00D2287227
:10362000C0B200EBC00303EB40131D0BCD2310FB16
:1036300003F3DB0AA1FB039C4FEADC0CCCF1000C8A
:103640000CEB8C0C03EB4C0303F0FF09A1FB0031E6
:10365000C908494201EB810100EB410000F0FF0A7B
:1036600000928A236A224FF48071C02002F0E8FAA7
:1036700007EB8520009020236A221021C02003F050
:10368000FBFA20236A221021D020009403F0F4FAE0
:1036900007EB8920009020236A221021D72003F015
:1036A000EBFA07EB8A20009020236A221021E72002
:1036B00003F0E2FA10E0322888BF401EB0D9AEE72E
:1036C000FFF73CFA86F8178004F080FD297A022083
:1036D00004F0D3F804F09AFD86F80F80BDE8F88F67
:1036E00000000020CDCCCCCC40F8000878010020B0
:1036F0002DE9F04FFE4E85B03046F37B427C312BF6
:1037000019D0FD4D818CFB4F008C4FF47A7C4FF02B
:1037100060084FF070094FF0800A4FF0D00B05F5AC
:103720001B540A2B17D00D2B00F07181232B00F0B6
:10373000D58200F0DFBAF07D002804BF002030768B
:1037400000F0D882002A0CBF01200020707401F024
:103750000BFB00F0CFBA002A7DD0401D80B2308430
:103760005021B0FBFCF201914AF2D73101FB00116C
:10377000890DA7FB01C3DB085B4203EB830301EB6D
:10378000430189B204914CF6CD414143C90CA7FBDA
:1037900001C3DB085B4203EB830301EB430189B206
:1037A0000391A7FB0031C908494201EB810100EBFD
:1037B000410080B20290C2EB421005EB4010009035
:1037C0001F2382221021019803F056FA04991F2327
:1037D000C1EB411005EB40100090404682221021C1
:1037E00003F04AFA03991F23C1EB411005EB401087
:1037F000009048468222102103F03EFA02981F23CF
:10380000C0EB401005EB4010009050468222102182
:1038100003F032FA318C4FF47A70414341F2A550F3
:10382000B1FBF0F080B24AF2D73101FB00118A0DF2
:103830004CF6CD414143C90CA7FB01C3DB085B42F9
:1038400003EB830301EB43011FFA81F8A7FB00316F
:10385000C908494200E02EE001EB810100EB410084
:1038600087B2C2EB421005EB4010009058461F2370
:103870008222102103F000FAC8EB481005EB40103B
:103880000090E0201F238222102103F0F5F9F020A0
:103890001F2382221021009403F0EEF9C7EB47109A
:1038A00005EB40100090F7201F238222102103F027
:1038B000E3F900F01FBA481D80B2B0845021B0FB7C
:1038C000FCF201914AF2D73101FB0011890DA7FBEF
:1038D00001C3DB085B4203EB830301EB430189B2C5
:1038E00004914CF6CD414143C90CA7FB01C3DB0851
:1038F0005B4203EB830301EB430189B20391A7FB16
:103900000031C908494201EB810100EB410080B25E
:103910000290C2EB421005EB401000901F233C22A6
:103920001021019803F0A8F904991F23C1EB41105D
:1039300005EB4010009040463C22102103F09CF91A
:1039400003991F23C1EB411005EB4010009048463E
:103950003C22102103F090F902981F23C0EB401085
:1039600005EB4010009050463C22102103F084F9F2
:10397000B18C4FF47A70414341F2A550B1FBF0F0A5
:1039800080B24AF2D73101FB00118A0D4CF6CD41CD
:103990004143C90CA7FB01C3DB085B4203EB830374
:1039A00001EB43011FFA81F8A7FB0031C908494226
:1039B00001EB810100EB410087B2C2EB421005EB45
:1039C0004010009058461F233C22102103F054F968
:1039D000C8EB481005EB40100090E0201F233C226C
:1039E000102103F049F9F0201F233C2210210094FC
:1039F00003F042F9C7EB471005EB40100090F720A9
:103A00001F233C22102103F037F900F073B9002A7C
:103A100074D00528C0F06E81401F80B230845021E0
:103A2000B0FBFCF201914AF2D73101FB0011890D84
:103A3000A7FB01C3DB085B4203EB830301EB4301FC
:103A400089B204914CF6CD414143C90CA7FB01C397
:103A5000DB085B4203EB830301EB430189B2039173
:103A6000A7FB0031C908494201EB810100EB41008D
:103A700080B20290C2EB421005EB401000901F2371
:103A800082221021019803F0F7F804991F23C1EB5B
:103A9000411005EB4010009040468222102103F0B7
:103AA000EBF803991F23C1EB411005EB4010009088
:103AB00048468222102103F0DFF802981F23C0EB52
:103AC000401005EB4010009050468222102103F078
:103AD000D3F8308C4FF47A71414341F2A550B1FBD9
:103AE000F0F080B24AF2D73101FB00118A0D06E0F6
:103AF00000000020CDCCCCCC4C9100083FE04CF62F
:103B0000CD414143C90CA7FB01C3DB085B4203EB7A
:103B1000830301EB43011FFA81F8A7FB0031C908B9
:103B2000494201EB810100EB410087B2C2EB421038
:103B300005EB4010009058461F238222102103F00D
:103B40009BF8C8EB481005EB40100090E0201F23C5
:103B50008222102103F090F8F0201F2382221021EE
:103B6000009403F089F8C7EB471005EB4010009074
:103B7000F7201F238222102103F07EF8BAE00529E6
:103B80007DD3481F80B2B0845021B0FBFCF201917C
:103B90004AF2D73101FB0011890DA7FB01C3DB08F5
:103BA0005B4203EB830301EB430189B204914CF6C2
:103BB000CD414143C90CA7FB01C3DB085B4203EBCA
:103BC000830301EB430189B20391A7FB0031C908CC
:103BD000494201EB810100EB410080B20290C2EB4F
:103BE000421005EB401000901F233C221021019849
:103BF00003F042F804991F23C1EB411005EB40107C
:103C0000009040463C22102103F036F803991F2310
:103C1000C1EB411005EB4010009048463C221021BA
:103C200003F02AF802981F23C0EB401005EB401068
:103C3000009050463C22102103F01EF8B08C4FF447
:103C40007A71414341F2A550B1FBF0F080B24AF2E3
:103C5000D73101FB00118A0D4CF6CD414143C90C0F
:103C6000A7FB01C3DB085B4203EB830301EB4301CA
:103C70001FFA81F8A7FB0031C908494200E039E08A
:103C800001EB810100EB410087B2C2EB421005EB72
:103C90004010009058461F233C22102102F0ECFFF8
:103CA000C8EB481005EB40100090E0201F233C2299
:103CB000102102F0E1FFF0201F233C22102100948C
:103CC00002F0DAFFC7EB471005EB40100090F72039
:103CD0001F233C22102102F0CFFF0BE0FEF72EFF46
:103CE0000020F07504F072FAB18C308C03F002FF02
:103CF00004F08CFA0020F07305B0BDE8F08F0000EE
:103D000038B50020042100908802FCF770FB0446BF
:103D100003F05EFF00216846C1F10302491C845490
:103D2000240AC9B20429F7D39DF80000552804BF1E
:103D30009DF80100AA2807D19DF80200AA2804BF17
:103D40009DF80300552825D04FF055014FF48050C1
:103D5000FCF72CFCAA2141F20100FCF727FCAA2168
:103D600041F20200FCF722FC552141F20300FCF76E
:103D70001DFC02F0E7F84FF47A710C4602224FF472
:103D80004060FCF7D9FB0222214640F60240FCF7D6
:103D9000D3FB38BD0A48017A323964299FBFC17A02
:103DA0000729817A052905D8407A1E2802D3B4282C
:103DB00098BF38BD02F0C6F803F00AFF38BD000016
:103DC00078010020002140F2DE320020401C28282B
:103DD000FCD3491C9142F8D370470020401C28288E
:103DE000FCD370470020401C5028FCD370470000D3
:103DF0002DE9F84F464CDFF81C8120466178DFF84A
:103E00001891DFF818A1C07B002569B1444FDFF895
:103E100014B14BF66366012920D0DFF80C8102292A
:103E200052D003295FD06FE025286DD10520207680
:103E300098F80B0002F0FAF89AF8001009EBC000AD
:103E4000405C3A4931F81000C0EB00108000A062DD
:103E50000020FEF763FD0120207355E0252803D0E4
:103E600033480068E8B14FE0002201213148FDF7F6
:103E7000BEFA0020FCF7BEFB972358224FF4967140
:103E80001420009601F0DCFE17236C22F02128207C
:103E9000009702F0F1FE0A2020760020FEF73EFD9A
:103EA00032E00220607004F091F998F80B0002F003
:103EB000BDF89AF8001009EBC000405C1B4931F8CE
:103EC0001000CBF800000BE02528CDD0DBF8000077
:103ED00040B90320607004F079F9CA20C8F80000E6
:103EE00004F094F910E02528BED0D8F8000058B9A5
:103EF0000020FCF77FFB00206070FEF70FFD002222
:103F000001210C48FDF773FAE573BDE8F88F000056
:103F100000000020840100203C0100202D00002032
:103F2000FAB10608CC000020D000002042E10608CB
:103F3000C800002000000240F0B5BC4E83B0002550
:103F4000307B28B1B06A18B90120FEF7E7FC357361
:103F5000F07B242842D0B64941F2A204082844D07C
:103F6000322879D01D2800F0C080B24C102800F013
:103F7000DB80112800F0E180122800F0EA8013288D
:103F800000F0F380172800F0FC80182800F005816D
:103F9000192800F00E811A2800F01481282818BF73
:103FA000292800F019812A2818BF2B2800F0148135
:103FB0002C2818BF2D2800F00F812E2818BF2F287D
:103FC00000F00A819C4F0A2800F009810D2800F0BA
:103FD0001381392800F01C8100F024B9FCF71AFB8A
:103FE000FEF7ACFDF57500F01DB9C87A10F0010FB1
:103FF00018D020F00100C8729623642221210A20E3
:10400000009401F01DFE8D4800901E2364221721AC
:104010000A2002F031FE8A4840235A2223210090D0
:10402000372037E040F00100C87286480090322304
:10403000642217210A2002F01FFE5A229A231146F9
:104040003720009401F0FCFD7F482D235A222321C4
:10405000009037201EE0FFE7F07DF0B1C87A10F045
:10406000020F29D020F00200C872E223AA225C21AC
:104070003720009401F0E4FD744825230090AA2223
:104080001946372002F0F8FD714800903823AA2223
:104090002121052002F0F0FD88E000203076307B01
:1040A000002818BF3573B06A20B104F08FF8B562EC
:1040B00004F0ACF8012034E040F00200C87265481A
:1040C00000903823AA222521372002F0D5FDE223D3
:1040D000AA2226210520009401F0B2FD5E48252386
:1040E000AA22212100900520D4E7B06A48B15BA044
:1040F000D0E90010CDE900100621684603F088FAE7
:1041000090E0092030760120707004F05FF8554986
:104110004FF44970086004F079F80120FCF76AFA5E
:104120000220FEF7FBFB7DE00020FEF74DFC0121A5
:104130000846FEF789FB257038E00020FEF744FCB6
:1041400001210220FEF780FB0120207000F020F901
:1041500068E00020FEF738FC01210320FEF774FB25
:104160000220207000F014F95CE00020FEF72CFC27
:1041700001210420FEF768FB0320207000F008F9FD
:1041800050E00020FEF720FC01210520FEF75CFB3B
:104190000420207000F0FCF844E00020FEF714FC3E
:1041A00001210620FEF750FB0520207000F0F0F8FA
:1041B00038E00020FEF708FC01210720FEF744FB51
:1041C000062007E00020FEF7FFFB01210820FEF794
:1041D0003BFB07202070E9E7FCF71CFA22E0C87AD5
:1041E00001F024FF217807EBC000425C1A2A38BF97
:1041F000521CDBD24254D9E7C87A01F017FF21786C
:1042000007EBC000425C002A18BF521EF2D1CDE776
:1042100002F056FD40F6B83002F0D4FB02F0F6FC96
:1042200003F05AFDF57303B0F0BD0000000000205C
:10423000840100202D0000203C0100205A44020887
:1042400024CC02085E3B0208BE4902080C56020854
:10425000787A0208BE600208EE700208776169741D
:104260000D0A0000C80000202DE9F84F3F48DC2669
:104270009625C07A01F0DAFE3D4901EBC0003D49C8
:104280000978405C3C4931F810104FF47A70B1FB6A
:10429000F0F2D4B2B1FBF0F200FB121303EBC30057
:1042A00000EB4310C0F307373448C823A0FB0120BC
:1042B00040096FF018025043314A01EB800082FB45
:1042C00000208210A2EBE07000F0FF082D48A0FB58
:1042D0000120C008404200EB800001EB400000F0EC
:1042E000FF0A41F2A200009091224FF4A071D92060
:1042F00001F0A6FCDFF89090202309EB84200090C9
:104300002A461021304602F0B7FC09F520500090F3
:104310001F232A461021EC2002F0AEFC09EB872077
:10432000009020232A461021F32002F0A5FC09EB7F
:104330008820009020232A46102140F2031002F02A
:104340009BFC09EB8A20009020232A46102140F292
:10435000131002F091FC0D4800901F232A461021F3
:1043600040F2231002F088FCBDE8F88F78010020AD
:104370000C0100202C00002042E106081F85EB51B3
:1043800067666666CDCCCCCC60CC000864C0020801
:104390002DE9F84F3F48DC269625C07A01F046FE0D
:1043A0003D4901EBC0003D490978405C3C4931F88A
:1043B00010104FF47A70B1FBF0F2D4B2B1FBF0F20E
:1043C00000FB121303EBC30000EB4310C0F30737ED
:1043D0003448C823A0FB012040096FF01802504365
:1043E000314A01EB800082FB00208210A2EBE070DA
:1043F00000F0FF082D48A0FB0120C008404200EB60
:10440000800001EB400000F0FF0A41F2A2000090A2
:1044100091224FF4A071D92001F012FCDFF89090A6
:10442000202309EB842000902A461021304602F018
:1044300023FC09F5205000901F232A461021EC2070
:1044400002F01AFC09EB8720009020232A46102155
:10445000F32002F011FC09EB8820009020232A466B
:10446000102140F2031002F007FC09EB8A200090B3
:1044700020232A46102140F2131002F0FDFB0D48C4
:1044800000901F232A46102140F2231002F0F4FB73
:10449000BDE8F88F840100203C0100202D000020A1
:1044A00042E106081F85EB5167666666CDCCCCCC31
:1044B00060CC000864C00208F8B541F2A200FDF724
:1044C000E9FF2948007A00EBC00101EB40110C0B19
:1044D000CD2110FB01F1254BC90AA3FB01C2D20873
:1044E000524202EB820201EB4201CDB2A3FB00215A
:1044F000C908494201EB810100EB4100C6B21C48EA
:104500006A2200901F231146262002F0B5FBC4EB5F
:104510004410184C1F2304EB401000906A22102115
:10452000C02002F0A9FB04F51B50009020236A2252
:104530001021D02002F0A0FBC5EB451004EB401089
:1045400000901F236A221021D72002F095FBC6EBB2
:10455000461004EB401000901F236A221021E72030
:1045600002F08AFBF8BD000078010020CDCCCCCC55
:10457000B20B05084C91000808B5052830D2DFE8D9
:1045800000F0030C151E2700224800901D230F2267
:104590003821F42002F070FB22E01F4800901D2318
:1045A0000F223821F42002F067FB19E01B4800902D
:1045B0001D230F223821F42002F05EFB10E0184882
:1045C00000901D230F223821F42002F055FB07E054
:1045D000144800901D230F223821F42002F04CFBD8
:1045E0001148407A01280BD041F2A20000902C2300
:1045F0000F2240F23F1140F2311001F021FB08BDC3
:104600000A4800901D230F220E2140F2311002F0C3
:1046100033FB08BDA62E0208F62102084615020843
:1046200096080208E6FB010800000020FC49060885
:104630002DE9F04F89B00020E74A019002900390E5
:1046400004900590117801AB142928BF517844D209
:1046500000290AD9A1EB000C94449CF801C003F88E
:1046600000C0401CC0B28142F4D841F2A200FDF764
:1046700011FFDA48009020230A227921642002F0F9
:10468000FBFA45F6AA20009030232E224FF4A071A9
:10469000002001F0D5FAD34DD14805F53A6105F572
:1046A000F866C079079105F57861069142F2E0213C
:1046B0006F1805F59B5B05F5BA5A05F5D95905F54F
:1046C000F85805F57874052824BF09B0BDE8F08FC7
:1046D000DFE800F0134C87D3FE008142A1EB000C11
:1046E00094448CBF9CF801C09CF815C003F800C02E
:1046F000401CC0B21428F0D3B7E71F233A22102180
:104700001E20009402F0B8FA9DF804203A214820B7
:1047100000F06AF91F236A2210211E20009602F081
:10472000ABFA9DF805206A21482000F05DF9079852
:1047300000901F239A2210211E2002F09DFA9DF85E
:1047400006209A21482000F04FF9069800901F2378
:10475000CA2210211E2002F08FFA9DF80720CA21DC
:10476000482000F041F909B0BDE8F08F1F233A223C
:1047700010211E20CDF800B002F07EFA9DF808202E
:104780003A21482000F030F91F236A2210211E2010
:10479000CDF800A002F070FA9DF809206A214820A7
:1047A00000F022F91F239A2210211E20CDF800903C
:1047B00002F062FA9DF80A209A21482000F014F9CC
:1047C0001F23CA2210211E20CDF8008002F054FAC7
:1047D0009DF80B20CA21482000F006F909B0BDE879
:1047E000F08F1F233A2210211E20009702F044FA76
:1047F0009DF80C203A21482000F0F6F81F236A2289
:1048000010211E20009402F037FA1F236A22102183
:104810002E20009502F030FA9DF80D206A214820E4
:1048200000F0E2F81F239A2210211E20009402F0CB
:1048300023FA1F239A2210212E20009402F01CFA42
:104840009DF80E209A21482000F0CEF81F23CA229E
:1048500010211E20009402F00FFA1F23CA221021FB
:104860002E20009602F008FA9DF80F20CA21482059
:1048700000F0BAF809B0BDE8F08F1F233A221021EA
:104880001E20009402F0F8F9079800901F233A22A6
:1048900010212E2002F0F0F99DF810203A21482036
:1048A00000F0A2F81F236A2210211E20009402F0BB
:1048B000E3F9069800901F236A2210212E2002F0AF
:1048C000DBF99DF811206A21482000F08DF800E006
:1048D0002CE01F239A2210211E20009402F0CCF914
:1048E0001F239A2210212E20CDF800B002F0C4F927
:1048F0009DF812209A21482000F076F81F23CA2242
:1049000010211E20009402F0B7F91F23CA221021A3
:104910002E20CDF800A002F0AFF99DF81320CA2197
:10492000482000F061F809B0BDE8F08F1F233A225B
:1049300010211E20009402F09FF91F233A2210211B
:104940002E20CDF8009002F097F99DF814203A211E
:10495000482000F049F81F236A2210211E200094ED
:1049600002F08AF91F236A2210212E20CDF8008040
:1049700002F082F99DF815206A21482000F034F8F1
:104980001F239A2210211E20009402F075F91F2384
:104990009A2210212E20009702F06EF99DF8162021
:1049A0009A21482000F020F81F23CA2210211E203F
:1049B000009602F061F91F23CA2210212E200095D3
:1049C00002F05AF99DF81720CA21482000F00CF88F
:1049D00009B0BDE8F08F0000900100204E90030860
:1049E000000000204C9100082DE9F74F044600F12B
:1049F0001F05624882B004F1100904F1200804F197
:104A0000300704F14F06A0F6047AA0F2827B072A51
:104A100024BF05B0BDE8F08FDFE802F01404172AC8
:104A20003171840056481F23009019462046039A8E
:104A300002F022F9534800901F23A8B21946039AA6
:104A400002F01AF905B0BDE8F08F4F481F2300901F
:104A500019462046039A02F00FF94A4800901F2396
:104A6000A8B21946039A02F007F905B0BDE8F08F25
:104A70004648202300903D212046039A4DE00090B7
:104A80001F2310212046039A02F0F6F840480090B8
:104A90001FFA89F01F231021039A02F0EDF83D4818
:104AA00000901FFA88F01F231021039A02F0E4F807
:104AB000394800901F23B8B21946039A02F0DCF877
:104AC000364800901F23B0B21946039A02F0D4F87A
:104AD00004F16E001F2380B2CDF800A01946039A9E
:104AE00002F0CAF804F18D001F2380B2CDF800B0A7
:104AF0001946039A02F0C0F805B0BDE8F08F1F23F5
:104B0000CDF800A019462046039A02F0B5F81F23FD
:104B1000A8B2CDF800B01946039A02F0ADF805B07E
:104B2000BDE8F08F00901F2310212046039A02F069
:104B3000A3F81B4800901FFA89F01F231021039A45
:104B400002F09AF8134800901FFA88F01F231021F2
:104B5000039A02F091F81F23B8B2CDF800A01946CD
:104B6000039A02F089F81F23B0B2CDF800B01946BD
:104B7000039A02F081F805B0BDE8F08FCE5A010823
:104B80004026010844350108C22D0108AE5E010827
:104B90000C9900084C910008C63C010848440108E3
:104BA0002C9500082DE9F04F83B000250F202C46EE
:104BB000019001F023FA6749684A097A4843664937
:104BC000A1FB0010C0F34F1042F21071B0FBF1F1E5
:104BD00061F307044FF47A71B0FBF1F1A2FB01C35A
:104BE000DB085B4203EB830301EB430101F0FF08A9
:104BF0004AF2D73101FB0011890DA2FB01C3DB088A
:104C00005B4203EB830301EB4301CFB24CF6CD4192
:104C10004143C90CA2FB01C3DB085B4203EB8303E6
:104C200068F30F2401EB430167F3174461F31F643A
:104C3000A2FB0021C908494201EB810100EB4100C0
:104C400060F3070541F2A200002200903523F52110
:104C5000104600F0F5FF424A1020DFF808B14FF08F
:104C6000200902F51B564FF0300AB8F1000F40D072
:104C7000C8EB481102EB4111174600911F23102188
:104C8000019A01F0F9FFC4F30740C0EB401007EBB5
:104C90004010009048461F231021019A01F0ECFFBC
:104CA000200EC0EB401007EB4010009050461F2331
:104CB0001021019A01F0E0FF4020202300961021EE
:104CC000019A01F0D9FFC5EB451007EB40100090A9
:104CD00047201F231021019A01F0CEFF24230F2229
:104CE00072217120CDF800B001F0C6FF03B0BDE81D
:104CF000F08FC7EB471102EB4111174600911F23BC
:104D00001021019A01F0B8FF200EC0EB401007EB14
:104D10004010009048461F231021019A01F0ACFF7B
:104D20005046202300961021019A01F0A5FFC5EB03
:104D3000451007EB4010009037201F231021019AE7
:104D400001F09AFF24230F2272216120CDF800B0D8
:104D5000CAE70000780100201F85EB51CDCCCCCCF8
:104D60004C910008E88802082DE9F04F83B041F229
:104D7000A200FDF78FFBC24F50200190B88C4FF47A
:104D80007A71B0FBF1F24AF2D73900FB0991BD4CC0
:104D9000890DA4FB01C3DB085B4203EB830301EB3A
:104DA00043018EB24CF6CD414143C90CA4FB01C373
:104DB000DB085B4203EB830301EB43018DB2A4FBF1
:104DC0000031C908494201EB810100EB41001FFAA3
:104DD00080FAC2EB4210DFF8B0821F2308EB4010CC
:104DE00000903C221021019801F046FFC6EB4610CE
:104DF00008EB401000901F233C221021602001F09E
:104E00003BFFC5EB451008EB401000901F233C22F0
:104E10001021702001F030FFCAEB4A1008EB40105F
:104E200000901F233C221021802001F025FF97488D
:104E3000009025233C222E21902001F01DFFB98CEB
:104E40004FF47A70414341F2A550B1FBF0F080B2CB
:104E5000494601FB00118A0D4CF6CD414143C90C76
:104E6000A4FB01C3DB085B4203EB830301EB4301BB
:104E70008DB2A4FB0031C908494201EB810100EB6E
:104E8000410086B2C2EB421008EB401000901F2395
:104E90003C221021D02001F0EFFEC5EB451008EBBD
:104EA000401000901F233C221021E02001F0E4FE7E
:104EB00008F51B551F233C221021F020009501F01E
:104EC000DBFEC6EB461008EB401000901F233C228F
:104ED0001021F72001F0D0FE797C6D4800294FF0B9
:104EE0001603009000F0BD8084220D21282001F0DF
:104EF000C3FE41F2A200009054233E223521282017
:104F000000F09EFE5E4F4FF47A71388CB0FBF1F2E8
:104F10004AF2D73101FB0091890DA4FB01C3DB08E4
:104F20005B4203EB830301EB43011FFA81FA4CF66A
:104F3000CD414143C90CA4FB01C3DB085B4203EB39
:104F4000830301EB43018EB2A4FB0031C90849423F
:104F500001EB810100EB41001FFA80FBC2EB421024
:104F600008EB401000901F2382221021019801F0CD
:104F700083FECAEB4A1008EB4010009060201F230C
:104F80008222102101F078FEC6EB461008EB40109B
:104F9000009070201F238222102101F06DFECBEBC8
:104FA0004B1008EB4010009080201F23822210211C
:104FB00001F062FE37480090242390208222194697
:104FC00001F05AFE398C4FF47A70414341F2A550FA
:104FD000B1FBF0F080B24AF2D73101FB00918A0DAB
:104FE0004CF6CD414143C90CA4FB01C3DB085B4235
:104FF00003EB830301EB43018EB2A4FB0031C9082C
:10500000494201EB810100EB410084B2C2EB421046
:1050100008EB40100090D0201F238222102101F0C5
:105020002BFEC6EB461008EB40100090E0201F233B
:105030008222102101F020FEF0201F238222102165
:10504000009501F019FEC4EB441008EB40100090ED
:10505000F7201F238222102101F00EFE03B0BDE8CD
:10506000F08F3E220D21282001F006FE41F2A20021
:1050700000909A2384223521282000F0E1FD41E7A9
:1050800000000020CDCCCCCC4C910008F8A8020840
:105090001CEA030844B602082DE9F84F41F2A200C9
:1050A000FDF7F8F97D4800901F230F227921642035
:1050B00001F0E2FD45F6AA29392337224FF4A07109
:1050C0000020CDF8009000F0BBFD754800901F2334
:1050D00043227921192001F0CFFDDFF8C8A142F267
:1050E0001071714DDAF80000714CB0FBF1F1CAB2E9
:1050F0004FF47A71B0FBF1F1A5FB01C3DB085B4211
:1051000003EB830301EB43086849A1FB0031490924
:10511000A5FB01C3DB085B4203EB830301EB430701
:10512000A5FB0031C908A5FB01C3DB085B4203EB0B
:10513000830301EB4306494201EB810100EB410B84
:1051400004EB82200090202370221021B42001F073
:1051500093FD04EB88200090202370221021C420AE
:1051600001F08AFD04EB872000902023702210219B
:10517000D42001F081FD04EB8620009020237022D2
:105180001021E42001F078FD04EB8B200090202317
:1051900070221021F42001F06FFD4648009020237A
:1051A00070221F214FF48A7001F066FD9323912233
:1051B0004FF4A0710020CDF8009000F041FD3E4872
:1051C000009023239D227B21192001F055FDDAF860
:1051D000040042F21071B0FBF1F1CBB24FF47A71DE
:1051E000B0FBF1F1A5FB01C2D208524202EB8202F0
:1051F00001EB42062D49A1FB00214909A5FB01C293
:10520000D208524202EB820201EB4207A5FB0021C9
:10521000C908A5FB01C2D208524202EB820201EB8F
:105220004205494201EB810100EB410804EB832078
:1052300000902023CA2210214B2001F01DFD04EB19
:10524000862000902023CA2210215B2001F014FD4B
:1052500004EB872000902023CA2210216B2001F04C
:105260000BFD04EB852000902023CA2210217B2017
:1052700001F002FD04EB882000902023CA221021B7
:105280008B2001F0F9FC0D4800902523CA227C21D7
:10529000BB2001F0F1FCBDE8F88F0000A4DD02089E
:1052A0003A2C040878010020CDCCCCCC1F85EB51E2
:1052B00060CC0008606D0408980A04088849040856
:1052C0002DE9F84F044641F2A200FDF7E3F8FE494C
:1052D00000911F230A227921642001F0CDFC45F6BC
:1052E000AA2630232E224FF4A0710020009600F051
:1052F000A7FCF94D2000DFF8D483F54FDFF8D493F5
:105300004BF6636105F51B5400F0E280DFF8CCA397
:10531000DFF8CCB3012800F0BD81022818BFBDE83A
:10532000F88FF023009190224FF4A071002000F03C
:1053300087FC20233A2279212620CDF800A001F015
:105340009BFC98F8090000EBC00101EB40110A0B2F
:10535000CD2110FB01F1C90AA7FB01C3DB085B42A9
:1053600003EB830301EB430101F0FF09A7FB0031CD
:10537000C908494201EB810100EB410000F0FF0A3E
:10538000C2EB421005EB401000901F233A2210217F
:10539000BF2001F071FCC9EB491005EB40100090F3
:1053A0001F233A221021CF2001F066FCCAEB4A10DD
:1053B00005EB401000901F233A221021DF2001F05E
:1053C0005BFC1F233A221021EF20CDF800B001F042
:1053D00053FC98F8080000EBC00101EB40114FEAC4
:1053E000113ACD2110FB01F1C90AA7FB0132D20805
:1053F000524202EB820201EB420101F0FF09A7FBDE
:105400000021C908494201EB810100EB4100C7B20C
:1054100060235E224FF4A0710020009600F010FC83
:10542000B0486A2200901F231146262001F024FC78
:10543000CAEB4A1005EB401000901F236A2210218E
:10544000C02001F019FC20236A221021D0200094F2
:1054500001F012FCC9EB491005EB401000901F232E
:105460006A221021D72001F007FCC7EB471005EB9B
:10547000401000901F236A221021E72001F0FCFB5E
:1054800090238E224FF4A0710020009600F0D8FBEC
:10549000954800901F23B122B521262001F0ECFB96
:1054A00098F80B0010F0040F00F0D8818F4800909E
:1054B0001F239E225B21DF2001F0DEFB8C48009041
:1054C0001F23CE225B21DF2001F0D6FBBDE8F88F41
:1054D0000091602330224FF4A071002000F0B0FB57
:1054E0008448009020233A227921262001F0C4FB31
:1054F00098F8090000EBC00101EB40110A0BCD2127
:1055000010FB01F1C90AA7FB01C3DB085B4203EBF7
:10551000830301EB430101F0FF0AA7FB0031C90837
:10552000494201EB810100EB410000F0FF0B09EB68
:105530008220009020233A221021BF2001F09CFB02
:1055400009EB8A20009020233A221021CF2001F07D
:1055500093FB09EB8B20009020233A221021DF20BF
:1055600001F08AFB6448009020233A221021EF20AA
:1055700001F082FB60235E224FF4A07100200096B0
:1055800000F05EFB98F8080000EBC00101EB401151
:105590004FEA113ACD2110FB01F1C90AA7FB0132F4
:1055A000D208524202EB820201EB420101F0FF09F4
:1055B000A7FB0021C908494201EB810100EB410032
:1055C000C7B248486A2200901F231146262001F0E6
:1055D00053FBCAEB4A1005EB401000901F236A22D0
:1055E0001021C02001F048FB20236A221021D02086
:1055F000009401F041FBC9EB491005EB401000900D
:105600001F236A221021D72001F036FBC7EB471079
:1056100005EB401000901F236A221021E72001F0C3
:105620002BFB90238E224FF4A0710020009600F0F7
:1056300007FB324800901F23B122B521262001F03C
:105640001BFB98F80B0010F0040F11D12C480090B0
:105650001F239E225B21DF2001F00EFB29480090D2
:105660001F23CE225B21DF2001F006FBBDE8F88F6F
:10567000254800901F239E225B21DF2001F0FCFAC9
:10568000224800901F23CE225B21DF2001F0F4FA94
:10569000BDE8F88F0091902360224FF4A0710020A4
:1056A00000F0CEFA20233A2279212620CDF800A05E
:1056B00001F0E2FA98F8090000EBC00101EB40119B
:1056C0000A0BCD2124E00000E4B104087801002099
:1056D000CDCCCCCC40F800084C91000832CF040867
:1056E00044C80208B20B0508B46B05085EDA050869
:1056F000321D060872ED040844C40208DE3F0508A6
:105700008A9705081EF1050894AD050828070608C4
:1057100010FB01F1C90AA7FB01C3DB085B4203EBE5
:10572000830301EB4301CCB2A7FB0031C908494216
:1057300001EB810100EB410000F0FF0AC2EB4210D7
:1057400005EB401000901F233A221021BF2001F0EA
:1057500093FAC4EB441005EB401000901F233A224B
:105760001021CF2001F088FACAEB4A1005EB401057
:1057700000901F233A221021DF2001F07DFA1F2321
:105780003A221021EF20CDF800B001F075FA98F818
:10579000080000EBC00101EB40110C0BCD2110FB08
:1057A00001F1C90AA7FB0132D208524202EB820280
:1057B00001EB4201CDB2A7FB0021C908494201EB30
:1057C000810100EB4100C7B260235E224FF4A0715B
:1057D0000020009600F034FA29486A2200901F2326
:1057E0001146262001F048FA09EB8420009020237E
:1057F0006A221021C02001F03FFA224800902023A5
:105800006A221021D02001F037FA09EB85200090A0
:1058100020236A221021D72001F02EFA09EB8720DD
:10582000009020236A221021E72001F025FA90231E
:105830008E224FF4A0710020009600F001FA124869
:1058400000901F23B122B521262001F015FA98F807
:105850000B0010F0040F7FF40BAFF7E60B4800903D
:105860001F239E225B21DF2001F006FA08480090EA
:105870001F23CE225B21DF2001F0FEF9BDE8F88F67
:105880005E25050840200108DE3F050854C40508D0
:10589000F2330608F8B5044641F2A200FCF7FAFD1F
:1058A0003848009020230F227921642001F0E4F988
:1058B000354F45F6AA254BF66366002C32D0012CF5
:1058C00018BFF8BD392337224FF4A071002000958E
:1058D00000F0B6F9ED23952240F27B1100200096EE
:1058E00000F0AEF91623B5220D217220009701F0C9
:1058F000C3F926481F23009059221946902001F031
:10590000BBF9932391224FF4A0710020009500F081
:1059100097F91F4800902023B3221F21902001F007
:10592000ABF9F8BD392337224FF4A0710020009560
:1059300000F086F993233B224FF4A07100200096DB
:1059400000F07EF916235B220D217220009701F0F2
:1059500093F910480090202359221F21902001F034
:105960008BF9932391224FF4A0710020009500F051
:1059700067F909481F230090B3221946902001F0CF
:105980007BF9F8BD207504081CEA0308209B040875
:1059900024AA040860930408A2A204082DE9F84F81
:1059A000044641F2A200FCF775FD9D4FDFF87492AA
:1059B000DFF874A2DFF874824BF6636645F6AA2519
:1059C000002C52D0AAF57250012C7DD0022C00F090
:1059D000DE80032C18BFBDE8F88F202300900F2233
:1059E0007921642001F048F9392337224FF4A0715E
:1059F0000020009500F024F9EC23AF224FF4A071B1
:105A00000020009600F01CF91623C7220D21462025
:105A1000009701F031F91E234B2279216420CDF843
:105A2000009001F029F9752373224FF4A071002032
:105A3000009500F005F91F23872279216420CDF815
:105A400000A001F019F9B123AF224FF4A07100209A
:105A5000009500F0F5F8764800902023C3227921C4
:105A6000642001F009F9BDE8F88F0522382391017F
:105A70000020009600F0E4F8162313220D214620A2
:105A8000009701F0F9F86B48009020230F2279214C
:105A9000642001F0F1F8392337224FF4A07100207F
:105AA000009500F0CDF81F234B2279216420CDF81A
:105AB000009001F0E1F8752373224FF4A0710020EB
:105AC000009500F0BDF800E019E01F23872279213E
:105AD0006420CDF800A001F0CFF8B123AF224FF43D
