:020000040800F2
:10000000F84F00205D020008932E0008511E0008E2
:10001000912E0008F305000855320008000000008A
:100020000000000000000000000000009D0100082A
:10003000BD06000800000000F9010008412F00087B
:1000400077020008770200087702000877020008AC
:10005000770200087702000877020008770200089C
:10006000770200087702000877020008770200088C
:10007000770200087702000877020008770200087C
:10008000770200087702000877020008770200086C
:10009000770200087702000877020008770200085C
:1000A000770200087702000877020008770200084C
:1000B000770200087702000877020008770200083C
:1000C000770200087702000877020008770200082C
:1000D000770200087702000877020008770200081C
:1000E000770200087702000877020008770200080C
:1000F00077020008770200087702000877020008FC
:1001000077020008770200087702000877020008EB
:1001100077020008770200087702000877020008DB
:1001200077020008770200087702000877020008CB
:1001300077020008000000000000000077020008BD
:1001400077020008770200087702000877020008AB
:10015000770200087702000877020008770200089B
:10016000770200087702000877020008770200088B
:10017000770200087702000800000000000000007D
:100180007702000877020008DFF80CD000F0ECF8E6
:1001900000480047AD640008F84F00202C4B196858
:1001A0000868B0E8F04F80F30988BFF36F8F4FF015
:1001B000000080F3118870470000000008480068C4
:1001C000006880F308884FF0000080F3148862B65E
:1001D00061B6BFF34F8FBFF36F8F00DF00BF00BF6B
:1001E00008ED00E0DFF80C00016841F470010160E7
:1001F000704700BF88ED00E0EFF30980BFF36F8F19
:10020000134B1A681EF0100F08BF20ED108A20E96A
:10021000F04F106009B44FF0500080F31188BFF325
:100220004F8FBFF36F8F07F0EBFF4FF0000080F3AD
:10023000118809BC19680868B0E8F04F1EF0100F6B
:1002400008BFB0EC108A80F30988BFF36F8F704746
:1002500044000020EFF30580704700000648804707
:1002600006480047FEE7FEE7FEE7FEE7FEE7FEE79B
:10027000FEE7FEE7FEE7FEE7E12F00088901000840
:100280002DE9F05F0546002092469B4688460646CB
:10029000814640241BE0284641464746224600F05E
:1002A00053F853465A46C01A914110D31146184686
:1002B000224600F03AF82D1A67EB01084F46224615
:1002C0000120002100F031F817EB00094E41201EFB
:1002D000A4F10104DFDC484631462A464346BDE826
:1002E000F09F40EA01039B0703D009E008C9121FF1
:1002F00008C0042AFAD203E011F8013B00F8013BE0
:10030000521EF9D27047D2B201E000F8012B491E0B
:10031000FBD270470022F6E710B513460A460446A2
:100320001946FFF7F0FF204610BD202A04DB203AD3
:1003300000FA02F1002070479140C2F1200320FA38
:1003400003F3194390407047202A04DB203A21FA36
:1003500002F00021704721FA02F3D040C2F12002DE
:100360009140084319467047064C074D06E0E06887
:1003700040F0010394E8070098471034AC42F6D3EC
:10038000FFF706FF7CDF06089CDF0608002A08BF8F
:1003900070472DE9F04114460E4605462F46681C6D
:1003A00085B201F035FEA02001F0F4FD01F094FECD
:1003B000380A01F0EFFD01F08FFEF8B201F0EAFD1E
:1003C00001F08AFE01F024FEA12001F0E3FD01F01E
:1003D00083FE002001F066FD074601F04DFE601E21
:1003E000040406F8017B240CD8D1BDE8F0812DE986
:1003F000F84380464FF000000E0007460446009088
:1004000018BFE94626D008EB040085B201F000FED3
:10041000A02001F0BFFD01F05FFE280A01F0BAFD47
:1004200001F05AFEE8B201F0B5FD01F055FE01F011
:10043000EFFDA12001F0AEFD01F04EFE002001F025
:1004400031FD054601F018FE09F80450601CC4B2E5
:10045000A642D8D8022E02D0042E07D014E09DF870
:1004600001009DF8001001EB00270DE09DF803004E
:100470009DF8021001EB00209DF8011001EB002017
:100480009DF8001001EB00273846BDE8F88310B551
:10049000044601F0BDFDA02001F07CFD01F01CFE32
:1004A000200A01F077FD01F017FEE0B201F072FDC5
:1004B00001F012FE01F0ACFDA12001F06BFD01F096
:1004C0000BFE002001F0EEFC044601F0D5FD2046B5
:1004D00010BD2DE9F0410646501E0F4685B238BFCB
:1004E000BDE8F08197F80080002401F091FDA02084
:1004F00001F050FD01F0F0FD300A01F04BFD01F07C
:10050000EBFDF0B201F046FD01F0E6FD404601F0E2
:1005100041FD01F0E1FD01F0AFFD03F0B1FB621C14
:10052000D4B20A2CF9D3701C691E86B28DB207F1C1
:100530000107D7D2BDE8F0812DE9F04716000F463C
:1005400080464FF0000508BFBDE8F08708EB0500C6
:100550001FFA80F9E80027FA00F000F0FF0A0024F3
:1005600001F056FDA02001F015FD01F0B5FD4FEAA8
:10057000192001F00FFD01F0AFFD09F0FF0001F0BF
:1005800009FD01F0A9FD504601F004FD01F0A4FDB4
:1005900001F072FD03F074FB601CC4B20A2CF9D3A5
:1005A000681CC5B2B542D1D3BDE8F08770B50E4620
:1005B0000546002401F02CFDA02001F0EBFC01F029
:1005C0008BFD280A01F0E6FC01F086FDE8B201F09F
:1005D000E1FC01F081FD304601F0DCFC01F07CFD26
:1005E00001F04AFD03F04CFB601CC4B20A2CF9D3A5
:1005F00070BDFEE70100064806D0012918BF70470C
:100600000122042100F0E1BE0022042100F0DDBE41
:100610000010024010B5084C01220421204600F0D1
:10062000D4FEC82006F0A0F820460022BDE8104005
:10063000042100F0CABE00000010024019494868B9
:1006400000281CBF401E4860886800281CBF401E50
:100650008860C86800281CBF401EC8601248007827
:1006600018B912480288521C0280114A10880028CA
:100670001CBF401E10800F4A108800281CBF401E5F
:1006800010800D4A106800281CBF401E10600888AA
:1006900000281CBF401E0880086900281CBF401E9F
:1006A00008617047C00000201000002018000020E2
:1006B0001A0000201C0000202400002070470000C9
:1006C00030B583B041F2A20001F0D2FE45F6AA2473
:1006D00052234F224FF4A0710020009405F0AEF990
:1006E000A323A022D9210020009405F0A7F9F0232C
:1006F0004F226D216A20009405F0A0F9F02300221A
:10070000D921D620009405F099F96A4D002048F2CD
:10071000C0440095CDE9014020231A4617212A2024
:1007200000F0ECF801200095CDE9014020231A46A5
:1007300017214A2000F0E2F802200095CDE901409F
:1007400020231A4617216A2000F0D8F803200095CC
:10075000CDE9014020231A4617218A2000F0CEF867
:100760005549009172201F236E22102106F054F982
:1007700052480090822020236E22102106F04CF96E
:100780004F48009089201F236E22102106F044F963
:100790004C48009025236E222E21A22006F03CF921
:1007A000494900917C202023BE22102106F034F913
:1007B000464800908C202023BE22102106F02CF900
:1007C000434824230090BE221946A52006F024F9B0
:1007D000404D41F2A204E87A10F0010F17D03E48D4
:1007E00000903223642217210A2006F015F95A22BC
:1007F0009A2311463720009405F020F937480090DD
:100800002D235A222321372006F006F916E09623DD
:10081000642221210A20009405F010F9304800904C
:100820001E23642217210A2006F0F6F82D480090B6
:1008300040235A222321372006F0EEF8E87A10F000
:10084000020F17D0284800903823AA2225213720EC
:1008500006F0E2F8E223AA2226210520009405F002
:10086000EDF8224800902523AA222121052006F038
:10087000D3F816E0E223AA225C213720009405F089
:10088000DDF81B4825230090AA221946372006F0E0
:10089000C3F8184800903823AA222121052006F029
:1008A000BBF81548807B03F055FD03B0BDE8304030
:1008B00003F0BCBC702101083C9600083CB5000860
:1008C000DCA1000828A60208BCA500087C8E000850
:1008D00074B30208680100208E380208EE46020850
:1008E0008A41020854C90208EE5D02081E6E020821
:1008F0003C530208A8770208000000202DE9FF4FB2
:1009000087B0D90801911698002102910999002910
:100910009CBF0BB0BDE8F08F01994843099948434B
:10092000009001980027002851D9DDE90001029AC2
:1009300002FB01000899059001EB020808F1010093
:10094000000A04904FEA182003901499059839443E
:10095000002410F801B0079800EBC70A8020E0409F
:1009600010EA0B0F2AD00AEB04056E1C08F10109EE
:100970002A2002F069FD280A02F09EFDE8B202F08A
:100980009BFD300A02F098FDF0B202F095FD2B209D
:1009900002F05AFD039802F08FFD08F0FF0002F00C
:1009A0008BFD049802F088FD09F0FF0002F084FD41
:1009B0002C2002F049FD159802F03AF8601CC4B2F0
:1009C000082CCBD3781CC7B201988742BDD30298BC
:1009D0000999401CC0B202908842A2D30BB0BDE876
:1009E000F08F000070B50E2880F0E980DFE800F09D
:1009F00007254F376874808C98A4B0BCC8D481B1E7
:100A0000032912D0012918BF70BD042001F060FC39
:100A100078B10B2001F05CFC58B16C493720C873E9
:100A200070BD6A490820C87370BD68492320C87327
:100A300070BD66493120C87370BD41B103290AD029
:100A4000012918BF70BD32206049C87370BD5F496D
:100A50000920C87370BD5D492420C87370BD49B1B9
:100A600003290BD0012918BF70BD5948017821F026
:100A7000020116E055490D20C87370BD5448017835
:100A800041F00201017051490020887070BD51B1E0
:100A900003290CD0012918BF70BD4D48017821F001
:100AA0000101017070BD49490A20C87370BD4848F2
:100AB000017841F00101017044490020887070BD47
:100AC00031B1032918BF70BD28204049C87370BDDB
:100AD0003E491020C87370BD31B1032918BF70BDE5
:100AE00029203A49C87370BD38491120C87370BDB8
:100AF00031B1032918BF70BD2A203449C87370BDB5
:100B000032491220C87370BD31B1032918BF70BDBE
:100B10002B202E49C87370BD2C491320C87370BD9B
:100B200031B1032918BF70BD2C202849C87370BD8E
:100B300026491720C87370BD31B1032918BF70BD95
:100B40002D202249C87370BD20491820C87370BD7C
:100B500031B1032918BF70BD2E201C49C87370BD68
:100B60001A491920C87370BD31B1032918BF70BD6F
:100B70002F201649C87370BD14491A20C87370BD60
:100B800031B1012918BF70BD25201049C87370BD4F
:100B90000E491D20C87370BD31B1012918BF70BD49
:100BA00027200A49C87370BD084C0025257407F03A
:100BB000A5F9258307F0C2F91B20E07370BD044935
:100BC000087820F00300087070BD000000000020CD
:100BD000150000202DE9F0474FF0000584B00E000D
:100BE00007462C461FD0A8464FF001094FF0070AD0
:100BF000CDE90079CDE902A869460E4800F01CF85D
:100C00000C4800F033FA02210A4800F0CFF90948F5
:100C100000F0C6F881B20D44012005F0A5FD601C6E
:100C2000C4B2B442E4D3B5FBF6F004B080B2BDE880
:100C3000F0870000A401002038B44FF0000CCDF87C
:100C400000C090F83C20012A02BF022038BC704747
:100C5000012280F83C200A6807240368092A13D976
:100C6000DD680A3A02EB420204FA02F225EA0202C5
:100C7000DA600A788B680A3A02EB42029340026813
:100C8000D4682343D36010E01D6902EB420204FAEA
:100C900002F225EA02021A610A788B6802EB42022C
:100CA000934002681469234313614A681F24072A8A
:100CB00015D203685D6B521E02EB820204FA02F247
:100CC00025EA02025A630A8893B20A79521E02EB9D
:100CD000820293400268546B234353632BE0036802
:100CE0000D2A14D21D6BD21F02EB820204FA02F20B
:100CF00025EA02021A630A8893B20A79D21F02EB2C
:100D0000820293400268146B2343136313E0DD6A8D
:100D10000D3A02EB820204FA02F225EA0202DA62DA
:100D20000A8893B20A790D3A02EB82029340026874
:100D3000D46A2343D362174B0468154A9C4204BF0C
:100D40000C68122C03D1546844F480045460046885
:100D50009C4218D10B68102B18BF112B13D153686C
:100D600043F400035360096810290CD10A490B4A67
:100D70000968B1FBF2F101EB81014900009102D059
:100D8000491E0091FCD180F83CC038BC002070475F
:100D900000230140002001404000002040420F009D
:100DA0000068C06C704700002DE9F04104004FF06E
:100DB000000504BF0120BDE8F081564F206C0026DD
:100DC00028B9204600F0AEF8666484F83C60206CD8
:100DD00010F0100F18BF012504D084F83C6028469D
:100DE000BDE8F081206C20F4885040F002002064BF
:100DF0004948416821F440314160416862681143CB
:100E000041602068416821F4807141602068416838
:100E1000226941EA022141602068416821F0407165
:100E2000416020684168A268114341602068816880
:100E300021F40061816020688168E268114381606B
:100E4000A06AB8422068816821F0706181602068E2
:100E5000816808BF21F040510BD0A26A1143816024
:100E60002068816821F04051816020688168E26AD1
:100E7000114381602068816821F00201816020684F
:100E80008168227E41EA4201816094F820000028B6
:100E90002068416808BF21F400610ED041F4006170
:100EA00041602068416821F46041416020684168E8
:100EB0001A4B626A03EB4232114341602068C16AF7
:100EC00021F47001C1622068C16AA28B144B03EB4C
:100ED00002521143C1622068816821F4007181606F
:100EE0002068816894F8302041EA422181602068BE
:100EF000816821F48061816020688168626941EACB
:100F0000822181606664206C20F0020040F00100C4
:100F1000206462E70100000F0023014000E0FFFFB2
:100F20000000F0FF30B587B00024009401940294D3
:100F3000039404940068A0F18041B1F590311CBF86
:100F400007B030BD1548016841F480710160006848
:100F500000F4807005901248016841F004010160BE
:100F6000016801F004010591016841F0010101608F
:100F70000068032500F0010005900620CDE900057A
:100F80006946084800F0F2F8C020CDE9000569463E
:100F90000294054800F0EAF807B030BD443802403A
:100FA0003038024000080240000002402DE9F041C4
:100FB000044600680D4681684FF0000711F4806F09
:100FC0001CBF806810F4807F08D0206C40F02000A7
:100FD000206484F83C700120BDE8F08100F0FAF94B
:100FE00006462068006810F0020F16D1B5F1FF3FE9
:100FF0000ED025B100F0EEF9801BA84208D9206C74
:1010000040F00400206484F83C700320BDE8F081C7
:101010002068006810F0020FE8D021686FF012001D
:101020000860206C40F4007020642068816811F032
:10103000405F04BF217E002913D1C16A11F4700FF3
:101040001CBF806810F4806F0BD1206C20F480707E
:101050002064206C10F4805F03D1206C40F001000C
:1010600020644FF00000BDE8F081000081B0002254
:10107000009290F83C10012902BF022001B0704795
:10108000012180F83C1001688B6813F0010F0FD12B
:101090008B6843F001038B602F49304B0968B1FB2B
:1010A000F3F111EB4101009102D0491E0091FCD1F6
:1010B00001688B6813F0010F4BD0036C23F0010320
:1010C00023F4C06343F4807303644B6813F4806FAC
:1010D00005D0036C23F4005343F480530364036C82
:1010E00013F4805F08BF426403D0436C23F006030F
:1010F000436480F83C201A4A6FF022030B60516869
:10110000006811F01F0F174906D0884204BF81689C
:1011100011F0405F19D01CE0884212D0124A904270
:1011200004BFD1F8042312F01F0F0AD0A0F18042AF
:10113000B2F591320DD1D1F8041301F01F0110293D
:1011400007D2816811F0405F03D1816841F080418E
:101150008160002001B070474000002040420F0035
:101160000023014000200140002101402DE9F84FFB
:10117000002203248D4E8E4F0F25012303FA02F81F
:101180000B6803EA0803434540F00981D1F804C025
:10119000BCF1010F18BFBCF1020F05D0BCF1110F5B
:1011A00018BFBCF1120F1DD1D0F808904FEA420CC5
:1011B00004FA0CFA29EA0A09D1F80CA00AFA0CFC84
:1011C0004CEA090CC0F808C0D0F804C02CEA080C9E
:1011D00091F80480C8F3001808FA02F848EA0C0CE9
:1011E000C0F804C0D0F80C804FEA420CD1F808A037
:1011F00004FA0CF928EA09080AFA0CFA4AEA08087B
:10120000C0F80C80D1F80480B8F1020F18BFB8F113
:10121000120F15D14FEAD20800EB880ADAF820B095
:101220004FEA42784FEAD86805FA08FE2BEA0E0B1F
:10123000D1F810E00EFA08F848EA0B08CAF8208046
:10124000D0F8008028EA090891F8049009F0030911
:1012500009FA0CFC4CEA080CC0F800C0D1F804C034
:101260001CF0805F7ED0D6F800C04CF4804CC6F8ED
:1012700000C0D6F800C00CF4804CCDF800C022F0BD
:10128000030C0CF1804909F59839D9F808C84FEAE0
:1012900082784FEA187805FA08FA2CEA0A0AA0F1CF
:1012A000804CBCF5003C38D0A0F1804CBCF5013C32
:1012B00008BF4FF0010C30D0A0F1804CBCF5023CCF
:1012C00008BF4FF0020C28D0A0F1804CBCF5033CC5
:1012D00008BF4FF0030C20D0A0F1804CBCF5043CBB
:1012E00008BF4FF0040C18D0A0F1804CBCF5053CB1
:1012F00008BF4FF0050C10D0A0F1804CBCF5063CA7
:1013000008BF4FF0060C08D0A0F1804CBCF5073C9C
:101310000CBF4FF0070C4FF0080C0CFA08FC4CEA1D
:101320000A0CC9F808C8D7F800C0D1F804802CEA24
:10133000030C18F4803F18BF4CEA030CC7F800C038
:10134000DFF87080D8F800C0D1F804902CEA030CC4
:1013500019F4003F18BF4CEA030CC8F800C0DFF8CE
:10136000588000E01BE0D8F800C0D1F804902CEAC7
:10137000030C19F4801F18BF4CEA030CC8F800C016
:10138000DFF83880D8F800C0D1F804902CEA030CBC
:1013900019F4001F18BF4CEA030CC8F800C0521C17
:1013A000102AFFF4EAAEBDE8F88F0000443802408E
:1013B000003C0140043C0140083C01400C3C014021
:1013C0000069084018BF01207047002A08BF0904BF
:1013D0008161704701488068704700003400002038
:1013E000002804BF0120704770B504464CF6CC407D
:1013F00021680860216845F255500860D4E9000171
:1014000041602168A0688860FFF7E4FF0546206816
:10141000C06850B1FFF7DEFF401B302801D9032020
:1014200070BD2068C0680028F4D121684AF6AA205F
:101430000860002070BD00000248816802781144F5
:1014400081607047340000200B4810B5016841F4FA
:1014500000710160016841F480610160016841F43C
:1014600080710160032000F079F80F2000F006F889
:1014700000F024F8002010BD003C024070B50D4D76
:1014800004464FF47A712878B1FBF0F00A490968F4
:10149000B1FBF0F000F060FB48B9102C07D200223D
:1014A0002146501E00F028F800206C6070BD01201D
:1014B00070BD000034000020400000200C4882B0C5
:1014C000016841F480410160006800F480400090B0
:1014D0000848016841F0805101600068002200F076
:1014E000805000900F21901E02B000F005B800005F
:1014F0004438024040380240174B10B41B68C3F315
:101500000223C3F1070CBCF1040F88BF4FF0040C99
:101510001C1D072C34BF0023DB1E012404FA0CFC25
:10152000ACF1010C0CEA0101994004FA03F35B1ED3
:101530001A40114300284FEA0111A1BF00F1E02039
:1015400080F8001410BC704700F00F0000F1E0209C
:1015500080F8141D10BC70470CED00E0074A00F045
:10156000070011684FF6FF03194041EA002040F0E0
:10157000FD7040F080601060704700000CED00E0EE
:10158000002804BF012070472DE9F047DFF83C91A7
:1015900004460D46D9F80000CFB200F00F00A84273
:1015A00007D289F80070D9F8000000F00F00A842B7
:1015B00063D12068464E10F0020F14D010F0040FD3
:1015C00003D0306840F4E0503060207810F0080F0D
:1015D00003D0306840F4604030603068A16820F08B
:1015E000F00008433060207810F0010F37D06068B9
:1015F0003849012823D0022818BF0328096823D0BE
:1016000011F0020F39D0316821F0030141EA0000E6
:101610003060FFF7DFFE80463068616800F00C0044
:10162000B0EB810F18BF41F2883A18D0FFF7D2FE15
:10163000A0EB080050450BD90320BDE8F0870968EE
:1016400011F4003FDFD118E011F0007FDBD114E08E
:101650003068616800F00C00B0EB810FE6D1D9F87A
:10166000000000F00F00A8420AD989F80070D9F8EC
:10167000000000F00F00A84202D00120BDE8F08772
:10168000207810F0040F05D03068E16820F4E050B5
:1016900008433060207810F0080F06D030682169C8
:1016A00020F4604040EAC100306000F01BF831686F
:1016B000094AC1F30311515CC84008490860084851
:1016C0000068FFF7DBFE0020BDE8F087003C024029
:1016D000083802400038024038DF06084000002089
:1016E000380000201848006810F00C01174808BFA7
:1016F0007047174B042904BF18467047082918BFC4
:10170000704710B5134C216801F03F02216811F4B5
:10171000800F08D02068C0F38810A0FB03010023CD
:10172000FEF7AEFD07E021680023C1F38811A1FB9D
:101730000001FEF7A5FD2168C1F30141491C4900E4
:10174000B0FBF1F010BD0000083802400024F400A6
:1017500000127A0004380240002804BF01207047BC
:101760002DE9F84F04460078DFF8C88310F0010F28
:10177000A8F1040558D008F10400016801F00C013B
:10178000042909D0006800F00C0008280DD1D8F811
:10179000000010F4800F08D0286810F4003F43D0F8
:1017A0006068002800F0C0813EE06068B0F5803FCE
:1017B00019D0B0F5A02F28680CBF40F4802020F489
:1017C0008030286028680CBF40F4803020F48020EE
:1017D00028606068B8B1FFF7FDFD0646286810F480
:1017E000003F05D020E0286840F480302860F0E712
:1017F000FFF7F0FD801B642800F23781286810F4A1
:10180000003FF5D010E0FFF7E5FD0646286810F42C
:10181000003F09D0FFF7DEFD801B642800F2258120
:10182000286810F4003FF5D12078C34F10F0020F64
:101830004FF0000947D0C148016811F00C0F16D0D5
:10184000006800F00C00082804BFD8F8000010F46D
:10185000800F0CD0E06820B34FF001003860FFF734
:10186000B9FD0646286810F0020F09D011E028687B
:1018700010F0020F1CBFE06801280AD000F054B934
:10188000FFF7A8FD801B02287ED8286810F0020F01
:10189000F6D02868216920F0F80040EAC1002860ED
:1018A00011E0C7F80090FFF795FD0646286810F094
:1018B000020F08D0FFF78EFD801B022864D828682D
:1018C00010F0020FF6D1207810F0080F2AD09C48B3
:1018D0009C4E616999B101210160FFF77BFD824651
:1018E000306810F0020F1DD1FFF774FDA0EB0A0065
:1018F000022849D8306810F0020FF5D012E0C0F885
:101900000090FFF767FD8246306810F0020F09D0A3
:10191000FFF760FDA0EB0A00022835D8306810F010
:10192000020FF5D1207810F0040F7CD086480026F5
:10193000006810F0805F09D18348016841F0805150
:1019400001600068012600F080500090DFF8FCB1D3
:10195000DBF8000010F4807F1AD1DBF8000040F4BF
:101960008070CBF80000FFF735FD8246DBF8000001
:1019700010F4807F0CD1FFF72DFDA0EB0A000228A8
:1019800073D8DBF8000000E06FE010F4807FF2D045
:10199000A068DFF8BCB101281DD00528DBF80000E5
:1019A0000CBF40F0040020F00100CBF80000DBF891
:1019B00000000CBF40F0010020F00400CBF8000054
:1019C000A068E8B1FFF706FD8246DBF8000010F0E2
:1019D000020F07D02BE0DBF8000040F00100CBF84D
:1019E0000000EDE7FFF7F6FCA0EB0A0141F28830BA
:1019F00081423AD8DBF8000010F0020FF2D016E076
:101A0000FFF7E8FC8246DBF8000010F0020F0ED072
:101A1000FFF7E0FCA0EB0A0141F28830814224D8B4
:101A2000DBF8000000E008E010F0020FF0D126B172
:101A30004548016821F080510160A069E8B33F4941
:101A4000096801F00C0108294ED00228C7F86090FF
:101A50000ED0FFF7BFFC0446286810F0007F66D068
:101A6000FFF7B8FC001B022839D90320BDE8F88F26
:101A7000FFF7B0FC0646286810F0007F08D0FFF79B
:101A8000A9FC801B0228F0D8286810F0007FF6D14E
:101A9000D4E907010843A16A2E4A490802EB014133
:101AA000626A41EA8211084394F82C1040EA01600E
:101AB000C8F800000120386600E038E0FFF78AFC33
:101AC0000446286810F0007F31D1FFF783FC001B2B
:101AD0000228CAD8286810F0007FF6D027E02868CE
:101AE00010F0007FBCD122E0012808BFBDE8F88FCC
:101AF000D8F80000E26900F48001914214D1226A12
:101B000000F03F0191420FD147F6C071626A014077
:101B1000914209D1A26A00F44031914204D1E16AB4
:101B200000F07060884202D00120BDE8F88F0020EC
:101B3000BDE8F88F043802400000474208380240F0
:101B4000800E474274380240403802400070004026
:101B5000703802400000FFFF401EB0F1807F24BFBC
:101B6000012070474FF0E0214861054AF02082F8DB
:101B7000140D0020886107200861002070470000D4
:101B80000FE000E02DE9F041044690F83C000D46DE
:101B9000012804BF0220BDE8F081012684F83C60E2
:101BA000022084F83D004AB1042A19D0554FDFF8CD
:101BB00058C1082A28D00C2A69D09BE0206801F07F
:101BC00093FA2068816941F0080181612068816988
:101BD00021F004018161206881692A69114311E0C3
:101BE000206801F0B9FA2068816941F400618161DF
:101BF0002068816921F480618161206881692A6996
:101C000041EA0221816175E02068016A21F4807156
:101C10000162016A4268C369D5F8008023F073034A
:101C200048EA0303D5F8088021F4007141EA08214D
:101C3000B84218BF604507D1D5F80C8021F4006187
:101C400041EA082121F48061B84218BF604509D1FA
:101C5000D5F814C022F4405242EA0C12D5F818C04C
:101C600042EA0C124260C3616A68C2630162206882
:101C7000C16941F00801C1612068C16921F0040116
:101C8000C1612068C1692A6941EA020131E0206826
:101C9000016A21F480510162036A4168C269D5F882
:101CA000008022F4E64242EA0822D5F8088023F4B4
:101CB000005343EA0833B84218BF604505D1D5F850
:101CC00014C021F4804141EA8C114160C26169680D
:101CD000016403622068C16941F40061C161206848
:101CE000C16921F48061C1612068C1692A6941EA42
:101CF0000221C16184F83D604FF0000084F83C008F
:101D0000BDE8F0810000014000040140002804BF4C
:101D10000120704710B5044690F83D0028B9002016
:101D200084F83C00204600F00CF8022084F83D00C6
:101D3000211D206801F062F9012084F83D00002097
:101D400010BD704710B504460068012201F0BCF9CF
:101D50002168A1F18040B0F580301CBFA1F1804026
:101D6000B0F5823003D1486C40F4004048642068EC
:101D7000816801F00701062903D0016841F00101E3
:101D80000160002010BD2DE9F843044690F83900A9
:101D90001E4690460D46202857D1002D12BFB8F19F
:101DA000000F0120BDE8F88394F8380001284CD0DA
:101DB000012084F838004FF00009C4F83C9021203D
:101DC00084F83900FFF706FBA4F824800746A4F83E
:101DD000268084F83890E08C30B3E08C401EE0849C
:101DE000A0683B46B0F5805F4FF000024FF08001E5
:101DF0002046009603D001F0F3F970B11CE001F029
:101E0000EFF9C8B928882168C0F308004860206944
:101E1000002814BF6D1CAD1C03E0216815F8010BF0
:101E20004860E08C0028D8D13B4600224021204663
:101E3000009601F0D5F910B10320BDE8F883202009
:101E400084F839000020BDE8F8830220BDE8F8835B
:101E5000FEE70000114810B5016886B041F00201AC
:101E6000016000680E4C00F002000590C020009058
:101E70000120019002900220039069462046FFF75E
:101E800075F9012280212046FFF79FFA01224021A7
:101E90002046FFF79AFA06B010BD00003038024025
:101EA000000402402DE9F04385B000248027CDE9ED
:101EB0000074374E8046694630460294FFF756F963
:101EC0000025002240213046FFF77FFA01F0E8FEAE
:101ED000012240213046FFF778FA6006040E802187
:101EE0003046FFF76DFA00281CBF601CC4B201F039
:101EF000D2FE681CC5B2082DE3D301254FF00209BC
:101F0000B8F1000F4FF000024FF04001304620D0F2
:101F1000FFF75BFACDE90075CDE902596946304615
:101F2000FFF724F9002280213046FFF74EFA01F036
:101F3000B7FE012240213046FFF747FA01F0B0FE1C
:101F4000002240213046FFF740FA05B02046BDE8A8
:101F5000F083FFF73AFACDE90075CDE902596946F9
:101F60003046FFF703F9012280213046FFF72DFAB2
:101F700001F096FE012240213046FFF726FA01F0DB
:101F80008FFE002240213046FFF71FFADDE70000F8
:101F90000004024070B586B0054680200090012004
:101FA0000221CDE90201194E019069463046FFF742
:101FB000DDF8002240213046FFF707FA002415F033
:101FC000800F05D0012280213046FFF7FEF904E0A2
:101FD000002280213046FFF7F8F96806050E01F06F
:101FE0005FFE012240213046FFF7EFF901F058FE75
:101FF000002240213046FFF7E8F901F051FE601C55
:10200000C4B2082CDBD306B070BD0000000402404F
:1020100010B586B08020009001200221CDE9020198
:10202000144C019069462046FFF7A0F80122802158
:102030002046FFF7CAF9012240212046FFF7C5F9E3
:1020400001F02EFE01F02CFE002280212046FFF739
:10205000BCF901F025FE01F023FE002240212046BC
:10206000FFF7B3F901F01CFE06B0BDE8104001F027
:1020700017BE00000004024010B586B0802000901A
:1020800001200221CDE90201124C0190694620464F
:10209000FFF76CF8002240212046FFF796F9002256
:1020A00080212046FFF791F901F0FAFD01F0F8FDDB
:1020B000012240212046FFF788F901228021204695
:1020C000FFF783F901F0ECFD06B0BDE8104001F028
:1020D000E7BD00000004024070B586B000248025F2
:1020E000CDE900542A4E694630460294FFF73EF887
:1020F000012280213046FFF768F901F0CCFD012272
:1021000040213046FFF761F901F0C5FD80213046DE
:10211000FFF756F9002832D0601CC4B2FA2C28D937
:1021200001200221CDE90050CDE902016946304687
:10213000FFF71CF8002240213046FFF746F9002245
:1021400080213046FFF741F901F0AAFD01F0A8FD1A
:10215000012240213046FFF738F901228021304624
:10216000FFF733F901F09CFD01F09AFD06B0012064
:1021700070BD80213046FFF723F90028CCD1002222
:1021800040213046FFF721F906B0002070BD000065
:10219000000402402DE9F041354F364E364D002403
:1021A0004FF4007800224FF470713846FFF70DF9B4
:1021B00028FA04F101223846FFF707F94FF480614D
:1021C0003046FFF7FDF8002815F8240014BF40F052
:1021D000010020F0010005F824004FF400713046A2
:1021E000FFF7EEF805EB84010028087C14BF40F0EF
:1021F000010020F0010008744FF480713046FFF7B1
:10220000DFF800281FBF05EB840191F8200040F0A3
:10221000010081F8200001BF05EB840090F8201038
:1022200021F0010180F82010601CC4B2042CB9D345
:1022300008213046FFF7C4F8002895F8300014BF95
:1022400020F0010040F0010085F830004FF40061FB
:102250003046FFF7B5F8002895F8340014BF20F099
:10226000010040F0010085F83400BDE8F081000075
:102270000008024000000240CC4A00200020064A2C
:10228000014612F8213013F0020F18BF0120491C3B
:10229000C9B20D29F5D97047CC4A002010B500F01D
:1022A00053F80020DFF824C003460CEB80014B708C
:1022B0008B701CF8202022F03E020CF82020401CDD
:1022C000C0B2CB700D28F0D910BD0000CC4A002060
:1022D000044A0146002012F8211011F0100F18BF17
:1022E00001207047CC4A0020064B002213F8201032
:1022F00011F0040F04D021F0060103F82010012290
:1023000010467047CC4A0020064B002213F82010DC
:1023100011F0200F04D021F0220103F82010012237
:1023200010467047CC4A0020064B002213F82010BC
:1023300011F0080F04D021F00A0103F82010012247
:1023400010467047CC4A002070B586B04FF47070CC
:10235000009001200024124D0190029003940494F7
:1023600069462846FEF702FF00224FF470712846A6
:10237000FFF72BF84FF4E060CDE90004094E022589
:10238000694602953046FEF7F1FE40F60801CDE9B8
:102390000014029569463046FEF7E8FE06B070BDAF
:1023A000000802400000024010B5FFF7F3FE0024D1
:1023B000204600F005F8601CC4B20D2CF8D910BD01
:1023C00030B42A4C4FF0000C04EB8001CA78012A8B
:1023D0000ED00125022A1EBFCD7030BC70478A780E
:1023E000C82A28D2521CD2B28A70C82A23D11CE033
:1023F00014F8202012F0010F13D04B785B1CDBB2D5
:102400004B70022B9CBF30BC704742F0160204F8A0
:10241000202081F802C081F801C00220C87030BCC1
:10242000704781F801C030BC704714F8202042F09A
:10243000220204F8202014F8202012F0010FF0D11D
:102440004B785B1CDBB24B70022B9CBF30BC7047DF
:1024500022F0100242F00A0204F8202081F802C0A3
:1024600081F801C0CD7030BC70470000CC4A00201C
:1024700070B506460021EF2340F23F12084600F0F7
:10248000ABF92C2000F0E0FF00250024304600F0DE
:10249000CFFA304600F0CCFA304600F0C9FA3046A8
:1024A00000F0C6FA304600F0C3FA304600F0C0FA39
:1024B000304600F0BDFA304600F0BAFA304600F07F
:1024C000B7FA304600F0B4FA641C202CDED36D1C41
:1024D000F02DDAD370BD00002DE9F04186B0012661
:1024E0001020CDE900060225B84FCDE90265002491
:1024F00069463846FEF73AFE2021009100210395F7
:10250000CDE9011669463846FEF730FE68020090B4
:10251000CDE90165AE4F694638460395FEF726FEC4
:102520000096CDE90165694638460395FEF71EFE23
:1025300080200090CDE90165DFF898826946404629
:102540000395FEF713FE04200090CDE9016569466E
:1025500038460395FEF70AFECDE900560295694616
:1025600038460395FEF702FE4FF47F40CDE90006A2
:10257000CDE9026569464046FEF7F8FD01221146A5
:102580003846FEF722FF01F07BFB0022012138468E
:10259000FEF71BFF01F074FB012211463846FEF7DF
:1025A00014FF01F06DFBCF2000F04EFF002000F083
:1025B00083FFC12000F080FF302000F07DFFED2080
:1025C00000F042FF642000F077FF032000F074FF6A
:1025D000122000F071FF812000F06EFFCB2000F090
:1025E00033FF392000F068FF2C2000F065FF002049
:1025F00000F062FF342000F05FFF022000F05CFF7B
:10260000F72000F021FF202000F056FFEA2000F024
:102610001BFF002000F050FF002000F04DFF36208F
:1026200000F012FFB82000F047FFB62000F00CFFCA
:102630000A2000F041FFA22000F03EFFC02000F081
:1026400003FF212000F038FFC12000F0FDFE112023
:1026500000F032FFC52000F0F7FE352000F02CFF1F
:10266000322000F029FFC72000F0EEFEB22000F07B
:1026700023FFF22000F0E8FE002000F01DFFF6200E
:1026800000F0E2FE012000F017FF312000F014FFFF
:10269000002000F011FF3A2000F0D6FE652000F087
:1026A0000BFFB12000F0D0FE002000F005FF192044
:1026B00000F002FFE82000F0C7FE852000F0FCFEDD
:1026C000102000F0F9FE7A2000F0F6FEB42000F0B1
:1026D000BBFE002000F0F0FE352000F0B5FE00202B
:1026E00000F0EAFEE02000F0AFFE002000F0E4FE83
:1026F000212000F0E1FE1E2000F0DEFE0B2000F0A5
:10270000DBFE0E2000F0D8FE092000F0D5FE4A20A6
:1027100000F0D2FEC52000F0CFFE3A2000F0CCFE43
:10272000092000F0C9FE0B2000F0C6FE042000F0D6
:10273000C3FE162000F0C0FE172000F0BDFE0020F2
:1027400000F0BAFEE12000F07FFE0F2000F0B4FEA2
:102750001E2000F0B1FE212000F0AEFE042000F0AB
:10276000ABFE112000F0A8FE072000F0A5FE3520EA
:1027700000F0A2FE762000F09FFE452000F09CFEB7
:10278000062000F099FE142000F096FE0B2000F0C9
:1027900093FE272000F090FE382000F08DFE0F20E1
:1027A00000F08AFE112000F04FFE01F069FA601C73
:1027B000C4B2192CF9D3292000F046FE01F060FACA
:1027C0002C2000F041FE06B0BDE8F0810008024078
:1027D00000040240001002402DE9F04107461C466B
:1027E00015460E462A2000F02FFE380A00F064FE3F
:1027F000F8B200F061FE280A00F05EFEE8B200F0D8
:102800005BFE2B2000F020FE300A00F055FEF0B2F7
:1028100000F052FE200A00F04FFEE0B2BDE8F041A9
:1028200000F04ABE02462848284B092A28BF7047B4
:10283000DFE802F04905101B2631373D430001292E
:1028400003D001221102FEF7C0BD00224FF48071B7
:10285000FEF7BBBD012903D001225102FEF7B5BD31
:1028600000224FF40071FEF7B0BD012903D0012210
:102870009102FEF7AABD00224FF48061FEF7A5BDCC
:10288000012903D00122D102FEF79FBD00224FF49F
:102890000061FEF79ABD00224FF400411846FEF792
:1028A00094BD00224FF480411846FEF78EBD0022F1
:1028B0004FF400511846FEF788BD00224FF48051B6
:1028C0001846FEF782BD7047000C0240000402402B
:1028D00010B5264C002832D0012819D0022818BF84
:1028E00010BD012251032046FEF76FFD01221103A6
:1028F0002046FEF76AFD012291032046FEF765FDA2
:102900002046BDE8104000224FF48041FEF75DBD37
:10291000012211032046FEF758FD012291032046B3
:10292000FEF753FD012251032046FEF74EFD2046DF
:10293000BDE8104000224FF40051FEF746BD0122D1
:1029400091032046FEF741FD012251032046FEF788
:102950003CFD012211032046FEF737FD2046BDE86D
:10296000104000224FF48051FEF72FBD000C0240B2
:1029700070B52D4D2D4C60B30022A1152846FEF7F1
:1029800024FD002261152846FEF71FFD00222115B7
:102990002846FEF71AFD0022E1142846FEF715FD31
:1029A00000224FF400412046FEF70FFD00224FF4B5
:1029B00080412046FEF709FD00224FF400512046D9
:1029C000FEF703FD0022A1142046BDE87040FEF78B
:1029D000FCBC012211022846FEF7F7FC012251023D
:1029E0002846FEF7F2FC012291022846FEF7EDFC94
:1029F0000122D1022846FEF7E8FC0122D10320463D
:102A0000FEF7E3FC012291032046FEF7DEFC0122E3
:102A100051032046FEF7D9FC2046BDE87040012254
:102A20001103FEF7D2BC0000000C0240000402407B
:102A30002DE9F0410446C0F3072004F0BFFD054630
:102A4000E0B204F0BBFD1E4F064600224FF4806149
:102A50003846FEF7BAFC1B4C012280212046FEF7C7
:102A6000B4FC012202213846FEF7AFFC6069C0B217
:102A70006061606940EA05206061002204213846F7
:102A8000FEF7A3FC012204213846FEF79EFC606994
:102A9000C0B26061606940EA0620606100220421E2
:102AA0003846FEF792FC012204213846FEF78DFCE1
:102AB0003846BDE8F04101229102FEF786BC0000D5
:102AC00000040240001002404AF6AA24044D00F01F
:102AD000C3FB286804600A2003F046FEF7E7000005
:102AE000EC0100202DE9F04F83B0002541F2A20057
:102AF000FFF7BEFC45F6AA24A323A022D9216A2011
:102B0000009402F09BFFF0234F226D216A20009475
:102B100002F094FFF0234F22D921D620009402F036
:102B20008DFFDFF814B30F2001909BF80B0003F02A
:102B300073F9C2492E4601EBC001C148DFF80CC34E
:102B4000DFF80CA300784FF020084FF03009085C44
:102B5000BC4931F810009BF808104843BA49A1FB62
:102B60000010C0F34F1042F21071B0FBF1F161F3AD
:102B700007064FF47A71B0FBF1F1ACFB0132D208D9
:102B8000524202EB820201EB42014AF2D73202FBCF
:102B900000224FEA9252ACFB02434FEAD303C3F147
:102BA000000303EB830302EB43024CF6CD4300FB2F
:102BB00003F34FEAD343ACFB03744FEAD404C4F1EC
:102BC000000411F0FF0104EB840461F30F26D2B27C
:102BD00003EB440362F3174663F31F66ACFB00C3C9
:102BE0004FEAD303C3F1000303EB830300EB43007D
:102BF000984F60F307054FF0100007F51B547DD088
:102C0000C1EB411107EB411100911F231021019AE3
:102C100003F002FFC6F30740C0EB401007EB40167D
:102C200040461F2300961021019A03F0F5FE484606
:102C30001F2300961021019A03F0EEFE402020236E
:102C400000941021019A03F0E7FEC5EB451007EB55
:102C50004010009047201F231021019A03F0DCFE52
:102C600024230F2272217120CDF800A003F0D4FE9E
:102C70007949009172201F236E22102103F0CCFEAF
:102C8000822020236E221021009403F0C5FE734899
:102C9000009089201F236E22102103F0BDFE704892
:102CA000009025236E222E21A22003F0B5FE6D494F
:102CB00000917C202023BE22102103F0ADFE8C2049
:102CC0002023BE221021009703F0A6FE664824238D
:102CD0000090BE221946A52003F09EFE9BF80B0033
:102CE00041F2A20410F0010F48D060480090322356
:102CF000642217210A2003F08FFE00E00FE05A2221
:102D00009A2311463720009402F098FE584800900C
:102D10002D235A222321372003F07EFE45E0C2EB0B
:102D2000421107EB411100911F231021019A03F07A
:102D300073FE300EC0EB401007EB40100090404691
:102D40001F231021019A03F067FE484620230094B8
:102D50001021019A03F060FEC5EB451007EB40100F
:102D6000009037201F231021019A03F055FE2423E1
:102D70000F2272216120CDF800A077E7962364220C
:102D800021210A20009402F059FE3A4800901E23A7
:102D9000642217210A2003F03FFE374800904023A9
:102DA0005A222321372003F037FE9BF80B0010F046
:102DB000020F17D0314800903823AA22252137204E
:102DC00003F02AFEE223AA2226210520009402F025
:102DD00035FE2B4800902523AA222121052003F04F
:102DE0001BFE16E0E223AA225C213720009402F0A9
:102DF00025FE244825230090AA221946372003F0F7
:102E00000BFE214800903823AA222121052003F03F
:102E100003FE1E48807B01F09DFA01F073F900204B
:102E2000FFF7A6FD0648007803B0401CBDE8F04F50
:102E3000C0B20121FFF7F6BC740100200801002098
:102E40002800002072DE06081F85EB51CDCCCCCCCB
:102E5000188602087C8E00083C960008DCA1000859
:102E600028A60208BCA5000874B302088E38020820
:102E7000EE4602088A41020854C90208EE5D0208C3
:102E80001E6E02083C530208A877020800000020CA
:102E9000FEE77047F0B587B00620009002200121C0
:102EA000CDE90101CDE90301002669462048FEF77E
:102EB0005DF92048016841F00101016000684FF0B0
:102EC000804100F0010005901B48016041F2A551CE
:102ED0004660C0E903168660FEF718FF174D042010
:102EE0000024686008206E632E616027A86204EBEE
:102EF000C40025F8206005EB800000F10801468041
:102F0000C0E90276866142680B48FEF73BFE641C0E
:102F1000022CECDB002404EBC40005EB80004168CC
:102F20000548FEF70FFF641C022CF4DB07B0F0BD70
:102F300000000240403802404C4B0020044B00206F
:102F400010B5FEF779FA05F05FFD012808BF10BD46
:102F5000BDE8104005F020BA30B593B000240294CB
:102F60001D48019407940C940D940E940F941094A2
:102F7000016841F080510160006800F080501190BC
:102F80001648016841F4804101600068102100F496
:102F9000804011900A2000900120CDE90301022514
:102FA000CDE9050508200890A820CDE909050420F1
:102FB0000B906846FEF7D0FB0F20CDE90C054FF4CF
:102FC000A050CDE90E40E802109005210CA8FEF7B4
:102FD000D7FA13B030BD0000403802400070004006
:102FE0000448016841F47001016003494FF000603A
:102FF0000860704788ED00E008ED00E0F0B402687A
:103000002C4B2D4C2D4D2E4EDFF8B8C0984218BFDA
:10301000B0F1804F07D0A04218BFA84203D0B04201
:1030200018BF604504D14F6822F0700247EA0202DF
:10303000984218BFB0F1804F25D0A04218BFA842D7
:1030400021D0B04218BF60451DD0A0F18044B4F536
:10305000A0341CBFA0F18044B4F5A23413D0A0F179
:103060008044B4F5A4341CBFA0F18044B4F5C0542E
:1030700009D0A0F18044B4F5E0541CBFA0F1804415
:10308000B4F5005403D1CC6822F4407222434C6959
:1030900022F08002224302608A68C2620A68826269
:1030A000984212BF6045096901634FF00101416117
:1030B000F0BC7047000001400004004000080040E0
:1030C000000C00400004014001F01F010123D0F872
:1030D00020C08B402CEA03030362036A02FA01F169
:1030E000194301627047000070B4026A22F00102C5
:1030F0000262036A4268D0F818C00C682CF0730CA6
:1031000044EA0C0C8C6823F002032343104C114D4D
:10311000A04218BFA84206D1CE6823F0080346EAB1
:10312000030323F00403A04218BFA84207D14C694F
:1031300022F4407244EA02028C6944EA02024260CC
:10314000C0F818C049684163036270BC7047000052
:10315000000001400004014070B4026A22F0100235
:103160000262036A4268D0F818C00C682CF4E64C7E
:103170004CEA042C8C6823F0200343EA0413104C1F
:10318000104DA04218BFA84206D1CE6823F080039C
:1031900043EA061323F04003A04218BFA84207D118
:1031A0004C6922F4406242EA84028C6942EA840259
:1031B0004260C0F818C049688163036270BC704700
:1031C000000001400004014010B504F091F900280E
:1031D00008BF10BDD0E90012BDE8104010460847F6
:1031E0002DE9F04104460068069D1E46006817461A
:1031F000884631EA00000CBF01200020B84226D1E9
:10320000B5F1FF3F1AD025B1FEF7E4F8801BA842C4
:1032100014D92068C16821F4D071C1602068416967
:1032200021F001014161202084F8390084F83A003E
:10323000002084F838000320BDE8F0812068006891
:1032400038EA00000CBF01200020B842D8D000208E
:10325000BDE8F081FEE700002DE9F041FFF70EF830
:10326000754F764D002640B304F048FE7448417A0D
:103270004FF47A7011FB00F0386004F05FFE002418
:103280002046FFF731F818B100212046FDF7AAFBD0
:103290002046FFF749F818B101212046FDF7A2FBAF
:1032A0002046FFF731F818B103212046FDF79AFBBD
:1032B000601CC4B20D2CE3D933E004F01FFE6C8B0C
:1032C00004F03CFE002C02BFE87D0628342027D005
:1032D0003868002802BFE87D0028302020D004F0A4
:1032E0000DFEAC8B04F02AFE002C02BFE87D0728FF
:1032F000352015D004F03EFDE87403210620FDF7CB
:1033000069FC044603210720FDF764FC6A7A012169
:1033100082B34FF0020C012A30D0022A36D03BE0B3
:10332000E87348484FF01402007810F0010F08D0FD
:10333000A978002903BF0A21E973AA70491E18BFA2
:10334000A97010F0020F08D0A878002803BF0D2044
:10335000E873AA70401E18BFA870E87D0B2828BF2C
:10336000BDE8F081DFE800F0242830343844484CD0
:10337000502C5400B4F5506F0ED20CE040F6496367
:10338000984206D2B4F5506F06D204E0B4F5506FFF
:1033900001D3614600E031462975AB7BE87C83426E
:1033A00008BF9142BDD0A87369724FF03300B7E7F0
:1033B000BDE8F04102F058BDBDE8F04102F094BB19
:1033C000BDE8F04100F072BCBDE8F04103F0AABBDB
:1033D000BDE8F04104F066BAE87B312828D100202E
:1033E000E875AE75FFF77EFB0120FFF771FA1FE06D
:1033F000BDE8F04100F0FCBCBDE8F04104F05ABB70
:10340000BDE8F04100F09CB8BDE8F04100F0CEB856
:10341000E87B082802D0312803D009E0FDF750F9F5
:1034200006E00520E8750320A8750120FFF750FA93
:10343000EE73BDE8F0810000BC0000200000002019
:10344000740100201500002070B5C0B204F0B6F879
:10345000174E054600224FF480613046FDF7B5FF58
:10346000144C002280212046FDF7AFFF01220221EB
:103470003046FDF7AAFF6069C0B26061606940EA4A
:1034800005206061002204213046FDF79EFF0122E5
:1034900004213046FDF799FF012280212046FDF7E7
:1034A00094FF3046BDE8704001229102FDF78DBFC8
:1034B000000402400010024070B5C0B204F07EF873
:1034C000154E054600224FF480613046FDF77DFF22
:1034D000124C012280212046FDF777FF01220221B4
:1034E0003046FDF772FF6069C0B26061606940EA12
:1034F00005206061002204213046FDF766FF0122AD
:1035000004213046FDF761FF3046BDE870400122DE
:103510009102FDF75ABF0000000402400010024073
:1035200002E008C8121F08C1002AFAD1704770478C
:10353000002001E001C1121F002AFBD170470000EA
:1035400038B5184C0025607A28B1FFF7CBFA002077
:10355000E075A57524E0E07B1B2804BF0220E07520
:103560001ED035281CD14FF6FF70FEF781FF0E48A4
:1035700000901D235222BB21432003F04DFA40F658
:10358000B83003F0F1F803F013FA04F0B7FC0620AA
:1035900002F076FA04F0D2FC04F074FA0120A07470
:1035A000E57338BD00000020B8CE01082DE9F04FCA
:1035B000FE4E85B03046F37B427C312B19D0FD4D59
:1035C000418CFB4FC08B4FF47A7C4FF060084FF07A
:1035D00070094FF0800A4FF0D00B05F51B540A2BF1
:1035E00017D00D2B00F07181232B00F0D58200F055
:1035F000DFBAB07D002804BF0020F07500F0D8824B
:10360000002A0CBF01200020707401F0ABFA00F01A
:10361000CFBA002A7DD0401D80B2F0835021B0FB8C
:10362000FCF201914AF2D73101FB0011890DA7FB91
:1036300001C3DB085B4203EB830301EB430189B267
:1036400004914CF6CD414143C90CA7FB01C3DB08F3
:103650005B4203EB830301EB430189B20391A7FBB8
:103660000031C908494201EB810100EB410080B201
:103670000290C2EB421005EB401000901F23822203
:103680001021019803F0C8F904991F23C1EB4110E0
:1036900005EB4010009040468222102103F0BCF957
:1036A00003991F23C1EB411005EB401000904846E1
:1036B0008222102103F0B0F902981F23C0EB4010C2
:1036C00005EB4010009050468222102103F0A4F92F
:1036D000F18B4FF47A70414341F2A550B1FBF0F009
:1036E00080B24AF2D73101FB00118A0D4CF6CD4170
:1036F0004143C90CA7FB01C3DB085B4203EB830317
:1037000001EB43011FFA81F8A7FB0031C9084942C8
:1037100000E02EE001EB810100EB410087B2C2EB3B
:10372000421005EB4010009058461F2382221021C2
:1037300003F072F9C8EB481005EB40100090E02050
:103740001F238222102103F067F9F0201F23822219
:103750001021009403F060F9C7EB471005EB40100F
:103760000090F7201F238222102103F055F900F06A
:103770001FBA481D80B270845021B0FBFCF2019149
:103780004AF2D73101FB0011890DA7FB01C3DB0809
:103790005B4203EB830301EB430189B204914CF6D6
:1037A000CD414143C90CA7FB01C3DB085B4203EBDE
:1037B000830301EB430189B20391A7FB0031C908E0
:1037C000494201EB810100EB410080B20290C2EB63
:1037D000421005EB401000901F233C22102101985D
:1037E00003F01AF904991F23C1EB411005EB4010B7
:1037F000009040463C22102103F00EF903991F234C
:10380000C1EB411005EB4010009048463C221021CE
:1038100003F002F902981F23C0EB401005EB4010A3
:10382000009050463C22102103F0F6F8718C4FF4C2
:103830007A70414341F2A550B1FBF0F080B24AF2F8
:10384000D73101FB00118A0D4CF6CD414143C90C23
:10385000A7FB01C3DB085B4203EB830301EB4301DE
:103860001FFA81F8A7FB0031C908494201EB810129
:1038700000EB410087B2C2EB421005EB4010009014
:1038800058461F233C22102103F0C6F8C8EB48100D
:1038900005EB40100090E0201F233C22102103F094
:1038A000BBF8F0201F233C221021009403F0B4F851
:1038B000C7EB471005EB40100090F7201F233C2278
:1038C000102103F0A9F800F073B9002A74D005287C
:1038D000C0F06E81401F80B2F0835021B0FBFCF23B
:1038E00001914AF2D73101FB0011890DA7FB01C3F9
:1038F000DB085B4203EB830301EB430189B20491D4
:103900004CF6CD414143C90CA7FB01C3DB085B4228
:1039100003EB830301EB430189B20391A7FB003161
:10392000C908494201EB810100EB410080B20290DD
:10393000C2EB421005EB401000901F2382221021A1
:10394000019803F069F804991F23C1EB411005EBBE
:103950004010009040468222102103F05DF8039948
:103960001F23C1EB411005EB401000904846822216
:10397000102103F051F802981F23C0EB401005EB13
:103980004010009050468222102103F045F8F08B41
:103990004FF47A71414341F2A550B1FBF0F080B28F
:1039A0004AF2D73101FB00118A0D06E00000002029
:1039B000CDCCCCCC7C8E00083FE04CF6CD414143D1
:1039C000C90CA7FB01C3DB085B4203EB830301EBDC
:1039D00043011FFA81F8A7FB0031C908494201EBF6
:1039E000810100EB410087B2C2EB421005EB4010B1
:1039F000009058461F238222102103F00DF8C8EBD7
:103A0000481005EB40100090E0201F238222102177
:103A100003F002F8F0201F2382221021009402F00C
:103A2000FBFFC7EB471005EB40100090F7201F236A
:103A30008222102102F0F0FFBAE005297DD3481F51
:103A400080B270845021B0FBFCF201914AF2D73170
:103A500001FB0011890DA7FB01C3DB085B4203EBEF
:103A6000830301EB430189B204914CF6CD414143FC
:103A7000C90CA7FB01C3DB085B4203EB830301EB2B
:103A8000430189B20391A7FB0031C908494201EB08
:103A9000810100EB410080B20290C2EB421005EBC5
:103AA000401000901F233C221021019802F0B4FF27
:103AB00004991F23C1EB411005EB401000904046D4
:103AC0003C22102102F0A8FF03991F23C1EB4110F3
:103AD00005EB4010009048463C22102102F09CFF6C
:103AE00002981F23C0EB401005EB40100090504699
:103AF0003C22102102F090FF708C4FF47A71414308
:103B000041F2A550B1FBF0F080B24AF2D73101FB8F
:103B100000118A0D4CF6CD414143C90CA7FB01C3EE
:103B2000DB085B4203EB830301EB43011FFA81F8DF
:103B3000A7FB0031C908494200E039E001EB8101EF
:103B400000EB410087B2C2EB421005EB4010009041
:103B500058461F233C22102102F05EFFC8EB48109C
:103B600005EB40100090E0201F233C22102102F0C2
:103B700053FFF0201F233C221021009402F04CFF41
:103B8000C7EB471005EB40100090F7201F233C22A5
:103B9000102102F041FF0BE0FEF7A4FF0020B075FA
:103BA00004F0ACF9718CF08B03F06CFE04F0C6F9F4
:103BB0000020F07305B0BDE8F08F000038B500209C
:103BC000042100908802FCF712FC044603F0D6FEA4
:103BD00000216846C1F10302491C8454240AC9B279
:103BE0000429F7D39DF80000552804BF9DF8010073
:103BF000AA2807D19DF80200AA2804BF9DF8030057
:103C0000552825D04FF055014FF48050FCF7CEFCDD
:103C1000AA2141F20100FCF7C9FCAA2141F20200ED
:103C2000FCF7C4FC552141F20300FCF7BFFC02F095
:103C30009DF84FF47A710C4602224FF44060FCF775
:103C40007BFC0222214640F60240FCF775FC38BDA1
:103C50000A48017A323964299FBFC17A0729817ADB
:103C6000052905D8407A1E2802D3B42898BF38BD4C
:103C700002F07CF803F082FE38BD000074010020E1
:103C8000002140F2DE320020401C2828FCD3491CD1
:103C90009142F8D370470020401C2828FCD370477D
:103CA0000020401C5028FCD3704700002DE9F84F3D
:103CB000454CDFF8188120466178DFF81491DFF871
:103CC00014A1C07B002569B1434FDFF810B14BF65A
:103CD0006366012920D0DFF80881022952D0032928
:103CE0005FD06DE025286BD10520E07598F80B00BA
:103CF00002F092F89AF8001009EBC000405C3949D4
:103D000031F81000C0EB0010800060620020FEF768
:103D1000DFFD0120207353E0252803D032480068DE
:103D2000E8B14DE0002201213048FDF74EFB0020B4
:103D3000FCF760FC972358224FF4967114200096EC
:103D400001F07CFE17236C22F0212820009702F05E
:103D500063FE0A20E0750020FEF7BAFD30E0022085
:103D6000607004F0CBF898F80B0002F055F89AF860
:103D7000001009EBC000405C1A4931F81000CBF884
:103D800000000BE02528CDD0DBF8000040B903206F
:103D9000607004F0B3F8CA20C8F8000004F0CEF850
:103DA0000EE02528BED0D8F8000048B90020FCF766
:103DB00021FC00206070024601210C48FDF705FB44
:103DC000E573BDE8F88F00000000002074010020BA
:103DD00008010020280000202AAF0608C8000020A3
:103DE000CC00002072DE0608C40000200000024063
:103DF000F0B5B54E83B00025307B28B1706A18B994
:103E00000120FEF765FD3573F07B24283FD0AF49D4
:103E100041F2A204082841D0322876D01D2800F0B3
:103E2000BD80AB4C102800F0D880112800F0DE8057
:103E3000122800F0E780132800F0F080172800F027
:103E4000F980182800F00281192800F00B811A2847
:103E500000F01181282818BF292800F016812A288F
:103E600018BF2B2800F011812C2818BF2D2800F036
:103E70000C812E2818BF2F2800F00781954F0A28A3
:103E800000F008810D2800F0128100F000B9FCF765
:103E9000C1FBFEF727FEB57500F0F9B8C87A10F03F
:103EA000010F18D020F00100C8729623642221214E
:103EB0000A20009401F0C2FD874800901E2364226E
:103EC00017210A2002F0A8FD844840235A2223210A
:103ED0000090372037E040F00100C8728048009021
:103EE0003223642217210A2002F096FD5A229A23D7
:103EF00011463720009401F0A1FD7A482D235A2263
:103F00002321009037201EE0FFE7B07DF0B1C87A92
:103F100010F0020F29D020F00200C872E223AA227A
:103F20005C213720009401F089FD6F482523009023
:103F3000AA221946372002F06FFD6C480090382302
:103F4000AA222121052002F067FD88E00020F075FB
:103F5000307B002818BF3573706A20B103F0CEFFA4
:103F6000756203F0EBFF012034E040F00200C872FC
:103F70005F4800903823AA222521372002F04CFD0B
:103F8000E223AA2226210520009401F057FD59487A
:103F90002523AA22212100900520D4E7706A48B188
:103FA00055A0D0E90010CDE900100621684603F0C5
:103FB000F7F96CE00920F0750120707003F09EFFA6
:103FC0004F494FF44970086003F0B8FF0120FCF737
:103FD00011FB0220FEF77CFC59E00020FEF7C8FC34
:103FE00001210846FEF71EFC257038E00020FEF790
:103FF000BFFC01210220FEF715FC0120207000F01B
:1040000015F944E00020FEF7B3FC01210320FEF780
:1040100009FC0220207000F009F938E00020FEF7CA
:10402000A7FC01210420FEF7FDFB0320207000F017
:10403000FDF82CE00020FEF79BFC01210520FEF797
:10404000F1FB0420207000F0F1F820E00020FEF7E2
:104050008FFC01210620FEF7E5FB0520207000F013
:10406000E5F814E00020FEF783FC01210720FEF7AD
:10407000D9FB062007E00020FEF77AFC012108208A
:10408000FEF7D0FB07202070E9E7FCF7C3FAF573D1
:1040900003B0F0BDC87A01F0BFFE217807EBC00085
:1040A000425C1A2A38BF521CD9D24254D7E7C87A88
:1040B00001F0B2FE217807EBC000425C002A18BF75
:1040C000521EF2D1CBE7000000000020800100204A
:1040D00029000020380100208A41020854C9020842
:1040E0008E380208EE4602083C530208A877020800
:1040F000EE5D02081E6E0208776169740D0A000009
:10410000C40000202DE9F84F3F48DC269625C07AF0
:1041100001F082FE3D4901EBC0003D490978405C59
:104120003C4931F810104FF47A70B1FBF0F2D4B280
:10413000B1FBF0F200FB121303EBC30000EB4310E2
:10414000C0F307373448C823A0FB012040096FF0B3
:1041500018025043314A01EB800082FB002082109C
:10416000A2EBE07000F0FF082D48A0FB0120C00882
:10417000404200EB800001EB400000F0FF0A41F2FA
:10418000A200009091224FF4A071D92001F056FCBA
:10419000DFF89090202309EB842000902A4610211C
:1041A000304602F039FC09F5205000901F232A46C2
:1041B0001021EC2002F030FC09EB87200090202336
:1041C0002A461021F32002F027FC09EB88200090FA
:1041D00020232A46102140F2031002F01DFC09EBB7
:1041E0008A20009020232A46102140F2131002F06A
:1041F00013FC0D4800901F232A46102140F2231083
:1042000002F00AFCBDE8F88F7401002008010020CC
:104210002800002072DE06081F85EB51676666667F
:10422000CDCCCCCC90C9000894BD02082DE9F84F44
:104230003F48DC269625C07A01F0EEFD3D4901EBB2
:10424000C0003D490978405C3C4931F810104FF4FA
:104250007A70B1FBF0F2D4B2B1FBF0F200FB1213B2
:1042600003EBC30000EB4310C0F307373448C82307
:10427000A0FB012040096FF018025043314A01EBC6
:10428000800082FB00208210A2EBE07000F0FF08AB
:104290002D48A0FB0120C008404200EB800001EB4C
:1042A000400000F0FF0A41F2A200009091224FF47A
:1042B000A071D92001F0C2FBDFF89090202309EB18
:1042C000842000902A461021304602F0A5FB09F513
:1042D000205000901F232A461021EC2002F09CFB66
:1042E00009EB8720009020232A461021F32002F0BA
:1042F00093FB09EB8820009020232A46102140F2EE
:10430000031002F089FB09EB8A20009020232A4643
:10431000102140F2131002F07FFB0D4800901F2384
:104320002A46102140F2231002F076FBBDE8F88FF8
:1043300080010020380100202900002072DE0608DC
:104340001F85EB5167666666CDCCCCCC90C9000862
:1043500094BD020808B5052830D2DFE800F0030C50
:10436000151E2700224800901D230F223821F4201B
:1043700002F052FB22E01F4800901D230F2238213B
:10438000F42002F049FB19E01B4800901D230F2286
:104390003821F42002F040FB10E0184800901D2363
:1043A0000F223821F42002F037FB07E01448009078
:1043B0001D230F223821F42002F02EFB1148407AF1
:1043C00001280BD041F2A20000902C230F2240F2D2
:1043D0003F1140F2311001F031FB08BD0A48009056
:1043E0001D230F220E2140F2311002F015FB08BDF3
:1043F000D62B0208261F020876120208C6050208FC
:1044000016F90108000000202C4706082DE9F04F9E
:1044100089B00020E74A0190029003900490059033
:10442000117801AB142928BF517844D200290AD948
:10443000A1EB000C94449CF801C003F800C0401CA0
:10444000C0B28142F4D841F2A200FEF711F8DA4876
:10445000009020230A227921642002F0DDFA45F63B
:10446000AA20009030232E224FF4A071002001F0EA
:10447000E5FAD34DD14805F53A6105F5F866C079FE
:10448000079105F57861069142F2E0216F1805F574
:104490009B5B05F5BA5A05F5D95905F5F85805F5A8
:1044A0007874052824BF09B0BDE8F08FDFE800F07C
:1044B000134C87D3FE008142A1EB000C94448CBFC7
:1044C0009CF801C09CF815C003F800C0401CC0B2A5
:1044D0001428F0D3B7E71F233A2210211E2000949E
:1044E00002F09AFA9DF804203A21482000F06AF977
:1044F0001F236A2210211E20009602F08DFA9DF8DB
:1045000005206A21482000F05DF9079800901F23DC
:104510009A2210211E2002F07FFA9DF806209A218F
:10452000482000F04FF9069800901F23CA2210215E
:104530001E2002F071FA9DF80720CA21482000F0E1
:1045400041F909B0BDE8F08F1F233A2210211E2047
:10455000CDF800B002F060FA9DF808203A2148201A
:1045600000F030F91F236A2210211E20CDF800A090
:1045700002F052FA9DF809206A21482000F022F941
:104580001F239A2210211E20CDF8009002F044FA39
:104590009DF80A209A21482000F014F91F23CA220E
:1045A00010211E20CDF8008002F036FA9DF80B2075
:1045B000CA21482000F006F909B0BDE8F08F1F239A
:1045C0003A2210211E20009702F026FA9DF80C20B6
:1045D0003A21482000F0F6F81F236A2210211E20FD
:1045E000009402F019FA1F236A2210212E20009550
:1045F00002F012FA9DF80D206A21482000F0E2F83E
:104600001F239A2210211E20009402F005FA1F2376
:104610009A2210212E20009402F0FEF99DF80E201F
:104620009A21482000F0CEF81F23CA2210211E2014
:10463000009402F0F1F91F23CA2210212E200096C7
:1046400002F0EAF99DF80F20CA21482000F0BAF8DC
:1046500009B0BDE8F08F1F233A2210211E200094DC
:1046600002F0DAF9079800901F233A2210212E2039
:1046700002F0D2F99DF810203A21482000F0A2F86B
:104680001F236A2210211E20009402F0C5F906980B
:1046900000901F236A2210212E2002F0BDF99DF800
:1046A00011206A21482000F08DF800E02CE01F2343
:1046B0009A2210211E20009402F0AEF91F239A22A4
:1046C00010212E20CDF800B002F0A6F99DF812209E
:1046D0009A21482000F076F81F23CA2210211E20BC
:1046E000009402F099F91F23CA2210212E20CDF840
:1046F00000A002F091F99DF81320CA21482000F093
:1047000061F809B0BDE8F08F1F233A2210211E2066
:10471000009402F081F91F233A2210212E20CDF8B7
:10472000009002F079F99DF814203A21482000F019
:1047300049F81F236A2210211E20009402F06CF910
:104740001F236A2210212E20CDF8008002F064F988
:104750009DF815206A21482000F034F81F239A2282
:1047600010211E20009402F057F91F239A221021D5
:104770002E20009702F050F99DF816209A2148202B
:1047800000F020F81F23CA2210211E20009602F0FC
:1047900043F91F23CA2210212E20009502F03CF974
:1047A0009DF81720CA21482000F00CF809B0BDE898
:1047B000F08F00008C0100207E8D03080000002097
:1047C0007C8E00082DE9F74F044600F11F05624872
:1047D00082B004F1100904F1200804F1300704F15B
:1047E0004F06A0F6047AA0F2827B072A24BF05B008
:1047F000BDE8F08FDFE802F01404172A317184005D
:1048000056481F23009019462046039A02F004F9E7
:10481000534800901F23A8B21946039A02F0FCF8EF
:1048200005B0BDE8F08F4F481F2300901946204681
:10483000039A02F0F1F84A4800901F23A8B21946E3
:10484000039A02F0E9F805B0BDE8F08F464820234E
:1048500000903D212046039A4DE000901F23102137
:104860002046039A02F0D8F8404800901FFA89F0D9
:104870001F231021039A02F0CFF83D4800901FFA41
:1048800088F01F231021039A02F0C6F839480090DF
:104890001F23B8B21946039A02F0BEF836480090BA
:1048A0001F23B0B21946039A02F0B6F804F16E0065
:1048B0001F2380B2CDF800A01946039A02F0ACF88D
:1048C00004F18D001F2380B2CDF800B01946039A81
:1048D00002F0A2F805B0BDE8F08F1F23CDF800A0CC
:1048E00019462046039A02F097F81F23A8B2CDF884
:1048F00000B01946039A02F08FF805B0BDE8F08FBA
:1049000000901F2310212046039A02F085F81B48CF
:1049100000901FFA89F01F231021039A02F07CF8FF
:10492000134800901FFA88F01F231021039A02F009
:1049300073F81F23B8B2CDF800A01946039A02F00D
:104940006BF81F23B0B2CDF800B01946039A02F0FD
:1049500063F805B0BDE8F08FFE5701087023010829
:1049600074320108F22A0108DE5B01083C96000857
:104970007C8E0008F6390108784101085C92000835
:104980002DE9F04F83B06F4E0F20002501902C468B
:10499000F07A01F041FA6C496F4A01EBC0006B49B3
:1049A0000978405C6A4931F81000317A4843694916
:1049B000A1FB0010C0F34F1042F21071B0FBF1F1F7
:1049C00061F307044FF47A71B0FBF1F1A2FB01C36C
:1049D000DB085B4203EB830301EB430101F0FF08BB
:1049E0004AF2D73101FB0011890DA2FB01C3DB089C
:1049F0005B4203EB830301EB4301CFB24CF6CD41A5
:104A00004143C90CA2FB01C3DB085B4203EB8303F8
:104A100068F30F2401EB430167F3174461F31F644C
:104A2000A2FB0021C908494201EB810100EB4100D2
:104A300060F3070541F2A200002200903523F52122
:104A4000104600F0FBFF454A1020DFF814B14FF08C
:104A5000200902F51B564FF0300AB8F1000F40D084
:104A6000C8EB481102EB4111174600911F2310219A
:104A7000019A01F0D1FFC4F30740C0EB401007EBEF
:104A80004010009048461F231021019A01F0C4FFF6
:104A9000200EC0EB401007EB4010009050461F2343
:104AA0001021019A01F0B8FF402020230096102128
:104AB000019A01F0B1FFC5EB451007EB40100090E3
:104AC00047201F231021019A01F0A6FF24230F2263
:104AD00072217120CDF800B001F09EFF03B0BDE857
:104AE000F08FC7EB471102EB4111174600911F23CE
:104AF0001021019A01F090FF200EC0EB401007EB4F
:104B00004010009048461F231021019A01F084FFB5
:104B10005046202300961021019A01F07DFFC5EB3D
:104B2000451007EB4010009037201F231021019AF9
:104B300001F072FF24230F2272216120CDF800B012
:104B4000CAE70000740100200801002028000020AE
:104B500072DE06081F85EB51CDCCCCCC7C8E0008D4
:104B6000188602082DE9F04F83B041F2A200FDF74C
:104B70007FFCC24F50200190788C4FF47A71B0FBCB
:104B8000F1F24AF2D73900FB0991BD4C890DA4FB23
:104B900001C3DB085B4203EB830301EB43018EB2ED
:104BA0004CF6CD414143C90CA4FB01C3DB085B4279
:104BB00003EB830301EB43018DB2A4FB0031C90871
:104BC000494201EB810100EB41001FFA80FAC2EB80
:104BD0004210DFF8B0821F2308EB401000903C2207
:104BE0001021019801F018FFC6EB461008EB4010A9
:104BF00000901F233C221021602001F00DFFC5EB27
:104C0000451008EB401000901F233C22102170201B
:104C100001F002FFCAEB4A1008EB401000901F237E
:104C20003C221021802001F0F7FE974800902523B8
:104C30003C222E21902001F0EFFE798C4FF47A7007
:104C4000414341F2A550B1FBF0F080B2494601FB6F
:104C500000118A0D4CF6CD414143C90CA4FB01C3A0
:104C6000DB085B4203EB830301EB43018DB2A4FB42
:104C70000031C908494201EB810100EB410086B2D5
:104C8000C2EB421008EB401000901F233C22102181
:104C9000D02001F0C1FEC5EB451008EB401000909C
:104CA0001F233C221021E02001F0B6FE08F51B5521
:104CB0001F233C221021F020009501F0ADFEC6EB31
:104CC000461008EB401000901F233C221021F720D3
:104CD00001F0A2FE797C6D4800294FF01603009088
:104CE00000F0BD8084220D21282001F095FE41F2C4
:104CF000A200009054233E223521282000F09EFE81
:104D00005E4F4FF47A71F88BB0FBF1F24AF2D73173
:104D100001FB0091890DA4FB01C3DB085B4203EB9F
:104D2000830301EB43011FFA81FA4CF6CD41414365
:104D3000C90CA4FB01C3DB085B4203EB830301EB5B
:104D400043018EB2A4FB0031C908494201EB810145
:104D500000EB41001FFA80FBC2EB421008EB401051
:104D600000901F2382221021019801F055FECAEB0A
:104D70004A1008EB4010009060201F23822210216F
:104D800001F04AFEC6EB461008EB40100090702080
:104D90001F238222102101F03FFECBEB4B1008EBCA
:104DA0004010009080201F238222102101F034FE49
:104DB00037480090242390208222194601F02CFECF
:104DC000F98B4FF47A70414341F2A550B1FBF0F0FA
:104DD00080B24AF2D73101FB00918A0D4CF6CD41E9
:104DE0004143C90CA4FB01C3DB085B4203EB830313
:104DF00001EB43018EB2A4FB0031C908494201EB2B
:104E0000810100EB410084B2C2EB421008EB40107C
:104E10000090D0201F238222102101F0FDFDC6EB5F
:104E2000461008EB40100090E0201F238222102142
:104E300001F0F2FDF0201F2382221021009501F0E5
:104E4000EBFDC4EB441008EB40100090F7201F234B
:104E50008222102101F0E0FD03B0BDE8F08F3E2278
:104E60000D21282001F0D8FD41F2A20000909A23E4
:104E700084223521282000F0E1FD41E700000020D8
:104E8000CDCCCCCC7C8E000828A602084CE70308C9
:104E900074B302082DE9F84F41F2A200FDF7E8FAD9
:104EA0007D4800901F230F227921642001F0B4FD7A
:104EB00045F6AA29392337224FF4A0710020CDF8F6
:104EC000009000F0BBFD754800901F23432279211C
:104ED000192001F0A1FDDFF8C8A142F21071714D57
:104EE000DAF80000714CB0FBF1F1CAB24FF47A71FC
:104EF000B0FBF1F1A5FB01C3DB085B4203EB8303CD
:104F000001EB43086849A1FB00314909A5FB01C336
:104F1000DB085B4203EB830301EB4307A5FB003196
:104F2000C908A5FB01C3DB085B4203EB830301EB6C
:104F30004306494201EB810100EB410B04EB822067
:104F40000090202370221021B42001F065FD04EBB5
:104F500088200090202370221021C42001F05CFDE5
:104F600004EB87200090202370221021D42001F030
:104F700053FD04EB86200090202370221021E420B2
:104F800001F04AFD04EB8B200090202370221021B9
:104F9000F42001F041FD46480090202370221F219B
:104FA0004FF48A7001F038FD932391224FF4A071E1
:104FB0000020CDF8009000F041FD3E4800902323F2
:104FC0009D227B21192001F027FDDAF8040042F22E
:104FD0001071B0FBF1F1CBB24FF47A71B0FBF1F18B
:104FE000A5FB01C2D208524202EB820201EB42064B
:104FF0002D49A1FB00214909A5FB01C2D20852425B
:1050000002EB820201EB4207A5FB0021C908A5FBC8
:1050100001C2D208524202EB820201EB4205494230
:1050200001EB810100EB410804EB83200090202379
:10503000CA2210214B2001F0EFFC04EB86200090E7
:105040002023CA2210215B2001F0E6FC04EB87201C
:1050500000902023CA2210216B2001F0DDFC04EB1C
:10506000852000902023CA2210217B2001F0D4FC4F
:1050700004EB882000902023CA2210218B2001F00D
:10508000CBFC0D4800902523CA227C21BB2001F0D7
:10509000C3FCBDE8F88F0000D4DA02086A290408CE
:1050A00074010020CDCCCCCC1F85EB5190C90008F9
:1050B000906A0408C8070408B84604082DE9F84FA8
:1050C000044641F2A200FDF7D3F9FE4900911F23E7
:1050D0000A227921642001F09FFC45F6AA2630239C
:1050E0002E224FF4A0710020009600F0A7FCF94D8D
:1050F0002000DFF8D483F54FDFF8D4934BF66361DB
:1051000005F51B5400F0E280DFF8CCA3DFF8CCB348
:10511000012800F0BD81022818BFBDE8F88FF023F8
:10512000009190224FF4A071002000F087FC202312
:105130003A2279212620CDF800A001F06DFC98F8E4
:10514000090000EBC00101EB40110A0BCD2110FB5F
:1051500001F1C90AA7FB01C3DB085B4203EB830330
:1051600001EB430101F0FF09A7FB0031C9084942E7
:1051700001EB810100EB410000F0FF0AC2EB42109D
:1051800005EB401000901F233A221021BF2001F0B0
:1051900043FCC9EB491005EB401000901F233A2255
:1051A0001021CF2001F038FCCAEB4A1005EB40106B
:1051B00000901F233A221021DF2001F02DFC1F2335
:1051C0003A221021EF20CDF800B001F025FC98F82C
:1051D000080000EBC00101EB40114FEA113ACD216C
:1051E00010FB01F1C90AA7FB0132D208524202EBBF
:1051F000820201EB420101F0FF09A7FB0021C9086F
:10520000494201EB810100EB4100C7B260235E22FD
:105210004FF4A0710020009600F010FCB0486A2204
:1052200000901F231146262001F0F6FBCAEB4A101E
:1052300005EB401000901F236A221021C02001F0CE
:10524000EBFB20236A221021D020009401F0E4FB24
:10525000C9EB491005EB401000901F236A22102172
:10526000D72001F0D9FBC7EB471005EB40100090A9
:105270001F236A221021E72001F0CEFB90238E220B
:105280004FF4A0710020009600F0D8FB95480090E4
:105290001F23B122B521262001F0BEFB98F80B0098
:1052A00010F0040F00F0D8818F4800901F239E2239
:1052B0005B21DF2001F0B0FB8C4800901F23CE2241
:1052C0005B21DF2001F0A8FBBDE8F88F009160238F
:1052D00030224FF4A071002000F0B0FB8448009011
:1052E00020233A227921262001F096FB98F8090024
:1052F00000EBC00101EB40110A0BCD2110FB01F1C5
:10530000C90AA7FB01C3DB085B4203EB830301EB84
:10531000430101F0FF0AA7FB0031C908494201EB34
:10532000810100EB410000F0FF0B09EB82200090AF
:1053300020233A221021BF2001F06EFB09EB8A20C6
:10534000009020233A221021CF2001F065FB09EBC9
:105350008B20009020233A221021DF2001F05CFBFB
:105360006448009020233A221021EF2001F054FBE2
:1053700060235E224FF4A0710020009600F05EFBD7
:1053800098F8080000EBC00101EB40114FEA113A18
:10539000CD2110FB01F1C90AA7FB0132D20852420C
:1053A00002EB820201EB420101F0FF09A7FB0021A1
:1053B000C908494201EB810100EB4100C7B24848EE
:1053C0006A2200901F231146262001F025FBCAEB1C
:1053D0004A1005EB401000901F236A221021C020C4
:1053E00001F01AFB20236A221021D020009401F042
:1053F00013FBC9EB491005EB401000901F236A22F4
:105400001021D72001F008FBC7EB471005EB401037
:1054100000901F236A221021E72001F0FDFA90235B
:105420008E224FF4A0710020009600F007FB324856
:1054300000901F23B122B521262001F0EDFA98F843
:105440000B0010F0040F11D12C4800901F239E2256
:105450005B21DF2001F0E0FA294800901F23CE22D3
:105460005B21DF2001F0D8FABDE8F88F25480090D5
:105470001F239E225B21DF2001F0CEFA22480090FC
:105480001F23CE225B21DF2001F0C6FABDE8F88F92
:105490000091902360224FF4A071002000F0CEFA1A
:1054A00020233A2279212620CDF800A001F0B4FA79
:1054B00098F8090000EBC00101EB40110A0BCD2167
:1054C00024E0000014AF040874010020CDCCCCCC43
:1054D00070F500087C8E000862CC040874C50208D0
:1054E000E2080508E46805088ED70508621A060870
:1054F000A2EA040874C102080E3D0508BA94050822
:105500004EEE0508C4AA05085804060810FB01F170
:10551000C90AA7FB01C3DB085B4203EB830301EB72
:105520004301CCB2A7FB0031C908494201EB81011C
:1055300000EB410000F0FF0AC2EB421005EB401007
:1055400000901F233A221021BF2001F065FAC4EB1E
:10555000441005EB401000901F233A221021CF2069
:1055600001F05AFACAEB4A1005EB401000901F23D5
:105570003A221021DF2001F04FFA1F233A22102196
:10558000EF20CDF800B001F047FA98F8080000EBE2
:10559000C00101EB40110C0BCD2110FB01F1C90A38
:1055A000A7FB0132D208524202EB820201EB420118
:1055B000CDB2A7FB0021C908494201EB810100EBF4
:1055C0004100C7B260235E224FF4A0710020009614
:1055D00000F034FA29486A2200901F231146262041
:1055E00001F01AFA09EB8420009020236A2210218E
:1055F000C02001F011FA2248009020236A221021D5
:10560000D02001F009FA09EB8520009020236A22BE
:105610001021D72001F000FA09EB87200090202309
:105620006A221021E72001F0F7F990238E224FF42F
:10563000A0710020009600F001FA124800901F238C
:10564000B122B521262001F0E7F998F80B0010F0FF
:10565000040F7FF40BAFF7E60B4800901F239E2248
:105660005B21DF2001F0D8F9084800901F23CE22EB
:105670005B21DF2001F0D0F9BDE8F88F8E2205080C
:10568000701D01080E3D050884C105082231060879
:10569000F8B5044641F2A200FCF7EAFE3848009053
:1056A00020230F227921642001F0B6F9354F45F609
:1056B000AA254BF66366002C32D0012C18BFF8BD2A
:1056C000392337224FF4A0710020009500F0B6F97D
:1056D000ED23952240F27B110020009600F0AEF9F8
:1056E0001623B5220D217220009701F095F9264866
:1056F0001F23009059221946902001F08DF9932321
:1057000091224FF4A0710020009500F097F91F48F6
:1057100000902023B3221F21902001F07DF9F8BDD5
:10572000392337224FF4A0710020009500F086F94C
:1057300093233B224FF4A0710020009600F07EF9E5
:1057400016235B220D217220009701F065F91048A5
:105750000090202359221F21902001F05DF993230E
:1057600091224FF4A0710020009500F067F90948DC
:105770001F230090B3221946902001F04DF9F8BD87
:10578000507204084CE703085098040854A7040812
:1057900090900408D29F04082DE9F84F044641F286
:1057A000A200FCF765FE9D4FDFF87492DFF874A24B
:1057B000DFF874824BF6636645F6AA25002C52D0BA
:1057C000AAF57250012C7DD0022C00F0DE80032C53
:1057D00018BFBDE8F88F202300900F2279216420A4
:1057E00001F01AF9392337224FF4A07100200095F7
:1057F00000F024F9EC23AF224FF4A07100200096B2
:1058000000F01CF91623C7220D214620009701F055
:1058100003F91E234B2279216420CDF8009001F07A
:10582000FBF8752373224FF4A0710020009500F05F
:1058300005F91F23872279216420CDF800A001F00B
:10584000EBF8B123AF224FF4A0710020009500F0D7
:10585000F5F8764800902023C3227921642001F0D6
:10586000DBF8BDE8F88F052238239101002000966F
:1058700000F0E4F8162313220D214620009701F0D2
:10588000CBF86B48009020230F227921642001F08F
:10589000C3F8392337224FF4A0710020009500F09F
:1058A000CDF81F234B2279216420CDF8009001F020
:1058B000B3F8752373224FF4A0710020009500F017
:1058C000BDF800E019E01F23872279216420CDF87C
:1058D00000A001F0A1F8B123AF224FF4A071002085
:1058E000009500F0ABF81F23C32279216420CDF886
:1058F000008001F091F8BDE8F88F009020230F227E
:105900007921642001F088F8392337224FF4A071FF
:105910000020009500F092F8742337224FF4A07114
:105920000020009600F08AF816234F220D21462011
:10593000009701F071F83F48009020234B22792115
:10594000642001F069F8752373224FF4A0710020E0
:10595000009500F073F81F23872279216420CDF889
:1059600000A001F059F8B123AF224FF4A07100203C
:10597000009500F063F81F23C32279216420CDF83D
:10598000008001F049F8BDE8F88F009020230F2235
:105990007921642001F040F8392337224FF4A071B7
:1059A0000020009500F04AF8B02373224FF4A07154
:1059B0000020009600F042F816238B220D2146208D
:1059C000009701F029F81E234B2279216420CDF89D
:1059D000009001F021F8752373224FF4A07100208C
:1059E000009500F02BF8144800902023872279219D
:1059F000642001F011F8B123AF224FF4A071002010
:105A0000009500F01BF81F23C32279216420CDF8F4
:105A1000008001F001F8BDE8F88F00004CE70308B2
:105A2000F0510308A2340308BEAB030888E9030859
:105A3000621603083E6F03080CC903082DE9F047FE
:105A400090461D460F464A1E81465B1E4146089EF3
:105A5000FCF7C2FE2C20FDF7F7FCA7EB0900A5EB35
:105A60000801002400FB01F5002D98BFBDE8F08778
:105A70003046FCF7DDFF641CA542F9D8BDE8F0878D
:105A80002DE9F041174E164C0746316860784AF60A
:105A9000AA250D60394600F60200FAF787FD607806
:105AA000A11C47546078401CC0B26070142824BF09
:105AB000002060702078401CC0B22070142824BFE1
:105AC00014202070C1B24FF40060FAF76FFD6178C6
:105AD00040F60100FAF76AFD30680560BDE8F08124
